{
  "_format": "hh-sol-artifact-1",
  "contractName": "WalletPlanner",
  "sourceName": "contracts/WalletPlanner.sol",
  "abi": [
    {
      "inputs": [
        {
          "internalType": "address",
          "name": "_defaultAdmin",
          "type": "address"
        },
        {
          "internalType": "string",
          "name": "_name",
          "type": "string"
        },
        {
          "internalType": "string",
          "name": "_symbol",
          "type": "string"
        },
        {
          "internalType": "address",
          "name": "_royaltyRecipient",
          "type": "address"
        },
        {
          "internalType": "uint128",
          "name": "_royaltyBps",
          "type": "uint128"
        }
      ],
      "stateMutability": "nonpayable",
      "type": "constructor"
    },
    {
      "inputs": [],
      "name": "ApprovalCallerNotOwnerNorApproved",
      "type": "error"
    },
    {
      "inputs": [],
      "name": "ApprovalQueryForNonexistentToken",
      "type": "error"
    },
    {
      "inputs": [],
      "name": "ApprovalToCurrentOwner",
      "type": "error"
    },
    {
      "inputs": [],
      "name": "ApproveToCaller",
      "type": "error"
    },
    {
      "inputs": [],
      "name": "BalanceQueryForZeroAddress",
      "type": "error"
    },
    {
      "inputs": [
        {
          "internalType": "uint256",
          "name": "index",
          "type": "uint256"
        }
      ],
      "name": "BatchMintInvalidBatchId",
      "type": "error"
    },
    {
      "inputs": [
        {
          "internalType": "uint256",
          "name": "tokenId",
          "type": "uint256"
        }
      ],
      "name": "BatchMintInvalidTokenId",
      "type": "error"
    },
    {
      "inputs": [
        {
          "internalType": "uint256",
          "name": "batchId",
          "type": "uint256"
        }
      ],
      "name": "BatchMintMetadataFrozen",
      "type": "error"
    },
    {
      "inputs": [],
      "name": "ContractMetadataUnauthorized",
      "type": "error"
    },
    {
      "inputs": [],
      "name": "InvalidQueryRange",
      "type": "error"
    },
    {
      "inputs": [],
      "name": "MintToZeroAddress",
      "type": "error"
    },
    {
      "inputs": [],
      "name": "MintZeroQuantity",
      "type": "error"
    },
    {
      "inputs": [],
      "name": "OnlySimulatedBackend",
      "type": "error"
    },
    {
      "inputs": [],
      "name": "OwnableUnauthorized",
      "type": "error"
    },
    {
      "inputs": [],
      "name": "OwnerQueryForNonexistentToken",
      "type": "error"
    },
    {
      "inputs": [
        {
          "internalType": "uint256",
          "name": "max",
          "type": "uint256"
        },
        {
          "internalType": "uint256",
          "name": "actual",
          "type": "uint256"
        }
      ],
      "name": "RoyaltyExceededMaxFeeBps",
      "type": "error"
    },
    {
      "inputs": [
        {
          "internalType": "address",
          "name": "recipient",
          "type": "address"
        }
      ],
      "name": "RoyaltyInvalidRecipient",
      "type": "error"
    },
    {
      "inputs": [],
      "name": "RoyaltyUnauthorized",
      "type": "error"
    },
    {
      "inputs": [],
      "name": "TransferCallerNotOwnerNorApproved",
      "type": "error"
    },
    {
      "inputs": [],
      "name": "TransferFromIncorrectOwner",
      "type": "error"
    },
    {
      "inputs": [],
      "name": "TransferToNonERC721ReceiverImplementer",
      "type": "error"
    },
    {
      "inputs": [],
      "name": "TransferToZeroAddress",
      "type": "error"
    },
    {
      "inputs": [],
      "name": "URIQueryForNonexistentToken",
      "type": "error"
    },
    {
      "anonymous": false,
      "inputs": [
        {
          "indexed": true,
          "internalType": "address",
          "name": "owner",
          "type": "address"
        },
        {
          "indexed": true,
          "internalType": "address",
          "name": "approved",
          "type": "address"
        },
        {
          "indexed": true,
          "internalType": "uint256",
          "name": "tokenId",
          "type": "uint256"
        }
      ],
      "name": "Approval",
      "type": "event"
    },
    {
      "anonymous": false,
      "inputs": [
        {
          "indexed": true,
          "internalType": "address",
          "name": "owner",
          "type": "address"
        },
        {
          "indexed": true,
          "internalType": "address",
          "name": "operator",
          "type": "address"
        },
        {
          "indexed": false,
          "internalType": "bool",
          "name": "approved",
          "type": "bool"
        }
      ],
      "name": "ApprovalForAll",
      "type": "event"
    },
    {
      "anonymous": false,
      "inputs": [
        {
          "indexed": false,
          "internalType": "uint256",
          "name": "timestamp",
          "type": "uint256"
        },
        {
          "indexed": false,
          "internalType": "uint256",
          "name": "intentsProcessed",
          "type": "uint256"
        }
      ],
      "name": "AutomationPerformed",
      "type": "event"
    },
    {
      "anonymous": false,
      "inputs": [
        {
          "indexed": false,
          "internalType": "uint256",
          "name": "_fromTokenId",
          "type": "uint256"
        },
        {
          "indexed": false,
          "internalType": "uint256",
          "name": "_toTokenId",
          "type": "uint256"
        }
      ],
      "name": "BatchMetadataUpdate",
      "type": "event"
    },
    {
      "anonymous": false,
      "inputs": [
        {
          "indexed": false,
          "internalType": "string",
          "name": "prevURI",
          "type": "string"
        },
        {
          "indexed": false,
          "internalType": "string",
          "name": "newURI",
          "type": "string"
        }
      ],
      "name": "ContractURIUpdated",
      "type": "event"
    },
    {
      "anonymous": false,
      "inputs": [
        {
          "indexed": true,
          "internalType": "address",
          "name": "newRoyaltyRecipient",
          "type": "address"
        },
        {
          "indexed": false,
          "internalType": "uint256",
          "name": "newRoyaltyBps",
          "type": "uint256"
        }
      ],
      "name": "DefaultRoyalty",
      "type": "event"
    },
    {
      "anonymous": false,
      "inputs": [
        {
          "indexed": true,
          "internalType": "uint256",
          "name": "intentId",
          "type": "uint256"
        },
        {
          "indexed": true,
          "internalType": "address",
          "name": "user",
          "type": "address"
        },
        {
          "indexed": false,
          "internalType": "string",
          "name": "description",
          "type": "string"
        }
      ],
      "name": "IntentCreated",
      "type": "event"
    },
    {
      "anonymous": false,
      "inputs": [
        {
          "indexed": true,
          "internalType": "uint256",
          "name": "intentId",
          "type": "uint256"
        },
        {
          "indexed": true,
          "internalType": "address",
          "name": "user",
          "type": "address"
        }
      ],
      "name": "IntentExecuted",
      "type": "event"
    },
    {
      "anonymous": false,
      "inputs": [],
      "name": "MetadataFrozen",
      "type": "event"
    },
    {
      "anonymous": false,
      "inputs": [
        {
          "indexed": true,
          "internalType": "address",
          "name": "prevOwner",
          "type": "address"
        },
        {
          "indexed": true,
          "internalType": "address",
          "name": "newOwner",
          "type": "address"
        }
      ],
      "name": "OwnerUpdated",
      "type": "event"
    },
    {
      "anonymous": false,
      "inputs": [
        {
          "indexed": true,
          "internalType": "uint256",
          "name": "tokenId",
          "type": "uint256"
        },
        {
          "indexed": true,
          "internalType": "address",
          "name": "royaltyRecipient",
          "type": "address"
        },
        {
          "indexed": false,
          "internalType": "uint256",
          "name": "royaltyBps",
          "type": "uint256"
        }
      ],
      "name": "RoyaltyForToken",
      "type": "event"
    },
    {
      "anonymous": false,
      "inputs": [
        {
          "indexed": true,
          "internalType": "address",
          "name": "from",
          "type": "address"
        },
        {
          "indexed": true,
          "internalType": "address",
          "name": "to",
          "type": "address"
        },
        {
          "indexed": true,
          "internalType": "uint256",
          "name": "tokenId",
          "type": "uint256"
        }
      ],
      "name": "Transfer",
      "type": "event"
    },
    {
      "inputs": [],
      "name": "INTERVAL",
      "outputs": [
        {
          "internalType": "uint256",
          "name": "",
          "type": "uint256"
        }
      ],
      "stateMutability": "view",
      "type": "function"
    },
    {
      "inputs": [
        {
          "internalType": "address",
          "name": "to",
          "type": "address"
        },
        {
          "internalType": "uint256",
          "name": "tokenId",
          "type": "uint256"
        }
      ],
      "name": "approve",
      "outputs": [],
      "stateMutability": "nonpayable",
      "type": "function"
    },
    {
      "inputs": [
        {
          "internalType": "address",
          "name": "owner",
          "type": "address"
        }
      ],
      "name": "balanceOf",
      "outputs": [
        {
          "internalType": "uint256",
          "name": "",
          "type": "uint256"
        }
      ],
      "stateMutability": "view",
      "type": "function"
    },
    {
      "inputs": [
        {
          "internalType": "uint256",
          "name": "",
          "type": "uint256"
        }
      ],
      "name": "batchFrozen",
      "outputs": [
        {
          "internalType": "bool",
          "name": "",
          "type": "bool"
        }
      ],
      "stateMutability": "view",
      "type": "function"
    },
    {
      "inputs": [
        {
          "internalType": "address",
          "name": "_to",
          "type": "address"
        },
        {
          "internalType": "uint256",
          "name": "_quantity",
          "type": "uint256"
        },
        {
          "internalType": "string",
          "name": "_baseURI",
          "type": "string"
        },
        {
          "internalType": "bytes",
          "name": "_data",
          "type": "bytes"
        }
      ],
      "name": "batchMintTo",
      "outputs": [],
      "stateMutability": "nonpayable",
      "type": "function"
    },
    {
      "inputs": [
        {
          "internalType": "uint256",
          "name": "_tokenId",
          "type": "uint256"
        }
      ],
      "name": "burn",
      "outputs": [],
      "stateMutability": "nonpayable",
      "type": "function"
    },
    {
      "inputs": [
        {
          "internalType": "bytes",
          "name": "",
          "type": "bytes"
        }
      ],
      "name": "checkUpkeep",
      "outputs": [
        {
          "internalType": "bool",
          "name": "upkeepNeeded",
          "type": "bool"
        },
        {
          "internalType": "bytes",
          "name": "performData",
          "type": "bytes"
        }
      ],
      "stateMutability": "view",
      "type": "function"
    },
    {
      "inputs": [],
      "name": "contractURI",
      "outputs": [
        {
          "internalType": "string",
          "name": "",
          "type": "string"
        }
      ],
      "stateMutability": "view",
      "type": "function"
    },
    {
      "inputs": [
        {
          "internalType": "string",
          "name": "_description",
          "type": "string"
        },
        {
          "internalType": "uint256",
          "name": "_estimatedCost",
          "type": "uint256"
        }
      ],
      "name": "createIntent",
      "outputs": [
        {
          "internalType": "uint256",
          "name": "",
          "type": "uint256"
        }
      ],
      "stateMutability": "nonpayable",
      "type": "function"
    },
    {
      "inputs": [
        {
          "internalType": "string",
          "name": "_description",
          "type": "string"
        },
        {
          "internalType": "uint256",
          "name": "_estimatedCost",
          "type": "uint256"
        },
        {
          "internalType": "uint256",
          "name": "_executionTime",
          "type": "uint256"
        }
      ],
      "name": "createScheduledIntent",
      "outputs": [
        {
          "internalType": "uint256",
          "name": "",
          "type": "uint256"
        }
      ],
      "stateMutability": "nonpayable",
      "type": "function"
    },
    {
      "inputs": [
        {
          "internalType": "uint256",
          "name": "_intentId",
          "type": "uint256"
        }
      ],
      "name": "executeIntent",
      "outputs": [],
      "stateMutability": "nonpayable",
      "type": "function"
    },
    {
      "inputs": [
        {
          "internalType": "uint256",
          "name": "tokenId",
          "type": "uint256"
        }
      ],
      "name": "explicitOwnershipOf",
      "outputs": [
        {
          "components": [
            {
              "internalType": "address",
              "name": "addr",
              "type": "address"
            },
            {
              "internalType": "uint64",
              "name": "startTimestamp",
              "type": "uint64"
            },
            {
              "internalType": "bool",
              "name": "burned",
              "type": "bool"
            }
          ],
          "internalType": "struct IERC721A.TokenOwnership",
          "name": "",
          "type": "tuple"
        }
      ],
      "stateMutability": "view",
      "type": "function"
    },
    {
      "inputs": [
        {
          "internalType": "uint256[]",
          "name": "tokenIds",
          "type": "uint256[]"
        }
      ],
      "name": "explicitOwnershipsOf",
      "outputs": [
        {
          "components": [
            {
              "internalType": "address",
              "name": "addr",
              "type": "address"
            },
            {
              "internalType": "uint64",
              "name": "startTimestamp",
              "type": "uint64"
            },
            {
              "internalType": "bool",
              "name": "burned",
              "type": "bool"
            }
          ],
          "internalType": "struct IERC721A.TokenOwnership[]",
          "name": "",
          "type": "tuple[]"
        }
      ],
      "stateMutability": "view",
      "type": "function"
    },
    {
      "inputs": [],
      "name": "functionsConsumer",
      "outputs": [
        {
          "internalType": "address",
          "name": "",
          "type": "address"
        }
      ],
      "stateMutability": "view",
      "type": "function"
    },
    {
      "inputs": [
        {
          "internalType": "uint256",
          "name": "tokenId",
          "type": "uint256"
        }
      ],
      "name": "getApproved",
      "outputs": [
        {
          "internalType": "address",
          "name": "",
          "type": "address"
        }
      ],
      "stateMutability": "view",
      "type": "function"
    },
    {
      "inputs": [],
      "name": "getBaseURICount",
      "outputs": [
        {
          "internalType": "uint256",
          "name": "",
          "type": "uint256"
        }
      ],
      "stateMutability": "view",
      "type": "function"
    },
    {
      "inputs": [
        {
          "internalType": "uint256",
          "name": "_index",
          "type": "uint256"
        }
      ],
      "name": "getBatchIdAtIndex",
      "outputs": [
        {
          "internalType": "uint256",
          "name": "",
          "type": "uint256"
        }
      ],
      "stateMutability": "view",
      "type": "function"
    },
    {
      "inputs": [],
      "name": "getDefaultRoyaltyInfo",
      "outputs": [
        {
          "internalType": "address",
          "name": "",
          "type": "address"
        },
        {
          "internalType": "uint16",
          "name": "",
          "type": "uint16"
        }
      ],
      "stateMutability": "view",
      "type": "function"
    },
    {
      "inputs": [
        {
          "internalType": "uint256",
          "name": "_intentId",
          "type": "uint256"
        }
      ],
      "name": "getIntent",
      "outputs": [
        {
          "components": [
            {
              "internalType": "address",
              "name": "user",
              "type": "address"
            },
            {
              "internalType": "string",
              "name": "description",
              "type": "string"
            },
            {
              "internalType": "uint256",
              "name": "estimatedCost",
              "type": "uint256"
            },
            {
              "internalType": "uint256",
              "name": "timestamp",
              "type": "uint256"
            },
            {
              "internalType": "uint256",
              "name": "executionTime",
              "type": "uint256"
            },
            {
              "internalType": "bool",
              "name": "executed",
              "type": "bool"
            },
            {
              "internalType": "bool",
              "name": "isScheduled",
              "type": "bool"
            }
          ],
          "internalType": "struct WalletPlanner.Intent",
          "name": "",
          "type": "tuple"
        }
      ],
      "stateMutability": "view",
      "type": "function"
    },
    {
      "inputs": [
        {
          "internalType": "uint256",
          "name": "_tokenId",
          "type": "uint256"
        }
      ],
      "name": "getRoyaltyInfoForToken",
      "outputs": [
        {
          "internalType": "address",
          "name": "",
          "type": "address"
        },
        {
          "internalType": "uint16",
          "name": "",
          "type": "uint16"
        }
      ],
      "stateMutability": "view",
      "type": "function"
    },
    {
      "inputs": [
        {
          "internalType": "address",
          "name": "_user",
          "type": "address"
        }
      ],
      "name": "getUserIntents",
      "outputs": [
        {
          "internalType": "uint256[]",
          "name": "",
          "type": "uint256[]"
        }
      ],
      "stateMutability": "view",
      "type": "function"
    },
    {
      "inputs": [
        {
          "internalType": "uint256",
          "name": "",
          "type": "uint256"
        }
      ],
      "name": "intents",
      "outputs": [
        {
          "internalType": "address",
          "name": "user",
          "type": "address"
        },
        {
          "internalType": "string",
          "name": "description",
          "type": "string"
        },
        {
          "internalType": "uint256",
          "name": "estimatedCost",
          "type": "uint256"
        },
        {
          "internalType": "uint256",
          "name": "timestamp",
          "type": "uint256"
        },
        {
          "internalType": "uint256",
          "name": "executionTime",
          "type": "uint256"
        },
        {
          "internalType": "bool",
          "name": "executed",
          "type": "bool"
        },
        {
          "internalType": "bool",
          "name": "isScheduled",
          "type": "bool"
        }
      ],
      "stateMutability": "view",
      "type": "function"
    },
    {
      "inputs": [
        {
          "internalType": "address",
          "name": "owner",
          "type": "address"
        },
        {
          "internalType": "address",
          "name": "operator",
          "type": "address"
        }
      ],
      "name": "isApprovedForAll",
      "outputs": [
        {
          "internalType": "bool",
          "name": "",
          "type": "bool"
        }
      ],
      "stateMutability": "view",
      "type": "function"
    },
    {
      "inputs": [
        {
          "internalType": "address",
          "name": "_operator",
          "type": "address"
        },
        {
          "internalType": "uint256",
          "name": "_tokenId",
          "type": "uint256"
        }
      ],
      "name": "isApprovedOrOwner",
      "outputs": [
        {
          "internalType": "bool",
          "name": "isApprovedOrOwnerOf",
          "type": "bool"
        }
      ],
      "stateMutability": "view",
      "type": "function"
    },
    {
      "inputs": [],
      "name": "lastChecked",
      "outputs": [
        {
          "internalType": "uint256",
          "name": "",
          "type": "uint256"
        }
      ],
      "stateMutability": "view",
      "type": "function"
    },
    {
      "inputs": [
        {
          "internalType": "address",
          "name": "_to",
          "type": "address"
        },
        {
          "internalType": "string",
          "name": "_tokenURI",
          "type": "string"
        }
      ],
      "name": "mintTo",
      "outputs": [],
      "stateMutability": "nonpayable",
      "type": "function"
    },
    {
      "inputs": [
        {
          "internalType": "bytes[]",
          "name": "data",
          "type": "bytes[]"
        }
      ],
      "name": "multicall",
      "outputs": [
        {
          "internalType": "bytes[]",
          "name": "results",
          "type": "bytes[]"
        }
      ],
      "stateMutability": "nonpayable",
      "type": "function"
    },
    {
      "inputs": [],
      "name": "name",
      "outputs": [
        {
          "internalType": "string",
          "name": "",
          "type": "string"
        }
      ],
      "stateMutability": "view",
      "type": "function"
    },
    {
      "inputs": [],
      "name": "nextTokenIdToMint",
      "outputs": [
        {
          "internalType": "uint256",
          "name": "",
          "type": "uint256"
        }
      ],
      "stateMutability": "view",
      "type": "function"
    },
    {
      "inputs": [],
      "name": "owner",
      "outputs": [
        {
          "internalType": "address",
          "name": "",
          "type": "address"
        }
      ],
      "stateMutability": "view",
      "type": "function"
    },
    {
      "inputs": [
        {
          "internalType": "uint256",
          "name": "tokenId",
          "type": "uint256"
        }
      ],
      "name": "ownerOf",
      "outputs": [
        {
          "internalType": "address",
          "name": "",
          "type": "address"
        }
      ],
      "stateMutability": "view",
      "type": "function"
    },
    {
      "inputs": [
        {
          "internalType": "bytes",
          "name": "performData",
          "type": "bytes"
        }
      ],
      "name": "performUpkeep",
      "outputs": [],
      "stateMutability": "nonpayable",
      "type": "function"
    },
    {
      "inputs": [
        {
          "internalType": "uint256",
          "name": "tokenId",
          "type": "uint256"
        },
        {
          "internalType": "uint256",
          "name": "salePrice",
          "type": "uint256"
        }
      ],
      "name": "royaltyInfo",
      "outputs": [
        {
          "internalType": "address",
          "name": "receiver",
          "type": "address"
        },
        {
          "internalType": "uint256",
          "name": "royaltyAmount",
          "type": "uint256"
        }
      ],
      "stateMutability": "view",
      "type": "function"
    },
    {
      "inputs": [
        {
          "internalType": "address",
          "name": "from",
          "type": "address"
        },
        {
          "internalType": "address",
          "name": "to",
          "type": "address"
        },
        {
          "internalType": "uint256",
          "name": "tokenId",
          "type": "uint256"
        }
      ],
      "name": "safeTransferFrom",
      "outputs": [],
      "stateMutability": "nonpayable",
      "type": "function"
    },
    {
      "inputs": [
        {
          "internalType": "address",
          "name": "from",
          "type": "address"
        },
        {
          "internalType": "address",
          "name": "to",
          "type": "address"
        },
        {
          "internalType": "uint256",
          "name": "tokenId",
          "type": "uint256"
        },
        {
          "internalType": "bytes",
          "name": "_data",
          "type": "bytes"
        }
      ],
      "name": "safeTransferFrom",
      "outputs": [],
      "stateMutability": "nonpayable",
      "type": "function"
    },
    {
      "inputs": [
        {
          "internalType": "address",
          "name": "operator",
          "type": "address"
        },
        {
          "internalType": "bool",
          "name": "approved",
          "type": "bool"
        }
      ],
      "name": "setApprovalForAll",
      "outputs": [],
      "stateMutability": "nonpayable",
      "type": "function"
    },
    {
      "inputs": [
        {
          "internalType": "string",
          "name": "_uri",
          "type": "string"
        }
      ],
      "name": "setContractURI",
      "outputs": [],
      "stateMutability": "nonpayable",
      "type": "function"
    },
    {
      "inputs": [
        {
          "internalType": "address",
          "name": "_royaltyRecipient",
          "type": "address"
        },
        {
          "internalType": "uint256",
          "name": "_royaltyBps",
          "type": "uint256"
        }
      ],
      "name": "setDefaultRoyaltyInfo",
      "outputs": [],
      "stateMutability": "nonpayable",
      "type": "function"
    },
    {
      "inputs": [
        {
          "internalType": "address",
          "name": "_functionsConsumer",
          "type": "address"
        }
      ],
      "name": "setFunctionsConsumer",
      "outputs": [],
      "stateMutability": "nonpayable",
      "type": "function"
    },
    {
      "inputs": [
        {
          "internalType": "address",
          "name": "_newOwner",
          "type": "address"
        }
      ],
      "name": "setOwner",
      "outputs": [],
      "stateMutability": "nonpayable",
      "type": "function"
    },
    {
      "inputs": [
        {
          "internalType": "uint256",
          "name": "_tokenId",
          "type": "uint256"
        },
        {
          "internalType": "address",
          "name": "_recipient",
          "type": "address"
        },
        {
          "internalType": "uint256",
          "name": "_bps",
          "type": "uint256"
        }
      ],
      "name": "setRoyaltyInfoForToken",
      "outputs": [],
      "stateMutability": "nonpayable",
      "type": "function"
    },
    {
      "inputs": [
        {
          "internalType": "bytes4",
          "name": "interfaceId",
          "type": "bytes4"
        }
      ],
      "name": "supportsInterface",
      "outputs": [
        {
          "internalType": "bool",
          "name": "",
          "type": "bool"
        }
      ],
      "stateMutability": "view",
      "type": "function"
    },
    {
      "inputs": [],
      "name": "symbol",
      "outputs": [
        {
          "internalType": "string",
          "name": "",
          "type": "string"
        }
      ],
      "stateMutability": "view",
      "type": "function"
    },
    {
      "inputs": [
        {
          "internalType": "uint256",
          "name": "_tokenId",
          "type": "uint256"
        }
      ],
      "name": "tokenURI",
      "outputs": [
        {
          "internalType": "string",
          "name": "",
          "type": "string"
        }
      ],
      "stateMutability": "view",
      "type": "function"
    },
    {
      "inputs": [
        {
          "internalType": "address",
          "name": "owner",
          "type": "address"
        }
      ],
      "name": "tokensOfOwner",
      "outputs": [
        {
          "internalType": "uint256[]",
          "name": "",
          "type": "uint256[]"
        }
      ],
      "stateMutability": "view",
      "type": "function"
    },
    {
      "inputs": [
        {
          "internalType": "address",
          "name": "owner",
          "type": "address"
        },
        {
          "internalType": "uint256",
          "name": "start",
          "type": "uint256"
        },
        {
          "internalType": "uint256",
          "name": "stop",
          "type": "uint256"
        }
      ],
      "name": "tokensOfOwnerIn",
      "outputs": [
        {
          "internalType": "uint256[]",
          "name": "",
          "type": "uint256[]"
        }
      ],
      "stateMutability": "view",
      "type": "function"
    },
    {
      "inputs": [],
      "name": "totalSupply",
      "outputs": [
        {
          "internalType": "uint256",
          "name": "",
          "type": "uint256"
        }
      ],
      "stateMutability": "view",
      "type": "function"
    },
    {
      "inputs": [
        {
          "internalType": "address",
          "name": "from",
          "type": "address"
        },
        {
          "internalType": "address",
          "name": "to",
          "type": "address"
        },
        {
          "internalType": "uint256",
          "name": "tokenId",
          "type": "uint256"
        }
      ],
      "name": "transferFrom",
      "outputs": [],
      "stateMutability": "nonpayable",
      "type": "function"
    },
    {
      "inputs": [
        {
          "internalType": "address",
          "name": "",
          "type": "address"
        },
        {
          "internalType": "uint256",
          "name": "",
          "type": "uint256"
        }
      ],
      "name": "userIntents",
      "outputs": [
        {
          "internalType": "uint256",
          "name": "",
          "type": "uint256"
        }
      ],
      "stateMutability": "view",
      "type": "function"
    }
  ],
  "bytecode": "0x60806040523480156200001157600080fd5b5060405162003dc238038062003dc2833981016040819052620000349162000258565b8484848484838360026200004983826200039a565b5060036200005882826200039a565b505060008055506200006a856200008f565b6200007f826001600160801b038316620000e1565b5050505050505050505062000466565b600980546001600160a01b038381166001600160a01b0319831681179093556040519116919082907f8292fce18fa69edf4db7b94ea2e58241df0ae57f97e0a6c9b29067028bf92d7690600090a35050565b6127108111156200011457604051630a4930ad60e31b815261271060048201526024810182905260440160405180910390fd5b600a80546001600160a01b0384166001600160b01b03199091168117600160a01b61ffff851602179091556040518281527f90d7ec04bcb8978719414f82e52e4cb651db41d0e6f8cea6118c2191e6183adb9060200160405180910390a25050565b80516001600160a01b03811681146200018e57600080fd5b919050565b634e487b7160e01b600052604160045260246000fd5b600082601f830112620001bb57600080fd5b81516001600160401b0380821115620001d857620001d862000193565b604051601f8301601f19908116603f0116810190828211818310171562000203576200020362000193565b816040528381526020925086838588010111156200022057600080fd5b600091505b8382101562000244578582018301518183018401529082019062000225565b600093810190920192909252949350505050565b600080600080600060a086880312156200027157600080fd5b6200027c8662000176565b60208701519095506001600160401b03808211156200029a57600080fd5b620002a889838a01620001a9565b95506040880151915080821115620002bf57600080fd5b50620002ce88828901620001a9565b935050620002df6060870162000176565b60808701519092506001600160801b0381168114620002fd57600080fd5b809150509295509295909350565b600181811c908216806200032057607f821691505b6020821081036200034157634e487b7160e01b600052602260045260246000fd5b50919050565b601f8211156200039557600081815260208120601f850160051c81016020861015620003705750805b601f850160051c820191505b8181101562000391578281556001016200037c565b5050505b505050565b81516001600160401b03811115620003b657620003b662000193565b620003ce81620003c784546200030b565b8462000347565b602080601f831160018114620004065760008415620003ed5750858301515b600019600386901b1c1916600185901b17855562000391565b600085815260208120601f198616915b82811015620004375788860151825594840194600190910190840162000416565b5085821015620004565787850151600019600388901b60f8161c191681555b5050505050600190811b01905550565b61394c80620004766000396000f3fe608060405234801561001057600080fd5b50600436106102ba5760003560e01c806370a0823111610182578063a22cb465116100e9578063c87b56dd116100a2578063e8a3d4851161007c578063e8a3d485146106d1578063e985e9c5146106d9578063fa3209b214610715578063fbd7c0361461072857600080fd5b8063c87b56dd146106a2578063cd9d6aee146106b5578063e5ada13e146106c857600080fd5b8063a22cb4651461060b578063abef9ba11461061e578063ac9650d814610631578063b24f2d3914610651578063b88d4fde1461066f578063c23dc68f1461068257600080fd5b80638da5cb5b1161013b5780638da5cb5b14610599578063906e277b146105aa578063938e3d7b146105ca57806395d89b41146105dd57806399a2557a146105e55780639bcf7a15146105f857600080fd5b806370a0823114610514578063754a81d914610527578063830405321461053a5780638462151c1461055d57806389c9c3ae1461057d57806389facb201461059057600080fd5b806342842e0e1161022657806357ef2d1a116101df57806357ef2d1a146104925780635bbb2177146104a5578063600dd5ea146104c55780636352211e146104d857806363b45e2d146104eb5780636e04ff0d146104f357600080fd5b806342842e0e146103eb57806342966c68146103fe578063430c2081146104115780634585e33b1461042457806346a1a095146104375780634cc157df1461045d57600080fd5b806313af40351161027857806313af40351461036257806318160ddd1461037557806323b872dd1461038b5780632419f51b1461039e5780632a55205a146103b15780633b1475a7146103e357600080fd5b806275a317146102bf57806301ffc9a7146102d45780630689bafd146102fc57806306fdde0314610327578063081812fc1461033c578063095ea7b31461034f575b600080fd5b6102d26102cd366004612dfa565b61073b565b005b6102e76102e2366004612e5d565b61077a565b60405190151581526020015b60405180910390f35b60145461030f906001600160a01b031681565b6040516001600160a01b0390911681526020016102f3565b61032f6107e7565b6040516102f39190612eca565b61030f61034a366004612edd565b610879565b6102d261035d366004612ef6565b6108bd565b6102d2610370366004612f20565b610943565b600154600054035b6040519081526020016102f3565b6102d2610399366004612f3b565b610974565b61037d6103ac366004612edd565b61097f565b6103c46103bf366004612f77565b6109d1565b604080516001600160a01b0390931683526020830191909152016102f3565b60005461037d565b6102d26103f9366004612f3b565b610a0e565b6102d261040c366004612edd565b610a29565b6102e761041f366004612ef6565b610a34565b6102d2610432366004612f99565b610ab3565b61044a610445366004612edd565b610be1565b6040516102f3979695949392919061300a565b61047061046b366004612edd565b610cb5565b604080516001600160a01b03909316835261ffff9091166020830152016102f3565b61037d6104a036600461305c565b610d20565b6104b86104b33660046130a9565b610eaf565b6040516102f3919061314e565b6102d26104d3366004612ef6565b610f75565b61030f6104e6366004612edd565b610fa4565b600c5461037d565b610506610501366004612f99565b610fb6565b6040516102f39291906131b8565b61037d610522366004612f20565b611089565b6102d26105353660046131d3565b6110d7565b6102e7610548366004612edd565b600e6020526000908152604090205460ff1681565b61057061056b366004612f20565b6110fd565b6040516102f39190613250565b61037d61058b366004612ef6565b611242565b61037d610e1081565b6009546001600160a01b031661030f565b6105bd6105b8366004612edd565b611273565b6040516102f39190613288565b6102d26105d83660046132f9565b6113c2565b61032f6113f0565b6105706105f336600461332d565b6113ff565b6102d2610606366004613360565b6115b0565b6102d2610619366004613385565b6115e0565b61037d61062c3660046133c1565b611675565b61064461063f366004613405565b6117b7565b6040516102f39190613467565b600a546001600160a01b03811690600160a01b900461ffff16610470565b6102d261067d3660046134c9565b611926565b610695610690366004612edd565b61196a565b6040516102f39190613524565b61032f6106b0366004612edd565b611a18565b6102d26106c3366004612edd565b611b06565b61037d60135481565b61032f611bf4565b6102e76106e7366004613559565b6001600160a01b03918216600090815260076020908152604080832093909416825291909152205460ff1690565b610570610723366004612f20565b611c82565b6102d2610736366004612f20565b611cee565b610749565b60405180910390fd5b61075b61075560005490565b82611d3b565b61077682600160405180602001604052806000815250611dad565b5050565b60006301ffc9a760e01b6001600160e01b0319831614806107ab57506380ac58cd60e01b6001600160e01b03198316145b806107c65750635b5e139f60e01b6001600160e01b03198316145b806107e157506001600160e01b0319821663152a902d60e11b145b92915050565b6060600280546107f69061358c565b80601f01602080910402602001604051908101604052809291908181526020018280546108229061358c565b801561086f5780601f106108445761010080835404028352916020019161086f565b820191906000526020600020905b81548152906001019060200180831161085257829003601f168201915b5050505050905090565b600061088482611f42565b6108a1576040516333d1c03960e21b815260040160405180910390fd5b506000908152600660205260409020546001600160a01b031690565b60006108c882610fa4565b9050806001600160a01b0316836001600160a01b0316036108fc5760405163250fdee360e21b815260040160405180910390fd5b336001600160a01b038216146109335761091681336106e7565b610933576040516367d9dca160e11b815260040160405180910390fd5b61093e838383611f6d565b505050565b61094b611fc9565b610968576040516316ccb9cb60e11b815260040160405180910390fd5b61097181611ff6565b50565b61093e838383612048565b600061098a600c5490565b82106109ac57604051630793127760e11b815260048101839052602401610740565b600c82815481106109bf576109bf6135c6565b90600052602060002001549050919050565b6000806000806109e086610cb5565b90945084925061ffff1690506127106109f982876135f2565b610a03919061361f565b925050509250929050565b61093e83838360405180602001604052806000815250611926565b610971816001612223565b600080610a4083610fa4565b9050806001600160a01b0316846001600160a01b03161480610a8757506001600160a01b0380821660009081526007602090815260408083209388168352929052205460ff165b80610aab5750836001600160a01b0316610aa084610879565b6001600160a01b0316145b949350505050565b6000610ac182840184612edd565b4260135590506000805b60105481108015610adb57508282105b15610ba15760008181526011602052604090206005810154610100900460ff168015610b0c5750600581015460ff16155b8015610b1c575080600401544210155b15610b8e5760058101805460ff1916600117905582610b3a81613633565b8254909450610b5491506001600160a01b031660016123d6565b80546040516001600160a01b039091169083907f6852407858602d696344801f0181bc507c808c727c914bb6cdfeabd42431af3890600090a35b5080610b9981613633565b915050610acb565b5060408051428152602081018390527ff2d16d924eb54b4e0b6d5caea0349992ed5475ad6772b934ee978621b5d3d401910160405180910390a150505050565b601160205260009081526040902080546001820180546001600160a01b039092169291610c0d9061358c565b80601f0160208091040260200160405190810160405280929190818152602001828054610c399061358c565b8015610c865780601f10610c5b57610100808354040283529160200191610c86565b820191906000526020600020905b815481529060010190602001808311610c6957829003601f168201915b505050506002830154600384015460048501546005909501549394919390925060ff8082169161010090041687565b6000818152600b60209081526040808320815180830190925280546001600160a01b031680835260019091015492820192909252829115610cfc5780516020820151610d16565b600a546001600160a01b03811690600160a01b900461ffff165b9250925050915091565b6000428211610d6a5760405162461bcd60e51b8152602060048201526016602482015275496e76616c696420657865637574696f6e2074696d6560501b6044820152606401610740565b6010805460009182610d7b83613633565b909155506040805160e081018252338152602080820189815282840189905242606084015260808301889052600060a08401819052600160c08501819052868252601190935293909320825181546001600160a01b0319166001600160a01b039091161781559251939450909290820190610df6908261369a565b506040828101516002830155606083015160038301556080830151600483015560a08301516005909201805460c09094015115156101000261ff00199315159390931661ffff199094169390931791909117909155336000818152601260209081528382208054600181018255908352912001839055905182907fb6f430c8722299f241d9c66e77ee068ce71fb3d66d1c0af7d457ef4e50b4e59b90610e9d908990612eca565b60405180910390a390505b9392505050565b80516060906000816001600160401b03811115610ece57610ece612d45565b604051908082528060200260200182016040528015610f1957816020015b6040805160608101825260008082526020808301829052928201528252600019909201910181610eec5790505b50905060005b828114610f6d57610f48858281518110610f3b57610f3b6135c6565b602002602001015161196a565b828281518110610f5a57610f5a6135c6565b6020908102919091010152600101610f1f565b509392505050565b610f7d611fc9565b610f9a57604051636fae358160e11b815260040160405180910390fd5b61077682826124e8565b6000610faf82612578565b5192915050565b600060606000610e1060135442610fcd9190613759565b1190506000805b60105481108015610fe55750600582105b1561104c5760008181526011602052604090206005810154610100900460ff1680156110165750600581015460ff16155b8015611026575080600401544210155b15611039578261103581613633565b9350505b508061104481613633565b915050610fd4565b5081801561105a5750600081115b93508060405160200161106f91815260200190565b604051602081830303815290604052925050509250929050565b60006001600160a01b0382166110b2576040516323d3ad8160e21b815260040160405180910390fd5b506001600160a01b03166000908152600560205260409020546001600160401b031690565b6110ea6110e360005490565b8484612692565b50506110f7848483611dad565b50505050565b6060600080600061110d85611089565b90506000816001600160401b0381111561112957611129612d45565b604051908082528060200260200182016040528015611152578160200160208202803683370190505b509050611178604080516060810182526000808252602082018190529181019190915290565b60005b83861461123657600081815260046020908152604091829020825160608101845290546001600160a01b0381168252600160a01b81046001600160401b031692820192909252600160e01b90910460ff161515918101829052925061122e5781516001600160a01b0316156111ef57815194505b876001600160a01b0316856001600160a01b03160361122e5780838780600101985081518110611221576112216135c6565b6020026020010181815250505b60010161117b565b50909695505050505050565b6012602052816000526040600020818154811061125e57600080fd5b90600052602060002001600091509150505481565b6112c06040518060e0016040528060006001600160a01b03168152602001606081526020016000815260200160008152602001600081526020016000151581526020016000151581525090565b600082815260116020908152604091829020825160e0810190935280546001600160a01b0316835260018101805491928401916112fc9061358c565b80601f01602080910402602001604051908101604052809291908181526020018280546113289061358c565b80156113755780601f1061134a57610100808354040283529160200191611375565b820191906000526020600020905b81548152906001019060200180831161135857829003601f168201915b505050918352505060028201546020820152600382015460408201526004820154606082015260059091015460ff8082161515608084015261010090910416151560a09091015292915050565b6113ca611fc9565b6113e757604051639f7f092560e01b815260040160405180910390fd5b610971816126f6565b6060600380546107f69061358c565b606081831061142157604051631960ccad60e11b815260040160405180910390fd5b6000805480841115611431578093505b600061143c87611089565b90508486101561145b5785850381811015611455578091505b5061145f565b5060005b6000816001600160401b0381111561147957611479612d45565b6040519080825280602002602001820160405280156114a2578160200160208202803683370190505b509050816000036114b8579350610ea892505050565b60006114c38861196a565b9050600081604001516114d4575080515b885b8881141580156114e65750848714155b1561159f57600081815260046020908152604091829020825160608101845290546001600160a01b0381168252600160a01b81046001600160401b031692820192909252600160e01b90910460ff16151591810182905293506115975782516001600160a01b03161561155857825191505b8a6001600160a01b0316826001600160a01b031603611597578084888060010199508151811061158a5761158a6135c6565b6020026020010181815250505b6001016114d6565b505050928352509095945050505050565b6115b8611fc9565b6115d557604051636fae358160e11b815260040160405180910390fd5b61093e8383836127d2565b336001600160a01b038316036116095760405163b06307db60e01b815260040160405180910390fd5b3360008181526007602090815260408083206001600160a01b03871680855290835292819020805460ff191686151590811790915590519081529192917f17307eab39ab6107e8899845ad3d59bd9653f200f220920489ca2b5937696c31910160405180910390a35050565b601080546000918291908261168983613633565b909155506040805160e081018252338152602080820188815282840188905242606084015260006080840181905260a0840181905260c084018190528581526011909252929020815181546001600160a01b0319166001600160a01b039091161781559151929350916001820190611701908261369a565b506040828101516002830155606083015160038301556080830151600483015560a08301516005909201805460c09094015115156101000261ff00199315159390931661ffff199094169390931791909117909155336000818152601260209081528382208054600181018255908352912001839055905182907fb6f430c8722299f241d9c66e77ee068ce71fb3d66d1c0af7d457ef4e50b4e59b906117a8908890612eca565b60405180910390a39392505050565b6060816001600160401b038111156117d1576117d1612d45565b60405190808252806020026020018201604052801561180457816020015b60608152602001906001900390816117ef5790505b509050336000805b8481101561191d57811561188b5761186930878784818110611830576118306135c6565b9050602002810190611842919061376c565b86604051602001611855939291906137b9565b604051602081830303815290604052612885565b84828151811061187b5761187b6135c6565b602002602001018190525061190b565b6118ed308787848181106118a1576118a16135c6565b90506020028101906118b3919061376c565b8080601f01602080910402602001604051908101604052809392919081815260200183838082843760009201919091525061288592505050565b8482815181106118ff576118ff6135c6565b60200260200101819052505b8061191581613633565b91505061180c565b50505092915050565b611931848484612048565b6001600160a01b0383163b156110f75761194d848484846128aa565b6110f7576040516368d2bf6b60e11b815260040160405180910390fd5b60408051606080820183526000808352602080840182905283850182905284519283018552818352820181905292810183905290915060005483106119af5792915050565b50600082815260046020908152604091829020825160608101845290546001600160a01b0381168252600160a01b81046001600160401b031692820192909252600160e01b90910460ff161580159282019290925290611a0f5792915050565b610ea883612578565b6000818152600f6020526040812080546060929190611a369061358c565b80601f0160208091040260200160405190810160405280929190818152602001828054611a629061358c565b8015611aaf5780601f10611a8457610100808354040283529160200191611aaf565b820191906000526020600020905b815481529060010190602001808311611a9257829003601f168201915b50505050509050600081511115611ac65792915050565b6000611ad184612995565b905080611add85612b13565b604051602001611aee9291906137df565b60405160208183030381529060405292505050919050565b600081815260116020526040902080546001600160a01b03163314611b5e5760405162461bcd60e51b815260206004820152600e60248201526d139bdd08185d5d1a1bdc9a5e995960921b6044820152606401610740565b600581015460ff1615611ba65760405162461bcd60e51b815260206004820152601060248201526f105b1c9958591e48195e1958dd5d195960821b6044820152606401610740565b60058101805460ff19166001908117909155611bc39033906123d6565b604051339083907f6852407858602d696344801f0181bc507c808c727c914bb6cdfeabd42431af3890600090a35050565b60088054611c019061358c565b80601f0160208091040260200160405190810160405280929190818152602001828054611c2d9061358c565b8015611c7a5780601f10611c4f57610100808354040283529160200191611c7a565b820191906000526020600020905b815481529060010190602001808311611c5d57829003601f168201915b505050505081565b6001600160a01b038116600090815260126020908152604091829020805483518184028101840190945280845260609392830182828015611ce257602002820191906000526020600020905b815481526020019060010190808311611cce575b50505050509050919050565b6009546001600160a01b03163314611d19576040516316ccb9cb60e11b815260040160405180910390fd5b601480546001600160a01b0319166001600160a01b0392909216919091179055565b6000828152600f602052604090208054611d549061358c565b159050611d955760405162461bcd60e51b815260206004820152600f60248201526e15549248185b1c9958591e481cd95d608a1b6044820152606401610740565b6000828152600f6020526040902061093e828261369a565b6000546001600160a01b038416611dd657604051622e076360e81b815260040160405180910390fd5b82600003611df75760405163b562e8dd60e01b815260040160405180910390fd5b6001600160a01b038416600081815260056020908152604080832080546001600160801b031981166001600160401b038083168b018116918217600160401b67ffffffffffffffff1990941690921783900481168b01811690920217909155858452600490925290912080546001600160e01b0319168317600160a01b42909316929092029190911790558190818501903b15611eff575b60405182906001600160a01b038816906000906000805160206138f7833981519152908290a4611ec860008784806001019550876128aa565b611ee5576040516368d2bf6b60e11b815260040160405180910390fd5b808210611e8f578260005414611efa57600080fd5b611f32565b5b6040516001830192906001600160a01b038816906000906000805160206138f7833981519152908290a4808210611f00575b5060009081556110f79085838684565b60008054821080156107e1575050600090815260046020526040902054600160e01b900460ff161590565b60008281526006602052604080822080546001600160a01b0319166001600160a01b0387811691821790925591518593918516917f8c5be1e5ebec7d5bd14f71427d1e84f3dd0314c0f7b2291e5b200ac8c7c3b92591a4505050565b6000611fdd6009546001600160a01b031690565b6001600160a01b0316336001600160a01b031614905090565b600980546001600160a01b038381166001600160a01b0319831681179093556040519116919082907f8292fce18fa69edf4db7b94ea2e58241df0ae57f97e0a6c9b29067028bf92d7690600090a35050565b600061205382612578565b9050836001600160a01b031681600001516001600160a01b03161461208a5760405162a1148160e81b815260040160405180910390fd5b6000336001600160a01b03861614806120a857506120a885336106e7565b806120c35750336120b884610879565b6001600160a01b0316145b9050806120e357604051632ce44b5f60e11b815260040160405180910390fd5b6001600160a01b03841661210a57604051633a954ecd60e21b815260040160405180910390fd5b61211660008487611f6d565b6001600160a01b038581166000908152600560209081526040808320805467ffffffffffffffff198082166001600160401b0392831660001901831617909255898616808652838620805493841693831660019081018416949094179055898652600490945282852080546001600160e01b031916909417600160a01b429092169190910217835587018084529220805491939091166121ea5760005482146121ea57805460208601516001600160401b0316600160a01b026001600160e01b03199091166001600160a01b038a16171781555b50505082846001600160a01b0316866001600160a01b03166000805160206138f783398151915260405160405180910390a45050505050565b600061222e83612578565b80519091508215612294576000336001600160a01b0383161480612257575061225782336106e7565b8061227257503361226786610879565b6001600160a01b0316145b90508061229257604051632ce44b5f60e11b815260040160405180910390fd5b505b6122a060008583611f6d565b6001600160a01b0380821660008181526005602090815260408083208054600160801b6000196001600160401b0380841691909101811667ffffffffffffffff198416811783900482166001908101831690930277ffffffffffffffff0000000000000000ffffffffffffffff19909416179290921783558b86526004909452828520805460ff60e01b1942909316600160a01b026001600160e01b03199091169097179690961716600160e01b17855591890180845292208054919490911661239e57600054821461239e57805460208701516001600160401b0316600160a01b026001600160e01b03199091166001600160a01b038716171781555b5050604051869250600091506001600160a01b038416906000805160206138f7833981519152908390a4505060018054810190555050565b6000546001600160a01b0383166123ff57604051622e076360e81b815260040160405180910390fd5b816000036124205760405163b562e8dd60e01b815260040160405180910390fd5b6001600160a01b038316600081815260056020908152604080832080546001600160801b031981166001600160401b038083168a018116918217600160401b67ffffffffffffffff1990941690921783900481168a01811690920217909155858452600490925290912080546001600160e01b031916909217600160a01b4290921691909102179055808083015b6040516001830192906001600160a01b038716906000906000805160206138f7833981519152908290a48082106124ae5750600055505050565b61271081111561251657604051630a4930ad60e31b8152612710600482015260248101829052604401610740565b600a80546001600160a01b0384166001600160b01b03199091168117600160a01b61ffff851602179091556040518281527f90d7ec04bcb8978719414f82e52e4cb651db41d0e6f8cea6118c2191e6183adb9060200160405180910390a25050565b60408051606081018252600080825260208201819052918101919091528160005481101561267957600081815260046020908152604091829020825160608101845290546001600160a01b0381168252600160a01b81046001600160401b031692820192909252600160e01b90910460ff161515918101829052906126775780516001600160a01b03161561260e579392505050565b5060001901600081815260046020908152604091829020825160608101845290546001600160a01b038116808352600160a01b82046001600160401b031693830193909352600160e01b900460ff1615159281019290925215612672579392505050565b61260e565b505b604051636f96cda160e11b815260040160405180910390fd5b60008061269f848661380e565b600c8054600181019091557fdf6966c971051c3d54ec59162606531493a51404a002842f56009d7e5cf4a8c7018190556000818152600d602052604090209092508291506126ed848261369a565b50935093915050565b6000600880546127059061358c565b80601f01602080910402602001604051908101604052809291908181526020018280546127319061358c565b801561277e5780601f106127535761010080835404028352916020019161277e565b820191906000526020600020905b81548152906001019060200180831161276157829003601f168201915b505050505090508160089081612794919061369a565b507fc9c7c3fe08b88b4df9d4d47ef47d2c43d55c025a0ba88ca442580ed9e7348a1681836040516127c6929190613821565b60405180910390a15050565b61271081111561280057604051630a4930ad60e31b8152612710600482015260248101829052604401610740565b6040805180820182526001600160a01b0384811680835260208084018681526000898152600b8352869020945185546001600160a01b031916941693909317845591516001909301929092559151838152909185917f7365cf4122f072a3365c20d54eff9b38d73c096c28e1892ec8f5b0e403a0f12d910160405180910390a3505050565b6060610ea883836040518060600160405280602781526020016138d060279139612c13565b604051630a85bd0160e11b81526000906001600160a01b0385169063150b7a02906128df90339089908890889060040161384f565b6020604051808303816000875af192505050801561291a575060408051601f3d908101601f1916820190925261291791810190613882565b60015b612978573d808015612948576040519150601f19603f3d011682016040523d82523d6000602084013e61294d565b606091505b508051600003612970576040516368d2bf6b60e11b815260040160405180910390fd5b805181602001fd5b6001600160e01b031916630a85bd0160e11b149050949350505050565b606060006129a2600c5490565b90506000600c8054806020026020016040519081016040528092919081815260200182805480156129f257602002820191906000526020600020905b8154815260200190600101908083116129de575b5050505050905060005b82811015612af657818181518110612a1657612a166135c6565b6020026020010151851015612ae457600d6000838381518110612a3b57612a3b6135c6565b602002602001015181526020019081526020016000208054612a5c9061358c565b80601f0160208091040260200160405190810160405280929190818152602001828054612a889061358c565b8015612ad55780601f10612aaa57610100808354040283529160200191612ad5565b820191906000526020600020905b815481529060010190602001808311612ab857829003601f168201915b50505050509350505050919050565b612aef60018261380e565b90506129fc565b506040516309797f6960e21b815260048101859052602401610740565b606081600003612b3a5750506040805180820190915260018152600360fc1b602082015290565b8160005b8115612b645780612b4e81613633565b9150612b5d9050600a8361361f565b9150612b3e565b6000816001600160401b03811115612b7e57612b7e612d45565b6040519080825280601f01601f191660200182016040528015612ba8576020820181803683370190505b5090505b8415610aab57612bbd600183613759565b9150612bca600a8661389f565b612bd590603061380e565b60f81b818381518110612bea57612bea6135c6565b60200101906001600160f81b031916908160001a905350612c0c600a8661361f565b9450612bac565b6060600080856001600160a01b031685604051612c3091906138b3565b600060405180830381855af49150503d8060008114612c6b576040519150601f19603f3d011682016040523d82523d6000602084013e612c70565b606091505b5091509150612c8186838387612c8b565b9695505050505050565b60608315612cfa578251600003612cf3576001600160a01b0385163b612cf35760405162461bcd60e51b815260206004820152601d60248201527f416464726573733a2063616c6c20746f206e6f6e2d636f6e74726163740000006044820152606401610740565b5081610aab565b610aab8383815115612d0f5781518083602001fd5b8060405162461bcd60e51b81526004016107409190612eca565b80356001600160a01b0381168114612d4057600080fd5b919050565b634e487b7160e01b600052604160045260246000fd5b604051601f8201601f191681016001600160401b0381118282101715612d8357612d83612d45565b604052919050565b600082601f830112612d9c57600080fd5b81356001600160401b03811115612db557612db5612d45565b612dc8601f8201601f1916602001612d5b565b818152846020838601011115612ddd57600080fd5b816020850160208301376000918101602001919091529392505050565b60008060408385031215612e0d57600080fd5b612e1683612d29565b915060208301356001600160401b03811115612e3157600080fd5b612e3d85828601612d8b565b9150509250929050565b6001600160e01b03198116811461097157600080fd5b600060208284031215612e6f57600080fd5b8135610ea881612e47565b60005b83811015612e95578181015183820152602001612e7d565b50506000910152565b60008151808452612eb6816020860160208601612e7a565b601f01601f19169290920160200192915050565b602081526000610ea86020830184612e9e565b600060208284031215612eef57600080fd5b5035919050565b60008060408385031215612f0957600080fd5b612f1283612d29565b946020939093013593505050565b600060208284031215612f3257600080fd5b610ea882612d29565b600080600060608486031215612f5057600080fd5b612f5984612d29565b9250612f6760208501612d29565b9150604084013590509250925092565b60008060408385031215612f8a57600080fd5b50508035926020909101359150565b60008060208385031215612fac57600080fd5b82356001600160401b0380821115612fc357600080fd5b818501915085601f830112612fd757600080fd5b813581811115612fe657600080fd5b866020828501011115612ff857600080fd5b60209290920196919550909350505050565b6001600160a01b038816815260e06020820181905260009061302e90830189612e9e565b60408301979097525060608101949094526080840192909252151560a0830152151560c09091015292915050565b60008060006060848603121561307157600080fd5b83356001600160401b0381111561308757600080fd5b61309386828701612d8b565b9660208601359650604090950135949350505050565b600060208083850312156130bc57600080fd5b82356001600160401b03808211156130d357600080fd5b818501915085601f8301126130e757600080fd5b8135818111156130f9576130f9612d45565b8060051b915061310a848301612d5b565b818152918301840191848101908884111561312457600080fd5b938501935b8385101561314257843582529385019390850190613129565b98975050505050505050565b6020808252825182820181905260009190848201906040850190845b81811015611236576131a583855180516001600160a01b031682526020808201516001600160401b0316908301526040908101511515910152565b928401926060929092019160010161316a565b8215158152604060208201526000610aab6040830184612e9e565b600080600080608085870312156131e957600080fd5b6131f285612d29565b93506020850135925060408501356001600160401b038082111561321557600080fd5b61322188838901612d8b565b9350606087013591508082111561323757600080fd5b5061324487828801612d8b565b91505092959194509250565b6020808252825182820181905260009190848201906040850190845b818110156112365783518352928401929184019160010161326c565b602080825282516001600160a01b03168282015282015160e060408301526000906132b7610100840182612e9e565b90506040840151606084015260608401516080840152608084015160a084015260a0840151151560c084015260c0840151151560e08401528091505092915050565b60006020828403121561330b57600080fd5b81356001600160401b0381111561332157600080fd5b610aab84828501612d8b565b60008060006060848603121561334257600080fd5b61334b84612d29565b95602085013595506040909401359392505050565b60008060006060848603121561337557600080fd5b83359250612f6760208501612d29565b6000806040838503121561339857600080fd5b6133a183612d29565b9150602083013580151581146133b657600080fd5b809150509250929050565b600080604083850312156133d457600080fd5b82356001600160401b038111156133ea57600080fd5b6133f685828601612d8b565b95602094909401359450505050565b6000806020838503121561341857600080fd5b82356001600160401b038082111561342f57600080fd5b818501915085601f83011261344357600080fd5b81358181111561345257600080fd5b8660208260051b8501011115612ff857600080fd5b6000602080830181845280855180835260408601915060408160051b870101925083870160005b828110156134bc57603f198886030184526134aa858351612e9e565b9450928501929085019060010161348e565b5092979650505050505050565b600080600080608085870312156134df57600080fd5b6134e885612d29565b93506134f660208601612d29565b92506040850135915060608501356001600160401b0381111561351857600080fd5b61324487828801612d8b565b81516001600160a01b031681526020808301516001600160401b031690820152604080830151151590820152606081016107e1565b6000806040838503121561356c57600080fd5b61357583612d29565b915061358360208401612d29565b90509250929050565b600181811c908216806135a057607f821691505b6020821081036135c057634e487b7160e01b600052602260045260246000fd5b50919050565b634e487b7160e01b600052603260045260246000fd5b634e487b7160e01b600052601160045260246000fd5b80820281158282048414176107e1576107e16135dc565b634e487b7160e01b600052601260045260246000fd5b60008261362e5761362e613609565b500490565b600060018201613645576136456135dc565b5060010190565b601f82111561093e57600081815260208120601f850160051c810160208610156136735750805b601f850160051c820191505b818110156136925782815560010161367f565b505050505050565b81516001600160401b038111156136b3576136b3612d45565b6136c7816136c1845461358c565b8461364c565b602080601f8311600181146136fc57600084156136e45750858301515b600019600386901b1c1916600185901b178555613692565b600085815260208120601f198616915b8281101561372b5788860151825594840194600190910190840161370c565b50858210156137495787850151600019600388901b60f8161c191681555b5050505050600190811b01905550565b818103818111156107e1576107e16135dc565b6000808335601e1984360301811261378357600080fd5b8301803591506001600160401b0382111561379d57600080fd5b6020019150368190038213156137b257600080fd5b9250929050565b8284823760609190911b6bffffffffffffffffffffffff19169101908152601401919050565b600083516137f1818460208801612e7a565b835190830190613805818360208801612e7a565b01949350505050565b808201808211156107e1576107e16135dc565b6040815260006138346040830185612e9e565b82810360208401526138468185612e9e565b95945050505050565b6001600160a01b0385811682528416602082015260408101839052608060608201819052600090612c8190830184612e9e565b60006020828403121561389457600080fd5b8151610ea881612e47565b6000826138ae576138ae613609565b500690565b600082516138c5818460208701612e7a565b919091019291505056fe416464726573733a206c6f772d6c6576656c2064656c65676174652063616c6c206661696c6564ddf252ad1be2c89b69c2b068fc378daa952ba7f163c4a11628f55a4df523b3efa2646970667358221220998870303dbe3e93650ace966a6ae26a6077d8acab77492939d63a409c8e9d8464736f6c63430008150033",
  "linkReferences": {},
  "deployedLinkReferences": {}
}