{
  "_format": "hh-sol-artifact-1",
  "contractName": "WalletPlanner",
  "sourceName": "contracts/WalletPlanner.sol",
  "abi": [
    {
      "inputs": [
        {
          "internalType": "address",
          "name": "_defaultAdmin",
          "type": "address"
        },
        {
          "internalType": "string",
          "name": "_name",
          "type": "string"
        },
        {
          "internalType": "string",
          "name": "_symbol",
          "type": "string"
        },
        {
          "internalType": "address",
          "name": "_royaltyRecipient",
          "type": "address"
        },
        {
          "internalType": "uint128",
          "name": "_royaltyBps",
          "type": "uint128"
        },
        {
          "internalType": "address",
          "name": "_uniswapRouter",
          "type": "address"
        }
      ],
      "stateMutability": "nonpayable",
      "type": "constructor"
    },
    {
      "inputs": [],
      "name": "ApprovalCallerNotOwnerNorApproved",
      "type": "error"
    },
    {
      "inputs": [],
      "name": "ApprovalQueryForNonexistentToken",
      "type": "error"
    },
    {
      "inputs": [],
      "name": "ApprovalToCurrentOwner",
      "type": "error"
    },
    {
      "inputs": [],
      "name": "ApproveToCaller",
      "type": "error"
    },
    {
      "inputs": [],
      "name": "BalanceQueryForZeroAddress",
      "type": "error"
    },
    {
      "inputs": [
        {
          "internalType": "uint256",
          "name": "index",
          "type": "uint256"
        }
      ],
      "name": "BatchMintInvalidBatchId",
      "type": "error"
    },
    {
      "inputs": [
        {
          "internalType": "uint256",
          "name": "tokenId",
          "type": "uint256"
        }
      ],
      "name": "BatchMintInvalidTokenId",
      "type": "error"
    },
    {
      "inputs": [
        {
          "internalType": "uint256",
          "name": "batchId",
          "type": "uint256"
        }
      ],
      "name": "BatchMintMetadataFrozen",
      "type": "error"
    },
    {
      "inputs": [],
      "name": "ContractMetadataUnauthorized",
      "type": "error"
    },
    {
      "inputs": [],
      "name": "InvalidQueryRange",
      "type": "error"
    },
    {
      "inputs": [],
      "name": "MintToZeroAddress",
      "type": "error"
    },
    {
      "inputs": [],
      "name": "MintZeroQuantity",
      "type": "error"
    },
    {
      "inputs": [],
      "name": "OnlySimulatedBackend",
      "type": "error"
    },
    {
      "inputs": [],
      "name": "OwnableUnauthorized",
      "type": "error"
    },
    {
      "inputs": [],
      "name": "OwnerQueryForNonexistentToken",
      "type": "error"
    },
    {
      "inputs": [
        {
          "internalType": "uint256",
          "name": "max",
          "type": "uint256"
        },
        {
          "internalType": "uint256",
          "name": "actual",
          "type": "uint256"
        }
      ],
      "name": "RoyaltyExceededMaxFeeBps",
      "type": "error"
    },
    {
      "inputs": [
        {
          "internalType": "address",
          "name": "recipient",
          "type": "address"
        }
      ],
      "name": "RoyaltyInvalidRecipient",
      "type": "error"
    },
    {
      "inputs": [],
      "name": "RoyaltyUnauthorized",
      "type": "error"
    },
    {
      "inputs": [],
      "name": "TransferCallerNotOwnerNorApproved",
      "type": "error"
    },
    {
      "inputs": [],
      "name": "TransferFromIncorrectOwner",
      "type": "error"
    },
    {
      "inputs": [],
      "name": "TransferToNonERC721ReceiverImplementer",
      "type": "error"
    },
    {
      "inputs": [],
      "name": "TransferToZeroAddress",
      "type": "error"
    },
    {
      "inputs": [],
      "name": "URIQueryForNonexistentToken",
      "type": "error"
    },
    {
      "anonymous": false,
      "inputs": [
        {
          "indexed": true,
          "internalType": "address",
          "name": "owner",
          "type": "address"
        },
        {
          "indexed": true,
          "internalType": "address",
          "name": "approved",
          "type": "address"
        },
        {
          "indexed": true,
          "internalType": "uint256",
          "name": "tokenId",
          "type": "uint256"
        }
      ],
      "name": "Approval",
      "type": "event"
    },
    {
      "anonymous": false,
      "inputs": [
        {
          "indexed": true,
          "internalType": "address",
          "name": "owner",
          "type": "address"
        },
        {
          "indexed": true,
          "internalType": "address",
          "name": "operator",
          "type": "address"
        },
        {
          "indexed": false,
          "internalType": "bool",
          "name": "approved",
          "type": "bool"
        }
      ],
      "name": "ApprovalForAll",
      "type": "event"
    },
    {
      "anonymous": false,
      "inputs": [
        {
          "indexed": false,
          "internalType": "uint256",
          "name": "timestamp",
          "type": "uint256"
        },
        {
          "indexed": false,
          "internalType": "uint256",
          "name": "intentsProcessed",
          "type": "uint256"
        }
      ],
      "name": "AutomationPerformed",
      "type": "event"
    },
    {
      "anonymous": false,
      "inputs": [
        {
          "indexed": false,
          "internalType": "uint256",
          "name": "_fromTokenId",
          "type": "uint256"
        },
        {
          "indexed": false,
          "internalType": "uint256",
          "name": "_toTokenId",
          "type": "uint256"
        }
      ],
      "name": "BatchMetadataUpdate",
      "type": "event"
    },
    {
      "anonymous": false,
      "inputs": [
        {
          "indexed": false,
          "internalType": "string",
          "name": "prevURI",
          "type": "string"
        },
        {
          "indexed": false,
          "internalType": "string",
          "name": "newURI",
          "type": "string"
        }
      ],
      "name": "ContractURIUpdated",
      "type": "event"
    },
    {
      "anonymous": false,
      "inputs": [
        {
          "indexed": true,
          "internalType": "address",
          "name": "newRoyaltyRecipient",
          "type": "address"
        },
        {
          "indexed": false,
          "internalType": "uint256",
          "name": "newRoyaltyBps",
          "type": "uint256"
        }
      ],
      "name": "DefaultRoyalty",
      "type": "event"
    },
    {
      "anonymous": false,
      "inputs": [
        {
          "indexed": true,
          "internalType": "uint256",
          "name": "intentId",
          "type": "uint256"
        }
      ],
      "name": "IntentCancelled",
      "type": "event"
    },
    {
      "anonymous": false,
      "inputs": [
        {
          "indexed": true,
          "internalType": "uint256",
          "name": "intentId",
          "type": "uint256"
        },
        {
          "indexed": true,
          "internalType": "address",
          "name": "user",
          "type": "address"
        },
        {
          "indexed": false,
          "internalType": "string",
          "name": "description",
          "type": "string"
        }
      ],
      "name": "IntentCreated",
      "type": "event"
    },
    {
      "anonymous": false,
      "inputs": [
        {
          "indexed": true,
          "internalType": "uint256",
          "name": "intentId",
          "type": "uint256"
        },
        {
          "indexed": true,
          "internalType": "address",
          "name": "user",
          "type": "address"
        }
      ],
      "name": "IntentExecuted",
      "type": "event"
    },
    {
      "anonymous": false,
      "inputs": [],
      "name": "MetadataFrozen",
      "type": "event"
    },
    {
      "anonymous": false,
      "inputs": [
        {
          "indexed": true,
          "internalType": "address",
          "name": "prevOwner",
          "type": "address"
        },
        {
          "indexed": true,
          "internalType": "address",
          "name": "newOwner",
          "type": "address"
        }
      ],
      "name": "OwnerUpdated",
      "type": "event"
    },
    {
      "anonymous": false,
      "inputs": [
        {
          "indexed": true,
          "internalType": "uint256",
          "name": "tokenId",
          "type": "uint256"
        },
        {
          "indexed": true,
          "internalType": "address",
          "name": "royaltyRecipient",
          "type": "address"
        },
        {
          "indexed": false,
          "internalType": "uint256",
          "name": "royaltyBps",
          "type": "uint256"
        }
      ],
      "name": "RoyaltyForToken",
      "type": "event"
    },
    {
      "anonymous": false,
      "inputs": [
        {
          "indexed": true,
          "internalType": "address",
          "name": "user",
          "type": "address"
        },
        {
          "indexed": true,
          "internalType": "address",
          "name": "tokenIn",
          "type": "address"
        },
        {
          "indexed": true,
          "internalType": "address",
          "name": "tokenOut",
          "type": "address"
        },
        {
          "indexed": false,
          "internalType": "uint256",
          "name": "amountIn",
          "type": "uint256"
        },
        {
          "indexed": false,
          "internalType": "uint256",
          "name": "amountOut",
          "type": "uint256"
        }
      ],
      "name": "SwapExecuted",
      "type": "event"
    },
    {
      "anonymous": false,
      "inputs": [
        {
          "indexed": true,
          "internalType": "address",
          "name": "user",
          "type": "address"
        },
        {
          "indexed": true,
          "internalType": "address",
          "name": "token",
          "type": "address"
        },
        {
          "indexed": false,
          "internalType": "uint256",
          "name": "amount",
          "type": "uint256"
        }
      ],
      "name": "TokenDeposited",
      "type": "event"
    },
    {
      "anonymous": false,
      "inputs": [
        {
          "indexed": true,
          "internalType": "address",
          "name": "user",
          "type": "address"
        },
        {
          "indexed": true,
          "internalType": "address",
          "name": "token",
          "type": "address"
        },
        {
          "indexed": false,
          "internalType": "uint256",
          "name": "amount",
          "type": "uint256"
        }
      ],
      "name": "TokenWithdrawn",
      "type": "event"
    },
    {
      "anonymous": false,
      "inputs": [
        {
          "indexed": true,
          "internalType": "address",
          "name": "from",
          "type": "address"
        },
        {
          "indexed": true,
          "internalType": "address",
          "name": "to",
          "type": "address"
        },
        {
          "indexed": true,
          "internalType": "uint256",
          "name": "tokenId",
          "type": "uint256"
        }
      ],
      "name": "Transfer",
      "type": "event"
    },
    {
      "inputs": [],
      "name": "DAI",
      "outputs": [
        {
          "internalType": "address",
          "name": "",
          "type": "address"
        }
      ],
      "stateMutability": "view",
      "type": "function"
    },
    {
      "inputs": [],
      "name": "DEFAULT_SLIPPAGE",
      "outputs": [
        {
          "internalType": "uint256",
          "name": "",
          "type": "uint256"
        }
      ],
      "stateMutability": "view",
      "type": "function"
    },
    {
      "inputs": [],
      "name": "INTERVAL",
      "outputs": [
        {
          "internalType": "uint256",
          "name": "",
          "type": "uint256"
        }
      ],
      "stateMutability": "view",
      "type": "function"
    },
    {
      "inputs": [],
      "name": "MAX_SLIPPAGE",
      "outputs": [
        {
          "internalType": "uint256",
          "name": "",
          "type": "uint256"
        }
      ],
      "stateMutability": "view",
      "type": "function"
    },
    {
      "inputs": [],
      "name": "USDC",
      "outputs": [
        {
          "internalType": "address",
          "name": "",
          "type": "address"
        }
      ],
      "stateMutability": "view",
      "type": "function"
    },
    {
      "inputs": [],
      "name": "WETH",
      "outputs": [
        {
          "internalType": "address",
          "name": "",
          "type": "address"
        }
      ],
      "stateMutability": "view",
      "type": "function"
    },
    {
      "inputs": [
        {
          "internalType": "address",
          "name": "token",
          "type": "address"
        }
      ],
      "name": "addSupportedToken",
      "outputs": [],
      "stateMutability": "nonpayable",
      "type": "function"
    },
    {
      "inputs": [
        {
          "internalType": "address",
          "name": "to",
          "type": "address"
        },
        {
          "internalType": "uint256",
          "name": "tokenId",
          "type": "uint256"
        }
      ],
      "name": "approve",
      "outputs": [],
      "stateMutability": "nonpayable",
      "type": "function"
    },
    {
      "inputs": [
        {
          "internalType": "address",
          "name": "owner",
          "type": "address"
        }
      ],
      "name": "balanceOf",
      "outputs": [
        {
          "internalType": "uint256",
          "name": "",
          "type": "uint256"
        }
      ],
      "stateMutability": "view",
      "type": "function"
    },
    {
      "inputs": [
        {
          "internalType": "uint256",
          "name": "",
          "type": "uint256"
        }
      ],
      "name": "batchFrozen",
      "outputs": [
        {
          "internalType": "bool",
          "name": "",
          "type": "bool"
        }
      ],
      "stateMutability": "view",
      "type": "function"
    },
    {
      "inputs": [
        {
          "internalType": "address",
          "name": "_to",
          "type": "address"
        },
        {
          "internalType": "uint256",
          "name": "_quantity",
          "type": "uint256"
        },
        {
          "internalType": "string",
          "name": "_baseURI",
          "type": "string"
        },
        {
          "internalType": "bytes",
          "name": "_data",
          "type": "bytes"
        }
      ],
      "name": "batchMintTo",
      "outputs": [],
      "stateMutability": "nonpayable",
      "type": "function"
    },
    {
      "inputs": [
        {
          "internalType": "uint256",
          "name": "_tokenId",
          "type": "uint256"
        }
      ],
      "name": "burn",
      "outputs": [],
      "stateMutability": "nonpayable",
      "type": "function"
    },
    {
      "inputs": [
        {
          "internalType": "uint256",
          "name": "_intentId",
          "type": "uint256"
        }
      ],
      "name": "cancelIntent",
      "outputs": [],
      "stateMutability": "nonpayable",
      "type": "function"
    },
    {
      "inputs": [
        {
          "internalType": "bytes",
          "name": "",
          "type": "bytes"
        }
      ],
      "name": "checkUpkeep",
      "outputs": [
        {
          "internalType": "bool",
          "name": "upkeepNeeded",
          "type": "bool"
        },
        {
          "internalType": "bytes",
          "name": "performData",
          "type": "bytes"
        }
      ],
      "stateMutability": "view",
      "type": "function"
    },
    {
      "inputs": [],
      "name": "contractURI",
      "outputs": [
        {
          "internalType": "string",
          "name": "",
          "type": "string"
        }
      ],
      "stateMutability": "view",
      "type": "function"
    },
    {
      "inputs": [
        {
          "internalType": "string",
          "name": "_description",
          "type": "string"
        },
        {
          "internalType": "uint256",
          "name": "_estimatedCost",
          "type": "uint256"
        }
      ],
      "name": "createIntent",
      "outputs": [
        {
          "internalType": "uint256",
          "name": "",
          "type": "uint256"
        }
      ],
      "stateMutability": "nonpayable",
      "type": "function"
    },
    {
      "inputs": [
        {
          "internalType": "string",
          "name": "_description",
          "type": "string"
        },
        {
          "internalType": "uint256",
          "name": "_estimatedCost",
          "type": "uint256"
        },
        {
          "internalType": "uint256",
          "name": "_executionTime",
          "type": "uint256"
        },
        {
          "internalType": "address",
          "name": "_tokenIn",
          "type": "address"
        },
        {
          "internalType": "uint256",
          "name": "_amountIn",
          "type": "uint256"
        },
        {
          "internalType": "address",
          "name": "_tokenOut",
          "type": "address"
        },
        {
          "internalType": "uint256",
          "name": "_slippageTolerance",
          "type": "uint256"
        }
      ],
      "name": "createScheduledSwapIntent",
      "outputs": [
        {
          "internalType": "uint256",
          "name": "",
          "type": "uint256"
        }
      ],
      "stateMutability": "nonpayable",
      "type": "function"
    },
    {
      "inputs": [
        {
          "internalType": "string",
          "name": "_description",
          "type": "string"
        },
        {
          "internalType": "uint256",
          "name": "_estimatedCost",
          "type": "uint256"
        },
        {
          "internalType": "address",
          "name": "_tokenIn",
          "type": "address"
        },
        {
          "internalType": "uint256",
          "name": "_amountIn",
          "type": "uint256"
        },
        {
          "internalType": "address",
          "name": "_tokenOut",
          "type": "address"
        },
        {
          "internalType": "uint256",
          "name": "_slippageTolerance",
          "type": "uint256"
        }
      ],
      "name": "createSwapIntent",
      "outputs": [
        {
          "internalType": "uint256",
          "name": "",
          "type": "uint256"
        }
      ],
      "stateMutability": "nonpayable",
      "type": "function"
    },
    {
      "inputs": [
        {
          "internalType": "address",
          "name": "token",
          "type": "address"
        },
        {
          "internalType": "uint256",
          "name": "amount",
          "type": "uint256"
        }
      ],
      "name": "depositToken",
      "outputs": [],
      "stateMutability": "nonpayable",
      "type": "function"
    },
    {
      "inputs": [
        {
          "internalType": "address",
          "name": "token",
          "type": "address"
        }
      ],
      "name": "emergencyWithdraw",
      "outputs": [],
      "stateMutability": "nonpayable",
      "type": "function"
    },
    {
      "inputs": [],
      "name": "emergencyWithdrawETH",
      "outputs": [],
      "stateMutability": "nonpayable",
      "type": "function"
    },
    {
      "inputs": [
        {
          "internalType": "uint256",
          "name": "_intentId",
          "type": "uint256"
        }
      ],
      "name": "executeIntent",
      "outputs": [],
      "stateMutability": "nonpayable",
      "type": "function"
    },
    {
      "inputs": [
        {
          "internalType": "address",
          "name": "tokenIn",
          "type": "address"
        },
        {
          "internalType": "uint256",
          "name": "amountIn",
          "type": "uint256"
        },
        {
          "internalType": "address",
          "name": "tokenOut",
          "type": "address"
        },
        {
          "internalType": "address",
          "name": "recipient",
          "type": "address"
        },
        {
          "internalType": "uint256",
          "name": "slippageTolerance",
          "type": "uint256"
        }
      ],
      "name": "executeSwap",
      "outputs": [
        {
          "internalType": "uint256",
          "name": "amountOut",
          "type": "uint256"
        }
      ],
      "stateMutability": "nonpayable",
      "type": "function"
    },
    {
      "inputs": [
        {
          "internalType": "uint256",
          "name": "tokenId",
          "type": "uint256"
        }
      ],
      "name": "explicitOwnershipOf",
      "outputs": [
        {
          "components": [
            {
              "internalType": "address",
              "name": "addr",
              "type": "address"
            },
            {
              "internalType": "uint64",
              "name": "startTimestamp",
              "type": "uint64"
            },
            {
              "internalType": "bool",
              "name": "burned",
              "type": "bool"
            }
          ],
          "internalType": "struct IERC721A.TokenOwnership",
          "name": "",
          "type": "tuple"
        }
      ],
      "stateMutability": "view",
      "type": "function"
    },
    {
      "inputs": [
        {
          "internalType": "uint256[]",
          "name": "tokenIds",
          "type": "uint256[]"
        }
      ],
      "name": "explicitOwnershipsOf",
      "outputs": [
        {
          "components": [
            {
              "internalType": "address",
              "name": "addr",
              "type": "address"
            },
            {
              "internalType": "uint64",
              "name": "startTimestamp",
              "type": "uint64"
            },
            {
              "internalType": "bool",
              "name": "burned",
              "type": "bool"
            }
          ],
          "internalType": "struct IERC721A.TokenOwnership[]",
          "name": "",
          "type": "tuple[]"
        }
      ],
      "stateMutability": "view",
      "type": "function"
    },
    {
      "inputs": [],
      "name": "functionsConsumer",
      "outputs": [
        {
          "internalType": "address",
          "name": "",
          "type": "address"
        }
      ],
      "stateMutability": "view",
      "type": "function"
    },
    {
      "inputs": [
        {
          "internalType": "uint256",
          "name": "tokenId",
          "type": "uint256"
        }
      ],
      "name": "getApproved",
      "outputs": [
        {
          "internalType": "address",
          "name": "",
          "type": "address"
        }
      ],
      "stateMutability": "view",
      "type": "function"
    },
    {
      "inputs": [],
      "name": "getBaseURICount",
      "outputs": [
        {
          "internalType": "uint256",
          "name": "",
          "type": "uint256"
        }
      ],
      "stateMutability": "view",
      "type": "function"
    },
    {
      "inputs": [
        {
          "internalType": "uint256",
          "name": "_index",
          "type": "uint256"
        }
      ],
      "name": "getBatchIdAtIndex",
      "outputs": [
        {
          "internalType": "uint256",
          "name": "",
          "type": "uint256"
        }
      ],
      "stateMutability": "view",
      "type": "function"
    },
    {
      "inputs": [],
      "name": "getDefaultRoyaltyInfo",
      "outputs": [
        {
          "internalType": "address",
          "name": "",
          "type": "address"
        },
        {
          "internalType": "uint16",
          "name": "",
          "type": "uint16"
        }
      ],
      "stateMutability": "view",
      "type": "function"
    },
    {
      "inputs": [
        {
          "internalType": "uint256",
          "name": "_intentId",
          "type": "uint256"
        }
      ],
      "name": "getIntent",
      "outputs": [
        {
          "components": [
            {
              "internalType": "uint256",
              "name": "id",
              "type": "uint256"
            },
            {
              "internalType": "address",
              "name": "user",
              "type": "address"
            },
            {
              "internalType": "string",
              "name": "description",
              "type": "string"
            },
            {
              "internalType": "uint256",
              "name": "estimatedCost",
              "type": "uint256"
            },
            {
              "internalType": "uint256",
              "name": "timestamp",
              "type": "uint256"
            },
            {
              "internalType": "uint256",
              "name": "executionTime",
              "type": "uint256"
            },
            {
              "internalType": "bool",
              "name": "executed",
              "type": "bool"
            },
            {
              "internalType": "bool",
              "name": "isScheduled",
              "type": "bool"
            },
            {
              "internalType": "address",
              "name": "tokenIn",
              "type": "address"
            },
            {
              "internalType": "uint256",
              "name": "amountIn",
              "type": "uint256"
            },
            {
              "internalType": "address",
              "name": "tokenOut",
              "type": "address"
            },
            {
              "internalType": "uint256",
              "name": "slippageTolerance",
              "type": "uint256"
            },
            {
              "internalType": "bool",
              "name": "isActive",
              "type": "bool"
            }
          ],
          "internalType": "struct WalletPlanner.Intent",
          "name": "",
          "type": "tuple"
        }
      ],
      "stateMutability": "view",
      "type": "function"
    },
    {
      "inputs": [
        {
          "internalType": "uint256",
          "name": "_tokenId",
          "type": "uint256"
        }
      ],
      "name": "getRoyaltyInfoForToken",
      "outputs": [
        {
          "internalType": "address",
          "name": "",
          "type": "address"
        },
        {
          "internalType": "uint16",
          "name": "",
          "type": "uint16"
        }
      ],
      "stateMutability": "view",
      "type": "function"
    },
    {
      "inputs": [
        {
          "internalType": "address",
          "name": "tokenIn",
          "type": "address"
        },
        {
          "internalType": "uint256",
          "name": "amountIn",
          "type": "uint256"
        },
        {
          "internalType": "address",
          "name": "tokenOut",
          "type": "address"
        }
      ],
      "name": "getSwapEstimate",
      "outputs": [
        {
          "internalType": "uint256",
          "name": "estimatedAmountOut",
          "type": "uint256"
        }
      ],
      "stateMutability": "view",
      "type": "function"
    },
    {
      "inputs": [
        {
          "internalType": "address",
          "name": "user",
          "type": "address"
        },
        {
          "internalType": "address",
          "name": "token",
          "type": "address"
        }
      ],
      "name": "getUserBalance",
      "outputs": [
        {
          "internalType": "uint256",
          "name": "",
          "type": "uint256"
        }
      ],
      "stateMutability": "view",
      "type": "function"
    },
    {
      "inputs": [
        {
          "internalType": "address",
          "name": "_user",
          "type": "address"
        }
      ],
      "name": "getUserIntents",
      "outputs": [
        {
          "internalType": "uint256[]",
          "name": "",
          "type": "uint256[]"
        }
      ],
      "stateMutability": "view",
      "type": "function"
    },
    {
      "inputs": [
        {
          "internalType": "uint256",
          "name": "",
          "type": "uint256"
        }
      ],
      "name": "intents",
      "outputs": [
        {
          "internalType": "uint256",
          "name": "id",
          "type": "uint256"
        },
        {
          "internalType": "address",
          "name": "user",
          "type": "address"
        },
        {
          "internalType": "string",
          "name": "description",
          "type": "string"
        },
        {
          "internalType": "uint256",
          "name": "estimatedCost",
          "type": "uint256"
        },
        {
          "internalType": "uint256",
          "name": "timestamp",
          "type": "uint256"
        },
        {
          "internalType": "uint256",
          "name": "executionTime",
          "type": "uint256"
        },
        {
          "internalType": "bool",
          "name": "executed",
          "type": "bool"
        },
        {
          "internalType": "bool",
          "name": "isScheduled",
          "type": "bool"
        },
        {
          "internalType": "address",
          "name": "tokenIn",
          "type": "address"
        },
        {
          "internalType": "uint256",
          "name": "amountIn",
          "type": "uint256"
        },
        {
          "internalType": "address",
          "name": "tokenOut",
          "type": "address"
        },
        {
          "internalType": "uint256",
          "name": "slippageTolerance",
          "type": "uint256"
        },
        {
          "internalType": "bool",
          "name": "isActive",
          "type": "bool"
        }
      ],
      "stateMutability": "view",
      "type": "function"
    },
    {
      "inputs": [
        {
          "internalType": "address",
          "name": "owner",
          "type": "address"
        },
        {
          "internalType": "address",
          "name": "operator",
          "type": "address"
        }
      ],
      "name": "isApprovedForAll",
      "outputs": [
        {
          "internalType": "bool",
          "name": "",
          "type": "bool"
        }
      ],
      "stateMutability": "view",
      "type": "function"
    },
    {
      "inputs": [
        {
          "internalType": "address",
          "name": "_operator",
          "type": "address"
        },
        {
          "internalType": "uint256",
          "name": "_tokenId",
          "type": "uint256"
        }
      ],
      "name": "isApprovedOrOwner",
      "outputs": [
        {
          "internalType": "bool",
          "name": "isApprovedOrOwnerOf",
          "type": "bool"
        }
      ],
      "stateMutability": "view",
      "type": "function"
    },
    {
      "inputs": [],
      "name": "lastChecked",
      "outputs": [
        {
          "internalType": "uint256",
          "name": "",
          "type": "uint256"
        }
      ],
      "stateMutability": "view",
      "type": "function"
    },
    {
      "inputs": [
        {
          "internalType": "address",
          "name": "_to",
          "type": "address"
        },
        {
          "internalType": "string",
          "name": "_tokenURI",
          "type": "string"
        }
      ],
      "name": "mintTo",
      "outputs": [],
      "stateMutability": "nonpayable",
      "type": "function"
    },
    {
      "inputs": [
        {
          "internalType": "bytes[]",
          "name": "data",
          "type": "bytes[]"
        }
      ],
      "name": "multicall",
      "outputs": [
        {
          "internalType": "bytes[]",
          "name": "results",
          "type": "bytes[]"
        }
      ],
      "stateMutability": "nonpayable",
      "type": "function"
    },
    {
      "inputs": [],
      "name": "name",
      "outputs": [
        {
          "internalType": "string",
          "name": "",
          "type": "string"
        }
      ],
      "stateMutability": "view",
      "type": "function"
    },
    {
      "inputs": [],
      "name": "nextTokenIdToMint",
      "outputs": [
        {
          "internalType": "uint256",
          "name": "",
          "type": "uint256"
        }
      ],
      "stateMutability": "view",
      "type": "function"
    },
    {
      "inputs": [],
      "name": "owner",
      "outputs": [
        {
          "internalType": "address",
          "name": "",
          "type": "address"
        }
      ],
      "stateMutability": "view",
      "type": "function"
    },
    {
      "inputs": [
        {
          "internalType": "uint256",
          "name": "tokenId",
          "type": "uint256"
        }
      ],
      "name": "ownerOf",
      "outputs": [
        {
          "internalType": "address",
          "name": "",
          "type": "address"
        }
      ],
      "stateMutability": "view",
      "type": "function"
    },
    {
      "inputs": [
        {
          "internalType": "bytes",
          "name": "performData",
          "type": "bytes"
        }
      ],
      "name": "performUpkeep",
      "outputs": [],
      "stateMutability": "nonpayable",
      "type": "function"
    },
    {
      "inputs": [
        {
          "internalType": "address",
          "name": "token",
          "type": "address"
        }
      ],
      "name": "removeSupportedToken",
      "outputs": [],
      "stateMutability": "nonpayable",
      "type": "function"
    },
    {
      "inputs": [
        {
          "internalType": "uint256",
          "name": "tokenId",
          "type": "uint256"
        },
        {
          "internalType": "uint256",
          "name": "salePrice",
          "type": "uint256"
        }
      ],
      "name": "royaltyInfo",
      "outputs": [
        {
          "internalType": "address",
          "name": "receiver",
          "type": "address"
        },
        {
          "internalType": "uint256",
          "name": "royaltyAmount",
          "type": "uint256"
        }
      ],
      "stateMutability": "view",
      "type": "function"
    },
    {
      "inputs": [
        {
          "internalType": "address",
          "name": "from",
          "type": "address"
        },
        {
          "internalType": "address",
          "name": "to",
          "type": "address"
        },
        {
          "internalType": "uint256",
          "name": "tokenId",
          "type": "uint256"
        }
      ],
      "name": "safeTransferFrom",
      "outputs": [],
      "stateMutability": "nonpayable",
      "type": "function"
    },
    {
      "inputs": [
        {
          "internalType": "address",
          "name": "from",
          "type": "address"
        },
        {
          "internalType": "address",
          "name": "to",
          "type": "address"
        },
        {
          "internalType": "uint256",
          "name": "tokenId",
          "type": "uint256"
        },
        {
          "internalType": "bytes",
          "name": "_data",
          "type": "bytes"
        }
      ],
      "name": "safeTransferFrom",
      "outputs": [],
      "stateMutability": "nonpayable",
      "type": "function"
    },
    {
      "inputs": [
        {
          "internalType": "address",
          "name": "operator",
          "type": "address"
        },
        {
          "internalType": "bool",
          "name": "approved",
          "type": "bool"
        }
      ],
      "name": "setApprovalForAll",
      "outputs": [],
      "stateMutability": "nonpayable",
      "type": "function"
    },
    {
      "inputs": [
        {
          "internalType": "string",
          "name": "_uri",
          "type": "string"
        }
      ],
      "name": "setContractURI",
      "outputs": [],
      "stateMutability": "nonpayable",
      "type": "function"
    },
    {
      "inputs": [
        {
          "internalType": "address",
          "name": "_royaltyRecipient",
          "type": "address"
        },
        {
          "internalType": "uint256",
          "name": "_royaltyBps",
          "type": "uint256"
        }
      ],
      "name": "setDefaultRoyaltyInfo",
      "outputs": [],
      "stateMutability": "nonpayable",
      "type": "function"
    },
    {
      "inputs": [
        {
          "internalType": "address",
          "name": "_functionsConsumer",
          "type": "address"
        }
      ],
      "name": "setFunctionsConsumer",
      "outputs": [],
      "stateMutability": "nonpayable",
      "type": "function"
    },
    {
      "inputs": [
        {
          "internalType": "address",
          "name": "_newOwner",
          "type": "address"
        }
      ],
      "name": "setOwner",
      "outputs": [],
      "stateMutability": "nonpayable",
      "type": "function"
    },
    {
      "inputs": [
        {
          "internalType": "uint256",
          "name": "_tokenId",
          "type": "uint256"
        },
        {
          "internalType": "address",
          "name": "_recipient",
          "type": "address"
        },
        {
          "internalType": "uint256",
          "name": "_bps",
          "type": "uint256"
        }
      ],
      "name": "setRoyaltyInfoForToken",
      "outputs": [],
      "stateMutability": "nonpayable",
      "type": "function"
    },
    {
      "inputs": [
        {
          "internalType": "address",
          "name": "",
          "type": "address"
        }
      ],
      "name": "supportedTokens",
      "outputs": [
        {
          "internalType": "bool",
          "name": "",
          "type": "bool"
        }
      ],
      "stateMutability": "view",
      "type": "function"
    },
    {
      "inputs": [
        {
          "internalType": "bytes4",
          "name": "interfaceId",
          "type": "bytes4"
        }
      ],
      "name": "supportsInterface",
      "outputs": [
        {
          "internalType": "bool",
          "name": "",
          "type": "bool"
        }
      ],
      "stateMutability": "view",
      "type": "function"
    },
    {
      "inputs": [],
      "name": "symbol",
      "outputs": [
        {
          "internalType": "string",
          "name": "",
          "type": "string"
        }
      ],
      "stateMutability": "view",
      "type": "function"
    },
    {
      "inputs": [
        {
          "internalType": "uint256",
          "name": "_tokenId",
          "type": "uint256"
        }
      ],
      "name": "tokenURI",
      "outputs": [
        {
          "internalType": "string",
          "name": "",
          "type": "string"
        }
      ],
      "stateMutability": "view",
      "type": "function"
    },
    {
      "inputs": [
        {
          "internalType": "address",
          "name": "owner",
          "type": "address"
        }
      ],
      "name": "tokensOfOwner",
      "outputs": [
        {
          "internalType": "uint256[]",
          "name": "",
          "type": "uint256[]"
        }
      ],
      "stateMutability": "view",
      "type": "function"
    },
    {
      "inputs": [
        {
          "internalType": "address",
          "name": "owner",
          "type": "address"
        },
        {
          "internalType": "uint256",
          "name": "start",
          "type": "uint256"
        },
        {
          "internalType": "uint256",
          "name": "stop",
          "type": "uint256"
        }
      ],
      "name": "tokensOfOwnerIn",
      "outputs": [
        {
          "internalType": "uint256[]",
          "name": "",
          "type": "uint256[]"
        }
      ],
      "stateMutability": "view",
      "type": "function"
    },
    {
      "inputs": [],
      "name": "totalSupply",
      "outputs": [
        {
          "internalType": "uint256",
          "name": "",
          "type": "uint256"
        }
      ],
      "stateMutability": "view",
      "type": "function"
    },
    {
      "inputs": [
        {
          "internalType": "address",
          "name": "from",
          "type": "address"
        },
        {
          "internalType": "address",
          "name": "to",
          "type": "address"
        },
        {
          "internalType": "uint256",
          "name": "tokenId",
          "type": "uint256"
        }
      ],
      "name": "transferFrom",
      "outputs": [],
      "stateMutability": "nonpayable",
      "type": "function"
    },
    {
      "inputs": [],
      "name": "uniswapRouter",
      "outputs": [
        {
          "internalType": "contract IUniswapV2Router02",
          "name": "",
          "type": "address"
        }
      ],
      "stateMutability": "view",
      "type": "function"
    },
    {
      "inputs": [
        {
          "internalType": "address",
          "name": "",
          "type": "address"
        },
        {
          "internalType": "address",
          "name": "",
          "type": "address"
        }
      ],
      "name": "userBalances",
      "outputs": [
        {
          "internalType": "uint256",
          "name": "",
          "type": "uint256"
        }
      ],
      "stateMutability": "view",
      "type": "function"
    },
    {
      "inputs": [
        {
          "internalType": "address",
          "name": "",
          "type": "address"
        },
        {
          "internalType": "uint256",
          "name": "",
          "type": "uint256"
        }
      ],
      "name": "userIntents",
      "outputs": [
        {
          "internalType": "uint256",
          "name": "",
          "type": "uint256"
        }
      ],
      "stateMutability": "view",
      "type": "function"
    },
    {
      "inputs": [
        {
          "internalType": "address",
          "name": "token",
          "type": "address"
        },
        {
          "internalType": "uint256",
          "name": "amount",
          "type": "uint256"
        }
      ],
      "name": "withdrawToken",
      "outputs": [],
      "stateMutability": "nonpayable",
      "type": "function"
    },
    {
      "stateMutability": "payable",
      "type": "receive"
    }
  ],
  "bytecode": "0x60a06040523480156200001157600080fd5b506040516200628a3803806200628a833981016040819052620000349162000335565b85858585858383600262000049838262000486565b50600362000058828262000486565b505060008055506200006a856200016c565b6200007f826001600160801b038316620001be565b5050506001600160a01b0383169150620000b090505773c532a74256d3db42d0bf7a0400fefdbad7694008620000b2565b805b6001600160a01b03166080525050601460205250507f4f9053452157b4cea1242edc5539416610407ce8477c1a7a9036e88748ef0c7f8054600160ff1991821681179092557fe77da4f610b28935e934a6462fcdfb2ad6a0b0e24d20ef6dda246f831b48d72c805482168317905573fff9976782d46cc05630d1f6ebab18b2324d6b146000527fdc7948e2eb5a76580fa7093b5c69463e8d61d81b599b38c0a1ab26395c85778f8054909116909117905550620005529050565b600980546001600160a01b038381166001600160a01b0319831681179093556040519116919082907f8292fce18fa69edf4db7b94ea2e58241df0ae57f97e0a6c9b29067028bf92d7690600090a35050565b612710811115620001f157604051630a4930ad60e31b815261271060048201526024810182905260440160405180910390fd5b600a80546001600160a01b0384166001600160b01b03199091168117600160a01b61ffff851602179091556040518281527f90d7ec04bcb8978719414f82e52e4cb651db41d0e6f8cea6118c2191e6183adb9060200160405180910390a25050565b80516001600160a01b03811681146200026b57600080fd5b919050565b634e487b7160e01b600052604160045260246000fd5b600082601f8301126200029857600080fd5b81516001600160401b0380821115620002b557620002b562000270565b604051601f8301601f19908116603f01168101908282118183101715620002e057620002e062000270565b81604052838152602092508683858801011115620002fd57600080fd5b600091505b8382101562000321578582018301518183018401529082019062000302565b600093810190920192909252949350505050565b60008060008060008060c087890312156200034f57600080fd5b6200035a8762000253565b60208801519096506001600160401b03808211156200037857600080fd5b620003868a838b0162000286565b965060408901519150808211156200039d57600080fd5b50620003ac89828a0162000286565b945050620003bd6060880162000253565b60808801519093506001600160801b0381168114620003db57600080fd5b9150620003eb60a0880162000253565b90509295509295509295565b600181811c908216806200040c57607f821691505b6020821081036200042d57634e487b7160e01b600052602260045260246000fd5b50919050565b601f8211156200048157600081815260208120601f850160051c810160208610156200045c5750805b601f850160051c820191505b818110156200047d5782815560010162000468565b5050505b505050565b81516001600160401b03811115620004a257620004a262000270565b620004ba81620004b38454620003f7565b8462000433565b602080601f831160018114620004f25760008415620004d95750858301515b600019600386901b1c1916600185901b1785556200047d565b600085815260208120601f198616915b82811015620005235788860151825594840194600190910190840162000502565b5085821015620005425787850151600019600388901b60f8161c191681555b5050505050600190811b01905550565b608051615cf262000598600039600081816108f9015281816132b101528181613ce201528181613e1301528181613edd01528181614165015261423b0152615cf26000f3fe6080604052600436106104325760003560e01c80638304053211610228578063ac9650d811610128578063cd9d6aee116100bb578063e8a3d4851161008a578063f97595181161006f578063f975951814610da1578063fa3209b214610db7578063fbd7c03614610dd757600080fd5b8063e8a3d48514610d43578063e985e9c514610d5857600080fd5b8063cd9d6aee14610cc5578063de02666b14610ce5578063e0bab4c414610d05578063e5ada13e14610d2d57600080fd5b8063b88d4fde116100f7578063b88d4fde14610c38578063c056cd0f14610c58578063c23dc68f14610c78578063c87b56dd14610ca557600080fd5b8063ac9650d814610b80578063ad5c464814610bad578063adb5198014610bd5578063b24f2d3914610c0d57600080fd5b8063938e3d7b116101bb5780639e281a981161018a578063a22cb4651161016f578063a22cb46514610b2b578063a879851014610b4b578063abef9ba114610b6057600080fd5b80639e281a9814610aeb578063a0a31aac14610b0b57600080fd5b8063938e3d7b14610a7657806395d89b4114610a9657806399a2557a14610aab5780639bcf7a1514610acb57600080fd5b806389c9c3ae116101f757806389c9c3ae146109f557806389facb2014610a155780638da5cb5b14610a2b578063906e277b14610a4957600080fd5b8063830405321461095b578063845360171461098b5780638462151c146109a057806389a30271146109cd57600080fd5b806346a1a09511610333578063685b2bcc116102c65780636ff1c9bc11610295578063735de9f71161027a578063735de9f7146108e7578063754a81d91461091b578063763191901461093b57600080fd5b80636ff1c9bc146108a757806370a08231146108c757600080fd5b8063685b2bcc1461080957806368c4ac26146108295780636d69fcaf146108595780636e04ff0d1461087957600080fd5b80636352211e116103025780636352211e1461076e57806363b45e2d1461078e57806366af889d146107a35780636805d6ad146107c357600080fd5b806346a1a095146106a65780634cc157df146106df5780635bbb217714610721578063600dd5ea1461074e57600080fd5b806323b872dd116103c65780633b1475a71161039557806342966c681161037a57806342966c6814610646578063430c2081146106665780634585e33b1461068657600080fd5b80633b1475a71461061157806342842e0e1461062657600080fd5b806323b872dd146105725780632419f51b146105925780632a55205a146105b2578063338b5dea146105f157600080fd5b8063081812fc11610402578063081812fc146104ef578063095ea7b31461050f57806313af40351461052f57806318160ddd1461054f57600080fd5b806275a3171461043e57806301ffc9a7146104605780630689bafd1461049557806306fdde03146104cd57600080fd5b3661043957005b600080fd5b34801561044a57600080fd5b5061045e610459366004614e29565b610df7565b005b34801561046c57600080fd5b5061048061047b366004614e8d565b610e36565b60405190151581526020015b60405180910390f35b3480156104a157600080fd5b506016546104b5906001600160a01b031681565b6040516001600160a01b03909116815260200161048c565b3480156104d957600080fd5b506104e2610f07565b60405161048c9190614efa565b3480156104fb57600080fd5b506104b561050a366004614f0d565b610f99565b34801561051b57600080fd5b5061045e61052a366004614f26565b610ff6565b34801561053b57600080fd5b5061045e61054a366004614f50565b6110ae565b34801561055b57600080fd5b50600154600054035b60405190815260200161048c565b34801561057e57600080fd5b5061045e61058d366004614f6b565b6110df565b34801561059e57600080fd5b506105646105ad366004614f0d565b6110ea565b3480156105be57600080fd5b506105d26105cd366004614fa7565b611155565b604080516001600160a01b03909316835260208301919091520161048c565b3480156105fd57600080fd5b5061045e61060c366004614f26565b611192565b34801561061d57600080fd5b50600054610564565b34801561063257600080fd5b5061045e610641366004614f6b565b6112d1565b34801561065257600080fd5b5061045e610661366004614f0d565b6112ec565b34801561067257600080fd5b50610480610681366004614f26565b6112f7565b34801561069257600080fd5b5061045e6106a1366004614fc9565b611376565b3480156106b257600080fd5b506106c66106c1366004614f0d565b611513565b60405161048c9d9c9b9a9998979695949392919061503b565b3480156106eb57600080fd5b506106ff6106fa366004614f0d565b61161b565b604080516001600160a01b03909316835261ffff90911660208301520161048c565b34801561072d57600080fd5b5061074161073c366004615108565b611686565b60405161048c919061519e565b34801561075a57600080fd5b5061045e610769366004614f26565b61174d565b34801561077a57600080fd5b506104b5610789366004614f0d565b61177c565b34801561079a57600080fd5b50600c54610564565b3480156107af57600080fd5b506105646107be366004615209565b61178e565b3480156107cf57600080fd5b506105646107de36600461528e565b6001600160a01b03918216600090815260136020908152604080832093909416825291909152205490565b34801561081557600080fd5b506105646108243660046152c1565b611abc565b34801561083557600080fd5b50610480610844366004614f50565b60146020526000908152604090205460ff1681565b34801561086557600080fd5b5061045e610874366004614f50565b611ad5565b34801561088557600080fd5b50610899610894366004614fc9565b611b24565b60405161048c929190615316565b3480156108b357600080fd5b5061045e6108c2366004614f50565b611bf7565b3480156108d357600080fd5b506105646108e2366004614f50565b611d33565b3480156108f357600080fd5b506104b57f000000000000000000000000000000000000000000000000000000000000000081565b34801561092757600080fd5b5061045e610936366004615331565b611d9b565b34801561094757600080fd5b5061045e610956366004614f50565b611dc1565b34801561096757600080fd5b50610480610976366004614f0d565b600e6020526000908152604090205460ff1681565b34801561099757600080fd5b5061045e611e0d565b3480156109ac57600080fd5b506109c06109bb366004614f50565b611e71565b60405161048c91906153af565b3480156109d957600080fd5b506104b5731c7d4b196cb0c7b01d743fbc6116a902379c723881565b348015610a0157600080fd5b50610564610a10366004614f26565b611fb0565b348015610a2157600080fd5b50610564610e1081565b348015610a3757600080fd5b506009546001600160a01b03166104b5565b348015610a5557600080fd5b50610a69610a64366004614f0d565b611fe1565b60405161048c91906153e7565b348015610a8257600080fd5b5061045e610a913660046154d8565b6121c8565b348015610aa257600080fd5b506104e261220f565b348015610ab757600080fd5b506109c0610ac636600461550d565b61221e565b348015610ad757600080fd5b5061045e610ae6366004615540565b6123ec565b348015610af757600080fd5b5061045e610b06366004614f26565b61241c565b348015610b1757600080fd5b5061045e610b26366004614f0d565b61254c565b348015610b3757600080fd5b5061045e610b46366004615573565b61269a565b348015610b5757600080fd5b5061056460c881565b348015610b6c57600080fd5b50610564610b7b3660046155aa565b612741565b348015610b8c57600080fd5b50610ba0610b9b3660046155ef565b61293c565b60405161048c9190615652565b348015610bb957600080fd5b506104b573fff9976782d46cc05630d1f6ebab18b2324d6b1481565b348015610be157600080fd5b50610564610bf036600461528e565b601360209081526000928352604080842090915290825290205481565b348015610c1957600080fd5b50600a546001600160a01b03811690600160a01b900461ffff166106ff565b348015610c4457600080fd5b5061045e610c533660046156b4565b612aac565b348015610c6457600080fd5b50610564610c73366004615710565b612af0565b348015610c8457600080fd5b50610c98610c93366004614f0d565b612dcd565b60405161048c919061578a565b348015610cb157600080fd5b506104e2610cc0366004614f0d565b612e7c565b348015610cd157600080fd5b5061045e610ce0366004614f0d565b612f6a565b348015610cf157600080fd5b50610564610d003660046157c0565b613051565b348015610d1157600080fd5b506104b573ff34b3d4aee8ddcd6f9afffb6fe49bd371b8a35781565b348015610d3957600080fd5b5061056460155481565b348015610d4f57600080fd5b506104e2613365565b348015610d6457600080fd5b50610480610d7336600461528e565b6001600160a01b03918216600090815260076020908152604080832093909416825291909152205460ff1690565b348015610dad57600080fd5b506105646101f481565b348015610dc357600080fd5b506109c0610dd2366004614f50565b6133f3565b348015610de357600080fd5b5061045e610df2366004614f50565b61345f565b610e05565b60405180910390fd5b610e17610e1160005490565b826134ac565b610e328260016040518060200160405280600081525061352c565b5050565b60007f01ffc9a7000000000000000000000000000000000000000000000000000000006001600160e01b031983161480610e9957507f80ac58cd000000000000000000000000000000000000000000000000000000006001600160e01b03198316145b80610ecd57507f5b5e139f000000000000000000000000000000000000000000000000000000006001600160e01b03198316145b80610f0157506001600160e01b031982167f2a55205a00000000000000000000000000000000000000000000000000000000145b92915050565b606060028054610f16906157fc565b80601f0160208091040260200160405190810160405280929190818152602001828054610f42906157fc565b8015610f8f5780601f10610f6457610100808354040283529160200191610f8f565b820191906000526020600020905b815481529060010190602001808311610f7257829003601f168201915b5050505050905090565b6000610fa4826136f4565b610fda576040517fcf4700e400000000000000000000000000000000000000000000000000000000815260040160405180910390fd5b506000908152600660205260409020546001600160a01b031690565b60006110018261177c565b9050806001600160a01b0316836001600160a01b03160361104e576040517f943f7b8c00000000000000000000000000000000000000000000000000000000815260040160405180910390fd5b336001600160a01b0382161461109e576110688133610d73565b61109e576040517fcfb3b94200000000000000000000000000000000000000000000000000000000815260040160405180910390fd5b6110a983838361371f565b505050565b6110b661377b565b6110d3576040516316ccb9cb60e11b815260040160405180910390fd5b6110dc816137a8565b50565b6110a98383836137fa565b60006110f5600c5490565b8210611130576040517f0f2624ee00000000000000000000000000000000000000000000000000000000815260048101839052602401610dfc565b600c828154811061114357611143615836565b90600052602060002001549050919050565b6000806000806111648661161b565b90945084925061ffff16905061271061117d8287615862565b611187919061588f565b925050509250929050565b6001600160a01b03821660009081526014602052604090205460ff1680156111ba5750600081115b6111c357600080fd5b6040517f23b872dd000000000000000000000000000000000000000000000000000000008152336004820152306024820152604481018290526001600160a01b038316906323b872dd906064016020604051808303816000875af115801561122f573d6000803e3d6000fd5b505050506040513d601f19601f8201168201806040525081019061125391906158a3565b503360009081526013602090815260408083206001600160a01b0386168452909152812080548392906112879084906158c0565b90915550506040518181526001600160a01b0383169033907ff1444b5cad7ce70cb018d1b8edc8618fe303f3c7f034d8d572a6e27facbf2bef906020015b60405180910390a35050565b6110a983838360405180602001604052806000815250612aac565b6110dc816001613a1c565b6000806113038361177c565b9050806001600160a01b0316846001600160a01b0316148061134a57506001600160a01b0380821660009081526007602090815260408083209388168352929052205460ff165b8061136e5750836001600160a01b031661136384610f99565b6001600160a01b0316145b949350505050565b600061138482840184614f0d565b4260155590506000805b6010548110801561139e57508282105b156114d35760008181526011602052604090206006810154610100900460ff1680156113cf5750600681015460ff16155b80156113df575080600501544210155b156114c05760068101805460ff19166001179055826113fd816158d3565b60068301549094506201000090046001600160a01b03161580159150611427575060008160070154115b156114685760068101546007820154600883015460018401546009850154611466946001600160a01b0362010000909104811694938116921690613c12565b505b600180820154611483916001600160a01b0390911690614370565b60018101546040516001600160a01b039091169083907f6852407858602d696344801f0181bc507c808c727c914bb6cdfeabd42431af3890600090a35b50806114cb816158d3565b91505061138e565b5060408051428152602081018390527ff2d16d924eb54b4e0b6d5caea0349992ed5475ad6772b934ee978621b5d3d401910160405180910390a150505050565b60116020526000908152604090208054600182015460028301805492936001600160a01b0390921692611545906157fc565b80601f0160208091040260200160405190810160405280929190818152602001828054611571906157fc565b80156115be5780601f10611593576101008083540402835291602001916115be565b820191906000526020600020905b8154815290600101906020018083116115a157829003601f168201915b505050506003830154600484015460058501546006860154600787015460088801546009890154600a9099015497989597949650929460ff8084169561010085048216956001600160a01b0362010000909604861695169291168d565b6000818152600b60209081526040808320815180830190925280546001600160a01b031680835260019091015492820192909252829115611662578051602082015161167c565b600a546001600160a01b03811690600160a01b900461ffff165b9250925050915091565b805160609060008167ffffffffffffffff8111156116a6576116a6614d72565b6040519080825280602002602001820160405280156116f157816020015b60408051606081018252600080825260208083018290529282015282526000199092019101816116c45790505b50905060005b8281146117455761172085828151811061171357611713615836565b6020026020010151612dcd565b82828151811061173257611732615836565b60209081029190910101526001016116f7565b509392505050565b61175561377b565b61177257604051636fae358160e11b815260040160405180910390fd5b610e3282826144a3565b60006117878261454b565b5192915050565b60004286116117df5760405162461bcd60e51b815260206004820181905260248201527f457865637574696f6e2074696d65206d75737420626520696e206675747572656044820152606401610dfc565b6001600160a01b03851660009081526014602052604090205460ff166118475760405162461bcd60e51b815260206004820152601360248201527f546f6b656e206e6f7420737570706f72746564000000000000000000000000006044820152606401610dfc565b6101f48211156118995760405162461bcd60e51b815260206004820152601160248201527f536c69707061676520746f6f20686967680000000000000000000000000000006044820152606401610dfc565b60108054600091826118aa836158d3565b919050559050604051806101a00160405280828152602001336001600160a01b031681526020018a8152602001898152602001428152602001888152602001600015158152602001600115158152602001876001600160a01b03168152602001868152602001856001600160a01b031681526020016000851161192e5760c8611930565b845b815260016020918201819052600084815260118352604090819020845181559284015191830180546001600160a01b0319166001600160a01b03909316929092179091558201516002820190611986908261593a565b50606082015160038201556080820151600482015560a0820151600582015560c082015160068201805460e08501516101008087015161ffff1990931694151561ff001916949094179015159093029290921775ffffffffffffffffffffffffffffffffffffffff00001916620100006001600160a01b039384160217905561012083015160078301556101408301516008830180546001600160a01b03191691909216179055610160820151600982015561018090910151600a909101805460ff1916911515919091179055336000818152601260209081526040808320805460018101825590845291909220018390555182907fb6f430c8722299f241d9c66e77ee068ce71fb3d66d1c0af7d457ef4e50b4e59b90611aa8908d90614efa565b60405180910390a398975050505050505050565b6000611acb8686868686613c12565b9695505050505050565b6009546001600160a01b03163314611b00576040516316ccb9cb60e11b815260040160405180910390fd5b6001600160a01b03166000908152601460205260409020805460ff19166001179055565b600060606000610e1060155442611b3b91906159fa565b1190506000805b60105481108015611b535750600582105b15611bba5760008181526011602052604090206006810154610100900460ff168015611b845750600681015460ff16155b8015611b94575080600501544210155b15611ba75782611ba3816158d3565b9350505b5080611bb2816158d3565b915050611b42565b50818015611bc85750600081115b935080604051602001611bdd91815260200190565b604051602081830303815290604052925050509250929050565b6009546001600160a01b03163314611c22576040516316ccb9cb60e11b815260040160405180910390fd5b806001600160a01b031663a9059cbb611c436009546001600160a01b031690565b6040517f70a082310000000000000000000000000000000000000000000000000000000081523060048201526001600160a01b038516906370a0823190602401602060405180830381865afa158015611ca0573d6000803e3d6000fd5b505050506040513d601f19601f82011682018060405250810190611cc49190615a0d565b6040516001600160e01b031960e085901b1681526001600160a01b03909216600483015260248201526044016020604051808303816000875af1158015611d0f573d6000803e3d6000fd5b505050506040513d601f19601f82011682018060405250810190610e3291906158a3565b60006001600160a01b038216611d75576040517f8f4eb60400000000000000000000000000000000000000000000000000000000815260040160405180910390fd5b506001600160a01b031660009081526005602052604090205467ffffffffffffffff1690565b611dae611da760005490565b8484614680565b5050611dbb84848361352c565b50505050565b6009546001600160a01b03163314611dec576040516316ccb9cb60e11b815260040160405180910390fd5b6001600160a01b03166000908152601460205260409020805460ff19169055565b6009546001600160a01b03163314611e38576040516316ccb9cb60e11b815260040160405180910390fd5b6009546040516001600160a01b03909116904780156108fc02916000818181858888f193505050501580156110dc573d6000803e3d6000fd5b60606000806000611e8185611d33565b905060008167ffffffffffffffff811115611e9e57611e9e614d72565b604051908082528060200260200182016040528015611ec7578160200160208202803683370190505b50604080516060810182526000808252602082018190529181018290529192505b838614611fa457600081815260046020908152604091829020825160608101845290546001600160a01b0381168252600160a01b810467ffffffffffffffff1692820192909252600160e01b90910460ff1615159181018290529250611f9c5781516001600160a01b031615611f5d57815194505b876001600160a01b0316856001600160a01b031603611f9c5780838780600101985081518110611f8f57611f8f615836565b6020026020010181815250505b600101611ee8565b50909695505050505050565b60126020528160005260406000208181548110611fcc57600080fd5b90600052602060002001600091509150505481565b61206d604051806101a001604052806000815260200160006001600160a01b031681526020016060815260200160008152602001600081526020016000815260200160001515815260200160001515815260200160006001600160a01b031681526020016000815260200160006001600160a01b03168152602001600081526020016000151581525090565b60008281526011602090815260409182902082516101a0810184528154815260018201546001600160a01b03169281019290925260028101805492939192918401916120b8906157fc565b80601f01602080910402602001604051908101604052809291908181526020018280546120e4906157fc565b80156121315780601f1061210657610100808354040283529160200191612131565b820191906000526020600020905b81548152906001019060200180831161211457829003601f168201915b5050509183525050600382015460208201526004820154604082015260058201546060820152600682015460ff808216151560808401526101008083048216151560a0850152620100009092046001600160a01b0390811660c0850152600785015460e0850152600885015416918301919091526009830154610120830152600a9092015490911615156101409091015292915050565b6121d061377b565b612206576040517f9f7f092500000000000000000000000000000000000000000000000000000000815260040160405180910390fd5b6110dc816146e4565b606060038054610f16906157fc565b6060818310612259576040517f32c1995a00000000000000000000000000000000000000000000000000000000815260040160405180910390fd5b6000805480841115612269578093505b600061227487611d33565b905084861015612293578585038181101561228d578091505b50612297565b5060005b60008167ffffffffffffffff8111156122b2576122b2614d72565b6040519080825280602002602001820160405280156122db578160200160208202803683370190505b509050816000036122f15793506123e592505050565b60006122fc88612dcd565b90506000816040015161230d575080515b885b88811415801561231f5750848714155b156123d957600081815260046020908152604091829020825160608101845290546001600160a01b0381168252600160a01b810467ffffffffffffffff1692820192909252600160e01b90910460ff16151591810182905293506123d15782516001600160a01b03161561239257825191505b8a6001600160a01b0316826001600160a01b0316036123d157808488806001019950815181106123c4576123c4615836565b6020026020010181815250505b60010161230f565b50505092835250909150505b9392505050565b6123f461377b565b61241157604051636fae358160e11b815260040160405180910390fd5b6110a98383836147c0565b3360009081526013602090815260408083206001600160a01b038616845290915290205481111561244c57600080fd5b3360009081526013602090815260408083206001600160a01b03861684529091528120805483929061247f9084906159fa565b90915550506040517fa9059cbb000000000000000000000000000000000000000000000000000000008152336004820152602481018290526001600160a01b0383169063a9059cbb906044016020604051808303816000875af11580156124ea573d6000803e3d6000fd5b505050506040513d601f19601f8201168201806040525081019061250e91906158a3565b506040518181526001600160a01b0383169033907f8210728e7c071f615b840ee026032693858fbcd5e5359e67e438c890f59e5620906020016112c5565b600081815260116020526040902060018101546001600160a01b031633146125b65760405162461bcd60e51b815260206004820152601460248201527f4e6f742074686520696e74656e74206f776e65720000000000000000000000006044820152606401610dfc565b600681015460ff161561260b5760405162461bcd60e51b815260206004820152601760248201527f496e74656e7420616c72656164792065786563757465640000000000000000006044820152606401610dfc565b600a81015460ff1661265f5760405162461bcd60e51b815260206004820152601860248201527f496e74656e7420616c72656164792063616e63656c6c656400000000000000006044820152606401610dfc565b600a8101805460ff1916905560405182907f2d8c53f76eb0afab114916b6c3aa17406ad39c7e874c92b099f79ab89c2e2a5490600090a25050565b336001600160a01b038316036126dc576040517fb06307db00000000000000000000000000000000000000000000000000000000815260040160405180910390fd5b3360008181526007602090815260408083206001600160a01b03871680855290835292819020805460ff191686151590811790915590519081529192917f17307eab39ab6107e8899845ad3d59bd9653f200f220920489ca2b5937696c3191016112c5565b6010805460009182919082612755836158d3565b90915550604080516101a08101825282815233602080830191825282840189815260608401899052426080850152600060a0850181905260c0850181905260e0850181905261010085018190526101208501819052610140850181905261016085018190526001610180860181905287825260119093529490942083518155915190820180546001600160a01b0319166001600160a01b03909216919091179055915192935091600282019061280b908261593a565b50606082015160038201556080820151600482015560a0820151600582015560c082015160068201805460e08501516101008087015161ffff1990931694151561ff001916949094179015159093029290921775ffffffffffffffffffffffffffffffffffffffff00001916620100006001600160a01b039384160217905561012083015160078301556101408301516008830180546001600160a01b03191691909216179055610160820151600982015561018090910151600a909101805460ff1916911515919091179055336000818152601260209081526040808320805460018101825590845291909220018390555182907fb6f430c8722299f241d9c66e77ee068ce71fb3d66d1c0af7d457ef4e50b4e59b9061292d908890614efa565b60405180910390a39392505050565b60608167ffffffffffffffff81111561295757612957614d72565b60405190808252806020026020018201604052801561298a57816020015b60608152602001906001900390816129755790505b509050336000805b84811015612aa3578115612a11576129ef308787848181106129b6576129b6615836565b90506020028101906129c89190615a26565b866040516020016129db93929190615a74565b604051602081830303815290604052614873565b848281518110612a0157612a01615836565b6020026020010181905250612a91565b612a7330878784818110612a2757612a27615836565b9050602002810190612a399190615a26565b8080601f01602080910402602001604051908101604052809392919081815260200183838082843760009201919091525061487392505050565b848281518110612a8557612a85615836565b60200260200101819052505b80612a9b816158d3565b915050612992565b50505092915050565b612ab78484846137fa565b6001600160a01b0383163b15611dbb57612ad384848484614898565b611dbb576040516368d2bf6b60e11b815260040160405180910390fd5b6001600160a01b03841660009081526014602052604081205460ff16612b585760405162461bcd60e51b815260206004820152601360248201527f546f6b656e206e6f7420737570706f72746564000000000000000000000000006044820152606401610dfc565b6101f4821115612baa5760405162461bcd60e51b815260206004820152601160248201527f536c69707061676520746f6f20686967680000000000000000000000000000006044820152606401610dfc565b6010805460009182612bbb836158d3565b919050559050604051806101a00160405280828152602001336001600160a01b0316815260200189815260200188815260200142815260200160008152602001600015158152602001600015158152602001876001600160a01b03168152602001868152602001856001600160a01b0316815260200160008511612c405760c8612c42565b845b815260016020918201819052600084815260118352604090819020845181559284015191830180546001600160a01b0319166001600160a01b03909316929092179091558201516002820190612c98908261593a565b50606082015160038201556080820151600482015560a0820151600582015560c082015160068201805460e08501516101008087015161ffff1990931694151561ff001916949094179015159093029290921775ffffffffffffffffffffffffffffffffffffffff00001916620100006001600160a01b039384160217905561012083015160078301556101408301516008830180546001600160a01b03191691909216179055610160820151600982015561018090910151600a909101805460ff1916911515919091179055336000818152601260209081526040808320805460018101825590845291909220018390555182907fb6f430c8722299f241d9c66e77ee068ce71fb3d66d1c0af7d457ef4e50b4e59b90612dba908c90614efa565b60405180910390a3979650505050505050565b6040805160608082018352600080835260208084018290528385018290528451928301855281835282018190529281018390529091506000548310612e125792915050565b50600082815260046020908152604091829020825160608101845290546001600160a01b0381168252600160a01b810467ffffffffffffffff1692820192909252600160e01b90910460ff161580159282019290925290612e735792915050565b6123e58361454b565b6000818152600f6020526040812080546060929190612e9a906157fc565b80601f0160208091040260200160405190810160405280929190818152602001828054612ec6906157fc565b8015612f135780601f10612ee857610100808354040283529160200191612f13565b820191906000526020600020905b815481529060010190602001808311612ef657829003601f168201915b50505050509050600081511115612f2a5792915050565b6000612f3584614983565b905080612f4185614b1a565b604051602001612f52929190615a9a565b60405160208183030381529060405292505050919050565b600081815260116020526040902060018101546001600160a01b031633148015612f995750600681015460ff16155b612fa257600080fd5b60068101805460ff1916600117908190556201000090046001600160a01b031615801590612fd4575060008160070154115b156130155760068101546007820154600883015460018401546009850154613013946001600160a01b0362010000909104811694938116921690613c12565b505b613020336001614370565b604051339083907f6852407858602d696344801f0181bc507c808c727c914bb6cdfeabd42431af3890600090a35050565b600060606001600160a01b038316613104576040805160028082526060820183529091602083019080368337019050509050848160008151811061309757613097615836565b60200260200101906001600160a01b031690816001600160a01b03168152505073fff9976782d46cc05630d1f6ebab18b2324d6b14816001815181106130df576130df615836565b60200260200101906001600160a01b031690816001600160a01b03168152505061329a565b6001600160a01b03851673fff9976782d46cc05630d1f6ebab18b2324d6b14148061314b57506001600160a01b03831673fff9976782d46cc05630d1f6ebab18b2324d6b14145b613156576003613159565b60025b60ff1667ffffffffffffffff81111561317457613174614d72565b60405190808252806020026020018201604052801561319d578160200160208202803683370190505b50905084816000815181106131b4576131b4615836565b6001600160a01b039283166020918202929092010152851673fff9976782d46cc05630d1f6ebab18b2324d6b14148061320957506001600160a01b03831673fff9976782d46cc05630d1f6ebab18b2324d6b14145b6132275773fff9976782d46cc05630d1f6ebab18b2324d6b14613229565b825b8160018151811061323c5761323c615836565b60200260200101906001600160a01b031690816001600160a01b031681525050805160030361329a57828160028151811061327957613279615836565b60200260200101906001600160a01b031690816001600160a01b0316815250505b60405163d06ca61f60e01b81526001600160a01b037f0000000000000000000000000000000000000000000000000000000000000000169063d06ca61f906132e89087908590600401615b0d565b600060405180830381865afa92505050801561332657506040513d6000823e601f3d908101601f191682016040526133239190810190615b26565b60015b6133335760009150611745565b806001825161334291906159fa565b8151811061335257613352615836565b6020026020010151925050509392505050565b60088054613372906157fc565b80601f016020809104026020016040519081016040528092919081815260200182805461339e906157fc565b80156133eb5780601f106133c0576101008083540402835291602001916133eb565b820191906000526020600020905b8154815290600101906020018083116133ce57829003601f168201915b505050505081565b6001600160a01b03811660009081526012602090815260409182902080548351818402810184019094528084526060939283018282801561345357602002820191906000526020600020905b81548152602001906001019080831161343f575b50505050509050919050565b6009546001600160a01b0316331461348a576040516316ccb9cb60e11b815260040160405180910390fd5b601680546001600160a01b0319166001600160a01b0392909216919091179055565b6000828152600f6020526040902080546134c5906157fc565b1590506135145760405162461bcd60e51b815260206004820152600f60248201527f55524920616c72656164792073657400000000000000000000000000000000006044820152606401610dfc565b6000828152600f602052604090206110a9828261593a565b6000546001600160a01b03841661355557604051622e076360e81b815260040160405180910390fd5b826000036135765760405163b562e8dd60e01b815260040160405180910390fd5b6001600160a01b038416600081815260056020908152604080832080546fffffffffffffffffffffffffffffffff19811667ffffffffffffffff8083168b0181169182176801000000000000000067ffffffffffffffff1990941690921783900481168b01811690920217909155858452600490925290912080546001600160e01b0319168317600160a01b42909316929092029190911790558190818501903b1561369f575b60405182906001600160a01b038816906000907fddf252ad1be2c89b69c2b068fc378daa952ba7f163c4a11628f55a4df523b3ef908290a46136686000878480600101955087614898565b613685576040516368d2bf6b60e11b815260040160405180910390fd5b80821061361d57826000541461369a57600080fd5b6136e4565b5b6040516001830192906001600160a01b038816906000907fddf252ad1be2c89b69c2b068fc378daa952ba7f163c4a11628f55a4df523b3ef908290a48082106136a0575b506000908155611dbb9085838684565b6000805482108015610f01575050600090815260046020526040902054600160e01b900460ff161590565b60008281526006602052604080822080546001600160a01b0319166001600160a01b0387811691821790925591518593918516917f8c5be1e5ebec7d5bd14f71427d1e84f3dd0314c0f7b2291e5b200ac8c7c3b92591a4505050565b600061378f6009546001600160a01b031690565b6001600160a01b0316336001600160a01b031614905090565b600980546001600160a01b038381166001600160a01b0319831681179093556040519116919082907f8292fce18fa69edf4db7b94ea2e58241df0ae57f97e0a6c9b29067028bf92d7690600090a35050565b60006138058261454b565b9050836001600160a01b031681600001516001600160a01b031614613856576040517fa114810000000000000000000000000000000000000000000000000000000000815260040160405180910390fd5b6000336001600160a01b038616148061387457506138748533610d73565b8061388f57503361388484610f99565b6001600160a01b0316145b9050806138af57604051632ce44b5f60e11b815260040160405180910390fd5b6001600160a01b0384166138ef576040517fea553b3400000000000000000000000000000000000000000000000000000000815260040160405180910390fd5b6138fb6000848761371f565b6001600160a01b038581166000908152600560209081526040808320805467ffffffffffffffff1980821667ffffffffffffffff92831660001901831617909255898616808652838620805493841693831660019081018416949094179055898652600490945282852080546001600160e01b031916909417600160a01b429092169190910217835587018084529220805491939091166139d15760005482146139d1578054602086015167ffffffffffffffff16600160a01b026001600160e01b03199091166001600160a01b038a16171781555b50505082846001600160a01b0316866001600160a01b03167fddf252ad1be2c89b69c2b068fc378daa952ba7f163c4a11628f55a4df523b3ef60405160405180910390a45050505050565b6000613a278361454b565b80519091508215613a8d576000336001600160a01b0383161480613a505750613a508233610d73565b80613a6b575033613a6086610f99565b6001600160a01b0316145b905080613a8b57604051632ce44b5f60e11b815260040160405180910390fd5b505b613a996000858361371f565b6001600160a01b038082166000818152600560209081526040808320805470010000000000000000000000000000000060001967ffffffffffffffff80841691909101811667ffffffffffffffff19841681178390048216600190810183169093027fffffffffffffffff0000000000000000ffffffffffffffff0000000000000000909416179290921783558b8652600490945282852080547fffffff00ffffffffffffffffffffffffffffffffffffffffffffffffffffffff42909316600160a01b026001600160e01b03199091169097179690961716600160e01b178555918901808452922080549194909116613bc8576000548214613bc8578054602087015167ffffffffffffffff16600160a01b026001600160e01b03199091166001600160a01b038716171781555b5050604051869250600091506001600160a01b038416907fddf252ad1be2c89b69c2b068fc378daa952ba7f163c4a11628f55a4df523b3ef908390a4505060018054810190555050565b6001600160a01b03851660009081526014602052604081205460ff168015613c5f57506001600160a01b038084166000908152601360209081526040808320938a16835292905220548511155b8015613c6d57506101f48211155b613c7657600080fd5b6001600160a01b038084166000908152601360209081526040808320938a1683529290529081208054879290613cad9084906159fa565b90915550506040517f095ea7b30000000000000000000000000000000000000000000000000000000081526001600160a01b037f0000000000000000000000000000000000000000000000000000000000000000811660048301526024820187905287169063095ea7b3906044016020604051808303816000875af1158015613d3a573d6000803e3d6000fd5b505050506040513d601f19601f82011682018060405250810190613d5e91906158a3565b5060606001600160a01b038516613fa05760408051600280825260608201835290916020830190803683370190505090508681600081518110613da357613da3615836565b60200260200101906001600160a01b031690816001600160a01b03168152505073fff9976782d46cc05630d1f6ebab18b2324d6b1481600181518110613deb57613deb615836565b6001600160a01b03928316602091820292909201015260405163d06ca61f60e01b81526000917f0000000000000000000000000000000000000000000000000000000000000000169063d06ca61f90613e4a908a908690600401615b0d565b600060405180830381865afa158015613e67573d6000803e3d6000fd5b505050506040513d6000823e601f3d908101601f19168201604052613e8f9190810190615b26565b90506000612710613ea086826159fa565b83600181518110613eb357613eb3615836565b6020026020010151613ec59190615862565b613ecf919061588f565b905060006001600160a01b037f0000000000000000000000000000000000000000000000000000000000000000166318cbafe58a84878b613f124261012c6158c0565b6040518663ffffffff1660e01b8152600401613f32959493929190615bac565b6000604051808303816000875af1158015613f51573d6000803e3d6000fd5b505050506040513d6000823e601f3d908101601f19168201604052613f799190810190615b26565b905080600181518110613f8e57613f8e615836565b60200260200101519450505050614306565b6001600160a01b03871673fff9976782d46cc05630d1f6ebab18b2324d6b141480613fe757506001600160a01b03851673fff9976782d46cc05630d1f6ebab18b2324d6b14145b15614079576040805160028082526060820183529091602083019080368337019050509050868160008151811061402057614020615836565b60200260200101906001600160a01b031690816001600160a01b031681525050848160018151811061405457614054615836565b60200260200101906001600160a01b031690816001600160a01b03168152505061414b565b60408051600380825260808201909252906020820160608036833701905050905086816000815181106140ae576140ae615836565b60200260200101906001600160a01b031690816001600160a01b03168152505073fff9976782d46cc05630d1f6ebab18b2324d6b14816001815181106140f6576140f6615836565b60200260200101906001600160a01b031690816001600160a01b031681525050848160028151811061412a5761412a615836565b60200260200101906001600160a01b031690816001600160a01b0316815250505b60405163d06ca61f60e01b81526000906001600160a01b037f0000000000000000000000000000000000000000000000000000000000000000169063d06ca61f9061419c908a908690600401615b0d565b600060405180830381865afa1580156141b9573d6000803e3d6000fd5b505050506040513d6000823e601f3d908101601f191682016040526141e19190810190615b26565b905060006127106141f286826159fa565b836001855161420191906159fa565b8151811061421157614211615836565b60200260200101516142239190615862565b61422d919061588f565b905060006001600160a01b037f0000000000000000000000000000000000000000000000000000000000000000166338ed17398a84878b6142704261012c6158c0565b6040518663ffffffff1660e01b8152600401614290959493929190615bac565b6000604051808303816000875af11580156142af573d6000803e3d6000fd5b505050506040513d6000823e601f3d908101601f191682016040526142d79190810190615b26565b905080600182516142e891906159fa565b815181106142f8576142f8615836565b602002602001015194505050505b846001600160a01b0316876001600160a01b0316856001600160a01b03167f764f0dc063c06f32d89a3f3af80c0db4be8a090901f589a478b447e0a51f09f1898660405161435e929190918252602082015260400190565b60405180910390a45095945050505050565b6000546001600160a01b03831661439957604051622e076360e81b815260040160405180910390fd5b816000036143ba5760405163b562e8dd60e01b815260040160405180910390fd5b6001600160a01b038316600081815260056020908152604080832080546fffffffffffffffffffffffffffffffff19811667ffffffffffffffff8083168a0181169182176801000000000000000067ffffffffffffffff1990941690921783900481168a01811690920217909155858452600490925290912080546001600160e01b031916909217600160a01b4290921691909102179055808083015b6040516001830192906001600160a01b038716906000907fddf252ad1be2c89b69c2b068fc378daa952ba7f163c4a11628f55a4df523b3ef908290a48082106144575750600055505050565b6127108111156144d157604051630a4930ad60e31b8152612710600482015260248101829052604401610dfc565b600a80546001600160a01b0384167fffffffffffffffffffff000000000000000000000000000000000000000000009091168117600160a01b61ffff851602179091556040518281527f90d7ec04bcb8978719414f82e52e4cb651db41d0e6f8cea6118c2191e6183adb9060200160405180910390a25050565b60408051606081018252600080825260208201819052918101919091528160005481101561464e57600081815260046020908152604091829020825160608101845290546001600160a01b0381168252600160a01b810467ffffffffffffffff1692820192909252600160e01b90910460ff1615159181018290529061464c5780516001600160a01b0316156145e2579392505050565b5060001901600081815260046020908152604091829020825160608101845290546001600160a01b038116808352600160a01b820467ffffffffffffffff1693830193909352600160e01b900460ff1615159281019290925215614647579392505050565b6145e2565b505b6040517fdf2d9b4200000000000000000000000000000000000000000000000000000000815260040160405180910390fd5b60008061468d84866158c0565b600c8054600181019091557fdf6966c971051c3d54ec59162606531493a51404a002842f56009d7e5cf4a8c7018190556000818152600d602052604090209092508291506146db848261593a565b50935093915050565b6000600880546146f3906157fc565b80601f016020809104026020016040519081016040528092919081815260200182805461471f906157fc565b801561476c5780601f106147415761010080835404028352916020019161476c565b820191906000526020600020905b81548152906001019060200180831161474f57829003601f168201915b505050505090508160089081614782919061593a565b507fc9c7c3fe08b88b4df9d4d47ef47d2c43d55c025a0ba88ca442580ed9e7348a1681836040516147b4929190615be8565b60405180910390a15050565b6127108111156147ee57604051630a4930ad60e31b8152612710600482015260248101829052604401610dfc565b6040805180820182526001600160a01b0384811680835260208084018681526000898152600b8352869020945185546001600160a01b031916941693909317845591516001909301929092559151838152909185917f7365cf4122f072a3365c20d54eff9b38d73c096c28e1892ec8f5b0e403a0f12d910160405180910390a3505050565b60606123e58383604051806060016040528060278152602001615c9660279139614c4f565b604051630a85bd0160e11b81526000906001600160a01b0385169063150b7a02906148cd903390899088908890600401615c16565b6020604051808303816000875af1925050508015614908575060408051601f3d908101601f1916820190925261490591810190615c48565b60015b614966573d808015614936576040519150601f19603f3d011682016040523d82523d6000602084013e61493b565b606091505b50805160000361495e576040516368d2bf6b60e11b815260040160405180910390fd5b805181602001fd5b6001600160e01b031916630a85bd0160e11b149050949350505050565b60606000614990600c5490565b90506000600c8054806020026020016040519081016040528092919081815260200182805480156149e057602002820191906000526020600020905b8154815260200190600101908083116149cc575b5050505050905060005b82811015614ae457818181518110614a0457614a04615836565b6020026020010151851015614ad257600d6000838381518110614a2957614a29615836565b602002602001015181526020019081526020016000208054614a4a906157fc565b80601f0160208091040260200160405190810160405280929190818152602001828054614a76906157fc565b8015614ac35780601f10614a9857610100808354040283529160200191614ac3565b820191906000526020600020905b815481529060010190602001808311614aa657829003601f168201915b50505050509350505050919050565b614add6001826158c0565b90506149ea565b506040517f25e5fda400000000000000000000000000000000000000000000000000000000815260048101859052602401610dfc565b606081600003614b5d57505060408051808201909152600181527f3000000000000000000000000000000000000000000000000000000000000000602082015290565b8160005b8115614b875780614b71816158d3565b9150614b809050600a8361588f565b9150614b61565b60008167ffffffffffffffff811115614ba257614ba2614d72565b6040519080825280601f01601f191660200182016040528015614bcc576020820181803683370190505b5090505b841561136e57614be16001836159fa565b9150614bee600a86615c65565b614bf99060306158c0565b60f81b818381518110614c0e57614c0e615836565b60200101907effffffffffffffffffffffffffffffffffffffffffffffffffffffffffffff1916908160001a905350614c48600a8661588f565b9450614bd0565b6060600080856001600160a01b031685604051614c6c9190615c79565b600060405180830381855af49150503d8060008114614ca7576040519150601f19603f3d011682016040523d82523d6000602084013e614cac565b606091505b5091509150611acb8683838760608315614d27578251600003614d20576001600160a01b0385163b614d205760405162461bcd60e51b815260206004820152601d60248201527f416464726573733a2063616c6c20746f206e6f6e2d636f6e74726163740000006044820152606401610dfc565b508161136e565b61136e8383815115614d3c5781518083602001fd5b8060405162461bcd60e51b8152600401610dfc9190614efa565b80356001600160a01b0381168114614d6d57600080fd5b919050565b634e487b7160e01b600052604160045260246000fd5b604051601f8201601f1916810167ffffffffffffffff81118282101715614db157614db1614d72565b604052919050565b600082601f830112614dca57600080fd5b813567ffffffffffffffff811115614de457614de4614d72565b614df7601f8201601f1916602001614d88565b818152846020838601011115614e0c57600080fd5b816020850160208301376000918101602001919091529392505050565b60008060408385031215614e3c57600080fd5b614e4583614d56565b9150602083013567ffffffffffffffff811115614e6157600080fd5b614e6d85828601614db9565b9150509250929050565b6001600160e01b0319811681146110dc57600080fd5b600060208284031215614e9f57600080fd5b81356123e581614e77565b60005b83811015614ec5578181015183820152602001614ead565b50506000910152565b60008151808452614ee6816020860160208601614eaa565b601f01601f19169290920160200192915050565b6020815260006123e56020830184614ece565b600060208284031215614f1f57600080fd5b5035919050565b60008060408385031215614f3957600080fd5b614f4283614d56565b946020939093013593505050565b600060208284031215614f6257600080fd5b6123e582614d56565b600080600060608486031215614f8057600080fd5b614f8984614d56565b9250614f9760208501614d56565b9150604084013590509250925092565b60008060408385031215614fba57600080fd5b50508035926020909101359150565b60008060208385031215614fdc57600080fd5b823567ffffffffffffffff80821115614ff457600080fd5b818501915085601f83011261500857600080fd5b81358181111561501757600080fd5b86602082850101111561502957600080fd5b60209290920196919550909350505050565b60006101a08f83526001600160a01b038f1660208401528060408401526150648184018f614ece565b9150508b60608301528a60808301528960a083015288151560c083015287151560e083015261509f6101008301886001600160a01b03169052565b856101208301526150bc6101408301866001600160a01b03169052565b836101608301526150d261018083018415159052565b9e9d5050505050505050505050505050565b600067ffffffffffffffff8211156150fe576150fe614d72565b5060051b60200190565b6000602080838503121561511b57600080fd5b823567ffffffffffffffff81111561513257600080fd5b8301601f8101851361514357600080fd5b8035615156615151826150e4565b614d88565b81815260059190911b8201830190838101908783111561517557600080fd5b928401925b828410156151935783358252928401929084019061517a565b979650505050505050565b6020808252825182820181905260009190848201906040850190845b81811015611fa4576151f683855180516001600160a01b0316825260208082015167ffffffffffffffff16908301526040908101511515910152565b92840192606092909201916001016151ba565b600080600080600080600060e0888a03121561522457600080fd5b873567ffffffffffffffff81111561523b57600080fd5b6152478a828b01614db9565b975050602088013595506040880135945061526460608901614d56565b93506080880135925061527960a08901614d56565b915060c0880135905092959891949750929550565b600080604083850312156152a157600080fd5b6152aa83614d56565b91506152b860208401614d56565b90509250929050565b600080600080600060a086880312156152d957600080fd5b6152e286614d56565b9450602086013593506152f760408701614d56565b925061530560608701614d56565b949793965091946080013592915050565b821515815260406020820152600061136e6040830184614ece565b6000806000806080858703121561534757600080fd5b61535085614d56565b935060208501359250604085013567ffffffffffffffff8082111561537457600080fd5b61538088838901614db9565b9350606087013591508082111561539657600080fd5b506153a387828801614db9565b91505092959194509250565b6020808252825182820181905260009190848201906040850190845b81811015611fa4578351835292840192918401916001016153cb565b60208152815160208201526000602083015161540e60408401826001600160a01b03169052565b5060408301516101a080606085015261542b6101c0850183614ece565b915060608501516080850152608085015160a085015260a085015160c085015260c085015161545e60e086018215159052565b5060e08501516101006154748187018315159052565b8601519050610120615490868201836001600160a01b03169052565b8601516101408681019190915286015190506101606154b9818701836001600160a01b03169052565b8601516101808681019190915290950151151593019290925250919050565b6000602082840312156154ea57600080fd5b813567ffffffffffffffff81111561550157600080fd5b61136e84828501614db9565b60008060006060848603121561552257600080fd5b61552b84614d56565b95602085013595506040909401359392505050565b60008060006060848603121561555557600080fd5b83359250614f9760208501614d56565b80151581146110dc57600080fd5b6000806040838503121561558657600080fd5b61558f83614d56565b9150602083013561559f81615565565b809150509250929050565b600080604083850312156155bd57600080fd5b823567ffffffffffffffff8111156155d457600080fd5b6155e085828601614db9565b95602094909401359450505050565b6000806020838503121561560257600080fd5b823567ffffffffffffffff8082111561561a57600080fd5b818501915085601f83011261562e57600080fd5b81358181111561563d57600080fd5b8660208260051b850101111561502957600080fd5b6000602080830181845280855180835260408601915060408160051b870101925083870160005b828110156156a757603f19888603018452615695858351614ece565b94509285019290850190600101615679565b5092979650505050505050565b600080600080608085870312156156ca57600080fd5b6156d385614d56565b93506156e160208601614d56565b925060408501359150606085013567ffffffffffffffff81111561570457600080fd5b6153a387828801614db9565b60008060008060008060c0878903121561572957600080fd5b863567ffffffffffffffff81111561574057600080fd5b61574c89828a01614db9565b9650506020870135945061576260408801614d56565b93506060870135925061577760808801614d56565b915060a087013590509295509295509295565b81516001600160a01b0316815260208083015167ffffffffffffffff169082015260408083015115159082015260608101610f01565b6000806000606084860312156157d557600080fd5b6157de84614d56565b9250602084013591506157f360408501614d56565b90509250925092565b600181811c9082168061581057607f821691505b60208210810361583057634e487b7160e01b600052602260045260246000fd5b50919050565b634e487b7160e01b600052603260045260246000fd5b634e487b7160e01b600052601160045260246000fd5b8082028115828204841417610f0157610f0161584c565b634e487b7160e01b600052601260045260246000fd5b60008261589e5761589e615879565b500490565b6000602082840312156158b557600080fd5b81516123e581615565565b80820180821115610f0157610f0161584c565b6000600182016158e5576158e561584c565b5060010190565b601f8211156110a957600081815260208120601f850160051c810160208610156159135750805b601f850160051c820191505b818110156159325782815560010161591f565b505050505050565b815167ffffffffffffffff81111561595457615954614d72565b6159688161596284546157fc565b846158ec565b602080601f83116001811461599d57600084156159855750858301515b600019600386901b1c1916600185901b178555615932565b600085815260208120601f198616915b828110156159cc578886015182559484019460019091019084016159ad565b50858210156159ea5787850151600019600388901b60f8161c191681555b5050505050600190811b01905550565b81810381811115610f0157610f0161584c565b600060208284031215615a1f57600080fd5b5051919050565b6000808335601e19843603018112615a3d57600080fd5b83018035915067ffffffffffffffff821115615a5857600080fd5b602001915036819003821315615a6d57600080fd5b9250929050565b8284823760609190911b6bffffffffffffffffffffffff19169101908152601401919050565b60008351615aac818460208801614eaa565b835190830190615ac0818360208801614eaa565b01949350505050565b600081518084526020808501945080840160005b83811015615b025781516001600160a01b031687529582019590820190600101615add565b509495945050505050565b82815260406020820152600061136e6040830184615ac9565b60006020808385031215615b3957600080fd5b825167ffffffffffffffff811115615b5057600080fd5b8301601f81018513615b6157600080fd5b8051615b6f615151826150e4565b81815260059190911b82018301908381019087831115615b8e57600080fd5b928401925b8284101561519357835182529284019290840190615b93565b85815284602082015260a060408201526000615bcb60a0830186615ac9565b6001600160a01b0394909416606083015250608001529392505050565b604081526000615bfb6040830185614ece565b8281036020840152615c0d8185614ece565b95945050505050565b60006001600160a01b03808716835280861660208401525083604083015260806060830152611acb6080830184614ece565b600060208284031215615c5a57600080fd5b81516123e581614e77565b600082615c7457615c74615879565b500690565b60008251615c8b818460208701614eaa565b919091019291505056fe416464726573733a206c6f772d6c6576656c2064656c65676174652063616c6c206661696c6564a2646970667358221220192627d13f6fb49ebb411b4c646be9c5b11674e3df21a137ef262a33fab63a0d64736f6c63430008150033",
  "linkReferences": {},
  "deployedLinkReferences": {}
}