{
  "_format": "hh-sol-artifact-1",
  "contractName": "WalletPlanner",
  "sourceName": "contracts/WalletPlanner.sol",
  "abi": [
    {
      "inputs": [
        {
          "internalType": "address",
          "name": "_defaultAdmin",
          "type": "address"
        },
        {
          "internalType": "string",
          "name": "_name",
          "type": "string"
        },
        {
          "internalType": "string",
          "name": "_symbol",
          "type": "string"
        },
        {
          "internalType": "address",
          "name": "_royaltyRecipient",
          "type": "address"
        },
        {
          "internalType": "uint128",
          "name": "_royaltyBps",
          "type": "uint128"
        }
      ],
      "stateMutability": "nonpayable",
      "type": "constructor"
    },
    {
      "inputs": [],
      "name": "ApprovalCallerNotOwnerNorApproved",
      "type": "error"
    },
    {
      "inputs": [],
      "name": "ApprovalQueryForNonexistentToken",
      "type": "error"
    },
    {
      "inputs": [],
      "name": "ApprovalToCurrentOwner",
      "type": "error"
    },
    {
      "inputs": [],
      "name": "ApproveToCaller",
      "type": "error"
    },
    {
      "inputs": [],
      "name": "BalanceQueryForZeroAddress",
      "type": "error"
    },
    {
      "inputs": [
        {
          "internalType": "uint256",
          "name": "index",
          "type": "uint256"
        }
      ],
      "name": "BatchMintInvalidBatchId",
      "type": "error"
    },
    {
      "inputs": [
        {
          "internalType": "uint256",
          "name": "tokenId",
          "type": "uint256"
        }
      ],
      "name": "BatchMintInvalidTokenId",
      "type": "error"
    },
    {
      "inputs": [
        {
          "internalType": "uint256",
          "name": "batchId",
          "type": "uint256"
        }
      ],
      "name": "BatchMintMetadataFrozen",
      "type": "error"
    },
    {
      "inputs": [],
      "name": "ContractMetadataUnauthorized",
      "type": "error"
    },
    {
      "inputs": [],
      "name": "InvalidQueryRange",
      "type": "error"
    },
    {
      "inputs": [],
      "name": "MintToZeroAddress",
      "type": "error"
    },
    {
      "inputs": [],
      "name": "MintZeroQuantity",
      "type": "error"
    },
    {
      "inputs": [],
      "name": "OwnableUnauthorized",
      "type": "error"
    },
    {
      "inputs": [],
      "name": "OwnerQueryForNonexistentToken",
      "type": "error"
    },
    {
      "inputs": [
        {
          "internalType": "uint256",
          "name": "max",
          "type": "uint256"
        },
        {
          "internalType": "uint256",
          "name": "actual",
          "type": "uint256"
        }
      ],
      "name": "RoyaltyExceededMaxFeeBps",
      "type": "error"
    },
    {
      "inputs": [
        {
          "internalType": "address",
          "name": "recipient",
          "type": "address"
        }
      ],
      "name": "RoyaltyInvalidRecipient",
      "type": "error"
    },
    {
      "inputs": [],
      "name": "RoyaltyUnauthorized",
      "type": "error"
    },
    {
      "inputs": [],
      "name": "TransferCallerNotOwnerNorApproved",
      "type": "error"
    },
    {
      "inputs": [],
      "name": "TransferFromIncorrectOwner",
      "type": "error"
    },
    {
      "inputs": [],
      "name": "TransferToNonERC721ReceiverImplementer",
      "type": "error"
    },
    {
      "inputs": [],
      "name": "TransferToZeroAddress",
      "type": "error"
    },
    {
      "inputs": [],
      "name": "URIQueryForNonexistentToken",
      "type": "error"
    },
    {
      "anonymous": false,
      "inputs": [
        {
          "indexed": true,
          "internalType": "address",
          "name": "owner",
          "type": "address"
        },
        {
          "indexed": true,
          "internalType": "address",
          "name": "approved",
          "type": "address"
        },
        {
          "indexed": true,
          "internalType": "uint256",
          "name": "tokenId",
          "type": "uint256"
        }
      ],
      "name": "Approval",
      "type": "event"
    },
    {
      "anonymous": false,
      "inputs": [
        {
          "indexed": true,
          "internalType": "address",
          "name": "owner",
          "type": "address"
        },
        {
          "indexed": true,
          "internalType": "address",
          "name": "operator",
          "type": "address"
        },
        {
          "indexed": false,
          "internalType": "bool",
          "name": "approved",
          "type": "bool"
        }
      ],
      "name": "ApprovalForAll",
      "type": "event"
    },
    {
      "anonymous": false,
      "inputs": [
        {
          "indexed": false,
          "internalType": "uint256",
          "name": "_fromTokenId",
          "type": "uint256"
        },
        {
          "indexed": false,
          "internalType": "uint256",
          "name": "_toTokenId",
          "type": "uint256"
        }
      ],
      "name": "BatchMetadataUpdate",
      "type": "event"
    },
    {
      "anonymous": false,
      "inputs": [
        {
          "indexed": false,
          "internalType": "string",
          "name": "prevURI",
          "type": "string"
        },
        {
          "indexed": false,
          "internalType": "string",
          "name": "newURI",
          "type": "string"
        }
      ],
      "name": "ContractURIUpdated",
      "type": "event"
    },
    {
      "anonymous": false,
      "inputs": [
        {
          "indexed": true,
          "internalType": "address",
          "name": "newRoyaltyRecipient",
          "type": "address"
        },
        {
          "indexed": false,
          "internalType": "uint256",
          "name": "newRoyaltyBps",
          "type": "uint256"
        }
      ],
      "name": "DefaultRoyalty",
      "type": "event"
    },
    {
      "anonymous": false,
      "inputs": [
        {
          "indexed": true,
          "internalType": "uint256",
          "name": "intentId",
          "type": "uint256"
        },
        {
          "indexed": true,
          "internalType": "address",
          "name": "user",
          "type": "address"
        },
        {
          "indexed": false,
          "internalType": "string",
          "name": "description",
          "type": "string"
        }
      ],
      "name": "IntentCreated",
      "type": "event"
    },
    {
      "anonymous": false,
      "inputs": [
        {
          "indexed": true,
          "internalType": "uint256",
          "name": "intentId",
          "type": "uint256"
        },
        {
          "indexed": true,
          "internalType": "address",
          "name": "user",
          "type": "address"
        }
      ],
      "name": "IntentExecuted",
      "type": "event"
    },
    {
      "anonymous": false,
      "inputs": [],
      "name": "MetadataFrozen",
      "type": "event"
    },
    {
      "anonymous": false,
      "inputs": [
        {
          "indexed": true,
          "internalType": "address",
          "name": "prevOwner",
          "type": "address"
        },
        {
          "indexed": true,
          "internalType": "address",
          "name": "newOwner",
          "type": "address"
        }
      ],
      "name": "OwnerUpdated",
      "type": "event"
    },
    {
      "anonymous": false,
      "inputs": [
        {
          "indexed": true,
          "internalType": "uint256",
          "name": "tokenId",
          "type": "uint256"
        },
        {
          "indexed": true,
          "internalType": "address",
          "name": "royaltyRecipient",
          "type": "address"
        },
        {
          "indexed": false,
          "internalType": "uint256",
          "name": "royaltyBps",
          "type": "uint256"
        }
      ],
      "name": "RoyaltyForToken",
      "type": "event"
    },
    {
      "anonymous": false,
      "inputs": [
        {
          "indexed": true,
          "internalType": "address",
          "name": "from",
          "type": "address"
        },
        {
          "indexed": true,
          "internalType": "address",
          "name": "to",
          "type": "address"
        },
        {
          "indexed": true,
          "internalType": "uint256",
          "name": "tokenId",
          "type": "uint256"
        }
      ],
      "name": "Transfer",
      "type": "event"
    },
    {
      "inputs": [
        {
          "internalType": "address",
          "name": "to",
          "type": "address"
        },
        {
          "internalType": "uint256",
          "name": "tokenId",
          "type": "uint256"
        }
      ],
      "name": "approve",
      "outputs": [],
      "stateMutability": "nonpayable",
      "type": "function"
    },
    {
      "inputs": [
        {
          "internalType": "address",
          "name": "owner",
          "type": "address"
        }
      ],
      "name": "balanceOf",
      "outputs": [
        {
          "internalType": "uint256",
          "name": "",
          "type": "uint256"
        }
      ],
      "stateMutability": "view",
      "type": "function"
    },
    {
      "inputs": [
        {
          "internalType": "uint256",
          "name": "",
          "type": "uint256"
        }
      ],
      "name": "batchFrozen",
      "outputs": [
        {
          "internalType": "bool",
          "name": "",
          "type": "bool"
        }
      ],
      "stateMutability": "view",
      "type": "function"
    },
    {
      "inputs": [
        {
          "internalType": "address",
          "name": "_to",
          "type": "address"
        },
        {
          "internalType": "uint256",
          "name": "_quantity",
          "type": "uint256"
        },
        {
          "internalType": "string",
          "name": "_baseURI",
          "type": "string"
        },
        {
          "internalType": "bytes",
          "name": "_data",
          "type": "bytes"
        }
      ],
      "name": "batchMintTo",
      "outputs": [],
      "stateMutability": "nonpayable",
      "type": "function"
    },
    {
      "inputs": [
        {
          "internalType": "uint256",
          "name": "_tokenId",
          "type": "uint256"
        }
      ],
      "name": "burn",
      "outputs": [],
      "stateMutability": "nonpayable",
      "type": "function"
    },
    {
      "inputs": [],
      "name": "contractURI",
      "outputs": [
        {
          "internalType": "string",
          "name": "",
          "type": "string"
        }
      ],
      "stateMutability": "view",
      "type": "function"
    },
    {
      "inputs": [
        {
          "internalType": "string",
          "name": "_description",
          "type": "string"
        },
        {
          "internalType": "uint256",
          "name": "_estimatedCost",
          "type": "uint256"
        }
      ],
      "name": "createIntent",
      "outputs": [
        {
          "internalType": "uint256",
          "name": "",
          "type": "uint256"
        }
      ],
      "stateMutability": "nonpayable",
      "type": "function"
    },
    {
      "inputs": [
        {
          "internalType": "uint256",
          "name": "_intentId",
          "type": "uint256"
        }
      ],
      "name": "executeIntent",
      "outputs": [],
      "stateMutability": "nonpayable",
      "type": "function"
    },
    {
      "inputs": [
        {
          "internalType": "uint256",
          "name": "tokenId",
          "type": "uint256"
        }
      ],
      "name": "explicitOwnershipOf",
      "outputs": [
        {
          "components": [
            {
              "internalType": "address",
              "name": "addr",
              "type": "address"
            },
            {
              "internalType": "uint64",
              "name": "startTimestamp",
              "type": "uint64"
            },
            {
              "internalType": "bool",
              "name": "burned",
              "type": "bool"
            }
          ],
          "internalType": "struct IERC721A.TokenOwnership",
          "name": "",
          "type": "tuple"
        }
      ],
      "stateMutability": "view",
      "type": "function"
    },
    {
      "inputs": [
        {
          "internalType": "uint256[]",
          "name": "tokenIds",
          "type": "uint256[]"
        }
      ],
      "name": "explicitOwnershipsOf",
      "outputs": [
        {
          "components": [
            {
              "internalType": "address",
              "name": "addr",
              "type": "address"
            },
            {
              "internalType": "uint64",
              "name": "startTimestamp",
              "type": "uint64"
            },
            {
              "internalType": "bool",
              "name": "burned",
              "type": "bool"
            }
          ],
          "internalType": "struct IERC721A.TokenOwnership[]",
          "name": "",
          "type": "tuple[]"
        }
      ],
      "stateMutability": "view",
      "type": "function"
    },
    {
      "inputs": [
        {
          "internalType": "uint256",
          "name": "tokenId",
          "type": "uint256"
        }
      ],
      "name": "getApproved",
      "outputs": [
        {
          "internalType": "address",
          "name": "",
          "type": "address"
        }
      ],
      "stateMutability": "view",
      "type": "function"
    },
    {
      "inputs": [],
      "name": "getBaseURICount",
      "outputs": [
        {
          "internalType": "uint256",
          "name": "",
          "type": "uint256"
        }
      ],
      "stateMutability": "view",
      "type": "function"
    },
    {
      "inputs": [
        {
          "internalType": "uint256",
          "name": "_index",
          "type": "uint256"
        }
      ],
      "name": "getBatchIdAtIndex",
      "outputs": [
        {
          "internalType": "uint256",
          "name": "",
          "type": "uint256"
        }
      ],
      "stateMutability": "view",
      "type": "function"
    },
    {
      "inputs": [],
      "name": "getDefaultRoyaltyInfo",
      "outputs": [
        {
          "internalType": "address",
          "name": "",
          "type": "address"
        },
        {
          "internalType": "uint16",
          "name": "",
          "type": "uint16"
        }
      ],
      "stateMutability": "view",
      "type": "function"
    },
    {
      "inputs": [
        {
          "internalType": "uint256",
          "name": "_intentId",
          "type": "uint256"
        }
      ],
      "name": "getIntent",
      "outputs": [
        {
          "components": [
            {
              "internalType": "uint256",
              "name": "id",
              "type": "uint256"
            },
            {
              "internalType": "address",
              "name": "user",
              "type": "address"
            },
            {
              "internalType": "string",
              "name": "description",
              "type": "string"
            },
            {
              "internalType": "uint256",
              "name": "estimatedCost",
              "type": "uint256"
            },
            {
              "internalType": "bool",
              "name": "executed",
              "type": "bool"
            },
            {
              "internalType": "uint256",
              "name": "timestamp",
              "type": "uint256"
            }
          ],
          "internalType": "struct WalletPlanner.Intent",
          "name": "",
          "type": "tuple"
        }
      ],
      "stateMutability": "view",
      "type": "function"
    },
    {
      "inputs": [
        {
          "internalType": "uint256",
          "name": "_tokenId",
          "type": "uint256"
        }
      ],
      "name": "getRoyaltyInfoForToken",
      "outputs": [
        {
          "internalType": "address",
          "name": "",
          "type": "address"
        },
        {
          "internalType": "uint16",
          "name": "",
          "type": "uint16"
        }
      ],
      "stateMutability": "view",
      "type": "function"
    },
    {
      "inputs": [
        {
          "internalType": "address",
          "name": "_user",
          "type": "address"
        }
      ],
      "name": "getUserIntents",
      "outputs": [
        {
          "internalType": "uint256[]",
          "name": "",
          "type": "uint256[]"
        }
      ],
      "stateMutability": "view",
      "type": "function"
    },
    {
      "inputs": [
        {
          "internalType": "uint256",
          "name": "",
          "type": "uint256"
        }
      ],
      "name": "intents",
      "outputs": [
        {
          "internalType": "uint256",
          "name": "id",
          "type": "uint256"
        },
        {
          "internalType": "address",
          "name": "user",
          "type": "address"
        },
        {
          "internalType": "string",
          "name": "description",
          "type": "string"
        },
        {
          "internalType": "uint256",
          "name": "estimatedCost",
          "type": "uint256"
        },
        {
          "internalType": "bool",
          "name": "executed",
          "type": "bool"
        },
        {
          "internalType": "uint256",
          "name": "timestamp",
          "type": "uint256"
        }
      ],
      "stateMutability": "view",
      "type": "function"
    },
    {
      "inputs": [
        {
          "internalType": "address",
          "name": "owner",
          "type": "address"
        },
        {
          "internalType": "address",
          "name": "operator",
          "type": "address"
        }
      ],
      "name": "isApprovedForAll",
      "outputs": [
        {
          "internalType": "bool",
          "name": "",
          "type": "bool"
        }
      ],
      "stateMutability": "view",
      "type": "function"
    },
    {
      "inputs": [
        {
          "internalType": "address",
          "name": "_operator",
          "type": "address"
        },
        {
          "internalType": "uint256",
          "name": "_tokenId",
          "type": "uint256"
        }
      ],
      "name": "isApprovedOrOwner",
      "outputs": [
        {
          "internalType": "bool",
          "name": "isApprovedOrOwnerOf",
          "type": "bool"
        }
      ],
      "stateMutability": "view",
      "type": "function"
    },
    {
      "inputs": [
        {
          "internalType": "address",
          "name": "_to",
          "type": "address"
        },
        {
          "internalType": "string",
          "name": "_tokenURI",
          "type": "string"
        }
      ],
      "name": "mintTo",
      "outputs": [],
      "stateMutability": "nonpayable",
      "type": "function"
    },
    {
      "inputs": [
        {
          "internalType": "bytes[]",
          "name": "data",
          "type": "bytes[]"
        }
      ],
      "name": "multicall",
      "outputs": [
        {
          "internalType": "bytes[]",
          "name": "results",
          "type": "bytes[]"
        }
      ],
      "stateMutability": "nonpayable",
      "type": "function"
    },
    {
      "inputs": [],
      "name": "name",
      "outputs": [
        {
          "internalType": "string",
          "name": "",
          "type": "string"
        }
      ],
      "stateMutability": "view",
      "type": "function"
    },
    {
      "inputs": [],
      "name": "nextTokenIdToMint",
      "outputs": [
        {
          "internalType": "uint256",
          "name": "",
          "type": "uint256"
        }
      ],
      "stateMutability": "view",
      "type": "function"
    },
    {
      "inputs": [],
      "name": "owner",
      "outputs": [
        {
          "internalType": "address",
          "name": "",
          "type": "address"
        }
      ],
      "stateMutability": "view",
      "type": "function"
    },
    {
      "inputs": [
        {
          "internalType": "uint256",
          "name": "tokenId",
          "type": "uint256"
        }
      ],
      "name": "ownerOf",
      "outputs": [
        {
          "internalType": "address",
          "name": "",
          "type": "address"
        }
      ],
      "stateMutability": "view",
      "type": "function"
    },
    {
      "inputs": [
        {
          "internalType": "uint256",
          "name": "tokenId",
          "type": "uint256"
        },
        {
          "internalType": "uint256",
          "name": "salePrice",
          "type": "uint256"
        }
      ],
      "name": "royaltyInfo",
      "outputs": [
        {
          "internalType": "address",
          "name": "receiver",
          "type": "address"
        },
        {
          "internalType": "uint256",
          "name": "royaltyAmount",
          "type": "uint256"
        }
      ],
      "stateMutability": "view",
      "type": "function"
    },
    {
      "inputs": [
        {
          "internalType": "address",
          "name": "from",
          "type": "address"
        },
        {
          "internalType": "address",
          "name": "to",
          "type": "address"
        },
        {
          "internalType": "uint256",
          "name": "tokenId",
          "type": "uint256"
        }
      ],
      "name": "safeTransferFrom",
      "outputs": [],
      "stateMutability": "nonpayable",
      "type": "function"
    },
    {
      "inputs": [
        {
          "internalType": "address",
          "name": "from",
          "type": "address"
        },
        {
          "internalType": "address",
          "name": "to",
          "type": "address"
        },
        {
          "internalType": "uint256",
          "name": "tokenId",
          "type": "uint256"
        },
        {
          "internalType": "bytes",
          "name": "_data",
          "type": "bytes"
        }
      ],
      "name": "safeTransferFrom",
      "outputs": [],
      "stateMutability": "nonpayable",
      "type": "function"
    },
    {
      "inputs": [
        {
          "internalType": "address",
          "name": "operator",
          "type": "address"
        },
        {
          "internalType": "bool",
          "name": "approved",
          "type": "bool"
        }
      ],
      "name": "setApprovalForAll",
      "outputs": [],
      "stateMutability": "nonpayable",
      "type": "function"
    },
    {
      "inputs": [
        {
          "internalType": "string",
          "name": "_uri",
          "type": "string"
        }
      ],
      "name": "setContractURI",
      "outputs": [],
      "stateMutability": "nonpayable",
      "type": "function"
    },
    {
      "inputs": [
        {
          "internalType": "address",
          "name": "_royaltyRecipient",
          "type": "address"
        },
        {
          "internalType": "uint256",
          "name": "_royaltyBps",
          "type": "uint256"
        }
      ],
      "name": "setDefaultRoyaltyInfo",
      "outputs": [],
      "stateMutability": "nonpayable",
      "type": "function"
    },
    {
      "inputs": [
        {
          "internalType": "address",
          "name": "_newOwner",
          "type": "address"
        }
      ],
      "name": "setOwner",
      "outputs": [],
      "stateMutability": "nonpayable",
      "type": "function"
    },
    {
      "inputs": [
        {
          "internalType": "uint256",
          "name": "_tokenId",
          "type": "uint256"
        },
        {
          "internalType": "address",
          "name": "_recipient",
          "type": "address"
        },
        {
          "internalType": "uint256",
          "name": "_bps",
          "type": "uint256"
        }
      ],
      "name": "setRoyaltyInfoForToken",
      "outputs": [],
      "stateMutability": "nonpayable",
      "type": "function"
    },
    {
      "inputs": [
        {
          "internalType": "bytes4",
          "name": "interfaceId",
          "type": "bytes4"
        }
      ],
      "name": "supportsInterface",
      "outputs": [
        {
          "internalType": "bool",
          "name": "",
          "type": "bool"
        }
      ],
      "stateMutability": "view",
      "type": "function"
    },
    {
      "inputs": [],
      "name": "symbol",
      "outputs": [
        {
          "internalType": "string",
          "name": "",
          "type": "string"
        }
      ],
      "stateMutability": "view",
      "type": "function"
    },
    {
      "inputs": [
        {
          "internalType": "uint256",
          "name": "_tokenId",
          "type": "uint256"
        }
      ],
      "name": "tokenURI",
      "outputs": [
        {
          "internalType": "string",
          "name": "",
          "type": "string"
        }
      ],
      "stateMutability": "view",
      "type": "function"
    },
    {
      "inputs": [
        {
          "internalType": "address",
          "name": "owner",
          "type": "address"
        }
      ],
      "name": "tokensOfOwner",
      "outputs": [
        {
          "internalType": "uint256[]",
          "name": "",
          "type": "uint256[]"
        }
      ],
      "stateMutability": "view",
      "type": "function"
    },
    {
      "inputs": [
        {
          "internalType": "address",
          "name": "owner",
          "type": "address"
        },
        {
          "internalType": "uint256",
          "name": "start",
          "type": "uint256"
        },
        {
          "internalType": "uint256",
          "name": "stop",
          "type": "uint256"
        }
      ],
      "name": "tokensOfOwnerIn",
      "outputs": [
        {
          "internalType": "uint256[]",
          "name": "",
          "type": "uint256[]"
        }
      ],
      "stateMutability": "view",
      "type": "function"
    },
    {
      "inputs": [],
      "name": "totalSupply",
      "outputs": [
        {
          "internalType": "uint256",
          "name": "",
          "type": "uint256"
        }
      ],
      "stateMutability": "view",
      "type": "function"
    },
    {
      "inputs": [
        {
          "internalType": "address",
          "name": "from",
          "type": "address"
        },
        {
          "internalType": "address",
          "name": "to",
          "type": "address"
        },
        {
          "internalType": "uint256",
          "name": "tokenId",
          "type": "uint256"
        }
      ],
      "name": "transferFrom",
      "outputs": [],
      "stateMutability": "nonpayable",
      "type": "function"
    },
    {
      "inputs": [
        {
          "internalType": "address",
          "name": "",
          "type": "address"
        },
        {
          "internalType": "uint256",
          "name": "",
          "type": "uint256"
        }
      ],
      "name": "userIntents",
      "outputs": [
        {
          "internalType": "uint256",
          "name": "",
          "type": "uint256"
        }
      ],
      "stateMutability": "view",
      "type": "function"
    }
  ],
  "bytecode": "0x60806040523480156200001157600080fd5b506040516200682b3803806200682b8339818101604052810190620000379190620004cf565b8484848484838381600290816200004f9190620007e0565b508060039081620000619190620007e0565b5062000072620000bf60201b60201c565b60008190555050506200008b85620000c460201b60201c565b620000af82826fffffffffffffffffffffffffffffffff166200018a60201b60201c565b5050505050505050505062000965565b600090565b6000600960009054906101000a900473ffffffffffffffffffffffffffffffffffffffff16905081600960006101000a81548173ffffffffffffffffffffffffffffffffffffffff021916908373ffffffffffffffffffffffffffffffffffffffff1602179055508173ffffffffffffffffffffffffffffffffffffffff168173ffffffffffffffffffffffffffffffffffffffff167f8292fce18fa69edf4db7b94ea2e58241df0ae57f97e0a6c9b29067028bf92d7660405160405180910390a35050565b612710811115620001d857612710816040517f52498568000000000000000000000000000000000000000000000000000000008152600401620001cf9291906200091b565b60405180910390fd5b81600a60006101000a81548173ffffffffffffffffffffffffffffffffffffffff021916908373ffffffffffffffffffffffffffffffffffffffff16021790555080600a60146101000a81548161ffff021916908361ffff1602179055508173ffffffffffffffffffffffffffffffffffffffff167f90d7ec04bcb8978719414f82e52e4cb651db41d0e6f8cea6118c2191e6183adb826040516200027e919062000948565b60405180910390a25050565b6000604051905090565b600080fd5b600080fd5b600073ffffffffffffffffffffffffffffffffffffffff82169050919050565b6000620002cb826200029e565b9050919050565b620002dd81620002be565b8114620002e957600080fd5b50565b600081519050620002fd81620002d2565b92915050565b600080fd5b600080fd5b6000601f19601f8301169050919050565b7f4e487b7100000000000000000000000000000000000000000000000000000000600052604160045260246000fd5b62000358826200030d565b810181811067ffffffffffffffff821117156200037a57620003796200031e565b5b80604052505050565b60006200038f6200028a565b90506200039d82826200034d565b919050565b600067ffffffffffffffff821115620003c057620003bf6200031e565b5b620003cb826200030d565b9050602081019050919050565b60005b83811015620003f8578082015181840152602081019050620003db565b60008484015250505050565b60006200041b6200041584620003a2565b62000383565b9050828152602081018484840111156200043a576200043962000308565b5b62000447848285620003d8565b509392505050565b600082601f83011262000467576200046662000303565b5b81516200047984826020860162000404565b91505092915050565b60006fffffffffffffffffffffffffffffffff82169050919050565b620004a98162000482565b8114620004b557600080fd5b50565b600081519050620004c9816200049e565b92915050565b600080600080600060a08688031215620004ee57620004ed62000294565b5b6000620004fe88828901620002ec565b955050602086015167ffffffffffffffff81111562000522576200052162000299565b5b62000530888289016200044f565b945050604086015167ffffffffffffffff81111562000554576200055362000299565b5b62000562888289016200044f565b93505060606200057588828901620002ec565b92505060806200058888828901620004b8565b9150509295509295909350565b600081519050919050565b7f4e487b7100000000000000000000000000000000000000000000000000000000600052602260045260246000fd5b60006002820490506001821680620005e857607f821691505b602082108103620005fe57620005fd620005a0565b5b50919050565b60008190508160005260206000209050919050565b60006020601f8301049050919050565b600082821b905092915050565b600060088302620006687fffffffffffffffffffffffffffffffffffffffffffffffffffffffffffffffff8262000629565b62000674868362000629565b95508019841693508086168417925050509392505050565b6000819050919050565b6000819050919050565b6000620006c1620006bb620006b5846200068c565b62000696565b6200068c565b9050919050565b6000819050919050565b620006dd83620006a0565b620006f5620006ec82620006c8565b84845462000636565b825550505050565b600090565b6200070c620006fd565b62000719818484620006d2565b505050565b5b8181101562000741576200073560008262000702565b6001810190506200071f565b5050565b601f82111562000790576200075a8162000604565b620007658462000619565b8101602085101562000775578190505b6200078d620007848562000619565b8301826200071e565b50505b505050565b600082821c905092915050565b6000620007b56000198460080262000795565b1980831691505092915050565b6000620007d08383620007a2565b9150826002028217905092915050565b620007eb8262000595565b67ffffffffffffffff8111156200080757620008066200031e565b5b620008138254620005cf565b6200082082828562000745565b600060209050601f83116001811462000858576000841562000843578287015190505b6200084f8582620007c2565b865550620008bf565b601f198416620008688662000604565b60005b8281101562000892578489015182556001820191506020850194506020810190506200086b565b86831015620008b25784890151620008ae601f891682620007a2565b8355505b6001600288020188555050505b505050505050565b6000819050919050565b6000620008f2620008ec620008e684620008c7565b62000696565b6200068c565b9050919050565b6200090481620008d1565b82525050565b62000915816200068c565b82525050565b6000604082019050620009326000830185620008f9565b6200094160208301846200090a565b9392505050565b60006020820190506200095f60008301846200090a565b92915050565b615eb680620009756000396000f3fe608060405234801561001057600080fd5b506004361061025d5760003560e01c8063754a81d911610146578063a22cb465116100c3578063c23dc68f11610087578063c23dc68f146107bc578063c87b56dd146107ec578063cd9d6aee1461081c578063e8a3d48514610838578063e985e9c514610856578063fa3209b2146108865761025d565b8063a22cb46514610705578063abef9ba114610721578063ac9650d814610751578063b24f2d3914610781578063b88d4fde146107a05761025d565b8063906e277b1161010a578063906e277b1461064f578063938e3d7b1461067f57806395d89b411461069b57806399a2557a146106b95780639bcf7a15146106e95761025d565b8063754a81d91461058557806383040532146105a15780638462151c146105d157806389c9c3ae146106015780638da5cb5b146106315761025d565b80633b1475a7116101df5780634cc157df116101a35780634cc157df1461048a5780635bbb2177146104bb578063600dd5ea146104eb5780636352211e1461050757806363b45e2d1461053757806370a08231146105555761025d565b80633b1475a7146103cf57806342842e0e146103ed57806342966c6814610409578063430c20811461042557806346a1a095146104555761025d565b806313af40351161022657806313af40351461031857806318160ddd1461033457806323b872dd146103525780632419f51b1461036e5780632a55205a1461039e5761025d565b806275a3171461026257806301ffc9a71461027e57806306fdde03146102ae578063081812fc146102cc578063095ea7b3146102fc575b600080fd5b61027c600480360381019061027791906145d7565b6108b6565b005b6102986004803603810190610293919061468b565b61092d565b6040516102a591906146d3565b60405180910390f35b6102b6610a27565b6040516102c3919061476d565b60405180910390f35b6102e660048036038101906102e191906147c5565b610ab9565b6040516102f39190614801565b60405180910390f35b6103166004803603810190610311919061481c565b610b35565b005b610332600480360381019061032d919061485c565b610c39565b005b61033c610c83565b6040516103499190614898565b60405180910390f35b61036c600480360381019061036791906148b3565b610c9a565b005b610388600480360381019061038391906147c5565b610caa565b6040516103959190614898565b60405180910390f35b6103b860048036038101906103b39190614906565b610d1d565b6040516103c6929190614946565b60405180910390f35b6103d7610d5b565b6040516103e49190614898565b60405180910390f35b610407600480360381019061040291906148b3565b610d64565b005b610423600480360381019061041e91906147c5565b610d84565b005b61043f600480360381019061043a919061481c565b610d92565b60405161044c91906146d3565b60405180910390f35b61046f600480360381019061046a91906147c5565b610e27565b6040516104819695949392919061496f565b60405180910390f35b6104a4600480360381019061049f91906147c5565b610f18565b6040516104b29291906149f4565b60405180910390f35b6104d560048036038101906104d09190614ae5565b611023565b6040516104e29190614c60565b60405180910390f35b6105056004803603810190610500919061481c565b6110e4565b005b610521600480360381019061051c91906147c5565b611130565b60405161052e9190614801565b60405180910390f35b61053f611146565b60405161054c9190614898565b60405180910390f35b61056f600480360381019061056a919061485c565b611153565b60405161057c9190614898565b60405180910390f35b61059f600480360381019061059a9190614d23565b611222565b005b6105bb60048036038101906105b691906147c5565b61128e565b6040516105c891906146d3565b60405180910390f35b6105eb60048036038101906105e6919061485c565b6112ae565b6040516105f89190614e80565b60405180910390f35b61061b6004803603810190610616919061481c565b6114a9565b6040516106289190614898565b60405180910390f35b6106396114da565b6040516106469190614801565b60405180910390f35b610669600480360381019061066491906147c5565b611504565b6040516106769190614f75565b60405180910390f35b61069960048036038101906106949190614f97565b611652565b005b6106a361169c565b6040516106b0919061476d565b60405180910390f35b6106d360048036038101906106ce9190614fe0565b61172e565b6040516106e09190614e80565b60405180910390f35b61070360048036038101906106fe9190615033565b6119ed565b005b61071f600480360381019061071a91906150b2565b611a3b565b005b61073b600480360381019061073691906150f2565b611bb2565b6040516107489190614898565b60405180910390f35b61076b600480360381019061076691906151a9565b611d84565b604051610778919061530d565b60405180910390f35b610789611f4c565b6040516107979291906149f4565b60405180910390f35b6107ba60048036038101906107b5919061532f565b611f8b565b005b6107d660048036038101906107d191906147c5565b612003565b6040516107e391906153f4565b60405180910390f35b610806600480360381019061080191906147c5565b612120565b604051610813919061476d565b60405180910390f35b610836600480360381019061083191906147c5565b612216565b005b610840612387565b60405161084d919061476d565b60405180910390f35b610870600480360381019061086b919061540f565b612415565b60405161087d91906146d3565b60405180910390f35b6108a0600480360381019061089b919061485c565b6124a9565b6040516108ad9190614e80565b60405180910390f35b6108be612540565b6108fd576040517f08c379a00000000000000000000000000000000000000000000000000000000081526004016108f49061549b565b60405180910390fd5b61090e610908610d5b565b82612549565b610929826001604051806020016040528060008152506125d0565b5050565b60006301ffc9a760e01b827bffffffffffffffffffffffffffffffffffffffffffffffffffffffff1916148061098857506380ac58cd60e01b827bffffffffffffffffffffffffffffffffffffffffffffffffffffffff1916145b806109b85750635b5e139f60e01b827bffffffffffffffffffffffffffffffffffffffffffffffffffffffff1916145b80610a2057507f2a55205a000000000000000000000000000000000000000000000000000000007bffffffffffffffffffffffffffffffffffffffffffffffffffffffff1916827bffffffffffffffffffffffffffffffffffffffffffffffffffffffff1916145b9050919050565b606060028054610a36906154ea565b80601f0160208091040260200160405190810160405280929190818152602001828054610a62906154ea565b8015610aaf5780601f10610a8457610100808354040283529160200191610aaf565b820191906000526020600020905b815481529060010190602001808311610a9257829003601f168201915b5050505050905090565b6000610ac482612990565b610afa576040517fcf4700e400000000000000000000000000000000000000000000000000000000815260040160405180910390fd5b6006600083815260200190815260200160002060009054906101000a900473ffffffffffffffffffffffffffffffffffffffff169050919050565b6000610b4082611130565b90508073ffffffffffffffffffffffffffffffffffffffff168373ffffffffffffffffffffffffffffffffffffffff1603610ba7576040517f943f7b8c00000000000000000000000000000000000000000000000000000000815260040160405180910390fd5b8073ffffffffffffffffffffffffffffffffffffffff16610bc66129de565b73ffffffffffffffffffffffffffffffffffffffff1614610c2957610bf281610bed6129de565b612415565b610c28576040517fcfb3b94200000000000000000000000000000000000000000000000000000000815260040160405180910390fd5b5b610c348383836129e6565b505050565b610c41612a98565b610c77576040517f2d99739600000000000000000000000000000000000000000000000000000000815260040160405180910390fd5b610c8081612ad5565b50565b6000610c8d612b9b565b6001546000540303905090565b610ca5838383612ba0565b505050565b6000610cb4611146565b8210610cf757816040517f0f2624ee000000000000000000000000000000000000000000000000000000008152600401610cee9190614898565b60405180910390fd5b600c8281548110610d0b57610d0a61551b565b5b90600052602060002001549050919050565b600080600080610d2c86610f18565b61ffff16915091508193506127108186610d469190615579565b610d5091906155ea565b925050509250929050565b60008054905090565b610d7f83838360405180602001604052806000815250611f8b565b505050565b610d8f816001613054565b50565b600080610d9e83611130565b90508073ffffffffffffffffffffffffffffffffffffffff168473ffffffffffffffffffffffffffffffffffffffff161480610de05750610ddf8185612415565b5b80610e1e57508373ffffffffffffffffffffffffffffffffffffffff16610e0684610ab9565b73ffffffffffffffffffffffffffffffffffffffff16145b91505092915050565b60116020528060005260406000206000915090508060000154908060010160009054906101000a900473ffffffffffffffffffffffffffffffffffffffff1690806002018054610e76906154ea565b80601f0160208091040260200160405190810160405280929190818152602001828054610ea2906154ea565b8015610eef5780601f10610ec457610100808354040283529160200191610eef565b820191906000526020600020905b815481529060010190602001808311610ed257829003601f168201915b5050505050908060030154908060040160009054906101000a900460ff16908060050154905086565b6000806000600b60008581526020019081526020016000206040518060400160405290816000820160009054906101000a900473ffffffffffffffffffffffffffffffffffffffff1673ffffffffffffffffffffffffffffffffffffffff1673ffffffffffffffffffffffffffffffffffffffff1681526020016001820154815250509050600073ffffffffffffffffffffffffffffffffffffffff16816000015173ffffffffffffffffffffffffffffffffffffffff1614610fe45780600001518160200151611019565b600a60009054906101000a900473ffffffffffffffffffffffffffffffffffffffff16600a60149054906101000a900461ffff165b9250925050915091565b606060008251905060008167ffffffffffffffff811115611047576110466144ac565b5b60405190808252806020026020018201604052801561108057816020015b61106d61438e565b8152602001906001900390816110655790505b50905060005b8281146110d9576110b08582815181106110a3576110a261551b565b5b6020026020010151612003565b8282815181106110c3576110c261551b565b5b6020026020010181905250806001019050611086565b508092505050919050565b6110ec613443565b611122576040517fdf5c6b0200000000000000000000000000000000000000000000000000000000815260040160405180910390fd5b61112c8282613480565b5050565b600061113b8261357b565b600001519050919050565b6000600c80549050905090565b60008073ffffffffffffffffffffffffffffffffffffffff168273ffffffffffffffffffffffffffffffffffffffff16036111ba576040517f8f4eb60400000000000000000000000000000000000000000000000000000000815260040160405180910390fd5b600560008373ffffffffffffffffffffffffffffffffffffffff1673ffffffffffffffffffffffffffffffffffffffff16815260200190815260200160002060000160009054906101000a900467ffffffffffffffff1667ffffffffffffffff169050919050565b61122a612540565b611269576040517f08c379a00000000000000000000000000000000000000000000000000000000081526004016112609061549b565b60405180910390fd5b61127b611274610d5b565b8484613806565b50506112888484836125d0565b50505050565b600e6020528060005260406000206000915054906101000a900460ff1681565b606060008060006112be85611153565b905060008167ffffffffffffffff8111156112dc576112db6144ac565b5b60405190808252806020026020018201604052801561130a5781602001602082028036833780820191505090505b50905061131561438e565b600061131f612b9b565b90505b83861461149b57600460008281526020019081526020016000206040518060600160405290816000820160009054906101000a900473ffffffffffffffffffffffffffffffffffffffff1673ffffffffffffffffffffffffffffffffffffffff1673ffffffffffffffffffffffffffffffffffffffff1681526020016000820160149054906101000a900467ffffffffffffffff1667ffffffffffffffff1667ffffffffffffffff16815260200160008201601c9054906101000a900460ff1615151515815250509150816040015161149057600073ffffffffffffffffffffffffffffffffffffffff16826000015173ffffffffffffffffffffffffffffffffffffffff161461143557816000015194505b8773ffffffffffffffffffffffffffffffffffffffff168573ffffffffffffffffffffffffffffffffffffffff160361148f57808387806001019850815181106114825761148161551b565b5b6020026020010181815250505b5b806001019050611322565b508195505050505050919050565b601260205281600052604060002081815481106114c557600080fd5b90600052602060002001600091509150505481565b6000600960009054906101000a900473ffffffffffffffffffffffffffffffffffffffff16905090565b61150c6143d1565b601160008381526020019081526020016000206040518060c0016040529081600082015481526020016001820160009054906101000a900473ffffffffffffffffffffffffffffffffffffffff1673ffffffffffffffffffffffffffffffffffffffff1673ffffffffffffffffffffffffffffffffffffffff16815260200160028201805461159a906154ea565b80601f01602080910402602001604051908101604052809291908181526020018280546115c6906154ea565b80156116135780601f106115e857610100808354040283529160200191611613565b820191906000526020600020905b8154815290600101906020018083116115f657829003601f168201915b50505050508152602001600382015481526020016004820160009054906101000a900460ff161515151581526020016005820154815250509050919050565b61165a61386c565b611690576040517f9f7f092500000000000000000000000000000000000000000000000000000000815260040160405180910390fd5b611699816138a9565b50565b6060600380546116ab906154ea565b80601f01602080910402602001604051908101604052809291908181526020018280546116d7906154ea565b80156117245780601f106116f957610100808354040283529160200191611724565b820191906000526020600020905b81548152906001019060200180831161170757829003601f168201915b5050505050905090565b6060818310611769576040517f32c1995a00000000000000000000000000000000000000000000000000000000815260040160405180910390fd5b6000806000549050611779612b9b565b85101561178b57611788612b9b565b94505b80841115611797578093505b60006117a287611153565b9050848610156117c55760008686039050818110156117bf578091505b506117ca565b600090505b60008167ffffffffffffffff8111156117e6576117e56144ac565b5b6040519080825280602002602001820160405280156118145781602001602082028036833780820191505090505b5090506000820361182b57809450505050506119e6565b600061183688612003565b90506000816040015161184b57816000015190505b60008990505b8881141580156118615750848714155b156119d857600460008281526020019081526020016000206040518060600160405290816000820160009054906101000a900473ffffffffffffffffffffffffffffffffffffffff1673ffffffffffffffffffffffffffffffffffffffff1673ffffffffffffffffffffffffffffffffffffffff1681526020016000820160149054906101000a900467ffffffffffffffff1667ffffffffffffffff1667ffffffffffffffff16815260200160008201601c9054906101000a900460ff161515151581525050925082604001516119cd57600073ffffffffffffffffffffffffffffffffffffffff16836000015173ffffffffffffffffffffffffffffffffffffffff161461197257826000015191505b8a73ffffffffffffffffffffffffffffffffffffffff168273ffffffffffffffffffffffffffffffffffffffff16036119cc57808488806001019950815181106119bf576119be61551b565b5b6020026020010181815250505b5b806001019050611851565b508583528296505050505050505b9392505050565b6119f5613443565b611a2b576040517fdf5c6b0200000000000000000000000000000000000000000000000000000000815260040160405180910390fd5b611a36838383613985565b505050565b611a436129de565b73ffffffffffffffffffffffffffffffffffffffff168273ffffffffffffffffffffffffffffffffffffffff1603611aa7576040517fb06307db00000000000000000000000000000000000000000000000000000000815260040160405180910390fd5b8060076000611ab46129de565b73ffffffffffffffffffffffffffffffffffffffff1673ffffffffffffffffffffffffffffffffffffffff16815260200190815260200160002060008473ffffffffffffffffffffffffffffffffffffffff1673ffffffffffffffffffffffffffffffffffffffff16815260200190815260200160002060006101000a81548160ff0219169083151502179055508173ffffffffffffffffffffffffffffffffffffffff16611b616129de565b73ffffffffffffffffffffffffffffffffffffffff167f17307eab39ab6107e8899845ad3d59bd9653f200f220920489ca2b5937696c3183604051611ba691906146d3565b60405180910390a35050565b60008060106000815480929190611bc89061561b565b9190505590506040518060c001604052808281526020013373ffffffffffffffffffffffffffffffffffffffff16815260200185815260200184815260200160001515815260200142815250601160008381526020019081526020016000206000820151816000015560208201518160010160006101000a81548173ffffffffffffffffffffffffffffffffffffffff021916908373ffffffffffffffffffffffffffffffffffffffff1602179055506040820151816002019081611c8d919061580f565b506060820151816003015560808201518160040160006101000a81548160ff02191690831515021790555060a08201518160050155905050601260003373ffffffffffffffffffffffffffffffffffffffff1673ffffffffffffffffffffffffffffffffffffffff1681526020019081526020016000208190806001815401808255809150506001900390600052602060002001600090919091909150553373ffffffffffffffffffffffffffffffffffffffff16817fb6f430c8722299f241d9c66e77ee068ce71fb3d66d1c0af7d457ef4e50b4e59b86604051611d72919061476d565b60405180910390a38091505092915050565b60608282905067ffffffffffffffff811115611da357611da26144ac565b5b604051908082528060200260200182016040528015611dd657816020015b6060815260200190600190039081611dc15790505b5090506000611de36129de565b905060008173ffffffffffffffffffffffffffffffffffffffff163373ffffffffffffffffffffffffffffffffffffffff161415905060005b85859050811015611f43578115611ea057611e7d30878784818110611e4457611e4361551b565b5b9050602002810190611e5691906158f0565b86604051602001611e69939291906159cb565b604051602081830303815290604052613ab6565b848281518110611e9057611e8f61551b565b5b6020026020010181905250611f30565b611f1130878784818110611eb757611eb661551b565b5b9050602002810190611ec991906158f0565b8080601f016020809104026020016040519081016040528093929190818152602001838380828437600081840152601f19601f82011690508083019250505050505050613ab6565b848281518110611f2457611f2361551b565b5b60200260200101819052505b8080611f3b9061561b565b915050611e1c565b50505092915050565b600080600a60009054906101000a900473ffffffffffffffffffffffffffffffffffffffff16600a60149054906101000a900461ffff16915091509091565b611f96848484612ba0565b611fb58373ffffffffffffffffffffffffffffffffffffffff16613ae3565b15611ffd57611fc684848484613b06565b611ffc576040517fd1a57ed600000000000000000000000000000000000000000000000000000000815260040160405180910390fd5b5b50505050565b61200b61438e565b61201361438e565b61201b612b9b565b83108061202a57506000548310155b15612038578091505061211b565b600460008481526020019081526020016000206040518060600160405290816000820160009054906101000a900473ffffffffffffffffffffffffffffffffffffffff1673ffffffffffffffffffffffffffffffffffffffff1673ffffffffffffffffffffffffffffffffffffffff1681526020016000820160149054906101000a900467ffffffffffffffff1667ffffffffffffffff1667ffffffffffffffff16815260200160008201601c9054906101000a900460ff161515151581525050905080604001511561210e578091505061211b565b6121178361357b565b9150505b919050565b60606000600f60008481526020019081526020016000208054612142906154ea565b80601f016020809104026020016040519081016040528092919081815260200182805461216e906154ea565b80156121bb5780601f10612190576101008083540402835291602001916121bb565b820191906000526020600020905b81548152906001019060200180831161219e57829003601f168201915b505050505090506000815111156121d55780915050612211565b60006121e084613c56565b9050806121ec85613dfd565b6040516020016121fd929190615a31565b604051602081830303815290604052925050505b919050565b60006011600083815260200190815260200160002090503373ffffffffffffffffffffffffffffffffffffffff168160010160009054906101000a900473ffffffffffffffffffffffffffffffffffffffff1673ffffffffffffffffffffffffffffffffffffffff16146122bf576040517f08c379a00000000000000000000000000000000000000000000000000000000081526004016122b690615aa1565b60405180910390fd5b8060040160009054906101000a900460ff1615612311576040517f08c379a000000000000000000000000000000000000000000000000000000000815260040161230890615b0d565b60405180910390fd5b60018160040160006101000a81548160ff02191690831515021790555061233f3361233a610d5b565b613f5d565b3373ffffffffffffffffffffffffffffffffffffffff16827f6852407858602d696344801f0181bc507c808c727c914bb6cdfeabd42431af3860405160405180910390a35050565b60088054612394906154ea565b80601f01602080910402602001604051908101604052809291908181526020018280546123c0906154ea565b801561240d5780601f106123e25761010080835404028352916020019161240d565b820191906000526020600020905b8154815290600101906020018083116123f057829003601f168201915b505050505081565b6000600760008473ffffffffffffffffffffffffffffffffffffffff1673ffffffffffffffffffffffffffffffffffffffff16815260200190815260200160002060008373ffffffffffffffffffffffffffffffffffffffff1673ffffffffffffffffffffffffffffffffffffffff16815260200190815260200160002060009054906101000a900460ff16905092915050565b6060601260008373ffffffffffffffffffffffffffffffffffffffff1673ffffffffffffffffffffffffffffffffffffffff16815260200190815260200160002080548060200260200160405190810160405280929190818152602001828054801561253457602002820191906000526020600020905b815481526020019060010190808311612520575b50505050509050919050565b60006001905090565b6000600f60008481526020019081526020016000208054612569906154ea565b9050146125ab576040517f08c379a00000000000000000000000000000000000000000000000000000000081526004016125a290615b79565b60405180910390fd5b80600f600084815260200190815260200160002090816125cb919061580f565b505050565b600080549050600073ffffffffffffffffffffffffffffffffffffffff168473ffffffffffffffffffffffffffffffffffffffff160361263c576040517f2e07630000000000000000000000000000000000000000000000000000000000815260040160405180910390fd5b60008303612676576040517fb562e8dd00000000000000000000000000000000000000000000000000000000815260040160405180910390fd5b6126836000858386614237565b82600560008673ffffffffffffffffffffffffffffffffffffffff1673ffffffffffffffffffffffffffffffffffffffff16815260200190815260200160002060000160008282829054906101000a900467ffffffffffffffff160192506101000a81548167ffffffffffffffff021916908367ffffffffffffffff16021790555082600560008673ffffffffffffffffffffffffffffffffffffffff1673ffffffffffffffffffffffffffffffffffffffff16815260200190815260200160002060000160088282829054906101000a900467ffffffffffffffff160192506101000a81548167ffffffffffffffff021916908367ffffffffffffffff160217905550836004600083815260200190815260200160002060000160006101000a81548173ffffffffffffffffffffffffffffffffffffffff021916908373ffffffffffffffffffffffffffffffffffffffff160217905550426004600083815260200190815260200160002060000160146101000a81548167ffffffffffffffff021916908367ffffffffffffffff1602179055506000819050600084820190506128448673ffffffffffffffffffffffffffffffffffffffff16613ae3565b15612909575b818673ffffffffffffffffffffffffffffffffffffffff16600073ffffffffffffffffffffffffffffffffffffffff167fddf252ad1be2c89b69c2b068fc378daa952ba7f163c4a11628f55a4df523b3ef60405160405180910390a46128b96000878480600101955087613b06565b6128ef576040517fd1a57ed600000000000000000000000000000000000000000000000000000000815260040160405180910390fd5b80821061284a57826000541461290457600080fd5b612974565b5b818060010192508673ffffffffffffffffffffffffffffffffffffffff16600073ffffffffffffffffffffffffffffffffffffffff167fddf252ad1be2c89b69c2b068fc378daa952ba7f163c4a11628f55a4df523b3ef60405160405180910390a480821061290a575b81600081905550505061298a600085838661423d565b50505050565b60008161299b612b9b565b111580156129aa575060005482105b80156129d7575060046000838152602001908152602001600020600001601c9054906101000a900460ff16155b9050919050565b600033905090565b826006600084815260200190815260200160002060006101000a81548173ffffffffffffffffffffffffffffffffffffffff021916908373ffffffffffffffffffffffffffffffffffffffff160217905550818373ffffffffffffffffffffffffffffffffffffffff168273ffffffffffffffffffffffffffffffffffffffff167f8c5be1e5ebec7d5bd14f71427d1e84f3dd0314c0f7b2291e5b200ac8c7c3b92560405160405180910390a4505050565b6000612aa26114da565b73ffffffffffffffffffffffffffffffffffffffff163373ffffffffffffffffffffffffffffffffffffffff1614905090565b6000600960009054906101000a900473ffffffffffffffffffffffffffffffffffffffff16905081600960006101000a81548173ffffffffffffffffffffffffffffffffffffffff021916908373ffffffffffffffffffffffffffffffffffffffff1602179055508173ffffffffffffffffffffffffffffffffffffffff168173ffffffffffffffffffffffffffffffffffffffff167f8292fce18fa69edf4db7b94ea2e58241df0ae57f97e0a6c9b29067028bf92d7660405160405180910390a35050565b600090565b6000612bab8261357b565b90508373ffffffffffffffffffffffffffffffffffffffff16816000015173ffffffffffffffffffffffffffffffffffffffff1614612c16576040517fa114810000000000000000000000000000000000000000000000000000000000815260040160405180910390fd5b60008473ffffffffffffffffffffffffffffffffffffffff16612c376129de565b73ffffffffffffffffffffffffffffffffffffffff161480612c665750612c6585612c606129de565b612415565b5b80612cab5750612c746129de565b73ffffffffffffffffffffffffffffffffffffffff16612c9384610ab9565b73ffffffffffffffffffffffffffffffffffffffff16145b905080612ce4576040517f59c896be00000000000000000000000000000000000000000000000000000000815260040160405180910390fd5b600073ffffffffffffffffffffffffffffffffffffffff168473ffffffffffffffffffffffffffffffffffffffff1603612d4a576040517fea553b3400000000000000000000000000000000000000000000000000000000815260040160405180910390fd5b612d578585856001614237565b612d63600084876129e6565b6001600560008773ffffffffffffffffffffffffffffffffffffffff1673ffffffffffffffffffffffffffffffffffffffff16815260200190815260200160002060000160008282829054906101000a900467ffffffffffffffff160392506101000a81548167ffffffffffffffff021916908367ffffffffffffffff1602179055506001600560008673ffffffffffffffffffffffffffffffffffffffff1673ffffffffffffffffffffffffffffffffffffffff16815260200190815260200160002060000160008282829054906101000a900467ffffffffffffffff160192506101000a81548167ffffffffffffffff021916908367ffffffffffffffff1602179055506000600460008581526020019081526020016000209050848160000160006101000a81548173ffffffffffffffffffffffffffffffffffffffff021916908373ffffffffffffffffffffffffffffffffffffffff160217905550428160000160146101000a81548167ffffffffffffffff021916908367ffffffffffffffff16021790555060006001850190506000600460008381526020019081526020016000209050600073ffffffffffffffffffffffffffffffffffffffff168160000160009054906101000a900473ffffffffffffffffffffffffffffffffffffffff1673ffffffffffffffffffffffffffffffffffffffff1603612fe2576000548214612fe157878160000160006101000a81548173ffffffffffffffffffffffffffffffffffffffff021916908373ffffffffffffffffffffffffffffffffffffffff16021790555084602001518160000160146101000a81548167ffffffffffffffff021916908367ffffffffffffffff1602179055505b5b505050828473ffffffffffffffffffffffffffffffffffffffff168673ffffffffffffffffffffffffffffffffffffffff167fddf252ad1be2c89b69c2b068fc378daa952ba7f163c4a11628f55a4df523b3ef60405160405180910390a461304d858585600161423d565b5050505050565b600061305f8361357b565b905060008160000151905082156131405760008173ffffffffffffffffffffffffffffffffffffffff166130916129de565b73ffffffffffffffffffffffffffffffffffffffff1614806130c057506130bf826130ba6129de565b612415565b5b8061310557506130ce6129de565b73ffffffffffffffffffffffffffffffffffffffff166130ed86610ab9565b73ffffffffffffffffffffffffffffffffffffffff16145b90508061313e576040517f59c896be00000000000000000000000000000000000000000000000000000000815260040160405180910390fd5b505b61314e816000866001614237565b61315a600085836129e6565b6000600560008373ffffffffffffffffffffffffffffffffffffffff1673ffffffffffffffffffffffffffffffffffffffff168152602001908152602001600020905060018160000160008282829054906101000a900467ffffffffffffffff160392506101000a81548167ffffffffffffffff021916908367ffffffffffffffff16021790555060018160000160108282829054906101000a900467ffffffffffffffff160192506101000a81548167ffffffffffffffff021916908367ffffffffffffffff1602179055506000600460008781526020019081526020016000209050828160000160006101000a81548173ffffffffffffffffffffffffffffffffffffffff021916908373ffffffffffffffffffffffffffffffffffffffff160217905550428160000160146101000a81548167ffffffffffffffff021916908367ffffffffffffffff160217905550600181600001601c6101000a81548160ff02191690831515021790555060006001870190506000600460008381526020019081526020016000209050600073ffffffffffffffffffffffffffffffffffffffff168160000160009054906101000a900473ffffffffffffffffffffffffffffffffffffffff1673ffffffffffffffffffffffffffffffffffffffff16036133bd5760005482146133bc57848160000160006101000a81548173ffffffffffffffffffffffffffffffffffffffff021916908373ffffffffffffffffffffffffffffffffffffffff16021790555085602001518160000160146101000a81548167ffffffffffffffff021916908367ffffffffffffffff1602179055505b5b5050505083600073ffffffffffffffffffffffffffffffffffffffff168273ffffffffffffffffffffffffffffffffffffffff167fddf252ad1be2c89b69c2b068fc378daa952ba7f163c4a11628f55a4df523b3ef60405160405180910390a461342b81600086600161423d565b60016000815480929190600101919050555050505050565b600061344d6114da565b73ffffffffffffffffffffffffffffffffffffffff163373ffffffffffffffffffffffffffffffffffffffff1614905090565b6127108111156134cb57612710816040517f524985680000000000000000000000000000000000000000000000000000000081526004016134c2929190615bd4565b60405180910390fd5b81600a60006101000a81548173ffffffffffffffffffffffffffffffffffffffff021916908373ffffffffffffffffffffffffffffffffffffffff16021790555080600a60146101000a81548161ffff021916908361ffff1602179055508173ffffffffffffffffffffffffffffffffffffffff167f90d7ec04bcb8978719414f82e52e4cb651db41d0e6f8cea6118c2191e6183adb8260405161356f9190614898565b60405180910390a25050565b61358361438e565b600082905080613591612b9b565b116137cf576000548110156137ce576000600460008381526020019081526020016000206040518060600160405290816000820160009054906101000a900473ffffffffffffffffffffffffffffffffffffffff1673ffffffffffffffffffffffffffffffffffffffff1673ffffffffffffffffffffffffffffffffffffffff1681526020016000820160149054906101000a900467ffffffffffffffff1667ffffffffffffffff1667ffffffffffffffff16815260200160008201601c9054906101000a900460ff161515151581525050905080604001516137cc57600073ffffffffffffffffffffffffffffffffffffffff16816000015173ffffffffffffffffffffffffffffffffffffffff16146136b0578092505050613801565b5b6001156137cb57818060019003925050600460008381526020019081526020016000206040518060600160405290816000820160009054906101000a900473ffffffffffffffffffffffffffffffffffffffff1673ffffffffffffffffffffffffffffffffffffffff1673ffffffffffffffffffffffffffffffffffffffff1681526020016000820160149054906101000a900467ffffffffffffffff1667ffffffffffffffff1667ffffffffffffffff16815260200160008201601c9054906101000a900460ff1615151515815250509050600073ffffffffffffffffffffffffffffffffffffffff16816000015173ffffffffffffffffffffffffffffffffffffffff16146137c6578092505050613801565b6136b1565b5b505b5b6040517fdf2d9b4200000000000000000000000000000000000000000000000000000000815260040160405180910390fd5b919050565b60008083856138159190615bfd565b9050809150600c81908060018154018082558091505060019003906000526020600020016000909190919091505582600d60008381526020019081526020016000209081613863919061580f565b50935093915050565b60006138766114da565b73ffffffffffffffffffffffffffffffffffffffff163373ffffffffffffffffffffffffffffffffffffffff1614905090565b6000600880546138b8906154ea565b80601f01602080910402602001604051908101604052809291908181526020018280546138e4906154ea565b80156139315780601f1061390657610100808354040283529160200191613931565b820191906000526020600020905b81548152906001019060200180831161391457829003601f168201915b505050505090508160089081613947919061580f565b507fc9c7c3fe08b88b4df9d4d47ef47d2c43d55c025a0ba88ca442580ed9e7348a168183604051613979929190615c31565b60405180910390a15050565b6127108111156139d057612710816040517f524985680000000000000000000000000000000000000000000000000000000081526004016139c7929190615bd4565b60405180910390fd5b60405180604001604052808373ffffffffffffffffffffffffffffffffffffffff16815260200182815250600b600085815260200190815260200160002060008201518160000160006101000a81548173ffffffffffffffffffffffffffffffffffffffff021916908373ffffffffffffffffffffffffffffffffffffffff160217905550602082015181600101559050508173ffffffffffffffffffffffffffffffffffffffff16837f7365cf4122f072a3365c20d54eff9b38d73c096c28e1892ec8f5b0e403a0f12d83604051613aa99190614898565b60405180910390a3505050565b6060613adb8383604051806060016040528060278152602001615e5a60279139614243565b905092915050565b6000808273ffffffffffffffffffffffffffffffffffffffff163b119050919050565b60008373ffffffffffffffffffffffffffffffffffffffff1663150b7a02613b2c6129de565b8786866040518563ffffffff1660e01b8152600401613b4e9493929190615cb2565b6020604051808303816000875af1925050508015613b8a57506040513d601f19601f82011682018060405250810190613b879190615d13565b60015b613c03573d8060008114613bba576040519150601f19603f3d011682016040523d82523d6000602084013e613bbf565b606091505b506000815103613bfb576040517fd1a57ed600000000000000000000000000000000000000000000000000000000815260040160405180910390fd5b805181602001fd5b63150b7a0260e01b7bffffffffffffffffffffffffffffffffffffffffffffffffffffffff1916817bffffffffffffffffffffffffffffffffffffffffffffffffffffffff191614915050949350505050565b60606000613c62611146565b90506000600c805480602002602001604051908101604052809291908181526020018280548015613cb257602002820191906000526020600020905b815481526020019060010190808311613c9e575b5050505050905060005b82811015613dba57818181518110613cd757613cd661551b565b5b6020026020010151851015613da657600d6000838381518110613cfd57613cfc61551b565b5b602002602001015181526020019081526020016000208054613d1e906154ea565b80601f0160208091040260200160405190810160405280929190818152602001828054613d4a906154ea565b8015613d975780601f10613d6c57610100808354040283529160200191613d97565b820191906000526020600020905b815481529060010190602001808311613d7a57829003601f168201915b50505050509350505050613df8565b600181613db39190615bfd565b9050613cbc565b50836040517f25e5fda4000000000000000000000000000000000000000000000000000000008152600401613def9190614898565b60405180910390fd5b919050565b606060008203613e44576040518060400160405280600181526020017f30000000000000000000000000000000000000000000000000000000000000008152509050613f58565b600082905060005b60008214613e76578080613e5f9061561b565b915050600a82613e6f91906155ea565b9150613e4c565b60008167ffffffffffffffff811115613e9257613e916144ac565b5b6040519080825280601f01601f191660200182016040528015613ec45781602001600182028036833780820191505090505b5090505b60008514613f5157600182613edd9190615d40565b9150600a85613eec9190615d74565b6030613ef89190615bfd565b60f81b818381518110613f0e57613f0d61551b565b5b60200101907effffffffffffffffffffffffffffffffffffffffffffffffffffffffffffff1916908160001a905350600a85613f4a91906155ea565b9450613ec8565b8093505050505b919050565b600080549050600073ffffffffffffffffffffffffffffffffffffffff168373ffffffffffffffffffffffffffffffffffffffff1603613fc9576040517f2e07630000000000000000000000000000000000000000000000000000000000815260040160405180910390fd5b60008203614003576040517fb562e8dd00000000000000000000000000000000000000000000000000000000815260040160405180910390fd5b6140106000848385614237565b81600560008573ffffffffffffffffffffffffffffffffffffffff1673ffffffffffffffffffffffffffffffffffffffff16815260200190815260200160002060000160008282829054906101000a900467ffffffffffffffff160192506101000a81548167ffffffffffffffff021916908367ffffffffffffffff16021790555081600560008573ffffffffffffffffffffffffffffffffffffffff1673ffffffffffffffffffffffffffffffffffffffff16815260200190815260200160002060000160088282829054906101000a900467ffffffffffffffff160192506101000a81548167ffffffffffffffff021916908367ffffffffffffffff160217905550826004600083815260200190815260200160002060000160006101000a81548173ffffffffffffffffffffffffffffffffffffffff021916908373ffffffffffffffffffffffffffffffffffffffff160217905550426004600083815260200190815260200160002060000160146101000a81548167ffffffffffffffff021916908367ffffffffffffffff1602179055506000819050600083820190505b818060010192508573ffffffffffffffffffffffffffffffffffffffff16600073ffffffffffffffffffffffffffffffffffffffff167fddf252ad1be2c89b69c2b068fc378daa952ba7f163c4a11628f55a4df523b3ef60405160405180910390a48082106141b357816000819055505050614232600084838561423d565b505050565b50505050565b50505050565b60606000808573ffffffffffffffffffffffffffffffffffffffff168560405161426d9190615dd6565b600060405180830381855af49150503d80600081146142a8576040519150601f19603f3d011682016040523d82523d6000602084013e6142ad565b606091505b50915091506142be868383876142c9565b925050509392505050565b6060831561432b576000835103614323576142e385613ae3565b614322576040517f08c379a000000000000000000000000000000000000000000000000000000000815260040161431990615e39565b60405180910390fd5b5b829050614336565b614335838361433e565b5b949350505050565b6000825111156143515781518083602001fd5b806040517f08c379a0000000000000000000000000000000000000000000000000000000008152600401614385919061476d565b60405180910390fd5b6040518060600160405280600073ffffffffffffffffffffffffffffffffffffffff168152602001600067ffffffffffffffff1681526020016000151581525090565b6040518060c0016040528060008152602001600073ffffffffffffffffffffffffffffffffffffffff1681526020016060815260200160008152602001600015158152602001600081525090565b6000604051905090565b600080fd5b600080fd5b600073ffffffffffffffffffffffffffffffffffffffff82169050919050565b600061445e82614433565b9050919050565b61446e81614453565b811461447957600080fd5b50565b60008135905061448b81614465565b92915050565b600080fd5b600080fd5b6000601f19601f8301169050919050565b7f4e487b7100000000000000000000000000000000000000000000000000000000600052604160045260246000fd5b6144e48261449b565b810181811067ffffffffffffffff82111715614503576145026144ac565b5b80604052505050565b600061451661441f565b905061452282826144db565b919050565b600067ffffffffffffffff821115614542576145416144ac565b5b61454b8261449b565b9050602081019050919050565b82818337600083830152505050565b600061457a61457584614527565b61450c565b90508281526020810184848401111561459657614595614496565b5b6145a1848285614558565b509392505050565b600082601f8301126145be576145bd614491565b5b81356145ce848260208601614567565b91505092915050565b600080604083850312156145ee576145ed614429565b5b60006145fc8582860161447c565b925050602083013567ffffffffffffffff81111561461d5761461c61442e565b5b614629858286016145a9565b9150509250929050565b60007fffffffff0000000000000000000000000000000000000000000000000000000082169050919050565b61466881614633565b811461467357600080fd5b50565b6000813590506146858161465f565b92915050565b6000602082840312156146a1576146a0614429565b5b60006146af84828501614676565b91505092915050565b60008115159050919050565b6146cd816146b8565b82525050565b60006020820190506146e860008301846146c4565b92915050565b600081519050919050565b600082825260208201905092915050565b60005b8381101561472857808201518184015260208101905061470d565b60008484015250505050565b600061473f826146ee565b61474981856146f9565b935061475981856020860161470a565b6147628161449b565b840191505092915050565b600060208201905081810360008301526147878184614734565b905092915050565b6000819050919050565b6147a28161478f565b81146147ad57600080fd5b50565b6000813590506147bf81614799565b92915050565b6000602082840312156147db576147da614429565b5b60006147e9848285016147b0565b91505092915050565b6147fb81614453565b82525050565b600060208201905061481660008301846147f2565b92915050565b6000806040838503121561483357614832614429565b5b60006148418582860161447c565b9250506020614852858286016147b0565b9150509250929050565b60006020828403121561487257614871614429565b5b60006148808482850161447c565b91505092915050565b6148928161478f565b82525050565b60006020820190506148ad6000830184614889565b92915050565b6000806000606084860312156148cc576148cb614429565b5b60006148da8682870161447c565b93505060206148eb8682870161447c565b92505060406148fc868287016147b0565b9150509250925092565b6000806040838503121561491d5761491c614429565b5b600061492b858286016147b0565b925050602061493c858286016147b0565b9150509250929050565b600060408201905061495b60008301856147f2565b6149686020830184614889565b9392505050565b600060c0820190506149846000830189614889565b61499160208301886147f2565b81810360408301526149a38187614734565b90506149b26060830186614889565b6149bf60808301856146c4565b6149cc60a0830184614889565b979650505050505050565b600061ffff82169050919050565b6149ee816149d7565b82525050565b6000604082019050614a0960008301856147f2565b614a1660208301846149e5565b9392505050565b600067ffffffffffffffff821115614a3857614a376144ac565b5b602082029050602081019050919050565b600080fd5b6000614a61614a5c84614a1d565b61450c565b90508083825260208201905060208402830185811115614a8457614a83614a49565b5b835b81811015614aad5780614a9988826147b0565b845260208401935050602081019050614a86565b5050509392505050565b600082601f830112614acc57614acb614491565b5b8135614adc848260208601614a4e565b91505092915050565b600060208284031215614afb57614afa614429565b5b600082013567ffffffffffffffff811115614b1957614b1861442e565b5b614b2584828501614ab7565b91505092915050565b600081519050919050565b600082825260208201905092915050565b6000819050602082019050919050565b614b6381614453565b82525050565b600067ffffffffffffffff82169050919050565b614b8681614b69565b82525050565b614b95816146b8565b82525050565b606082016000820151614bb16000850182614b5a565b506020820151614bc46020850182614b7d565b506040820151614bd76040850182614b8c565b50505050565b6000614be98383614b9b565b60608301905092915050565b6000602082019050919050565b6000614c0d82614b2e565b614c178185614b39565b9350614c2283614b4a565b8060005b83811015614c53578151614c3a8882614bdd565b9750614c4583614bf5565b925050600181019050614c26565b5085935050505092915050565b60006020820190508181036000830152614c7a8184614c02565b905092915050565b600067ffffffffffffffff821115614c9d57614c9c6144ac565b5b614ca68261449b565b9050602081019050919050565b6000614cc6614cc184614c82565b61450c565b905082815260208101848484011115614ce257614ce1614496565b5b614ced848285614558565b509392505050565b600082601f830112614d0a57614d09614491565b5b8135614d1a848260208601614cb3565b91505092915050565b60008060008060808587031215614d3d57614d3c614429565b5b6000614d4b8782880161447c565b9450506020614d5c878288016147b0565b935050604085013567ffffffffffffffff811115614d7d57614d7c61442e565b5b614d89878288016145a9565b925050606085013567ffffffffffffffff811115614daa57614da961442e565b5b614db687828801614cf5565b91505092959194509250565b600081519050919050565b600082825260208201905092915050565b6000819050602082019050919050565b614df78161478f565b82525050565b6000614e098383614dee565b60208301905092915050565b6000602082019050919050565b6000614e2d82614dc2565b614e378185614dcd565b9350614e4283614dde565b8060005b83811015614e73578151614e5a8882614dfd565b9750614e6583614e15565b925050600181019050614e46565b5085935050505092915050565b60006020820190508181036000830152614e9a8184614e22565b905092915050565b600082825260208201905092915050565b6000614ebe826146ee565b614ec88185614ea2565b9350614ed881856020860161470a565b614ee18161449b565b840191505092915050565b600060c083016000830151614f046000860182614dee565b506020830151614f176020860182614b5a565b5060408301518482036040860152614f2f8282614eb3565b9150506060830151614f446060860182614dee565b506080830151614f576080860182614b8c565b5060a0830151614f6a60a0860182614dee565b508091505092915050565b60006020820190508181036000830152614f8f8184614eec565b905092915050565b600060208284031215614fad57614fac614429565b5b600082013567ffffffffffffffff811115614fcb57614fca61442e565b5b614fd7848285016145a9565b91505092915050565b600080600060608486031215614ff957614ff8614429565b5b60006150078682870161447c565b9350506020615018868287016147b0565b9250506040615029868287016147b0565b9150509250925092565b60008060006060848603121561504c5761504b614429565b5b600061505a868287016147b0565b935050602061506b8682870161447c565b925050604061507c868287016147b0565b9150509250925092565b61508f816146b8565b811461509a57600080fd5b50565b6000813590506150ac81615086565b92915050565b600080604083850312156150c9576150c8614429565b5b60006150d78582860161447c565b92505060206150e88582860161509d565b9150509250929050565b6000806040838503121561510957615108614429565b5b600083013567ffffffffffffffff8111156151275761512661442e565b5b615133858286016145a9565b9250506020615144858286016147b0565b9150509250929050565b600080fd5b60008083601f84011261516957615168614491565b5b8235905067ffffffffffffffff8111156151865761518561514e565b5b6020830191508360208202830111156151a2576151a1614a49565b5b9250929050565b600080602083850312156151c0576151bf614429565b5b600083013567ffffffffffffffff8111156151de576151dd61442e565b5b6151ea85828601615153565b92509250509250929050565b600081519050919050565b600082825260208201905092915050565b6000819050602082019050919050565b600081519050919050565b600082825260208201905092915050565b600061524982615222565b615253818561522d565b935061526381856020860161470a565b61526c8161449b565b840191505092915050565b6000615283838361523e565b905092915050565b6000602082019050919050565b60006152a3826151f6565b6152ad8185615201565b9350836020820285016152bf85615212565b8060005b858110156152fb57848403895281516152dc8582615277565b94506152e78361528b565b925060208a019950506001810190506152c3565b50829750879550505050505092915050565b600060208201905081810360008301526153278184615298565b905092915050565b6000806000806080858703121561534957615348614429565b5b60006153578782880161447c565b94505060206153688782880161447c565b9350506040615379878288016147b0565b925050606085013567ffffffffffffffff81111561539a5761539961442e565b5b6153a687828801614cf5565b91505092959194509250565b6060820160008201516153c86000850182614b5a565b5060208201516153db6020850182614b7d565b5060408201516153ee6040850182614b8c565b50505050565b600060608201905061540960008301846153b2565b92915050565b6000806040838503121561542657615425614429565b5b60006154348582860161447c565b92505060206154458582860161447c565b9150509250929050565b7f4e6f7420617574686f72697a656420746f206d696e742e000000000000000000600082015250565b60006154856017836146f9565b91506154908261544f565b602082019050919050565b600060208201905081810360008301526154b481615478565b9050919050565b7f4e487b7100000000000000000000000000000000000000000000000000000000600052602260045260246000fd5b6000600282049050600182168061550257607f821691505b602082108103615515576155146154bb565b5b50919050565b7f4e487b7100000000000000000000000000000000000000000000000000000000600052603260045260246000fd5b7f4e487b7100000000000000000000000000000000000000000000000000000000600052601160045260246000fd5b60006155848261478f565b915061558f8361478f565b925082820261559d8161478f565b915082820484148315176155b4576155b361554a565b5b5092915050565b7f4e487b7100000000000000000000000000000000000000000000000000000000600052601260045260246000fd5b60006155f58261478f565b91506156008361478f565b9250826156105761560f6155bb565b5b828204905092915050565b60006156268261478f565b91507fffffffffffffffffffffffffffffffffffffffffffffffffffffffffffffffff82036156585761565761554a565b5b600182019050919050565b60008190508160005260206000209050919050565b60006020601f8301049050919050565b600082821b905092915050565b6000600883026156c57fffffffffffffffffffffffffffffffffffffffffffffffffffffffffffffffff82615688565b6156cf8683615688565b95508019841693508086168417925050509392505050565b6000819050919050565b600061570c6157076157028461478f565b6156e7565b61478f565b9050919050565b6000819050919050565b615726836156f1565b61573a61573282615713565b848454615695565b825550505050565b600090565b61574f615742565b61575a81848461571d565b505050565b5b8181101561577e57615773600082615747565b600181019050615760565b5050565b601f8211156157c35761579481615663565b61579d84615678565b810160208510156157ac578190505b6157c06157b885615678565b83018261575f565b50505b505050565b600082821c905092915050565b60006157e6600019846008026157c8565b1980831691505092915050565b60006157ff83836157d5565b9150826002028217905092915050565b615818826146ee565b67ffffffffffffffff811115615831576158306144ac565b5b61583b82546154ea565b615846828285615782565b600060209050601f8311600181146158795760008415615867578287015190505b61587185826157f3565b8655506158d9565b601f19841661588786615663565b60005b828110156158af5784890151825560018201915060208501945060208101905061588a565b868310156158cc57848901516158c8601f8916826157d5565b8355505b6001600288020188555050505b505050505050565b600080fd5b600080fd5b600080fd5b6000808335600160200384360303811261590d5761590c6158e1565b5b80840192508235915067ffffffffffffffff82111561592f5761592e6158e6565b5b60208301925060018202360383131561594b5761594a6158eb565b5b509250929050565b600081905092915050565b600061596a8385615953565b9350615977838584614558565b82840190509392505050565b60008160601b9050919050565b600061599b82615983565b9050919050565b60006159ad82615990565b9050919050565b6159c56159c082614453565b6159a2565b82525050565b60006159d882858761595e565b91506159e482846159b4565b601482019150819050949350505050565b600081905092915050565b6000615a0b826146ee565b615a1581856159f5565b9350615a2581856020860161470a565b80840191505092915050565b6000615a3d8285615a00565b9150615a498284615a00565b91508190509392505050565b7f4e6f7420617574686f72697a6564000000000000000000000000000000000000600082015250565b6000615a8b600e836146f9565b9150615a9682615a55565b602082019050919050565b60006020820190508181036000830152615aba81615a7e565b9050919050565b7f416c726561647920657865637574656400000000000000000000000000000000600082015250565b6000615af76010836146f9565b9150615b0282615ac1565b602082019050919050565b60006020820190508181036000830152615b2681615aea565b9050919050565b7f55524920616c7265616479207365740000000000000000000000000000000000600082015250565b6000615b63600f836146f9565b9150615b6e82615b2d565b602082019050919050565b60006020820190508181036000830152615b9281615b56565b9050919050565b6000819050919050565b6000615bbe615bb9615bb484615b99565b6156e7565b61478f565b9050919050565b615bce81615ba3565b82525050565b6000604082019050615be96000830185615bc5565b615bf66020830184614889565b9392505050565b6000615c088261478f565b9150615c138361478f565b9250828201905080821115615c2b57615c2a61554a565b5b92915050565b60006040820190508181036000830152615c4b8185614734565b90508181036020830152615c5f8184614734565b90509392505050565b600082825260208201905092915050565b6000615c8482615222565b615c8e8185615c68565b9350615c9e81856020860161470a565b615ca78161449b565b840191505092915050565b6000608082019050615cc760008301876147f2565b615cd460208301866147f2565b615ce16040830185614889565b8181036060830152615cf38184615c79565b905095945050505050565b600081519050615d0d8161465f565b92915050565b600060208284031215615d2957615d28614429565b5b6000615d3784828501615cfe565b91505092915050565b6000615d4b8261478f565b9150615d568361478f565b9250828203905081811115615d6e57615d6d61554a565b5b92915050565b6000615d7f8261478f565b9150615d8a8361478f565b925082615d9a57615d996155bb565b5b828206905092915050565b6000615db082615222565b615dba8185615953565b9350615dca81856020860161470a565b80840191505092915050565b6000615de28284615da5565b915081905092915050565b7f416464726573733a2063616c6c20746f206e6f6e2d636f6e7472616374000000600082015250565b6000615e23601d836146f9565b9150615e2e82615ded565b602082019050919050565b60006020820190508181036000830152615e5281615e16565b905091905056fe416464726573733a206c6f772d6c6576656c2064656c65676174652063616c6c206661696c6564a2646970667358221220faba25b53452dccf129fb7eb893da2f3a0b31484f7cca4108d2b86588780d6e064736f6c63430008150033",
  "linkReferences": {},
  "deployedLinkReferences": {}
}