{
  "_format": "hh-sol-artifact-1",
  "contractName": "WalletPlanner",
  "sourceName": "contracts/WalletPlanner.sol",
  "abi": [
    {
      "inputs": [
        {
          "internalType": "address",
          "name": "_defaultAdmin",
          "type": "address"
        },
        {
          "internalType": "string",
          "name": "_name",
          "type": "string"
        },
        {
          "internalType": "string",
          "name": "_symbol",
          "type": "string"
        },
        {
          "internalType": "address",
          "name": "_royaltyRecipient",
          "type": "address"
        },
        {
          "internalType": "uint128",
          "name": "_royaltyBps",
          "type": "uint128"
        },
        {
          "internalType": "address",
          "name": "_uniswapRouter",
          "type": "address"
        }
      ],
      "stateMutability": "nonpayable",
      "type": "constructor"
    },
    {
      "inputs": [],
      "name": "ApprovalCallerNotOwnerNorApproved",
      "type": "error"
    },
    {
      "inputs": [],
      "name": "ApprovalQueryForNonexistentToken",
      "type": "error"
    },
    {
      "inputs": [],
      "name": "ApprovalToCurrentOwner",
      "type": "error"
    },
    {
      "inputs": [],
      "name": "ApproveToCaller",
      "type": "error"
    },
    {
      "inputs": [],
      "name": "BalanceQueryForZeroAddress",
      "type": "error"
    },
    {
      "inputs": [
        {
          "internalType": "uint256",
          "name": "index",
          "type": "uint256"
        }
      ],
      "name": "BatchMintInvalidBatchId",
      "type": "error"
    },
    {
      "inputs": [
        {
          "internalType": "uint256",
          "name": "tokenId",
          "type": "uint256"
        }
      ],
      "name": "BatchMintInvalidTokenId",
      "type": "error"
    },
    {
      "inputs": [
        {
          "internalType": "uint256",
          "name": "batchId",
          "type": "uint256"
        }
      ],
      "name": "BatchMintMetadataFrozen",
      "type": "error"
    },
    {
      "inputs": [],
      "name": "ContractMetadataUnauthorized",
      "type": "error"
    },
    {
      "inputs": [],
      "name": "InvalidQueryRange",
      "type": "error"
    },
    {
      "inputs": [],
      "name": "MintToZeroAddress",
      "type": "error"
    },
    {
      "inputs": [],
      "name": "MintZeroQuantity",
      "type": "error"
    },
    {
      "inputs": [],
      "name": "OnlySimulatedBackend",
      "type": "error"
    },
    {
      "inputs": [],
      "name": "OwnableUnauthorized",
      "type": "error"
    },
    {
      "inputs": [],
      "name": "OwnerQueryForNonexistentToken",
      "type": "error"
    },
    {
      "inputs": [
        {
          "internalType": "uint256",
          "name": "max",
          "type": "uint256"
        },
        {
          "internalType": "uint256",
          "name": "actual",
          "type": "uint256"
        }
      ],
      "name": "RoyaltyExceededMaxFeeBps",
      "type": "error"
    },
    {
      "inputs": [
        {
          "internalType": "address",
          "name": "recipient",
          "type": "address"
        }
      ],
      "name": "RoyaltyInvalidRecipient",
      "type": "error"
    },
    {
      "inputs": [],
      "name": "RoyaltyUnauthorized",
      "type": "error"
    },
    {
      "inputs": [],
      "name": "TransferCallerNotOwnerNorApproved",
      "type": "error"
    },
    {
      "inputs": [],
      "name": "TransferFromIncorrectOwner",
      "type": "error"
    },
    {
      "inputs": [],
      "name": "TransferToNonERC721ReceiverImplementer",
      "type": "error"
    },
    {
      "inputs": [],
      "name": "TransferToZeroAddress",
      "type": "error"
    },
    {
      "inputs": [],
      "name": "URIQueryForNonexistentToken",
      "type": "error"
    },
    {
      "anonymous": false,
      "inputs": [
        {
          "indexed": true,
          "internalType": "address",
          "name": "owner",
          "type": "address"
        },
        {
          "indexed": true,
          "internalType": "address",
          "name": "approved",
          "type": "address"
        },
        {
          "indexed": true,
          "internalType": "uint256",
          "name": "tokenId",
          "type": "uint256"
        }
      ],
      "name": "Approval",
      "type": "event"
    },
    {
      "anonymous": false,
      "inputs": [
        {
          "indexed": true,
          "internalType": "address",
          "name": "owner",
          "type": "address"
        },
        {
          "indexed": true,
          "internalType": "address",
          "name": "operator",
          "type": "address"
        },
        {
          "indexed": false,
          "internalType": "bool",
          "name": "approved",
          "type": "bool"
        }
      ],
      "name": "ApprovalForAll",
      "type": "event"
    },
    {
      "anonymous": false,
      "inputs": [
        {
          "indexed": false,
          "internalType": "uint256",
          "name": "timestamp",
          "type": "uint256"
        },
        {
          "indexed": false,
          "internalType": "uint256",
          "name": "intentsProcessed",
          "type": "uint256"
        }
      ],
      "name": "AutomationPerformed",
      "type": "event"
    },
    {
      "anonymous": false,
      "inputs": [
        {
          "indexed": false,
          "internalType": "uint256",
          "name": "_fromTokenId",
          "type": "uint256"
        },
        {
          "indexed": false,
          "internalType": "uint256",
          "name": "_toTokenId",
          "type": "uint256"
        }
      ],
      "name": "BatchMetadataUpdate",
      "type": "event"
    },
    {
      "anonymous": false,
      "inputs": [
        {
          "indexed": false,
          "internalType": "string",
          "name": "prevURI",
          "type": "string"
        },
        {
          "indexed": false,
          "internalType": "string",
          "name": "newURI",
          "type": "string"
        }
      ],
      "name": "ContractURIUpdated",
      "type": "event"
    },
    {
      "anonymous": false,
      "inputs": [
        {
          "indexed": true,
          "internalType": "address",
          "name": "newRoyaltyRecipient",
          "type": "address"
        },
        {
          "indexed": false,
          "internalType": "uint256",
          "name": "newRoyaltyBps",
          "type": "uint256"
        }
      ],
      "name": "DefaultRoyalty",
      "type": "event"
    },
    {
      "anonymous": false,
      "inputs": [
        {
          "indexed": true,
          "internalType": "uint256",
          "name": "intentId",
          "type": "uint256"
        },
        {
          "indexed": true,
          "internalType": "address",
          "name": "user",
          "type": "address"
        },
        {
          "indexed": false,
          "internalType": "string",
          "name": "description",
          "type": "string"
        }
      ],
      "name": "IntentCreated",
      "type": "event"
    },
    {
      "anonymous": false,
      "inputs": [
        {
          "indexed": true,
          "internalType": "uint256",
          "name": "intentId",
          "type": "uint256"
        },
        {
          "indexed": true,
          "internalType": "address",
          "name": "user",
          "type": "address"
        }
      ],
      "name": "IntentExecuted",
      "type": "event"
    },
    {
      "anonymous": false,
      "inputs": [],
      "name": "MetadataFrozen",
      "type": "event"
    },
    {
      "anonymous": false,
      "inputs": [
        {
          "indexed": true,
          "internalType": "address",
          "name": "prevOwner",
          "type": "address"
        },
        {
          "indexed": true,
          "internalType": "address",
          "name": "newOwner",
          "type": "address"
        }
      ],
      "name": "OwnerUpdated",
      "type": "event"
    },
    {
      "anonymous": false,
      "inputs": [
        {
          "indexed": true,
          "internalType": "uint256",
          "name": "tokenId",
          "type": "uint256"
        },
        {
          "indexed": true,
          "internalType": "address",
          "name": "royaltyRecipient",
          "type": "address"
        },
        {
          "indexed": false,
          "internalType": "uint256",
          "name": "royaltyBps",
          "type": "uint256"
        }
      ],
      "name": "RoyaltyForToken",
      "type": "event"
    },
    {
      "anonymous": false,
      "inputs": [
        {
          "indexed": true,
          "internalType": "address",
          "name": "user",
          "type": "address"
        },
        {
          "indexed": true,
          "internalType": "address",
          "name": "tokenIn",
          "type": "address"
        },
        {
          "indexed": true,
          "internalType": "address",
          "name": "tokenOut",
          "type": "address"
        },
        {
          "indexed": false,
          "internalType": "uint256",
          "name": "amountIn",
          "type": "uint256"
        },
        {
          "indexed": false,
          "internalType": "uint256",
          "name": "amountOut",
          "type": "uint256"
        }
      ],
      "name": "SwapExecuted",
      "type": "event"
    },
    {
      "anonymous": false,
      "inputs": [
        {
          "indexed": true,
          "internalType": "address",
          "name": "user",
          "type": "address"
        },
        {
          "indexed": true,
          "internalType": "address",
          "name": "token",
          "type": "address"
        },
        {
          "indexed": false,
          "internalType": "uint256",
          "name": "amount",
          "type": "uint256"
        }
      ],
      "name": "TokenDeposited",
      "type": "event"
    },
    {
      "anonymous": false,
      "inputs": [
        {
          "indexed": true,
          "internalType": "address",
          "name": "user",
          "type": "address"
        },
        {
          "indexed": true,
          "internalType": "address",
          "name": "token",
          "type": "address"
        },
        {
          "indexed": false,
          "internalType": "uint256",
          "name": "amount",
          "type": "uint256"
        }
      ],
      "name": "TokenWithdrawn",
      "type": "event"
    },
    {
      "anonymous": false,
      "inputs": [
        {
          "indexed": true,
          "internalType": "address",
          "name": "from",
          "type": "address"
        },
        {
          "indexed": true,
          "internalType": "address",
          "name": "to",
          "type": "address"
        },
        {
          "indexed": true,
          "internalType": "uint256",
          "name": "tokenId",
          "type": "uint256"
        }
      ],
      "name": "Transfer",
      "type": "event"
    },
    {
      "inputs": [],
      "name": "DAI",
      "outputs": [
        {
          "internalType": "address",
          "name": "",
          "type": "address"
        }
      ],
      "stateMutability": "view",
      "type": "function"
    },
    {
      "inputs": [],
      "name": "DEFAULT_SLIPPAGE",
      "outputs": [
        {
          "internalType": "uint256",
          "name": "",
          "type": "uint256"
        }
      ],
      "stateMutability": "view",
      "type": "function"
    },
    {
      "inputs": [],
      "name": "INTERVAL",
      "outputs": [
        {
          "internalType": "uint256",
          "name": "",
          "type": "uint256"
        }
      ],
      "stateMutability": "view",
      "type": "function"
    },
    {
      "inputs": [],
      "name": "MAX_SLIPPAGE",
      "outputs": [
        {
          "internalType": "uint256",
          "name": "",
          "type": "uint256"
        }
      ],
      "stateMutability": "view",
      "type": "function"
    },
    {
      "inputs": [],
      "name": "USDC",
      "outputs": [
        {
          "internalType": "address",
          "name": "",
          "type": "address"
        }
      ],
      "stateMutability": "view",
      "type": "function"
    },
    {
      "inputs": [],
      "name": "WETH",
      "outputs": [
        {
          "internalType": "address",
          "name": "",
          "type": "address"
        }
      ],
      "stateMutability": "view",
      "type": "function"
    },
    {
      "inputs": [
        {
          "internalType": "address",
          "name": "token",
          "type": "address"
        }
      ],
      "name": "addSupportedToken",
      "outputs": [],
      "stateMutability": "nonpayable",
      "type": "function"
    },
    {
      "inputs": [
        {
          "internalType": "address",
          "name": "to",
          "type": "address"
        },
        {
          "internalType": "uint256",
          "name": "tokenId",
          "type": "uint256"
        }
      ],
      "name": "approve",
      "outputs": [],
      "stateMutability": "nonpayable",
      "type": "function"
    },
    {
      "inputs": [
        {
          "internalType": "address",
          "name": "owner",
          "type": "address"
        }
      ],
      "name": "balanceOf",
      "outputs": [
        {
          "internalType": "uint256",
          "name": "",
          "type": "uint256"
        }
      ],
      "stateMutability": "view",
      "type": "function"
    },
    {
      "inputs": [
        {
          "internalType": "uint256",
          "name": "",
          "type": "uint256"
        }
      ],
      "name": "batchFrozen",
      "outputs": [
        {
          "internalType": "bool",
          "name": "",
          "type": "bool"
        }
      ],
      "stateMutability": "view",
      "type": "function"
    },
    {
      "inputs": [
        {
          "internalType": "address",
          "name": "_to",
          "type": "address"
        },
        {
          "internalType": "uint256",
          "name": "_quantity",
          "type": "uint256"
        },
        {
          "internalType": "string",
          "name": "_baseURI",
          "type": "string"
        },
        {
          "internalType": "bytes",
          "name": "_data",
          "type": "bytes"
        }
      ],
      "name": "batchMintTo",
      "outputs": [],
      "stateMutability": "nonpayable",
      "type": "function"
    },
    {
      "inputs": [
        {
          "internalType": "uint256",
          "name": "_tokenId",
          "type": "uint256"
        }
      ],
      "name": "burn",
      "outputs": [],
      "stateMutability": "nonpayable",
      "type": "function"
    },
    {
      "inputs": [
        {
          "internalType": "bytes",
          "name": "",
          "type": "bytes"
        }
      ],
      "name": "checkUpkeep",
      "outputs": [
        {
          "internalType": "bool",
          "name": "upkeepNeeded",
          "type": "bool"
        },
        {
          "internalType": "bytes",
          "name": "performData",
          "type": "bytes"
        }
      ],
      "stateMutability": "view",
      "type": "function"
    },
    {
      "inputs": [],
      "name": "contractURI",
      "outputs": [
        {
          "internalType": "string",
          "name": "",
          "type": "string"
        }
      ],
      "stateMutability": "view",
      "type": "function"
    },
    {
      "inputs": [
        {
          "internalType": "string",
          "name": "_description",
          "type": "string"
        },
        {
          "internalType": "uint256",
          "name": "_estimatedCost",
          "type": "uint256"
        }
      ],
      "name": "createIntent",
      "outputs": [
        {
          "internalType": "uint256",
          "name": "",
          "type": "uint256"
        }
      ],
      "stateMutability": "nonpayable",
      "type": "function"
    },
    {
      "inputs": [
        {
          "internalType": "string",
          "name": "_description",
          "type": "string"
        },
        {
          "internalType": "uint256",
          "name": "_estimatedCost",
          "type": "uint256"
        },
        {
          "internalType": "uint256",
          "name": "_executionTime",
          "type": "uint256"
        },
        {
          "internalType": "address",
          "name": "_tokenIn",
          "type": "address"
        },
        {
          "internalType": "uint256",
          "name": "_amountIn",
          "type": "uint256"
        },
        {
          "internalType": "address",
          "name": "_tokenOut",
          "type": "address"
        },
        {
          "internalType": "uint256",
          "name": "_slippageTolerance",
          "type": "uint256"
        }
      ],
      "name": "createScheduledSwapIntent",
      "outputs": [
        {
          "internalType": "uint256",
          "name": "",
          "type": "uint256"
        }
      ],
      "stateMutability": "nonpayable",
      "type": "function"
    },
    {
      "inputs": [
        {
          "internalType": "string",
          "name": "_description",
          "type": "string"
        },
        {
          "internalType": "uint256",
          "name": "_estimatedCost",
          "type": "uint256"
        },
        {
          "internalType": "address",
          "name": "_tokenIn",
          "type": "address"
        },
        {
          "internalType": "uint256",
          "name": "_amountIn",
          "type": "uint256"
        },
        {
          "internalType": "address",
          "name": "_tokenOut",
          "type": "address"
        },
        {
          "internalType": "uint256",
          "name": "_slippageTolerance",
          "type": "uint256"
        }
      ],
      "name": "createSwapIntent",
      "outputs": [
        {
          "internalType": "uint256",
          "name": "",
          "type": "uint256"
        }
      ],
      "stateMutability": "nonpayable",
      "type": "function"
    },
    {
      "inputs": [
        {
          "internalType": "address",
          "name": "token",
          "type": "address"
        },
        {
          "internalType": "uint256",
          "name": "amount",
          "type": "uint256"
        }
      ],
      "name": "depositToken",
      "outputs": [],
      "stateMutability": "nonpayable",
      "type": "function"
    },
    {
      "inputs": [
        {
          "internalType": "address",
          "name": "token",
          "type": "address"
        }
      ],
      "name": "emergencyWithdraw",
      "outputs": [],
      "stateMutability": "nonpayable",
      "type": "function"
    },
    {
      "inputs": [],
      "name": "emergencyWithdrawETH",
      "outputs": [],
      "stateMutability": "nonpayable",
      "type": "function"
    },
    {
      "inputs": [
        {
          "internalType": "uint256",
          "name": "_intentId",
          "type": "uint256"
        }
      ],
      "name": "executeIntent",
      "outputs": [],
      "stateMutability": "nonpayable",
      "type": "function"
    },
    {
      "inputs": [
        {
          "internalType": "address",
          "name": "tokenIn",
          "type": "address"
        },
        {
          "internalType": "uint256",
          "name": "amountIn",
          "type": "uint256"
        },
        {
          "internalType": "address",
          "name": "tokenOut",
          "type": "address"
        },
        {
          "internalType": "address",
          "name": "recipient",
          "type": "address"
        },
        {
          "internalType": "uint256",
          "name": "slippageTolerance",
          "type": "uint256"
        }
      ],
      "name": "executeSwap",
      "outputs": [
        {
          "internalType": "uint256",
          "name": "amountOut",
          "type": "uint256"
        }
      ],
      "stateMutability": "nonpayable",
      "type": "function"
    },
    {
      "inputs": [
        {
          "internalType": "uint256",
          "name": "tokenId",
          "type": "uint256"
        }
      ],
      "name": "explicitOwnershipOf",
      "outputs": [
        {
          "components": [
            {
              "internalType": "address",
              "name": "addr",
              "type": "address"
            },
            {
              "internalType": "uint64",
              "name": "startTimestamp",
              "type": "uint64"
            },
            {
              "internalType": "bool",
              "name": "burned",
              "type": "bool"
            }
          ],
          "internalType": "struct IERC721A.TokenOwnership",
          "name": "",
          "type": "tuple"
        }
      ],
      "stateMutability": "view",
      "type": "function"
    },
    {
      "inputs": [
        {
          "internalType": "uint256[]",
          "name": "tokenIds",
          "type": "uint256[]"
        }
      ],
      "name": "explicitOwnershipsOf",
      "outputs": [
        {
          "components": [
            {
              "internalType": "address",
              "name": "addr",
              "type": "address"
            },
            {
              "internalType": "uint64",
              "name": "startTimestamp",
              "type": "uint64"
            },
            {
              "internalType": "bool",
              "name": "burned",
              "type": "bool"
            }
          ],
          "internalType": "struct IERC721A.TokenOwnership[]",
          "name": "",
          "type": "tuple[]"
        }
      ],
      "stateMutability": "view",
      "type": "function"
    },
    {
      "inputs": [],
      "name": "functionsConsumer",
      "outputs": [
        {
          "internalType": "address",
          "name": "",
          "type": "address"
        }
      ],
      "stateMutability": "view",
      "type": "function"
    },
    {
      "inputs": [
        {
          "internalType": "uint256",
          "name": "tokenId",
          "type": "uint256"
        }
      ],
      "name": "getApproved",
      "outputs": [
        {
          "internalType": "address",
          "name": "",
          "type": "address"
        }
      ],
      "stateMutability": "view",
      "type": "function"
    },
    {
      "inputs": [],
      "name": "getBaseURICount",
      "outputs": [
        {
          "internalType": "uint256",
          "name": "",
          "type": "uint256"
        }
      ],
      "stateMutability": "view",
      "type": "function"
    },
    {
      "inputs": [
        {
          "internalType": "uint256",
          "name": "_index",
          "type": "uint256"
        }
      ],
      "name": "getBatchIdAtIndex",
      "outputs": [
        {
          "internalType": "uint256",
          "name": "",
          "type": "uint256"
        }
      ],
      "stateMutability": "view",
      "type": "function"
    },
    {
      "inputs": [],
      "name": "getDefaultRoyaltyInfo",
      "outputs": [
        {
          "internalType": "address",
          "name": "",
          "type": "address"
        },
        {
          "internalType": "uint16",
          "name": "",
          "type": "uint16"
        }
      ],
      "stateMutability": "view",
      "type": "function"
    },
    {
      "inputs": [
        {
          "internalType": "uint256",
          "name": "_intentId",
          "type": "uint256"
        }
      ],
      "name": "getIntent",
      "outputs": [
        {
          "components": [
            {
              "internalType": "uint256",
              "name": "id",
              "type": "uint256"
            },
            {
              "internalType": "address",
              "name": "user",
              "type": "address"
            },
            {
              "internalType": "string",
              "name": "description",
              "type": "string"
            },
            {
              "internalType": "uint256",
              "name": "estimatedCost",
              "type": "uint256"
            },
            {
              "internalType": "uint256",
              "name": "timestamp",
              "type": "uint256"
            },
            {
              "internalType": "uint256",
              "name": "executionTime",
              "type": "uint256"
            },
            {
              "internalType": "bool",
              "name": "executed",
              "type": "bool"
            },
            {
              "internalType": "bool",
              "name": "isScheduled",
              "type": "bool"
            },
            {
              "internalType": "address",
              "name": "tokenIn",
              "type": "address"
            },
            {
              "internalType": "uint256",
              "name": "amountIn",
              "type": "uint256"
            },
            {
              "internalType": "address",
              "name": "tokenOut",
              "type": "address"
            },
            {
              "internalType": "uint256",
              "name": "slippageTolerance",
              "type": "uint256"
            }
          ],
          "internalType": "struct WalletPlanner.Intent",
          "name": "",
          "type": "tuple"
        }
      ],
      "stateMutability": "view",
      "type": "function"
    },
    {
      "inputs": [
        {
          "internalType": "uint256",
          "name": "_tokenId",
          "type": "uint256"
        }
      ],
      "name": "getRoyaltyInfoForToken",
      "outputs": [
        {
          "internalType": "address",
          "name": "",
          "type": "address"
        },
        {
          "internalType": "uint16",
          "name": "",
          "type": "uint16"
        }
      ],
      "stateMutability": "view",
      "type": "function"
    },
    {
      "inputs": [
        {
          "internalType": "address",
          "name": "tokenIn",
          "type": "address"
        },
        {
          "internalType": "uint256",
          "name": "amountIn",
          "type": "uint256"
        },
        {
          "internalType": "address",
          "name": "tokenOut",
          "type": "address"
        }
      ],
      "name": "getSwapEstimate",
      "outputs": [
        {
          "internalType": "uint256",
          "name": "estimatedAmountOut",
          "type": "uint256"
        }
      ],
      "stateMutability": "view",
      "type": "function"
    },
    {
      "inputs": [
        {
          "internalType": "address",
          "name": "user",
          "type": "address"
        },
        {
          "internalType": "address",
          "name": "token",
          "type": "address"
        }
      ],
      "name": "getUserBalance",
      "outputs": [
        {
          "internalType": "uint256",
          "name": "",
          "type": "uint256"
        }
      ],
      "stateMutability": "view",
      "type": "function"
    },
    {
      "inputs": [
        {
          "internalType": "address",
          "name": "_user",
          "type": "address"
        }
      ],
      "name": "getUserIntents",
      "outputs": [
        {
          "internalType": "uint256[]",
          "name": "",
          "type": "uint256[]"
        }
      ],
      "stateMutability": "view",
      "type": "function"
    },
    {
      "inputs": [
        {
          "internalType": "uint256",
          "name": "",
          "type": "uint256"
        }
      ],
      "name": "intents",
      "outputs": [
        {
          "internalType": "uint256",
          "name": "id",
          "type": "uint256"
        },
        {
          "internalType": "address",
          "name": "user",
          "type": "address"
        },
        {
          "internalType": "string",
          "name": "description",
          "type": "string"
        },
        {
          "internalType": "uint256",
          "name": "estimatedCost",
          "type": "uint256"
        },
        {
          "internalType": "uint256",
          "name": "timestamp",
          "type": "uint256"
        },
        {
          "internalType": "uint256",
          "name": "executionTime",
          "type": "uint256"
        },
        {
          "internalType": "bool",
          "name": "executed",
          "type": "bool"
        },
        {
          "internalType": "bool",
          "name": "isScheduled",
          "type": "bool"
        },
        {
          "internalType": "address",
          "name": "tokenIn",
          "type": "address"
        },
        {
          "internalType": "uint256",
          "name": "amountIn",
          "type": "uint256"
        },
        {
          "internalType": "address",
          "name": "tokenOut",
          "type": "address"
        },
        {
          "internalType": "uint256",
          "name": "slippageTolerance",
          "type": "uint256"
        }
      ],
      "stateMutability": "view",
      "type": "function"
    },
    {
      "inputs": [
        {
          "internalType": "address",
          "name": "owner",
          "type": "address"
        },
        {
          "internalType": "address",
          "name": "operator",
          "type": "address"
        }
      ],
      "name": "isApprovedForAll",
      "outputs": [
        {
          "internalType": "bool",
          "name": "",
          "type": "bool"
        }
      ],
      "stateMutability": "view",
      "type": "function"
    },
    {
      "inputs": [
        {
          "internalType": "address",
          "name": "_operator",
          "type": "address"
        },
        {
          "internalType": "uint256",
          "name": "_tokenId",
          "type": "uint256"
        }
      ],
      "name": "isApprovedOrOwner",
      "outputs": [
        {
          "internalType": "bool",
          "name": "isApprovedOrOwnerOf",
          "type": "bool"
        }
      ],
      "stateMutability": "view",
      "type": "function"
    },
    {
      "inputs": [],
      "name": "lastChecked",
      "outputs": [
        {
          "internalType": "uint256",
          "name": "",
          "type": "uint256"
        }
      ],
      "stateMutability": "view",
      "type": "function"
    },
    {
      "inputs": [
        {
          "internalType": "address",
          "name": "_to",
          "type": "address"
        },
        {
          "internalType": "string",
          "name": "_tokenURI",
          "type": "string"
        }
      ],
      "name": "mintTo",
      "outputs": [],
      "stateMutability": "nonpayable",
      "type": "function"
    },
    {
      "inputs": [
        {
          "internalType": "bytes[]",
          "name": "data",
          "type": "bytes[]"
        }
      ],
      "name": "multicall",
      "outputs": [
        {
          "internalType": "bytes[]",
          "name": "results",
          "type": "bytes[]"
        }
      ],
      "stateMutability": "nonpayable",
      "type": "function"
    },
    {
      "inputs": [],
      "name": "name",
      "outputs": [
        {
          "internalType": "string",
          "name": "",
          "type": "string"
        }
      ],
      "stateMutability": "view",
      "type": "function"
    },
    {
      "inputs": [],
      "name": "nextTokenIdToMint",
      "outputs": [
        {
          "internalType": "uint256",
          "name": "",
          "type": "uint256"
        }
      ],
      "stateMutability": "view",
      "type": "function"
    },
    {
      "inputs": [],
      "name": "owner",
      "outputs": [
        {
          "internalType": "address",
          "name": "",
          "type": "address"
        }
      ],
      "stateMutability": "view",
      "type": "function"
    },
    {
      "inputs": [
        {
          "internalType": "uint256",
          "name": "tokenId",
          "type": "uint256"
        }
      ],
      "name": "ownerOf",
      "outputs": [
        {
          "internalType": "address",
          "name": "",
          "type": "address"
        }
      ],
      "stateMutability": "view",
      "type": "function"
    },
    {
      "inputs": [
        {
          "internalType": "bytes",
          "name": "performData",
          "type": "bytes"
        }
      ],
      "name": "performUpkeep",
      "outputs": [],
      "stateMutability": "nonpayable",
      "type": "function"
    },
    {
      "inputs": [
        {
          "internalType": "address",
          "name": "token",
          "type": "address"
        }
      ],
      "name": "removeSupportedToken",
      "outputs": [],
      "stateMutability": "nonpayable",
      "type": "function"
    },
    {
      "inputs": [
        {
          "internalType": "uint256",
          "name": "tokenId",
          "type": "uint256"
        },
        {
          "internalType": "uint256",
          "name": "salePrice",
          "type": "uint256"
        }
      ],
      "name": "royaltyInfo",
      "outputs": [
        {
          "internalType": "address",
          "name": "receiver",
          "type": "address"
        },
        {
          "internalType": "uint256",
          "name": "royaltyAmount",
          "type": "uint256"
        }
      ],
      "stateMutability": "view",
      "type": "function"
    },
    {
      "inputs": [
        {
          "internalType": "address",
          "name": "from",
          "type": "address"
        },
        {
          "internalType": "address",
          "name": "to",
          "type": "address"
        },
        {
          "internalType": "uint256",
          "name": "tokenId",
          "type": "uint256"
        }
      ],
      "name": "safeTransferFrom",
      "outputs": [],
      "stateMutability": "nonpayable",
      "type": "function"
    },
    {
      "inputs": [
        {
          "internalType": "address",
          "name": "from",
          "type": "address"
        },
        {
          "internalType": "address",
          "name": "to",
          "type": "address"
        },
        {
          "internalType": "uint256",
          "name": "tokenId",
          "type": "uint256"
        },
        {
          "internalType": "bytes",
          "name": "_data",
          "type": "bytes"
        }
      ],
      "name": "safeTransferFrom",
      "outputs": [],
      "stateMutability": "nonpayable",
      "type": "function"
    },
    {
      "inputs": [
        {
          "internalType": "address",
          "name": "operator",
          "type": "address"
        },
        {
          "internalType": "bool",
          "name": "approved",
          "type": "bool"
        }
      ],
      "name": "setApprovalForAll",
      "outputs": [],
      "stateMutability": "nonpayable",
      "type": "function"
    },
    {
      "inputs": [
        {
          "internalType": "string",
          "name": "_uri",
          "type": "string"
        }
      ],
      "name": "setContractURI",
      "outputs": [],
      "stateMutability": "nonpayable",
      "type": "function"
    },
    {
      "inputs": [
        {
          "internalType": "address",
          "name": "_royaltyRecipient",
          "type": "address"
        },
        {
          "internalType": "uint256",
          "name": "_royaltyBps",
          "type": "uint256"
        }
      ],
      "name": "setDefaultRoyaltyInfo",
      "outputs": [],
      "stateMutability": "nonpayable",
      "type": "function"
    },
    {
      "inputs": [
        {
          "internalType": "address",
          "name": "_functionsConsumer",
          "type": "address"
        }
      ],
      "name": "setFunctionsConsumer",
      "outputs": [],
      "stateMutability": "nonpayable",
      "type": "function"
    },
    {
      "inputs": [
        {
          "internalType": "address",
          "name": "_newOwner",
          "type": "address"
        }
      ],
      "name": "setOwner",
      "outputs": [],
      "stateMutability": "nonpayable",
      "type": "function"
    },
    {
      "inputs": [
        {
          "internalType": "uint256",
          "name": "_tokenId",
          "type": "uint256"
        },
        {
          "internalType": "address",
          "name": "_recipient",
          "type": "address"
        },
        {
          "internalType": "uint256",
          "name": "_bps",
          "type": "uint256"
        }
      ],
      "name": "setRoyaltyInfoForToken",
      "outputs": [],
      "stateMutability": "nonpayable",
      "type": "function"
    },
    {
      "inputs": [
        {
          "internalType": "address",
          "name": "",
          "type": "address"
        }
      ],
      "name": "supportedTokens",
      "outputs": [
        {
          "internalType": "bool",
          "name": "",
          "type": "bool"
        }
      ],
      "stateMutability": "view",
      "type": "function"
    },
    {
      "inputs": [
        {
          "internalType": "bytes4",
          "name": "interfaceId",
          "type": "bytes4"
        }
      ],
      "name": "supportsInterface",
      "outputs": [
        {
          "internalType": "bool",
          "name": "",
          "type": "bool"
        }
      ],
      "stateMutability": "view",
      "type": "function"
    },
    {
      "inputs": [],
      "name": "symbol",
      "outputs": [
        {
          "internalType": "string",
          "name": "",
          "type": "string"
        }
      ],
      "stateMutability": "view",
      "type": "function"
    },
    {
      "inputs": [
        {
          "internalType": "uint256",
          "name": "_tokenId",
          "type": "uint256"
        }
      ],
      "name": "tokenURI",
      "outputs": [
        {
          "internalType": "string",
          "name": "",
          "type": "string"
        }
      ],
      "stateMutability": "view",
      "type": "function"
    },
    {
      "inputs": [
        {
          "internalType": "address",
          "name": "owner",
          "type": "address"
        }
      ],
      "name": "tokensOfOwner",
      "outputs": [
        {
          "internalType": "uint256[]",
          "name": "",
          "type": "uint256[]"
        }
      ],
      "stateMutability": "view",
      "type": "function"
    },
    {
      "inputs": [
        {
          "internalType": "address",
          "name": "owner",
          "type": "address"
        },
        {
          "internalType": "uint256",
          "name": "start",
          "type": "uint256"
        },
        {
          "internalType": "uint256",
          "name": "stop",
          "type": "uint256"
        }
      ],
      "name": "tokensOfOwnerIn",
      "outputs": [
        {
          "internalType": "uint256[]",
          "name": "",
          "type": "uint256[]"
        }
      ],
      "stateMutability": "view",
      "type": "function"
    },
    {
      "inputs": [],
      "name": "totalSupply",
      "outputs": [
        {
          "internalType": "uint256",
          "name": "",
          "type": "uint256"
        }
      ],
      "stateMutability": "view",
      "type": "function"
    },
    {
      "inputs": [
        {
          "internalType": "address",
          "name": "from",
          "type": "address"
        },
        {
          "internalType": "address",
          "name": "to",
          "type": "address"
        },
        {
          "internalType": "uint256",
          "name": "tokenId",
          "type": "uint256"
        }
      ],
      "name": "transferFrom",
      "outputs": [],
      "stateMutability": "nonpayable",
      "type": "function"
    },
    {
      "inputs": [],
      "name": "uniswapRouter",
      "outputs": [
        {
          "internalType": "contract IUniswapV2Router02",
          "name": "",
          "type": "address"
        }
      ],
      "stateMutability": "view",
      "type": "function"
    },
    {
      "inputs": [
        {
          "internalType": "address",
          "name": "",
          "type": "address"
        },
        {
          "internalType": "address",
          "name": "",
          "type": "address"
        }
      ],
      "name": "userBalances",
      "outputs": [
        {
          "internalType": "uint256",
          "name": "",
          "type": "uint256"
        }
      ],
      "stateMutability": "view",
      "type": "function"
    },
    {
      "inputs": [
        {
          "internalType": "address",
          "name": "",
          "type": "address"
        },
        {
          "internalType": "uint256",
          "name": "",
          "type": "uint256"
        }
      ],
      "name": "userIntents",
      "outputs": [
        {
          "internalType": "uint256",
          "name": "",
          "type": "uint256"
        }
      ],
      "stateMutability": "view",
      "type": "function"
    },
    {
      "inputs": [
        {
          "internalType": "address",
          "name": "token",
          "type": "address"
        },
        {
          "internalType": "uint256",
          "name": "amount",
          "type": "uint256"
        }
      ],
      "name": "withdrawToken",
      "outputs": [],
      "stateMutability": "nonpayable",
      "type": "function"
    },
    {
      "stateMutability": "payable",
      "type": "receive"
    }
  ],
  "bytecode": "0x60a06040523480156200001157600080fd5b506040516200662538038062006625833981016040819052620000349162000338565b85858585858383600262000049838262000489565b50600362000058828262000489565b505060008055506200006a856200016f565b6200007f826001600160801b038316620001c1565b505050506001600160a01b038216159050620000a8576001600160a01b038116608052620000c1565b73c532a74256d3db42d0bf7a0400fefdbad76940086080525b5050601460205250507f4f9053452157b4cea1242edc5539416610407ce8477c1a7a9036e88748ef0c7f8054600160ff1991821681179092557fe77da4f610b28935e934a6462fcdfb2ad6a0b0e24d20ef6dda246f831b48d72c805482168317905573fff9976782d46cc05630d1f6ebab18b2324d6b146000527fdc7948e2eb5a76580fa7093b5c69463e8d61d81b599b38c0a1ab26395c85778f8054909116909117905550620005559050565b600980546001600160a01b038381166001600160a01b0319831681179093556040519116919082907f8292fce18fa69edf4db7b94ea2e58241df0ae57f97e0a6c9b29067028bf92d7690600090a35050565b612710811115620001f457604051630a4930ad60e31b815261271060048201526024810182905260440160405180910390fd5b600a80546001600160a01b0384166001600160b01b03199091168117600160a01b61ffff851602179091556040518281527f90d7ec04bcb8978719414f82e52e4cb651db41d0e6f8cea6118c2191e6183adb9060200160405180910390a25050565b80516001600160a01b03811681146200026e57600080fd5b919050565b634e487b7160e01b600052604160045260246000fd5b600082601f8301126200029b57600080fd5b81516001600160401b0380821115620002b857620002b862000273565b604051601f8301601f19908116603f01168101908282118183101715620002e357620002e362000273565b816040528381526020925086838588010111156200030057600080fd5b600091505b8382101562000324578582018301518183018401529082019062000305565b600093810190920192909252949350505050565b60008060008060008060c087890312156200035257600080fd5b6200035d8762000256565b60208801519096506001600160401b03808211156200037b57600080fd5b620003898a838b0162000289565b96506040890151915080821115620003a057600080fd5b50620003af89828a0162000289565b945050620003c06060880162000256565b60808801519093506001600160801b0381168114620003de57600080fd5b9150620003ee60a0880162000256565b90509295509295509295565b600181811c908216806200040f57607f821691505b6020821081036200043057634e487b7160e01b600052602260045260246000fd5b50919050565b601f8211156200048457600081815260208120601f850160051c810160208610156200045f5750805b601f850160051c820191505b8181101562000480578281556001016200046b565b5050505b505050565b81516001600160401b03811115620004a557620004a562000273565b620004bd81620004b68454620003fa565b8462000436565b602080601f831160018114620004f55760008415620004dc5750858301515b600019600386901b1c1916600185901b17855562000480565b600085815260208120601f198616915b82811015620005265788860151825594840194600190910190840162000505565b5085821015620005455787850151600019600388901b60f8161c191681555b5050505050600190811b01905550565b608051616067620005be600039600081816108ad01528181611a9601528181611bc701528181611c9101528181611f2d01528181612003015281816136fe01528181614086015281816141b7015281816142810152818161451d01526145f301526160676000f3fe6080604052600436106103e75760003560e01c80637631919011610208578063ac9650d811610118578063cd9d6aee116100ab578063e8a3d4851161007a578063e8a3d48514610cd7578063e985e9c514610cec578063f975951814610d35578063fa3209b214610d4b578063fbd7c03614610d6b57600080fd5b8063cd9d6aee14610c59578063de02666b14610c79578063e0bab4c414610c99578063e5ada13e14610cc157600080fd5b8063b88d4fde116100e7578063b88d4fde14610bcc578063c056cd0f14610bec578063c23dc68f14610c0c578063c87b56dd14610c3957600080fd5b8063ac9650d814610b14578063ad5c464814610b41578063adb5198014610b69578063b24f2d3914610ba157600080fd5b8063906e277b1161019b5780639bcf7a151161016a5780639bcf7a1514610a7f5780639e281a9814610a9f578063a22cb46514610abf578063a879851014610adf578063abef9ba114610af457600080fd5b8063906e277b146109fd578063938e3d7b14610a2a57806395d89b4114610a4a57806399a2557a14610a5f57600080fd5b806389a30271116101d757806389a302711461098157806389c9c3ae146109a957806389facb20146109c95780638da5cb5b146109df57600080fd5b806376319190146108ef578063830405321461090f578063845360171461093f5780638462151c1461095457600080fd5b80634585e33b116103035780636805d6ad116102965780636e04ff0d116102655780636e04ff0d1461082d5780636ff1c9bc1461085b57806370a082311461087b578063735de9f71461089b578063754a81d9146108cf57600080fd5b80636805d6ad14610777578063685b2bcc146107bd57806368c4ac26146107dd5780636d69fcaf1461080d57600080fd5b8063600dd5ea116102d2578063600dd5ea146107025780636352211e1461072257806363b45e2d1461074257806366af889d1461075757600080fd5b80634585e33b1461063b57806346a1a0951461065b5780634cc157df146106935780635bbb2177146106d557600080fd5b806323b872dd1161037b5780633b1475a71161034a5780633b1475a7146105c657806342842e0e146105db57806342966c68146105fb578063430c20811461061b57600080fd5b806323b872dd146105275780632419f51b146105475780632a55205a14610567578063338b5dea146105a657600080fd5b8063081812fc116103b7578063081812fc146104a4578063095ea7b3146104c457806313af4035146104e457806318160ddd1461050457600080fd5b806275a317146103f357806301ffc9a7146104155780630689bafd1461044a57806306fdde031461048257600080fd5b366103ee57005b600080fd5b3480156103ff57600080fd5b5061041361040e36600461513a565b610d8b565b005b34801561042157600080fd5b5061043561043036600461519d565b610dca565b60405190151581526020015b60405180910390f35b34801561045657600080fd5b5060165461046a906001600160a01b031681565b6040516001600160a01b039091168152602001610441565b34801561048e57600080fd5b50610497610e37565b604051610441919061520a565b3480156104b057600080fd5b5061046a6104bf36600461521d565b610ec9565b3480156104d057600080fd5b506104136104df366004615236565b610f0d565b3480156104f057600080fd5b506104136104ff366004615260565b610f93565b34801561051057600080fd5b50600154600054035b604051908152602001610441565b34801561053357600080fd5b5061041361054236600461527b565b610fc4565b34801561055357600080fd5b5061051961056236600461521d565b610fcf565b34801561057357600080fd5b506105876105823660046152b7565b611021565b604080516001600160a01b039093168352602083019190915201610441565b3480156105b257600080fd5b506104136105c1366004615236565b61105e565b3480156105d257600080fd5b50600054610519565b3480156105e757600080fd5b506104136105f636600461527b565b611201565b34801561060757600080fd5b5061041361061636600461521d565b61121c565b34801561062757600080fd5b50610435610636366004615236565b611227565b34801561064757600080fd5b506104136106563660046152d9565b6112a6565b34801561066757600080fd5b5061067b61067636600461521d565b611443565b6040516104419c9b9a9998979695949392919061534a565b34801561069f57600080fd5b506106b36106ae36600461521d565b611547565b604080516001600160a01b03909316835261ffff909116602083015201610441565b3480156106e157600080fd5b506106f56106f03660046153e7565b6115b2565b604051610441919061547c565b34801561070e57600080fd5b5061041361071d366004615236565b611678565b34801561072e57600080fd5b5061046a61073d36600461521d565b6116a7565b34801561074e57600080fd5b50600c54610519565b34801561076357600080fd5b506105196107723660046154e6565b6116b9565b34801561078357600080fd5b5061051961079236600461556a565b6001600160a01b03918216600090815260136020908152604080832093909416825291909152205490565b3480156107c957600080fd5b506105196107d836600461559d565b6119aa565b3480156107e957600080fd5b506104356107f8366004615260565b60146020526000908152604090205460ff1681565b34801561081957600080fd5b50610413610828366004615260565b612124565b34801561083957600080fd5b5061084d6108483660046152d9565b612173565b6040516104419291906155f2565b34801561086757600080fd5b50610413610876366004615260565b612246565b34801561088757600080fd5b50610519610896366004615260565b612370565b3480156108a757600080fd5b5061046a7f000000000000000000000000000000000000000000000000000000000000000081565b3480156108db57600080fd5b506104136108ea36600461560d565b6123be565b3480156108fb57600080fd5b5061041361090a366004615260565b6123e4565b34801561091b57600080fd5b5061043561092a36600461521d565b600e6020526000908152604090205460ff1681565b34801561094b57600080fd5b50610413612430565b34801561096057600080fd5b5061097461096f366004615260565b612494565b604051610441919061568a565b34801561098d57600080fd5b5061046a731c7d4b196cb0c7b01d743fbc6116a902379c723881565b3480156109b557600080fd5b506105196109c4366004615236565b6125d9565b3480156109d557600080fd5b50610519610e1081565b3480156109eb57600080fd5b506009546001600160a01b031661046a565b348015610a0957600080fd5b50610a1d610a1836600461521d565b61260a565b60405161044191906156c2565b348015610a3657600080fd5b50610413610a453660046157a5565b6127d6565b348015610a5657600080fd5b50610497612804565b348015610a6b57600080fd5b50610974610a7a3660046157d9565b612813565b348015610a8b57600080fd5b50610413610a9a36600461580c565b6129c6565b348015610aab57600080fd5b50610413610aba366004615236565b6129f6565b348015610acb57600080fd5b50610413610ada36600461583f565b612b20565b348015610aeb57600080fd5b5061051960c881565b348015610b0057600080fd5b50610519610b0f366004615876565b612bae565b348015610b2057600080fd5b50610b34610b2f3660046158ba565b612d79565b604051610441919061591c565b348015610b4d57600080fd5b5061046a73fff9976782d46cc05630d1f6ebab18b2324d6b1481565b348015610b7557600080fd5b50610519610b8436600461556a565b601360209081526000928352604080842090915290825290205481565b348015610bad57600080fd5b50600a546001600160a01b03811690600160a01b900461ffff166106b3565b348015610bd857600080fd5b50610413610be736600461597e565b612ee8565b348015610bf857600080fd5b50610519610c073660046159d9565b612f2c565b348015610c1857600080fd5b50610c2c610c2736600461521d565b6131c0565b6040516104419190615a52565b348015610c4557600080fd5b50610497610c5436600461521d565b61326e565b348015610c6557600080fd5b50610413610c7436600461521d565b61335c565b348015610c8557600080fd5b50610519610c94366004615a87565b6134ae565b348015610ca557600080fd5b5061046a73ff34b3d4aee8ddcd6f9afffb6fe49bd371b8a35781565b348015610ccd57600080fd5b5061051960155481565b348015610ce357600080fd5b506104976137b2565b348015610cf857600080fd5b50610435610d0736600461556a565b6001600160a01b03918216600090815260076020908152604080832093909416825291909152205460ff1690565b348015610d4157600080fd5b506105196101f481565b348015610d5757600080fd5b50610974610d66366004615260565b613840565b348015610d7757600080fd5b50610413610d86366004615260565b6138ac565b610d99565b60405180910390fd5b610dab610da560005490565b826138f9565b610dc68260016040518060200160405280600081525061396b565b5050565b60006301ffc9a760e01b6001600160e01b031983161480610dfb57506380ac58cd60e01b6001600160e01b03198316145b80610e165750635b5e139f60e01b6001600160e01b03198316145b80610e3157506001600160e01b0319821663152a902d60e11b145b92915050565b606060028054610e4690615ac3565b80601f0160208091040260200160405190810160405280929190818152602001828054610e7290615ac3565b8015610ebf5780601f10610e9457610100808354040283529160200191610ebf565b820191906000526020600020905b815481529060010190602001808311610ea257829003601f168201915b5050505050905090565b6000610ed482613b00565b610ef1576040516333d1c03960e21b815260040160405180910390fd5b506000908152600660205260409020546001600160a01b031690565b6000610f18826116a7565b9050806001600160a01b0316836001600160a01b031603610f4c5760405163250fdee360e21b815260040160405180910390fd5b336001600160a01b03821614610f8357610f668133610d07565b610f83576040516367d9dca160e11b815260040160405180910390fd5b610f8e838383613b2b565b505050565b610f9b613b87565b610fb8576040516316ccb9cb60e11b815260040160405180910390fd5b610fc181613bb4565b50565b610f8e838383613c06565b6000610fda600c5490565b8210610ffc57604051630793127760e11b815260048101839052602401610d90565b600c828154811061100f5761100f615afd565b90600052602060002001549050919050565b60008060008061103086611547565b90945084925061ffff1690506127106110498287615b29565b6110539190615b56565b925050509250929050565b6001600160a01b03821660009081526014602052604090205460ff166110bc5760405162461bcd60e51b8152602060048201526013602482015272151bdad95b881b9bdd081cdd5c1c1bdc9d1959606a1b6044820152606401610d90565b6000811161110c5760405162461bcd60e51b815260206004820152601d60248201527f416d6f756e74206d7573742062652067726561746572207468616e20300000006044820152606401610d90565b6040516323b872dd60e01b8152336004820152306024820152604481018290526001600160a01b038316906323b872dd906064016020604051808303816000875af115801561115f573d6000803e3d6000fd5b505050506040513d601f19601f820116820180604052508101906111839190615b6a565b503360009081526013602090815260408083206001600160a01b0386168452909152812080548392906111b7908490615b87565b90915550506040518181526001600160a01b0383169033907ff1444b5cad7ce70cb018d1b8edc8618fe303f3c7f034d8d572a6e27facbf2bef906020015b60405180910390a35050565b610f8e83838360405180602001604052806000815250612ee8565b610fc1816001613de1565b600080611233836116a7565b9050806001600160a01b0316846001600160a01b0316148061127a57506001600160a01b0380821660009081526007602090815260408083209388168352929052205460ff165b8061129e5750836001600160a01b031661129384610ec9565b6001600160a01b0316145b949350505050565b60006112b48284018461521d565b4260155590506000805b601054811080156112ce57508282105b156114035760008181526011602052604090206006810154610100900460ff1680156112ff5750600681015460ff16155b801561130f575080600501544210155b156113f05760068101805460ff191660011790558261132d81615b9a565b60068301549094506201000090046001600160a01b03161580159150611357575060008160070154115b156113985760068101546007820154600883015460018401546009850154611396946001600160a01b0362010000909104811694938116921690613f94565b505b6001808201546113b3916001600160a01b0390911690614716565b60018101546040516001600160a01b039091169083907f6852407858602d696344801f0181bc507c808c727c914bb6cdfeabd42431af3890600090a35b50806113fb81615b9a565b9150506112be565b5060408051428152602081018390527ff2d16d924eb54b4e0b6d5caea0349992ed5475ad6772b934ee978621b5d3d401910160405180910390a150505050565b60116020526000908152604090208054600182015460028301805492936001600160a01b039092169261147590615ac3565b80601f01602080910402602001604051908101604052809291908181526020018280546114a190615ac3565b80156114ee5780601f106114c3576101008083540402835291602001916114ee565b820191906000526020600020905b8154815290600101906020018083116114d157829003601f168201915b5050505060038301546004840154600585015460068601546007870154600888015460099098015496979496939550919360ff80831694610100840490911693620100009093046001600160a01b03908116939216908c565b6000818152600b60209081526040808320815180830190925280546001600160a01b03168083526001909101549282019290925282911561158e57805160208201516115a8565b600a546001600160a01b03811690600160a01b900461ffff165b9250925050915091565b80516060906000816001600160401b038111156115d1576115d1615085565b60405190808252806020026020018201604052801561161c57816020015b60408051606081018252600080825260208083018290529282015282526000199092019101816115ef5790505b50905060005b8281146116705761164b85828151811061163e5761163e615afd565b60200260200101516131c0565b82828151811061165d5761165d615afd565b6020908102919091010152600101611622565b509392505050565b611680613b87565b61169d57604051636fae358160e11b815260040160405180910390fd5b610dc68282614828565b60006116b2826148b8565b5192915050565b60004286116117165760405162461bcd60e51b8152602060048201526024808201527f457865637574696f6e2074696d65206d75737420626520696e207468652066756044820152637475726560e01b6064820152608401610d90565b6001600160a01b03851660009081526014602052604090205460ff1661174e5760405162461bcd60e51b8152600401610d9090615bb3565b3360009081526013602090815260408083206001600160a01b03891684529091529020548411156117915760405162461bcd60e51b8152600401610d9090615bea565b6101f48211156117b35760405162461bcd60e51b8152600401610d9090615c18565b60108054600091826117c483615b9a565b919050559050604051806101800160405280828152602001336001600160a01b031681526020018a8152602001898152602001428152602001888152602001600015158152602001600115158152602001876001600160a01b03168152602001868152602001856001600160a01b03168152602001600085116118485760c861184a565b845b905260008281526011602090815260409182902083518155908301516001820180546001600160a01b0319166001600160a01b0390921691909117905590820151600282019061189a9082615c91565b50606082015160038201556080820151600482015560a0820151600582015560c082015160068201805460e08501516101008087015161ffff1990931694151561ff001916949094179015159093029290921762010000600160b01b031916620100006001600160a01b039384160217905561012083015160078301556101408301516008830180546001600160a01b0319169190921617905561016090910151600990910155336000818152601260209081526040808320805460018101825590845291909220018390555182907fb6f430c8722299f241d9c66e77ee068ce71fb3d66d1c0af7d457ef4e50b4e59b90611996908d9061520a565b60405180910390a398975050505050505050565b6001600160a01b03851660009081526014602052604081205460ff166119e25760405162461bcd60e51b8152600401610d9090615bb3565b3360009081526013602090815260408083206001600160a01b038a168452909152902054851115611a255760405162461bcd60e51b8152600401610d9090615bea565b6101f4821115611a475760405162461bcd60e51b8152600401610d9090615c18565b3360009081526013602090815260408083206001600160a01b038a16845290915281208054879290611a7a908490615d50565b909155505060405163095ea7b360e01b81526001600160a01b037f0000000000000000000000000000000000000000000000000000000000000000811660048301526024820187905287169063095ea7b3906044016020604051808303816000875af1158015611aee573d6000803e3d6000fd5b505050506040513d601f19601f82011682018060405250810190611b129190615b6a565b5060606001600160a01b038516611d545760408051600280825260608201835290916020830190803683370190505090508681600081518110611b5757611b57615afd565b60200260200101906001600160a01b031690816001600160a01b03168152505073fff9976782d46cc05630d1f6ebab18b2324d6b1481600181518110611b9f57611b9f615afd565b6001600160a01b03928316602091820292909201015260405163d06ca61f60e01b81526000917f0000000000000000000000000000000000000000000000000000000000000000169063d06ca61f90611bfe908a908690600401615da7565b600060405180830381865afa158015611c1b573d6000803e3d6000fd5b505050506040513d6000823e601f3d908101601f19168201604052611c439190810190615dc0565b90506000612710611c548682615d50565b83600181518110611c6757611c67615afd565b6020026020010151611c799190615b29565b611c839190615b56565b905060006001600160a01b037f0000000000000000000000000000000000000000000000000000000000000000166318cbafe58a84878b611cc64261012c615b87565b6040518663ffffffff1660e01b8152600401611ce6959493929190615e45565b6000604051808303816000875af1158015611d05573d6000803e3d6000fd5b505050506040513d6000823e601f3d908101601f19168201604052611d2d9190810190615dc0565b905080600181518110611d4257611d42615afd565b602002602001015194505050506120ce565b73fff9976782d46cc05630d1f6ebab18b2324d6b13196001600160a01b03881601611e155760025b604051908082528060200260200182016040528015611da5578160200160208202803683370190505b5090508681600081518110611dbc57611dbc615afd565b60200260200101906001600160a01b031690816001600160a01b0316815250508481600181518110611df057611df0615afd565b60200260200101906001600160a01b031690816001600160a01b031681525050611f13565b73fff9976782d46cc05630d1f6ebab18b2324d6b13196001600160a01b03861601611e41576002611d7c565b6040805160038082526080820190925290602082016060803683370190505090508681600081518110611e7657611e76615afd565b60200260200101906001600160a01b031690816001600160a01b03168152505073fff9976782d46cc05630d1f6ebab18b2324d6b1481600181518110611ebe57611ebe615afd565b60200260200101906001600160a01b031690816001600160a01b0316815250508481600281518110611ef257611ef2615afd565b60200260200101906001600160a01b031690816001600160a01b0316815250505b60405163d06ca61f60e01b81526000906001600160a01b037f0000000000000000000000000000000000000000000000000000000000000000169063d06ca61f90611f64908a908690600401615da7565b600060405180830381865afa158015611f81573d6000803e3d6000fd5b505050506040513d6000823e601f3d908101601f19168201604052611fa99190810190615dc0565b90506000612710611fba8682615d50565b8360018551611fc99190615d50565b81518110611fd957611fd9615afd565b6020026020010151611feb9190615b29565b611ff59190615b56565b905060006001600160a01b037f0000000000000000000000000000000000000000000000000000000000000000166338ed17398a84878b6120384261012c615b87565b6040518663ffffffff1660e01b8152600401612058959493929190615e45565b6000604051808303816000875af1158015612077573d6000803e3d6000fd5b505050506040513d6000823e601f3d908101601f1916820160405261209f9190810190615dc0565b905080600182516120b09190615d50565b815181106120c0576120c0615afd565b602002602001015194505050505b60408051878152602081018490526001600160a01b0380881692908a169133917f764f0dc063c06f32d89a3f3af80c0db4be8a090901f589a478b447e0a51f09f191015b60405180910390a45095945050505050565b6009546001600160a01b0316331461214f576040516316ccb9cb60e11b815260040160405180910390fd5b6001600160a01b03166000908152601460205260409020805460ff19166001179055565b600060606000610e106015544261218a9190615d50565b1190506000805b601054811080156121a25750600582105b156122095760008181526011602052604090206006810154610100900460ff1680156121d35750600681015460ff16155b80156121e3575080600501544210155b156121f657826121f281615b9a565b9350505b508061220181615b9a565b915050612191565b508180156122175750600081115b93508060405160200161222c91815260200190565b604051602081830303815290604052925050509250929050565b6009546001600160a01b03163314612271576040516316ccb9cb60e11b815260040160405180910390fd5b6040516370a0823160e01b81523060048201526000906001600160a01b038316906370a0823190602401602060405180830381865afa1580156122b8573d6000803e3d6000fd5b505050506040513d601f19601f820116820180604052508101906122dc9190615e81565b9050816001600160a01b031663a9059cbb6122ff6009546001600160a01b031690565b6040516001600160e01b031960e084901b1681526001600160a01b039091166004820152602481018490526044016020604051808303816000875af115801561234c573d6000803e3d6000fd5b505050506040513d601f19601f82011682018060405250810190610f8e9190615b6a565b60006001600160a01b038216612399576040516323d3ad8160e21b815260040160405180910390fd5b506001600160a01b03166000908152600560205260409020546001600160401b031690565b6123d16123ca60005490565b84846149d2565b50506123de84848361396b565b50505050565b6009546001600160a01b0316331461240f576040516316ccb9cb60e11b815260040160405180910390fd5b6001600160a01b03166000908152601460205260409020805460ff19169055565b6009546001600160a01b0316331461245b576040516316ccb9cb60e11b815260040160405180910390fd5b6009546040516001600160a01b03909116904780156108fc02916000818181858888f19350505050158015610fc1573d6000803e3d6000fd5b606060008060006124a485612370565b90506000816001600160401b038111156124c0576124c0615085565b6040519080825280602002602001820160405280156124e9578160200160208202803683370190505b50905061250f604080516060810182526000808252602082018190529181019190915290565b60005b8386146125cd57600081815260046020908152604091829020825160608101845290546001600160a01b0381168252600160a01b81046001600160401b031692820192909252600160e01b90910460ff16151591810182905292506125c55781516001600160a01b03161561258657815194505b876001600160a01b0316856001600160a01b0316036125c557808387806001019850815181106125b8576125b8615afd565b6020026020010181815250505b600101612512565b50909695505050505050565b601260205281600052604060002081815481106125f557600080fd5b90600052602060002001600091509150505481565b61268d6040518061018001604052806000815260200160006001600160a01b031681526020016060815260200160008152602001600081526020016000815260200160001515815260200160001515815260200160006001600160a01b031681526020016000815260200160006001600160a01b03168152602001600081525090565b6000828152601160209081526040918290208251610180810184528154815260018201546001600160a01b03169281019290925260028101805492939192918401916126d890615ac3565b80601f016020809104026020016040519081016040528092919081815260200182805461270490615ac3565b80156127515780601f1061272657610100808354040283529160200191612751565b820191906000526020600020905b81548152906001019060200180831161273457829003601f168201915b5050509183525050600382015460208201526004820154604082015260058201546060820152600682015460ff80821615156080840152610100808304909116151560a0840152620100009091046001600160a01b0390811660c0840152600784015460e0840152600884015416908201526009909101546101209091015292915050565b6127de613b87565b6127fb57604051639f7f092560e01b815260040160405180910390fd5b610fc181614a36565b606060038054610e4690615ac3565b606081831061283557604051631960ccad60e11b815260040160405180910390fd5b6000805480841115612845578093505b600061285087612370565b90508486101561286f5785850381811015612869578091505b50612873565b5060005b6000816001600160401b0381111561288d5761288d615085565b6040519080825280602002602001820160405280156128b6578160200160208202803683370190505b509050816000036128cc5793506129bf92505050565b60006128d7886131c0565b9050600081604001516128e8575080515b885b8881141580156128fa5750848714155b156129b357600081815260046020908152604091829020825160608101845290546001600160a01b0381168252600160a01b81046001600160401b031692820192909252600160e01b90910460ff16151591810182905293506129ab5782516001600160a01b03161561296c57825191505b8a6001600160a01b0316826001600160a01b0316036129ab578084888060010199508151811061299e5761299e615afd565b6020026020010181815250505b6001016128ea565b50505092835250909150505b9392505050565b6129ce613b87565b6129eb57604051636fae358160e11b815260040160405180910390fd5b610f8e838383614b12565b3360009081526013602090815260408083206001600160a01b0386168452909152902054811115612a395760405162461bcd60e51b8152600401610d9090615bea565b3360009081526013602090815260408083206001600160a01b038616845290915281208054839290612a6c908490615d50565b909155505060405163a9059cbb60e01b8152336004820152602481018290526001600160a01b0383169063a9059cbb906044016020604051808303816000875af1158015612abe573d6000803e3d6000fd5b505050506040513d601f19601f82011682018060405250810190612ae29190615b6a565b506040518181526001600160a01b0383169033907f8210728e7c071f615b840ee026032693858fbcd5e5359e67e438c890f59e5620906020016111f5565b336001600160a01b03831603612b495760405163b06307db60e01b815260040160405180910390fd5b3360008181526007602090815260408083206001600160a01b03871680855290835292819020805460ff191686151590811790915590519081529192917f17307eab39ab6107e8899845ad3d59bd9653f200f220920489ca2b5937696c3191016111f5565b6010805460009182919082612bc283615b9a565b90915550604080516101808101825282815233602080830191825282840189815260608401899052426080850152600060a0850181905260c0850181905260e08501819052610100850181905261012085018190526101408501819052610160850181905286815260119092529390208251815590516001820180546001600160a01b0319166001600160a01b039092169190911790559151929350916002820190612c6e9082615c91565b50606082015160038201556080820151600482015560a0820151600582015560c082015160068201805460e08501516101008087015161ffff1990931694151561ff001916949094179015159093029290921762010000600160b01b031916620100006001600160a01b039384160217905561012083015160078301556101408301516008830180546001600160a01b0319169190921617905561016090910151600990910155336000818152601260209081526040808320805460018101825590845291909220018390555182907fb6f430c8722299f241d9c66e77ee068ce71fb3d66d1c0af7d457ef4e50b4e59b90612d6a90889061520a565b60405180910390a39392505050565b6060816001600160401b03811115612d9357612d93615085565b604051908082528060200260200182016040528015612dc657816020015b6060815260200190600190039081612db15790505b509050336000805b84811015612edf578115612e4d57612e2b30878784818110612df257612df2615afd565b9050602002810190612e049190615e9a565b86604051602001612e1793929190615ee7565b604051602081830303815290604052614bc5565b848281518110612e3d57612e3d615afd565b6020026020010181905250612ecd565b612eaf30878784818110612e6357612e63615afd565b9050602002810190612e759190615e9a565b8080601f016020809104026020016040519081016040528093929190818152602001838380828437600092019190915250614bc592505050565b848281518110612ec157612ec1615afd565b60200260200101819052505b80612ed781615b9a565b915050612dce565b50505092915050565b612ef3848484613c06565b6001600160a01b0383163b156123de57612f0f84848484614bea565b6123de576040516368d2bf6b60e11b815260040160405180910390fd5b6001600160a01b03841660009081526014602052604081205460ff16612f645760405162461bcd60e51b8152600401610d9090615bb3565b3360009081526013602090815260408083206001600160a01b0389168452909152902054841115612fa75760405162461bcd60e51b8152600401610d9090615bea565b6101f4821115612fc95760405162461bcd60e51b8152600401610d9090615c18565b6010805460009182612fda83615b9a565b919050559050604051806101800160405280828152602001336001600160a01b0316815260200189815260200188815260200142815260200160008152602001600015158152602001600015158152602001876001600160a01b03168152602001868152602001856001600160a01b031681526020016000851161305f5760c8613061565b845b905260008281526011602090815260409182902083518155908301516001820180546001600160a01b0319166001600160a01b039092169190911790559082015160028201906130b19082615c91565b50606082015160038201556080820151600482015560a0820151600582015560c082015160068201805460e08501516101008087015161ffff1990931694151561ff001916949094179015159093029290921762010000600160b01b031916620100006001600160a01b039384160217905561012083015160078301556101408301516008830180546001600160a01b0319169190921617905561016090910151600990910155336000818152601260209081526040808320805460018101825590845291909220018390555182907fb6f430c8722299f241d9c66e77ee068ce71fb3d66d1c0af7d457ef4e50b4e59b906131ad908c9061520a565b60405180910390a3979650505050505050565b60408051606080820183526000808352602080840182905283850182905284519283018552818352820181905292810183905290915060005483106132055792915050565b50600082815260046020908152604091829020825160608101845290546001600160a01b0381168252600160a01b81046001600160401b031692820192909252600160e01b90910460ff1615801592820192909252906132655792915050565b6129bf836148b8565b6000818152600f602052604081208054606092919061328c90615ac3565b80601f01602080910402602001604051908101604052809291908181526020018280546132b890615ac3565b80156133055780601f106132da57610100808354040283529160200191613305565b820191906000526020600020905b8154815290600101906020018083116132e857829003601f168201915b5050505050905060008151111561331c5792915050565b600061332784614cd5565b90508061333385614e53565b604051602001613344929190615f0d565b60405160208183030381529060405292505050919050565b600081815260116020526040902060018101546001600160a01b031633146133b75760405162461bcd60e51b815260206004820152600e60248201526d139bdd08185d5d1a1bdc9a5e995960921b6044820152606401610d90565b600681015460ff16156133ff5760405162461bcd60e51b815260206004820152601060248201526f105b1c9958591e48195e1958dd5d195960821b6044820152606401610d90565b60068101805460ff1916600117908190556201000090046001600160a01b031615801590613431575060008160070154115b156134725760068101546007820154600883015460018401546009850154613470946001600160a01b0362010000909104811694938116921690613f94565b505b61347d336001614716565b604051339083907f6852407858602d696344801f0181bc507c808c727c914bb6cdfeabd42431af3890600090a35050565b600060606001600160a01b03831661356157604080516002808252606082018352909160208301908036833701905050905084816000815181106134f4576134f4615afd565b60200260200101906001600160a01b031690816001600160a01b03168152505073fff9976782d46cc05630d1f6ebab18b2324d6b148160018151811061353c5761353c615afd565b60200260200101906001600160a01b031690816001600160a01b0316815250506136e7565b6001600160a01b03851673fff9976782d46cc05630d1f6ebab18b2324d6b1414806135a857506001600160a01b03831673fff9976782d46cc05630d1f6ebab18b2324d6b14145b1561361557604080516002808252606082018352909160208301908036833701905050905084816000815181106135e1576135e1615afd565b60200260200101906001600160a01b031690816001600160a01b031681525050828160018151811061353c5761353c615afd565b604080516003808252608082019092529060208201606080368337019050509050848160008151811061364a5761364a615afd565b60200260200101906001600160a01b031690816001600160a01b03168152505073fff9976782d46cc05630d1f6ebab18b2324d6b148160018151811061369257613692615afd565b60200260200101906001600160a01b031690816001600160a01b03168152505082816002815181106136c6576136c6615afd565b60200260200101906001600160a01b031690816001600160a01b0316815250505b60405163d06ca61f60e01b81526001600160a01b037f0000000000000000000000000000000000000000000000000000000000000000169063d06ca61f906137359087908590600401615da7565b600060405180830381865afa92505050801561377357506040513d6000823e601f3d908101601f191682016040526137709190810190615dc0565b60015b6137805760009150611670565b806001825161378f9190615d50565b8151811061379f5761379f615afd565b6020026020010151925050509392505050565b600880546137bf90615ac3565b80601f01602080910402602001604051908101604052809291908181526020018280546137eb90615ac3565b80156138385780601f1061380d57610100808354040283529160200191613838565b820191906000526020600020905b81548152906001019060200180831161381b57829003601f168201915b505050505081565b6001600160a01b0381166000908152601260209081526040918290208054835181840281018401909452808452606093928301828280156138a057602002820191906000526020600020905b81548152602001906001019080831161388c575b50505050509050919050565b6009546001600160a01b031633146138d7576040516316ccb9cb60e11b815260040160405180910390fd5b601680546001600160a01b0319166001600160a01b0392909216919091179055565b6000828152600f60205260409020805461391290615ac3565b1590506139535760405162461bcd60e51b815260206004820152600f60248201526e15549248185b1c9958591e481cd95d608a1b6044820152606401610d90565b6000828152600f60205260409020610f8e8282615c91565b6000546001600160a01b03841661399457604051622e076360e81b815260040160405180910390fd5b826000036139b55760405163b562e8dd60e01b815260040160405180910390fd5b6001600160a01b038416600081815260056020908152604080832080546001600160801b031981166001600160401b038083168b018116918217600160401b67ffffffffffffffff1990941690921783900481168b01811690920217909155858452600490925290912080546001600160e01b0319168317600160a01b42909316929092029190911790558190818501903b15613abd575b60405182906001600160a01b03881690600090600080516020616012833981519152908290a4613a866000878480600101955087614bea565b613aa3576040516368d2bf6b60e11b815260040160405180910390fd5b808210613a4d578260005414613ab857600080fd5b613af0565b5b6040516001830192906001600160a01b03881690600090600080516020616012833981519152908290a4808210613abe575b5060009081556123de9085838684565b6000805482108015610e31575050600090815260046020526040902054600160e01b900460ff161590565b60008281526006602052604080822080546001600160a01b0319166001600160a01b0387811691821790925591518593918516917f8c5be1e5ebec7d5bd14f71427d1e84f3dd0314c0f7b2291e5b200ac8c7c3b92591a4505050565b6000613b9b6009546001600160a01b031690565b6001600160a01b0316336001600160a01b031614905090565b600980546001600160a01b038381166001600160a01b0319831681179093556040519116919082907f8292fce18fa69edf4db7b94ea2e58241df0ae57f97e0a6c9b29067028bf92d7690600090a35050565b6000613c11826148b8565b9050836001600160a01b031681600001516001600160a01b031614613c485760405162a1148160e81b815260040160405180910390fd5b6000336001600160a01b0386161480613c665750613c668533610d07565b80613c81575033613c7684610ec9565b6001600160a01b0316145b905080613ca157604051632ce44b5f60e11b815260040160405180910390fd5b6001600160a01b038416613cc857604051633a954ecd60e21b815260040160405180910390fd5b613cd460008487613b2b565b6001600160a01b038581166000908152600560209081526040808320805467ffffffffffffffff198082166001600160401b0392831660001901831617909255898616808652838620805493841693831660019081018416949094179055898652600490945282852080546001600160e01b031916909417600160a01b42909216919091021783558701808452922080549193909116613da8576000548214613da857805460208601516001600160401b0316600160a01b026001600160e01b03199091166001600160a01b038a16171781555b50505082846001600160a01b0316866001600160a01b031660008051602061601283398151915260405160405180910390a45050505050565b6000613dec836148b8565b80519091508215613e52576000336001600160a01b0383161480613e155750613e158233610d07565b80613e30575033613e2586610ec9565b6001600160a01b0316145b905080613e5057604051632ce44b5f60e11b815260040160405180910390fd5b505b613e5e60008583613b2b565b6001600160a01b0380821660008181526005602090815260408083208054600160801b6000196001600160401b0380841691909101811667ffffffffffffffff198416811783900482166001908101831690930277ffffffffffffffff0000000000000000ffffffffffffffff19909416179290921783558b86526004909452828520805460ff60e01b1942909316600160a01b026001600160e01b03199091169097179690961716600160e01b178555918901808452922080549194909116613f5c576000548214613f5c57805460208701516001600160401b0316600160a01b026001600160e01b03199091166001600160a01b038716171781555b5050604051869250600091506001600160a01b03841690600080516020616012833981519152908390a4505060018054810190555050565b6001600160a01b03851660009081526014602052604081205460ff16613fcc5760405162461bcd60e51b8152600401610d9090615bb3565b6001600160a01b038084166000908152601360209081526040808320938a16835292905220548511156140115760405162461bcd60e51b8152600401610d9090615bea565b6101f48211156140335760405162461bcd60e51b8152600401610d9090615c18565b6001600160a01b038084166000908152601360209081526040808320938a168352929052908120805487929061406a908490615d50565b909155505060405163095ea7b360e01b81526001600160a01b037f0000000000000000000000000000000000000000000000000000000000000000811660048301526024820187905287169063095ea7b3906044016020604051808303816000875af11580156140de573d6000803e3d6000fd5b505050506040513d601f19601f820116820180604052508101906141029190615b6a565b5060606001600160a01b038516614344576040805160028082526060820183529091602083019080368337019050509050868160008151811061414757614147615afd565b60200260200101906001600160a01b031690816001600160a01b03168152505073fff9976782d46cc05630d1f6ebab18b2324d6b148160018151811061418f5761418f615afd565b6001600160a01b03928316602091820292909201015260405163d06ca61f60e01b81526000917f0000000000000000000000000000000000000000000000000000000000000000169063d06ca61f906141ee908a908690600401615da7565b600060405180830381865afa15801561420b573d6000803e3d6000fd5b505050506040513d6000823e601f3d908101601f191682016040526142339190810190615dc0565b905060006127106142448682615d50565b8360018151811061425757614257615afd565b60200260200101516142699190615b29565b6142739190615b56565b905060006001600160a01b037f0000000000000000000000000000000000000000000000000000000000000000166318cbafe58a84878b6142b64261012c615b87565b6040518663ffffffff1660e01b81526004016142d6959493929190615e45565b6000604051808303816000875af11580156142f5573d6000803e3d6000fd5b505050506040513d6000823e601f3d908101601f1916820160405261431d9190810190615dc0565b90508060018151811061433257614332615afd565b602002602001015194505050506146be565b73fff9976782d46cc05630d1f6ebab18b2324d6b13196001600160a01b038816016144055760025b604051908082528060200260200182016040528015614395578160200160208202803683370190505b50905086816000815181106143ac576143ac615afd565b60200260200101906001600160a01b031690816001600160a01b03168152505084816001815181106143e0576143e0615afd565b60200260200101906001600160a01b031690816001600160a01b031681525050614503565b73fff9976782d46cc05630d1f6ebab18b2324d6b13196001600160a01b0386160161443157600261436c565b604080516003808252608082019092529060208201606080368337019050509050868160008151811061446657614466615afd565b60200260200101906001600160a01b031690816001600160a01b03168152505073fff9976782d46cc05630d1f6ebab18b2324d6b14816001815181106144ae576144ae615afd565b60200260200101906001600160a01b031690816001600160a01b03168152505084816002815181106144e2576144e2615afd565b60200260200101906001600160a01b031690816001600160a01b0316815250505b60405163d06ca61f60e01b81526000906001600160a01b037f0000000000000000000000000000000000000000000000000000000000000000169063d06ca61f90614554908a908690600401615da7565b600060405180830381865afa158015614571573d6000803e3d6000fd5b505050506040513d6000823e601f3d908101601f191682016040526145999190810190615dc0565b905060006127106145aa8682615d50565b83600185516145b99190615d50565b815181106145c9576145c9615afd565b60200260200101516145db9190615b29565b6145e59190615b56565b905060006001600160a01b037f0000000000000000000000000000000000000000000000000000000000000000166338ed17398a84878b6146284261012c615b87565b6040518663ffffffff1660e01b8152600401614648959493929190615e45565b6000604051808303816000875af1158015614667573d6000803e3d6000fd5b505050506040513d6000823e601f3d908101601f1916820160405261468f9190810190615dc0565b905080600182516146a09190615d50565b815181106146b0576146b0615afd565b602002602001015194505050505b846001600160a01b0316876001600160a01b0316856001600160a01b03167f764f0dc063c06f32d89a3f3af80c0db4be8a090901f589a478b447e0a51f09f18986604051612112929190918252602082015260400190565b6000546001600160a01b03831661473f57604051622e076360e81b815260040160405180910390fd5b816000036147605760405163b562e8dd60e01b815260040160405180910390fd5b6001600160a01b038316600081815260056020908152604080832080546001600160801b031981166001600160401b038083168a018116918217600160401b67ffffffffffffffff1990941690921783900481168a01811690920217909155858452600490925290912080546001600160e01b031916909217600160a01b4290921691909102179055808083015b6040516001830192906001600160a01b03871690600090600080516020616012833981519152908290a48082106147ee5750600055505050565b61271081111561485657604051630a4930ad60e31b8152612710600482015260248101829052604401610d90565b600a80546001600160a01b0384166001600160b01b03199091168117600160a01b61ffff851602179091556040518281527f90d7ec04bcb8978719414f82e52e4cb651db41d0e6f8cea6118c2191e6183adb9060200160405180910390a25050565b6040805160608101825260008082526020820181905291810191909152816000548110156149b957600081815260046020908152604091829020825160608101845290546001600160a01b0381168252600160a01b81046001600160401b031692820192909252600160e01b90910460ff161515918101829052906149b75780516001600160a01b03161561494e579392505050565b5060001901600081815260046020908152604091829020825160608101845290546001600160a01b038116808352600160a01b82046001600160401b031693830193909352600160e01b900460ff16151592810192909252156149b2579392505050565b61494e565b505b604051636f96cda160e11b815260040160405180910390fd5b6000806149df8486615b87565b600c8054600181019091557fdf6966c971051c3d54ec59162606531493a51404a002842f56009d7e5cf4a8c7018190556000818152600d60205260409020909250829150614a2d8482615c91565b50935093915050565b600060088054614a4590615ac3565b80601f0160208091040260200160405190810160405280929190818152602001828054614a7190615ac3565b8015614abe5780601f10614a9357610100808354040283529160200191614abe565b820191906000526020600020905b815481529060010190602001808311614aa157829003601f168201915b505050505090508160089081614ad49190615c91565b507fc9c7c3fe08b88b4df9d4d47ef47d2c43d55c025a0ba88ca442580ed9e7348a168183604051614b06929190615f3c565b60405180910390a15050565b612710811115614b4057604051630a4930ad60e31b8152612710600482015260248101829052604401610d90565b6040805180820182526001600160a01b0384811680835260208084018681526000898152600b8352869020945185546001600160a01b031916941693909317845591516001909301929092559151838152909185917f7365cf4122f072a3365c20d54eff9b38d73c096c28e1892ec8f5b0e403a0f12d910160405180910390a3505050565b60606129bf8383604051806060016040528060278152602001615feb60279139614f53565b604051630a85bd0160e11b81526000906001600160a01b0385169063150b7a0290614c1f903390899088908890600401615f6a565b6020604051808303816000875af1925050508015614c5a575060408051601f3d908101601f19168201909252614c5791810190615f9d565b60015b614cb8573d808015614c88576040519150601f19603f3d011682016040523d82523d6000602084013e614c8d565b606091505b508051600003614cb0576040516368d2bf6b60e11b815260040160405180910390fd5b805181602001fd5b6001600160e01b031916630a85bd0160e11b149050949350505050565b60606000614ce2600c5490565b90506000600c805480602002602001604051908101604052809291908181526020018280548015614d3257602002820191906000526020600020905b815481526020019060010190808311614d1e575b5050505050905060005b82811015614e3657818181518110614d5657614d56615afd565b6020026020010151851015614e2457600d6000838381518110614d7b57614d7b615afd565b602002602001015181526020019081526020016000208054614d9c90615ac3565b80601f0160208091040260200160405190810160405280929190818152602001828054614dc890615ac3565b8015614e155780601f10614dea57610100808354040283529160200191614e15565b820191906000526020600020905b815481529060010190602001808311614df857829003601f168201915b50505050509350505050919050565b614e2f600182615b87565b9050614d3c565b506040516309797f6960e21b815260048101859052602401610d90565b606081600003614e7a5750506040805180820190915260018152600360fc1b602082015290565b8160005b8115614ea45780614e8e81615b9a565b9150614e9d9050600a83615b56565b9150614e7e565b6000816001600160401b03811115614ebe57614ebe615085565b6040519080825280601f01601f191660200182016040528015614ee8576020820181803683370190505b5090505b841561129e57614efd600183615d50565b9150614f0a600a86615fba565b614f15906030615b87565b60f81b818381518110614f2a57614f2a615afd565b60200101906001600160f81b031916908160001a905350614f4c600a86615b56565b9450614eec565b6060600080856001600160a01b031685604051614f709190615fce565b600060405180830381855af49150503d8060008114614fab576040519150601f19603f3d011682016040523d82523d6000602084013e614fb0565b606091505b5091509150614fc186838387614fcb565b9695505050505050565b6060831561503a578251600003615033576001600160a01b0385163b6150335760405162461bcd60e51b815260206004820152601d60248201527f416464726573733a2063616c6c20746f206e6f6e2d636f6e74726163740000006044820152606401610d90565b508161129e565b61129e838381511561504f5781518083602001fd5b8060405162461bcd60e51b8152600401610d90919061520a565b80356001600160a01b038116811461508057600080fd5b919050565b634e487b7160e01b600052604160045260246000fd5b604051601f8201601f191681016001600160401b03811182821017156150c3576150c3615085565b604052919050565b600082601f8301126150dc57600080fd5b81356001600160401b038111156150f5576150f5615085565b615108601f8201601f191660200161509b565b81815284602083860101111561511d57600080fd5b816020850160208301376000918101602001919091529392505050565b6000806040838503121561514d57600080fd5b61515683615069565b915060208301356001600160401b0381111561517157600080fd5b61517d858286016150cb565b9150509250929050565b6001600160e01b031981168114610fc157600080fd5b6000602082840312156151af57600080fd5b81356129bf81615187565b60005b838110156151d55781810151838201526020016151bd565b50506000910152565b600081518084526151f68160208601602086016151ba565b601f01601f19169290920160200192915050565b6020815260006129bf60208301846151de565b60006020828403121561522f57600080fd5b5035919050565b6000806040838503121561524957600080fd5b61525283615069565b946020939093013593505050565b60006020828403121561527257600080fd5b6129bf82615069565b60008060006060848603121561529057600080fd5b61529984615069565b92506152a760208501615069565b9150604084013590509250925092565b600080604083850312156152ca57600080fd5b50508035926020909101359150565b600080602083850312156152ec57600080fd5b82356001600160401b038082111561530357600080fd5b818501915085601f83011261531757600080fd5b81358181111561532657600080fd5b86602082850101111561533857600080fd5b60209290920196919550909350505050565b8c81526001600160a01b038c81166020830152610180604083018190526000916153768483018f6151de565b606085019d909d52608084019b909b52505060a081019790975294151560c087015292151560e086015290851661010085015261012084015290921661014082015261016001529392505050565b60006001600160401b038211156153dd576153dd615085565b5060051b60200190565b600060208083850312156153fa57600080fd5b82356001600160401b0381111561541057600080fd5b8301601f8101851361542157600080fd5b803561543461542f826153c4565b61509b565b81815260059190911b8201830190838101908783111561545357600080fd5b928401925b8284101561547157833582529284019290840190615458565b979650505050505050565b6020808252825182820181905260009190848201906040850190845b818110156125cd576154d383855180516001600160a01b031682526020808201516001600160401b0316908301526040908101511515910152565b9284019260609290920191600101615498565b600080600080600080600060e0888a03121561550157600080fd5b87356001600160401b0381111561551757600080fd5b6155238a828b016150cb565b975050602088013595506040880135945061554060608901615069565b93506080880135925061555560a08901615069565b915060c0880135905092959891949750929550565b6000806040838503121561557d57600080fd5b61558683615069565b915061559460208401615069565b90509250929050565b600080600080600060a086880312156155b557600080fd5b6155be86615069565b9450602086013593506155d360408701615069565b92506155e160608701615069565b949793965091946080013592915050565b821515815260406020820152600061129e60408301846151de565b6000806000806080858703121561562357600080fd5b61562c85615069565b93506020850135925060408501356001600160401b038082111561564f57600080fd5b61565b888389016150cb565b9350606087013591508082111561567157600080fd5b5061567e878288016150cb565b91505092959194509250565b6020808252825182820181905260009190848201906040850190845b818110156125cd578351835292840192918401916001016156a6565b6020815281516020820152600060208301516156e960408401826001600160a01b03169052565b5060408301516101808060608501526157066101a08501836151de565b915060608501516080850152608085015160a085015260a085015160c085015260c085015161573960e086018215159052565b5060e085015161010061574f8187018315159052565b860151905061012061576b868201836001600160a01b03169052565b860151610140868101919091528601519050610160615794818701836001600160a01b03169052565b959095015193019290925250919050565b6000602082840312156157b757600080fd5b81356001600160401b038111156157cd57600080fd5b61129e848285016150cb565b6000806000606084860312156157ee57600080fd5b6157f784615069565b95602085013595506040909401359392505050565b60008060006060848603121561582157600080fd5b833592506152a760208501615069565b8015158114610fc157600080fd5b6000806040838503121561585257600080fd5b61585b83615069565b9150602083013561586b81615831565b809150509250929050565b6000806040838503121561588957600080fd5b82356001600160401b0381111561589f57600080fd5b6158ab858286016150cb565b95602094909401359450505050565b600080602083850312156158cd57600080fd5b82356001600160401b03808211156158e457600080fd5b818501915085601f8301126158f857600080fd5b81358181111561590757600080fd5b8660208260051b850101111561533857600080fd5b6000602080830181845280855180835260408601915060408160051b870101925083870160005b8281101561597157603f1988860301845261595f8583516151de565b94509285019290850190600101615943565b5092979650505050505050565b6000806000806080858703121561599457600080fd5b61599d85615069565b93506159ab60208601615069565b92506040850135915060608501356001600160401b038111156159cd57600080fd5b61567e878288016150cb565b60008060008060008060c087890312156159f257600080fd5b86356001600160401b03811115615a0857600080fd5b615a1489828a016150cb565b96505060208701359450615a2a60408801615069565b935060608701359250615a3f60808801615069565b915060a087013590509295509295509295565b81516001600160a01b031681526020808301516001600160401b03169082015260408083015115159082015260608101610e31565b600080600060608486031215615a9c57600080fd5b615aa584615069565b925060208401359150615aba60408501615069565b90509250925092565b600181811c90821680615ad757607f821691505b602082108103615af757634e487b7160e01b600052602260045260246000fd5b50919050565b634e487b7160e01b600052603260045260246000fd5b634e487b7160e01b600052601160045260246000fd5b8082028115828204841417610e3157610e31615b13565b634e487b7160e01b600052601260045260246000fd5b600082615b6557615b65615b40565b500490565b600060208284031215615b7c57600080fd5b81516129bf81615831565b80820180821115610e3157610e31615b13565b600060018201615bac57615bac615b13565b5060010190565b60208082526019908201527f496e70757420746f6b656e206e6f7420737570706f7274656400000000000000604082015260600190565b602080825260149082015273496e73756666696369656e742062616c616e636560601b604082015260600190565b6020808252601190820152700a6d8d2e0e0c2ceca40e8dede40d0d2ced607b1b604082015260600190565b601f821115610f8e57600081815260208120601f850160051c81016020861015615c6a5750805b601f850160051c820191505b81811015615c8957828155600101615c76565b505050505050565b81516001600160401b03811115615caa57615caa615085565b615cbe81615cb88454615ac3565b84615c43565b602080601f831160018114615cf35760008415615cdb5750858301515b600019600386901b1c1916600185901b178555615c89565b600085815260208120601f198616915b82811015615d2257888601518255948401946001909101908401615d03565b5085821015615d405787850151600019600388901b60f8161c191681555b5050505050600190811b01905550565b81810381811115610e3157610e31615b13565b600081518084526020808501945080840160005b83811015615d9c5781516001600160a01b031687529582019590820190600101615d77565b509495945050505050565b82815260406020820152600061129e6040830184615d63565b60006020808385031215615dd357600080fd5b82516001600160401b03811115615de957600080fd5b8301601f81018513615dfa57600080fd5b8051615e0861542f826153c4565b81815260059190911b82018301908381019087831115615e2757600080fd5b928401925b8284101561547157835182529284019290840190615e2c565b85815284602082015260a060408201526000615e6460a0830186615d63565b6001600160a01b0394909416606083015250608001529392505050565b600060208284031215615e9357600080fd5b5051919050565b6000808335601e19843603018112615eb157600080fd5b8301803591506001600160401b03821115615ecb57600080fd5b602001915036819003821315615ee057600080fd5b9250929050565b8284823760609190911b6bffffffffffffffffffffffff19169101908152601401919050565b60008351615f1f8184602088016151ba565b835190830190615f338183602088016151ba565b01949350505050565b604081526000615f4f60408301856151de565b8281036020840152615f6181856151de565b95945050505050565b6001600160a01b0385811682528416602082015260408101839052608060608201819052600090614fc1908301846151de565b600060208284031215615faf57600080fd5b81516129bf81615187565b600082615fc957615fc9615b40565b500690565b60008251615fe08184602087016151ba565b919091019291505056fe416464726573733a206c6f772d6c6576656c2064656c65676174652063616c6c206661696c6564ddf252ad1be2c89b69c2b068fc378daa952ba7f163c4a11628f55a4df523b3efa264697066735822122072adec82044655217361322c0c44a6d1b468f2f1ab19b9bb9076f0cdeec7c24b64736f6c63430008150033",
  "linkReferences": {},
  "deployedLinkReferences": {}
}