{
  "_format": "hh-sol-artifact-1",
  "contractName": "WalletPlanner",
  "sourceName": "contracts/WalletPlanner.sol",
  "abi": [
    {
      "inputs": [
        {
          "internalType": "address",
          "name": "_defaultAdmin",
          "type": "address"
        },
        {
          "internalType": "string",
          "name": "_name",
          "type": "string"
        },
        {
          "internalType": "string",
          "name": "_symbol",
          "type": "string"
        },
        {
          "internalType": "address",
          "name": "_royaltyRecipient",
          "type": "address"
        },
        {
          "internalType": "uint128",
          "name": "_royaltyBps",
          "type": "uint128"
        },
        {
          "internalType": "address",
          "name": "_uniswapRouter",
          "type": "address"
        }
      ],
      "stateMutability": "nonpayable",
      "type": "constructor"
    },
    {
      "inputs": [],
      "name": "ApprovalCallerNotOwnerNorApproved",
      "type": "error"
    },
    {
      "inputs": [],
      "name": "ApprovalQueryForNonexistentToken",
      "type": "error"
    },
    {
      "inputs": [],
      "name": "ApprovalToCurrentOwner",
      "type": "error"
    },
    {
      "inputs": [],
      "name": "ApproveToCaller",
      "type": "error"
    },
    {
      "inputs": [],
      "name": "BalanceQueryForZeroAddress",
      "type": "error"
    },
    {
      "inputs": [
        {
          "internalType": "uint256",
          "name": "index",
          "type": "uint256"
        }
      ],
      "name": "BatchMintInvalidBatchId",
      "type": "error"
    },
    {
      "inputs": [
        {
          "internalType": "uint256",
          "name": "tokenId",
          "type": "uint256"
        }
      ],
      "name": "BatchMintInvalidTokenId",
      "type": "error"
    },
    {
      "inputs": [
        {
          "internalType": "uint256",
          "name": "batchId",
          "type": "uint256"
        }
      ],
      "name": "BatchMintMetadataFrozen",
      "type": "error"
    },
    {
      "inputs": [],
      "name": "ContractMetadataUnauthorized",
      "type": "error"
    },
    {
      "inputs": [],
      "name": "InvalidQueryRange",
      "type": "error"
    },
    {
      "inputs": [],
      "name": "MintToZeroAddress",
      "type": "error"
    },
    {
      "inputs": [],
      "name": "MintZeroQuantity",
      "type": "error"
    },
    {
      "inputs": [],
      "name": "OnlySimulatedBackend",
      "type": "error"
    },
    {
      "inputs": [],
      "name": "OwnableUnauthorized",
      "type": "error"
    },
    {
      "inputs": [],
      "name": "OwnerQueryForNonexistentToken",
      "type": "error"
    },
    {
      "inputs": [
        {
          "internalType": "uint256",
          "name": "max",
          "type": "uint256"
        },
        {
          "internalType": "uint256",
          "name": "actual",
          "type": "uint256"
        }
      ],
      "name": "RoyaltyExceededMaxFeeBps",
      "type": "error"
    },
    {
      "inputs": [
        {
          "internalType": "address",
          "name": "recipient",
          "type": "address"
        }
      ],
      "name": "RoyaltyInvalidRecipient",
      "type": "error"
    },
    {
      "inputs": [],
      "name": "RoyaltyUnauthorized",
      "type": "error"
    },
    {
      "inputs": [],
      "name": "TransferCallerNotOwnerNorApproved",
      "type": "error"
    },
    {
      "inputs": [],
      "name": "TransferFromIncorrectOwner",
      "type": "error"
    },
    {
      "inputs": [],
      "name": "TransferToNonERC721ReceiverImplementer",
      "type": "error"
    },
    {
      "inputs": [],
      "name": "TransferToZeroAddress",
      "type": "error"
    },
    {
      "inputs": [],
      "name": "URIQueryForNonexistentToken",
      "type": "error"
    },
    {
      "anonymous": false,
      "inputs": [
        {
          "indexed": true,
          "internalType": "address",
          "name": "owner",
          "type": "address"
        },
        {
          "indexed": true,
          "internalType": "address",
          "name": "approved",
          "type": "address"
        },
        {
          "indexed": true,
          "internalType": "uint256",
          "name": "tokenId",
          "type": "uint256"
        }
      ],
      "name": "Approval",
      "type": "event"
    },
    {
      "anonymous": false,
      "inputs": [
        {
          "indexed": true,
          "internalType": "address",
          "name": "owner",
          "type": "address"
        },
        {
          "indexed": true,
          "internalType": "address",
          "name": "operator",
          "type": "address"
        },
        {
          "indexed": false,
          "internalType": "bool",
          "name": "approved",
          "type": "bool"
        }
      ],
      "name": "ApprovalForAll",
      "type": "event"
    },
    {
      "anonymous": false,
      "inputs": [
        {
          "indexed": false,
          "internalType": "uint256",
          "name": "timestamp",
          "type": "uint256"
        },
        {
          "indexed": false,
          "internalType": "uint256",
          "name": "intentsProcessed",
          "type": "uint256"
        }
      ],
      "name": "AutomationPerformed",
      "type": "event"
    },
    {
      "anonymous": false,
      "inputs": [
        {
          "indexed": false,
          "internalType": "uint256",
          "name": "_fromTokenId",
          "type": "uint256"
        },
        {
          "indexed": false,
          "internalType": "uint256",
          "name": "_toTokenId",
          "type": "uint256"
        }
      ],
      "name": "BatchMetadataUpdate",
      "type": "event"
    },
    {
      "anonymous": false,
      "inputs": [
        {
          "indexed": false,
          "internalType": "string",
          "name": "prevURI",
          "type": "string"
        },
        {
          "indexed": false,
          "internalType": "string",
          "name": "newURI",
          "type": "string"
        }
      ],
      "name": "ContractURIUpdated",
      "type": "event"
    },
    {
      "anonymous": false,
      "inputs": [
        {
          "indexed": true,
          "internalType": "address",
          "name": "newRoyaltyRecipient",
          "type": "address"
        },
        {
          "indexed": false,
          "internalType": "uint256",
          "name": "newRoyaltyBps",
          "type": "uint256"
        }
      ],
      "name": "DefaultRoyalty",
      "type": "event"
    },
    {
      "anonymous": false,
      "inputs": [
        {
          "indexed": true,
          "internalType": "uint256",
          "name": "intentId",
          "type": "uint256"
        }
      ],
      "name": "IntentCancelled",
      "type": "event"
    },
    {
      "anonymous": false,
      "inputs": [
        {
          "indexed": true,
          "internalType": "uint256",
          "name": "intentId",
          "type": "uint256"
        },
        {
          "indexed": true,
          "internalType": "address",
          "name": "user",
          "type": "address"
        },
        {
          "indexed": false,
          "internalType": "string",
          "name": "description",
          "type": "string"
        }
      ],
      "name": "IntentCreated",
      "type": "event"
    },
    {
      "anonymous": false,
      "inputs": [
        {
          "indexed": true,
          "internalType": "uint256",
          "name": "intentId",
          "type": "uint256"
        },
        {
          "indexed": true,
          "internalType": "address",
          "name": "user",
          "type": "address"
        }
      ],
      "name": "IntentExecuted",
      "type": "event"
    },
    {
      "anonymous": false,
      "inputs": [],
      "name": "MetadataFrozen",
      "type": "event"
    },
    {
      "anonymous": false,
      "inputs": [
        {
          "indexed": true,
          "internalType": "address",
          "name": "prevOwner",
          "type": "address"
        },
        {
          "indexed": true,
          "internalType": "address",
          "name": "newOwner",
          "type": "address"
        }
      ],
      "name": "OwnerUpdated",
      "type": "event"
    },
    {
      "anonymous": false,
      "inputs": [
        {
          "indexed": true,
          "internalType": "uint256",
          "name": "tokenId",
          "type": "uint256"
        },
        {
          "indexed": true,
          "internalType": "address",
          "name": "royaltyRecipient",
          "type": "address"
        },
        {
          "indexed": false,
          "internalType": "uint256",
          "name": "royaltyBps",
          "type": "uint256"
        }
      ],
      "name": "RoyaltyForToken",
      "type": "event"
    },
    {
      "anonymous": false,
      "inputs": [
        {
          "indexed": true,
          "internalType": "address",
          "name": "user",
          "type": "address"
        },
        {
          "indexed": true,
          "internalType": "address",
          "name": "tokenIn",
          "type": "address"
        },
        {
          "indexed": true,
          "internalType": "address",
          "name": "tokenOut",
          "type": "address"
        },
        {
          "indexed": false,
          "internalType": "uint256",
          "name": "amountIn",
          "type": "uint256"
        },
        {
          "indexed": false,
          "internalType": "uint256",
          "name": "amountOut",
          "type": "uint256"
        }
      ],
      "name": "SwapExecuted",
      "type": "event"
    },
    {
      "anonymous": false,
      "inputs": [
        {
          "indexed": true,
          "internalType": "address",
          "name": "user",
          "type": "address"
        },
        {
          "indexed": true,
          "internalType": "address",
          "name": "token",
          "type": "address"
        },
        {
          "indexed": false,
          "internalType": "uint256",
          "name": "amount",
          "type": "uint256"
        }
      ],
      "name": "TokenDeposited",
      "type": "event"
    },
    {
      "anonymous": false,
      "inputs": [
        {
          "indexed": true,
          "internalType": "address",
          "name": "user",
          "type": "address"
        },
        {
          "indexed": true,
          "internalType": "address",
          "name": "token",
          "type": "address"
        },
        {
          "indexed": false,
          "internalType": "uint256",
          "name": "amount",
          "type": "uint256"
        }
      ],
      "name": "TokenWithdrawn",
      "type": "event"
    },
    {
      "anonymous": false,
      "inputs": [
        {
          "indexed": true,
          "internalType": "address",
          "name": "from",
          "type": "address"
        },
        {
          "indexed": true,
          "internalType": "address",
          "name": "to",
          "type": "address"
        },
        {
          "indexed": true,
          "internalType": "uint256",
          "name": "tokenId",
          "type": "uint256"
        }
      ],
      "name": "Transfer",
      "type": "event"
    },
    {
      "inputs": [],
      "name": "DAI",
      "outputs": [
        {
          "internalType": "address",
          "name": "",
          "type": "address"
        }
      ],
      "stateMutability": "view",
      "type": "function"
    },
    {
      "inputs": [],
      "name": "DEFAULT_SLIPPAGE",
      "outputs": [
        {
          "internalType": "uint256",
          "name": "",
          "type": "uint256"
        }
      ],
      "stateMutability": "view",
      "type": "function"
    },
    {
      "inputs": [],
      "name": "INTERVAL",
      "outputs": [
        {
          "internalType": "uint256",
          "name": "",
          "type": "uint256"
        }
      ],
      "stateMutability": "view",
      "type": "function"
    },
    {
      "inputs": [],
      "name": "MAX_SLIPPAGE",
      "outputs": [
        {
          "internalType": "uint256",
          "name": "",
          "type": "uint256"
        }
      ],
      "stateMutability": "view",
      "type": "function"
    },
    {
      "inputs": [],
      "name": "USDC",
      "outputs": [
        {
          "internalType": "address",
          "name": "",
          "type": "address"
        }
      ],
      "stateMutability": "view",
      "type": "function"
    },
    {
      "inputs": [],
      "name": "WETH",
      "outputs": [
        {
          "internalType": "address",
          "name": "",
          "type": "address"
        }
      ],
      "stateMutability": "view",
      "type": "function"
    },
    {
      "inputs": [
        {
          "internalType": "address",
          "name": "token",
          "type": "address"
        }
      ],
      "name": "addSupportedToken",
      "outputs": [],
      "stateMutability": "nonpayable",
      "type": "function"
    },
    {
      "inputs": [
        {
          "internalType": "address",
          "name": "to",
          "type": "address"
        },
        {
          "internalType": "uint256",
          "name": "tokenId",
          "type": "uint256"
        }
      ],
      "name": "approve",
      "outputs": [],
      "stateMutability": "nonpayable",
      "type": "function"
    },
    {
      "inputs": [
        {
          "internalType": "address",
          "name": "owner",
          "type": "address"
        }
      ],
      "name": "balanceOf",
      "outputs": [
        {
          "internalType": "uint256",
          "name": "",
          "type": "uint256"
        }
      ],
      "stateMutability": "view",
      "type": "function"
    },
    {
      "inputs": [
        {
          "internalType": "uint256",
          "name": "",
          "type": "uint256"
        }
      ],
      "name": "batchFrozen",
      "outputs": [
        {
          "internalType": "bool",
          "name": "",
          "type": "bool"
        }
      ],
      "stateMutability": "view",
      "type": "function"
    },
    {
      "inputs": [
        {
          "internalType": "address",
          "name": "_to",
          "type": "address"
        },
        {
          "internalType": "uint256",
          "name": "_quantity",
          "type": "uint256"
        },
        {
          "internalType": "string",
          "name": "_baseURI",
          "type": "string"
        },
        {
          "internalType": "bytes",
          "name": "_data",
          "type": "bytes"
        }
      ],
      "name": "batchMintTo",
      "outputs": [],
      "stateMutability": "nonpayable",
      "type": "function"
    },
    {
      "inputs": [
        {
          "internalType": "uint256",
          "name": "_tokenId",
          "type": "uint256"
        }
      ],
      "name": "burn",
      "outputs": [],
      "stateMutability": "nonpayable",
      "type": "function"
    },
    {
      "inputs": [
        {
          "internalType": "uint256",
          "name": "_intentId",
          "type": "uint256"
        }
      ],
      "name": "cancelIntent",
      "outputs": [],
      "stateMutability": "nonpayable",
      "type": "function"
    },
    {
      "inputs": [
        {
          "internalType": "bytes",
          "name": "",
          "type": "bytes"
        }
      ],
      "name": "checkUpkeep",
      "outputs": [
        {
          "internalType": "bool",
          "name": "upkeepNeeded",
          "type": "bool"
        },
        {
          "internalType": "bytes",
          "name": "performData",
          "type": "bytes"
        }
      ],
      "stateMutability": "view",
      "type": "function"
    },
    {
      "inputs": [],
      "name": "contractURI",
      "outputs": [
        {
          "internalType": "string",
          "name": "",
          "type": "string"
        }
      ],
      "stateMutability": "view",
      "type": "function"
    },
    {
      "inputs": [
        {
          "internalType": "string",
          "name": "_description",
          "type": "string"
        },
        {
          "internalType": "uint256",
          "name": "_estimatedCost",
          "type": "uint256"
        }
      ],
      "name": "createIntent",
      "outputs": [
        {
          "internalType": "uint256",
          "name": "",
          "type": "uint256"
        }
      ],
      "stateMutability": "nonpayable",
      "type": "function"
    },
    {
      "inputs": [
        {
          "internalType": "string",
          "name": "_description",
          "type": "string"
        },
        {
          "internalType": "uint256",
          "name": "_estimatedCost",
          "type": "uint256"
        },
        {
          "internalType": "uint256",
          "name": "_executionTime",
          "type": "uint256"
        },
        {
          "internalType": "address",
          "name": "_tokenIn",
          "type": "address"
        },
        {
          "internalType": "uint256",
          "name": "_amountIn",
          "type": "uint256"
        },
        {
          "internalType": "address",
          "name": "_tokenOut",
          "type": "address"
        },
        {
          "internalType": "uint256",
          "name": "_slippageTolerance",
          "type": "uint256"
        }
      ],
      "name": "createScheduledSwapIntent",
      "outputs": [
        {
          "internalType": "uint256",
          "name": "",
          "type": "uint256"
        }
      ],
      "stateMutability": "nonpayable",
      "type": "function"
    },
    {
      "inputs": [
        {
          "internalType": "string",
          "name": "_description",
          "type": "string"
        },
        {
          "internalType": "uint256",
          "name": "_estimatedCost",
          "type": "uint256"
        },
        {
          "internalType": "address",
          "name": "_tokenIn",
          "type": "address"
        },
        {
          "internalType": "uint256",
          "name": "_amountIn",
          "type": "uint256"
        },
        {
          "internalType": "address",
          "name": "_tokenOut",
          "type": "address"
        },
        {
          "internalType": "uint256",
          "name": "_slippageTolerance",
          "type": "uint256"
        }
      ],
      "name": "createSwapIntent",
      "outputs": [
        {
          "internalType": "uint256",
          "name": "",
          "type": "uint256"
        }
      ],
      "stateMutability": "nonpayable",
      "type": "function"
    },
    {
      "inputs": [
        {
          "internalType": "address",
          "name": "token",
          "type": "address"
        },
        {
          "internalType": "uint256",
          "name": "amount",
          "type": "uint256"
        }
      ],
      "name": "depositToken",
      "outputs": [],
      "stateMutability": "nonpayable",
      "type": "function"
    },
    {
      "inputs": [
        {
          "internalType": "address",
          "name": "token",
          "type": "address"
        }
      ],
      "name": "emergencyWithdraw",
      "outputs": [],
      "stateMutability": "nonpayable",
      "type": "function"
    },
    {
      "inputs": [],
      "name": "emergencyWithdrawETH",
      "outputs": [],
      "stateMutability": "nonpayable",
      "type": "function"
    },
    {
      "inputs": [
        {
          "internalType": "uint256",
          "name": "_intentId",
          "type": "uint256"
        }
      ],
      "name": "executeIntent",
      "outputs": [],
      "stateMutability": "nonpayable",
      "type": "function"
    },
    {
      "inputs": [
        {
          "internalType": "address",
          "name": "tokenIn",
          "type": "address"
        },
        {
          "internalType": "uint256",
          "name": "amountIn",
          "type": "uint256"
        },
        {
          "internalType": "address",
          "name": "tokenOut",
          "type": "address"
        },
        {
          "internalType": "address",
          "name": "recipient",
          "type": "address"
        },
        {
          "internalType": "uint256",
          "name": "slippageTolerance",
          "type": "uint256"
        }
      ],
      "name": "executeSwap",
      "outputs": [
        {
          "internalType": "uint256",
          "name": "amountOut",
          "type": "uint256"
        }
      ],
      "stateMutability": "nonpayable",
      "type": "function"
    },
    {
      "inputs": [
        {
          "internalType": "uint256",
          "name": "tokenId",
          "type": "uint256"
        }
      ],
      "name": "explicitOwnershipOf",
      "outputs": [
        {
          "components": [
            {
              "internalType": "address",
              "name": "addr",
              "type": "address"
            },
            {
              "internalType": "uint64",
              "name": "startTimestamp",
              "type": "uint64"
            },
            {
              "internalType": "bool",
              "name": "burned",
              "type": "bool"
            }
          ],
          "internalType": "struct IERC721A.TokenOwnership",
          "name": "",
          "type": "tuple"
        }
      ],
      "stateMutability": "view",
      "type": "function"
    },
    {
      "inputs": [
        {
          "internalType": "uint256[]",
          "name": "tokenIds",
          "type": "uint256[]"
        }
      ],
      "name": "explicitOwnershipsOf",
      "outputs": [
        {
          "components": [
            {
              "internalType": "address",
              "name": "addr",
              "type": "address"
            },
            {
              "internalType": "uint64",
              "name": "startTimestamp",
              "type": "uint64"
            },
            {
              "internalType": "bool",
              "name": "burned",
              "type": "bool"
            }
          ],
          "internalType": "struct IERC721A.TokenOwnership[]",
          "name": "",
          "type": "tuple[]"
        }
      ],
      "stateMutability": "view",
      "type": "function"
    },
    {
      "inputs": [],
      "name": "functionsConsumer",
      "outputs": [
        {
          "internalType": "address",
          "name": "",
          "type": "address"
        }
      ],
      "stateMutability": "view",
      "type": "function"
    },
    {
      "inputs": [
        {
          "internalType": "uint256",
          "name": "tokenId",
          "type": "uint256"
        }
      ],
      "name": "getApproved",
      "outputs": [
        {
          "internalType": "address",
          "name": "",
          "type": "address"
        }
      ],
      "stateMutability": "view",
      "type": "function"
    },
    {
      "inputs": [],
      "name": "getBaseURICount",
      "outputs": [
        {
          "internalType": "uint256",
          "name": "",
          "type": "uint256"
        }
      ],
      "stateMutability": "view",
      "type": "function"
    },
    {
      "inputs": [
        {
          "internalType": "uint256",
          "name": "_index",
          "type": "uint256"
        }
      ],
      "name": "getBatchIdAtIndex",
      "outputs": [
        {
          "internalType": "uint256",
          "name": "",
          "type": "uint256"
        }
      ],
      "stateMutability": "view",
      "type": "function"
    },
    {
      "inputs": [],
      "name": "getDefaultRoyaltyInfo",
      "outputs": [
        {
          "internalType": "address",
          "name": "",
          "type": "address"
        },
        {
          "internalType": "uint16",
          "name": "",
          "type": "uint16"
        }
      ],
      "stateMutability": "view",
      "type": "function"
    },
    {
      "inputs": [
        {
          "internalType": "uint256",
          "name": "_intentId",
          "type": "uint256"
        }
      ],
      "name": "getIntent",
      "outputs": [
        {
          "components": [
            {
              "internalType": "uint256",
              "name": "id",
              "type": "uint256"
            },
            {
              "internalType": "address",
              "name": "user",
              "type": "address"
            },
            {
              "internalType": "string",
              "name": "description",
              "type": "string"
            },
            {
              "internalType": "uint256",
              "name": "estimatedCost",
              "type": "uint256"
            },
            {
              "internalType": "uint256",
              "name": "timestamp",
              "type": "uint256"
            },
            {
              "internalType": "uint256",
              "name": "executionTime",
              "type": "uint256"
            },
            {
              "internalType": "bool",
              "name": "executed",
              "type": "bool"
            },
            {
              "internalType": "bool",
              "name": "isScheduled",
              "type": "bool"
            },
            {
              "internalType": "address",
              "name": "tokenIn",
              "type": "address"
            },
            {
              "internalType": "uint256",
              "name": "amountIn",
              "type": "uint256"
            },
            {
              "internalType": "address",
              "name": "tokenOut",
              "type": "address"
            },
            {
              "internalType": "uint256",
              "name": "slippageTolerance",
              "type": "uint256"
            },
            {
              "internalType": "bool",
              "name": "isActive",
              "type": "bool"
            }
          ],
          "internalType": "struct WalletPlanner.Intent",
          "name": "",
          "type": "tuple"
        }
      ],
      "stateMutability": "view",
      "type": "function"
    },
    {
      "inputs": [
        {
          "internalType": "uint256",
          "name": "_tokenId",
          "type": "uint256"
        }
      ],
      "name": "getRoyaltyInfoForToken",
      "outputs": [
        {
          "internalType": "address",
          "name": "",
          "type": "address"
        },
        {
          "internalType": "uint16",
          "name": "",
          "type": "uint16"
        }
      ],
      "stateMutability": "view",
      "type": "function"
    },
    {
      "inputs": [
        {
          "internalType": "address",
          "name": "tokenIn",
          "type": "address"
        },
        {
          "internalType": "uint256",
          "name": "amountIn",
          "type": "uint256"
        },
        {
          "internalType": "address",
          "name": "tokenOut",
          "type": "address"
        }
      ],
      "name": "getSwapEstimate",
      "outputs": [
        {
          "internalType": "uint256",
          "name": "estimatedAmountOut",
          "type": "uint256"
        }
      ],
      "stateMutability": "view",
      "type": "function"
    },
    {
      "inputs": [
        {
          "internalType": "address",
          "name": "user",
          "type": "address"
        },
        {
          "internalType": "address",
          "name": "token",
          "type": "address"
        }
      ],
      "name": "getUserBalance",
      "outputs": [
        {
          "internalType": "uint256",
          "name": "",
          "type": "uint256"
        }
      ],
      "stateMutability": "view",
      "type": "function"
    },
    {
      "inputs": [
        {
          "internalType": "address",
          "name": "_user",
          "type": "address"
        }
      ],
      "name": "getUserIntents",
      "outputs": [
        {
          "internalType": "uint256[]",
          "name": "",
          "type": "uint256[]"
        }
      ],
      "stateMutability": "view",
      "type": "function"
    },
    {
      "inputs": [
        {
          "internalType": "uint256",
          "name": "",
          "type": "uint256"
        }
      ],
      "name": "intents",
      "outputs": [
        {
          "internalType": "uint256",
          "name": "id",
          "type": "uint256"
        },
        {
          "internalType": "address",
          "name": "user",
          "type": "address"
        },
        {
          "internalType": "string",
          "name": "description",
          "type": "string"
        },
        {
          "internalType": "uint256",
          "name": "estimatedCost",
          "type": "uint256"
        },
        {
          "internalType": "uint256",
          "name": "timestamp",
          "type": "uint256"
        },
        {
          "internalType": "uint256",
          "name": "executionTime",
          "type": "uint256"
        },
        {
          "internalType": "bool",
          "name": "executed",
          "type": "bool"
        },
        {
          "internalType": "bool",
          "name": "isScheduled",
          "type": "bool"
        },
        {
          "internalType": "address",
          "name": "tokenIn",
          "type": "address"
        },
        {
          "internalType": "uint256",
          "name": "amountIn",
          "type": "uint256"
        },
        {
          "internalType": "address",
          "name": "tokenOut",
          "type": "address"
        },
        {
          "internalType": "uint256",
          "name": "slippageTolerance",
          "type": "uint256"
        },
        {
          "internalType": "bool",
          "name": "isActive",
          "type": "bool"
        }
      ],
      "stateMutability": "view",
      "type": "function"
    },
    {
      "inputs": [
        {
          "internalType": "address",
          "name": "owner",
          "type": "address"
        },
        {
          "internalType": "address",
          "name": "operator",
          "type": "address"
        }
      ],
      "name": "isApprovedForAll",
      "outputs": [
        {
          "internalType": "bool",
          "name": "",
          "type": "bool"
        }
      ],
      "stateMutability": "view",
      "type": "function"
    },
    {
      "inputs": [
        {
          "internalType": "address",
          "name": "_operator",
          "type": "address"
        },
        {
          "internalType": "uint256",
          "name": "_tokenId",
          "type": "uint256"
        }
      ],
      "name": "isApprovedOrOwner",
      "outputs": [
        {
          "internalType": "bool",
          "name": "isApprovedOrOwnerOf",
          "type": "bool"
        }
      ],
      "stateMutability": "view",
      "type": "function"
    },
    {
      "inputs": [],
      "name": "lastChecked",
      "outputs": [
        {
          "internalType": "uint256",
          "name": "",
          "type": "uint256"
        }
      ],
      "stateMutability": "view",
      "type": "function"
    },
    {
      "inputs": [
        {
          "internalType": "address",
          "name": "_to",
          "type": "address"
        },
        {
          "internalType": "string",
          "name": "_tokenURI",
          "type": "string"
        }
      ],
      "name": "mintTo",
      "outputs": [],
      "stateMutability": "nonpayable",
      "type": "function"
    },
    {
      "inputs": [
        {
          "internalType": "bytes[]",
          "name": "data",
          "type": "bytes[]"
        }
      ],
      "name": "multicall",
      "outputs": [
        {
          "internalType": "bytes[]",
          "name": "results",
          "type": "bytes[]"
        }
      ],
      "stateMutability": "nonpayable",
      "type": "function"
    },
    {
      "inputs": [],
      "name": "name",
      "outputs": [
        {
          "internalType": "string",
          "name": "",
          "type": "string"
        }
      ],
      "stateMutability": "view",
      "type": "function"
    },
    {
      "inputs": [],
      "name": "nextTokenIdToMint",
      "outputs": [
        {
          "internalType": "uint256",
          "name": "",
          "type": "uint256"
        }
      ],
      "stateMutability": "view",
      "type": "function"
    },
    {
      "inputs": [],
      "name": "owner",
      "outputs": [
        {
          "internalType": "address",
          "name": "",
          "type": "address"
        }
      ],
      "stateMutability": "view",
      "type": "function"
    },
    {
      "inputs": [
        {
          "internalType": "uint256",
          "name": "tokenId",
          "type": "uint256"
        }
      ],
      "name": "ownerOf",
      "outputs": [
        {
          "internalType": "address",
          "name": "",
          "type": "address"
        }
      ],
      "stateMutability": "view",
      "type": "function"
    },
    {
      "inputs": [
        {
          "internalType": "bytes",
          "name": "performData",
          "type": "bytes"
        }
      ],
      "name": "performUpkeep",
      "outputs": [],
      "stateMutability": "nonpayable",
      "type": "function"
    },
    {
      "inputs": [
        {
          "internalType": "address",
          "name": "token",
          "type": "address"
        }
      ],
      "name": "removeSupportedToken",
      "outputs": [],
      "stateMutability": "nonpayable",
      "type": "function"
    },
    {
      "inputs": [
        {
          "internalType": "uint256",
          "name": "tokenId",
          "type": "uint256"
        },
        {
          "internalType": "uint256",
          "name": "salePrice",
          "type": "uint256"
        }
      ],
      "name": "royaltyInfo",
      "outputs": [
        {
          "internalType": "address",
          "name": "receiver",
          "type": "address"
        },
        {
          "internalType": "uint256",
          "name": "royaltyAmount",
          "type": "uint256"
        }
      ],
      "stateMutability": "view",
      "type": "function"
    },
    {
      "inputs": [
        {
          "internalType": "address",
          "name": "from",
          "type": "address"
        },
        {
          "internalType": "address",
          "name": "to",
          "type": "address"
        },
        {
          "internalType": "uint256",
          "name": "tokenId",
          "type": "uint256"
        }
      ],
      "name": "safeTransferFrom",
      "outputs": [],
      "stateMutability": "nonpayable",
      "type": "function"
    },
    {
      "inputs": [
        {
          "internalType": "address",
          "name": "from",
          "type": "address"
        },
        {
          "internalType": "address",
          "name": "to",
          "type": "address"
        },
        {
          "internalType": "uint256",
          "name": "tokenId",
          "type": "uint256"
        },
        {
          "internalType": "bytes",
          "name": "_data",
          "type": "bytes"
        }
      ],
      "name": "safeTransferFrom",
      "outputs": [],
      "stateMutability": "nonpayable",
      "type": "function"
    },
    {
      "inputs": [
        {
          "internalType": "address",
          "name": "operator",
          "type": "address"
        },
        {
          "internalType": "bool",
          "name": "approved",
          "type": "bool"
        }
      ],
      "name": "setApprovalForAll",
      "outputs": [],
      "stateMutability": "nonpayable",
      "type": "function"
    },
    {
      "inputs": [
        {
          "internalType": "string",
          "name": "_uri",
          "type": "string"
        }
      ],
      "name": "setContractURI",
      "outputs": [],
      "stateMutability": "nonpayable",
      "type": "function"
    },
    {
      "inputs": [
        {
          "internalType": "address",
          "name": "_royaltyRecipient",
          "type": "address"
        },
        {
          "internalType": "uint256",
          "name": "_royaltyBps",
          "type": "uint256"
        }
      ],
      "name": "setDefaultRoyaltyInfo",
      "outputs": [],
      "stateMutability": "nonpayable",
      "type": "function"
    },
    {
      "inputs": [
        {
          "internalType": "address",
          "name": "_functionsConsumer",
          "type": "address"
        }
      ],
      "name": "setFunctionsConsumer",
      "outputs": [],
      "stateMutability": "nonpayable",
      "type": "function"
    },
    {
      "inputs": [
        {
          "internalType": "address",
          "name": "_newOwner",
          "type": "address"
        }
      ],
      "name": "setOwner",
      "outputs": [],
      "stateMutability": "nonpayable",
      "type": "function"
    },
    {
      "inputs": [
        {
          "internalType": "uint256",
          "name": "_tokenId",
          "type": "uint256"
        },
        {
          "internalType": "address",
          "name": "_recipient",
          "type": "address"
        },
        {
          "internalType": "uint256",
          "name": "_bps",
          "type": "uint256"
        }
      ],
      "name": "setRoyaltyInfoForToken",
      "outputs": [],
      "stateMutability": "nonpayable",
      "type": "function"
    },
    {
      "inputs": [
        {
          "internalType": "address",
          "name": "",
          "type": "address"
        }
      ],
      "name": "supportedTokens",
      "outputs": [
        {
          "internalType": "bool",
          "name": "",
          "type": "bool"
        }
      ],
      "stateMutability": "view",
      "type": "function"
    },
    {
      "inputs": [
        {
          "internalType": "bytes4",
          "name": "interfaceId",
          "type": "bytes4"
        }
      ],
      "name": "supportsInterface",
      "outputs": [
        {
          "internalType": "bool",
          "name": "",
          "type": "bool"
        }
      ],
      "stateMutability": "view",
      "type": "function"
    },
    {
      "inputs": [],
      "name": "symbol",
      "outputs": [
        {
          "internalType": "string",
          "name": "",
          "type": "string"
        }
      ],
      "stateMutability": "view",
      "type": "function"
    },
    {
      "inputs": [
        {
          "internalType": "uint256",
          "name": "_tokenId",
          "type": "uint256"
        }
      ],
      "name": "tokenURI",
      "outputs": [
        {
          "internalType": "string",
          "name": "",
          "type": "string"
        }
      ],
      "stateMutability": "view",
      "type": "function"
    },
    {
      "inputs": [
        {
          "internalType": "address",
          "name": "owner",
          "type": "address"
        }
      ],
      "name": "tokensOfOwner",
      "outputs": [
        {
          "internalType": "uint256[]",
          "name": "",
          "type": "uint256[]"
        }
      ],
      "stateMutability": "view",
      "type": "function"
    },
    {
      "inputs": [
        {
          "internalType": "address",
          "name": "owner",
          "type": "address"
        },
        {
          "internalType": "uint256",
          "name": "start",
          "type": "uint256"
        },
        {
          "internalType": "uint256",
          "name": "stop",
          "type": "uint256"
        }
      ],
      "name": "tokensOfOwnerIn",
      "outputs": [
        {
          "internalType": "uint256[]",
          "name": "",
          "type": "uint256[]"
        }
      ],
      "stateMutability": "view",
      "type": "function"
    },
    {
      "inputs": [],
      "name": "totalSupply",
      "outputs": [
        {
          "internalType": "uint256",
          "name": "",
          "type": "uint256"
        }
      ],
      "stateMutability": "view",
      "type": "function"
    },
    {
      "inputs": [
        {
          "internalType": "address",
          "name": "from",
          "type": "address"
        },
        {
          "internalType": "address",
          "name": "to",
          "type": "address"
        },
        {
          "internalType": "uint256",
          "name": "tokenId",
          "type": "uint256"
        }
      ],
      "name": "transferFrom",
      "outputs": [],
      "stateMutability": "nonpayable",
      "type": "function"
    },
    {
      "inputs": [],
      "name": "uniswapRouter",
      "outputs": [
        {
          "internalType": "contract IUniswapV2Router02",
          "name": "",
          "type": "address"
        }
      ],
      "stateMutability": "view",
      "type": "function"
    },
    {
      "inputs": [
        {
          "internalType": "address",
          "name": "",
          "type": "address"
        },
        {
          "internalType": "address",
          "name": "",
          "type": "address"
        }
      ],
      "name": "userBalances",
      "outputs": [
        {
          "internalType": "uint256",
          "name": "",
          "type": "uint256"
        }
      ],
      "stateMutability": "view",
      "type": "function"
    },
    {
      "inputs": [
        {
          "internalType": "address",
          "name": "",
          "type": "address"
        },
        {
          "internalType": "uint256",
          "name": "",
          "type": "uint256"
        }
      ],
      "name": "userIntents",
      "outputs": [
        {
          "internalType": "uint256",
          "name": "",
          "type": "uint256"
        }
      ],
      "stateMutability": "view",
      "type": "function"
    },
    {
      "inputs": [
        {
          "internalType": "address",
          "name": "token",
          "type": "address"
        },
        {
          "internalType": "uint256",
          "name": "amount",
          "type": "uint256"
        }
      ],
      "name": "withdrawToken",
      "outputs": [],
      "stateMutability": "nonpayable",
      "type": "function"
    },
    {
      "stateMutability": "payable",
      "type": "receive"
    }
  ],
  "bytecode": "0x60a060405260016010553480156200001657600080fd5b506040516200627e3803806200627e83398101604081905262000039916200033a565b8585858585838360026200004e83826200048b565b5060036200005d82826200048b565b505060008055506200006f8562000171565b62000084826001600160801b038316620001c3565b5050506001600160a01b0383169150620000b590505773c532a74256d3db42d0bf7a0400fefdbad7694008620000b7565b805b6001600160a01b03166080525050601460205250507f4f9053452157b4cea1242edc5539416610407ce8477c1a7a9036e88748ef0c7f8054600160ff1991821681179092557fe77da4f610b28935e934a6462fcdfb2ad6a0b0e24d20ef6dda246f831b48d72c805482168317905573fff9976782d46cc05630d1f6ebab18b2324d6b146000527fdc7948e2eb5a76580fa7093b5c69463e8d61d81b599b38c0a1ab26395c85778f8054909116909117905550620005579050565b600980546001600160a01b038381166001600160a01b0319831681179093556040519116919082907f8292fce18fa69edf4db7b94ea2e58241df0ae57f97e0a6c9b29067028bf92d7690600090a35050565b612710811115620001f657604051630a4930ad60e31b815261271060048201526024810182905260440160405180910390fd5b600a80546001600160a01b0384166001600160b01b03199091168117600160a01b61ffff851602179091556040518281527f90d7ec04bcb8978719414f82e52e4cb651db41d0e6f8cea6118c2191e6183adb9060200160405180910390a25050565b80516001600160a01b03811681146200027057600080fd5b919050565b634e487b7160e01b600052604160045260246000fd5b600082601f8301126200029d57600080fd5b81516001600160401b0380821115620002ba57620002ba62000275565b604051601f8301601f19908116603f01168101908282118183101715620002e557620002e562000275565b816040528381526020925086838588010111156200030257600080fd5b600091505b8382101562000326578582018301518183018401529082019062000307565b600093810190920192909252949350505050565b60008060008060008060c087890312156200035457600080fd5b6200035f8762000258565b60208801519096506001600160401b03808211156200037d57600080fd5b6200038b8a838b016200028b565b96506040890151915080821115620003a257600080fd5b50620003b189828a016200028b565b945050620003c26060880162000258565b60808801519093506001600160801b0381168114620003e057600080fd5b9150620003f060a0880162000258565b90509295509295509295565b600181811c908216806200041157607f821691505b6020821081036200043257634e487b7160e01b600052602260045260246000fd5b50919050565b601f8211156200048657600081815260208120601f850160051c81016020861015620004615750805b601f850160051c820191505b8181101562000482578281556001016200046d565b5050505b505050565b81516001600160401b03811115620004a757620004a762000275565b620004bf81620004b88454620003fc565b8462000438565b602080601f831160018114620004f75760008415620004de5750858301515b600019600386901b1c1916600185901b17855562000482565b600085815260208120601f198616915b82811015620005285788860151825594840194600190910190840162000507565b5085821015620005475787850151600019600388901b60f8161c191681555b5050505050600190811b01905550565b608051615ce16200059d600039600081816108f9015281816132a001528181613cd101528181613e0201528181613ecc01528181614154015261422a0152615ce16000f3fe6080604052600436106104325760003560e01c80638304053211610228578063ac9650d811610128578063cd9d6aee116100bb578063e8a3d4851161008a578063f97595181161006f578063f975951814610da1578063fa3209b214610db7578063fbd7c03614610dd757600080fd5b8063e8a3d48514610d43578063e985e9c514610d5857600080fd5b8063cd9d6aee14610cc5578063de02666b14610ce5578063e0bab4c414610d05578063e5ada13e14610d2d57600080fd5b8063b88d4fde116100f7578063b88d4fde14610c38578063c056cd0f14610c58578063c23dc68f14610c78578063c87b56dd14610ca557600080fd5b8063ac9650d814610b80578063ad5c464814610bad578063adb5198014610bd5578063b24f2d3914610c0d57600080fd5b8063938e3d7b116101bb5780639e281a981161018a578063a22cb4651161016f578063a22cb46514610b2b578063a879851014610b4b578063abef9ba114610b6057600080fd5b80639e281a9814610aeb578063a0a31aac14610b0b57600080fd5b8063938e3d7b14610a7657806395d89b4114610a9657806399a2557a14610aab5780639bcf7a1514610acb57600080fd5b806389c9c3ae116101f757806389c9c3ae146109f557806389facb2014610a155780638da5cb5b14610a2b578063906e277b14610a4957600080fd5b8063830405321461095b578063845360171461098b5780638462151c146109a057806389a30271146109cd57600080fd5b806346a1a09511610333578063685b2bcc116102c65780636ff1c9bc11610295578063735de9f71161027a578063735de9f7146108e7578063754a81d91461091b578063763191901461093b57600080fd5b80636ff1c9bc146108a757806370a08231146108c757600080fd5b8063685b2bcc1461080957806368c4ac26146108295780636d69fcaf146108595780636e04ff0d1461087957600080fd5b80636352211e116103025780636352211e1461076e57806363b45e2d1461078e57806366af889d146107a35780636805d6ad146107c357600080fd5b806346a1a095146106a65780634cc157df146106df5780635bbb217714610721578063600dd5ea1461074e57600080fd5b806323b872dd116103c65780633b1475a71161039557806342966c681161037a57806342966c6814610646578063430c2081146106665780634585e33b1461068657600080fd5b80633b1475a71461061157806342842e0e1461062657600080fd5b806323b872dd146105725780632419f51b146105925780632a55205a146105b2578063338b5dea146105f157600080fd5b8063081812fc11610402578063081812fc146104ef578063095ea7b31461050f57806313af40351461052f57806318160ddd1461054f57600080fd5b806275a3171461043e57806301ffc9a7146104605780630689bafd1461049557806306fdde03146104cd57600080fd5b3661043957005b600080fd5b34801561044a57600080fd5b5061045e610459366004614e18565b610df7565b005b34801561046c57600080fd5b5061048061047b366004614e7c565b610e36565b60405190151581526020015b60405180910390f35b3480156104a157600080fd5b506016546104b5906001600160a01b031681565b6040516001600160a01b03909116815260200161048c565b3480156104d957600080fd5b506104e2610f07565b60405161048c9190614ee9565b3480156104fb57600080fd5b506104b561050a366004614efc565b610f99565b34801561051b57600080fd5b5061045e61052a366004614f15565b610ff6565b34801561053b57600080fd5b5061045e61054a366004614f3f565b6110ae565b34801561055b57600080fd5b50600154600054035b60405190815260200161048c565b34801561057e57600080fd5b5061045e61058d366004614f5a565b6110df565b34801561059e57600080fd5b506105646105ad366004614efc565b6110ea565b3480156105be57600080fd5b506105d26105cd366004614f96565b611155565b604080516001600160a01b03909316835260208301919091520161048c565b3480156105fd57600080fd5b5061045e61060c366004614f15565b611192565b34801561061d57600080fd5b50600054610564565b34801561063257600080fd5b5061045e610641366004614f5a565b6112d1565b34801561065257600080fd5b5061045e610661366004614efc565b6112ec565b34801561067257600080fd5b50610480610681366004614f15565b6112f7565b34801561069257600080fd5b5061045e6106a1366004614fb8565b611376565b3480156106b257600080fd5b506106c66106c1366004614efc565b611513565b60405161048c9d9c9b9a9998979695949392919061502a565b3480156106eb57600080fd5b506106ff6106fa366004614efc565b61161b565b604080516001600160a01b03909316835261ffff90911660208301520161048c565b34801561072d57600080fd5b5061074161073c3660046150f7565b611686565b60405161048c919061518d565b34801561075a57600080fd5b5061045e610769366004614f15565b61174d565b34801561077a57600080fd5b506104b5610789366004614efc565b61177c565b34801561079a57600080fd5b50600c54610564565b3480156107af57600080fd5b506105646107be3660046151f8565b61178e565b3480156107cf57600080fd5b506105646107de36600461527d565b6001600160a01b03918216600090815260136020908152604080832093909416825291909152205490565b34801561081557600080fd5b506105646108243660046152b0565b611aac565b34801561083557600080fd5b50610480610844366004614f3f565b60146020526000908152604090205460ff1681565b34801561086557600080fd5b5061045e610874366004614f3f565b611ac5565b34801561088557600080fd5b50610899610894366004614fb8565b611b14565b60405161048c929190615305565b3480156108b357600080fd5b5061045e6108c2366004614f3f565b611be7565b3480156108d357600080fd5b506105646108e2366004614f3f565b611d23565b3480156108f357600080fd5b506104b57f000000000000000000000000000000000000000000000000000000000000000081565b34801561092757600080fd5b5061045e610936366004615320565b611d8b565b34801561094757600080fd5b5061045e610956366004614f3f565b611db1565b34801561096757600080fd5b50610480610976366004614efc565b600e6020526000908152604090205460ff1681565b34801561099757600080fd5b5061045e611dfd565b3480156109ac57600080fd5b506109c06109bb366004614f3f565b611e61565b60405161048c919061539e565b3480156109d957600080fd5b506104b5731c7d4b196cb0c7b01d743fbc6116a902379c723881565b348015610a0157600080fd5b50610564610a10366004614f15565b611fa0565b348015610a2157600080fd5b50610564610e1081565b348015610a3757600080fd5b506009546001600160a01b03166104b5565b348015610a5557600080fd5b50610a69610a64366004614efc565b611fd1565b60405161048c91906153d6565b348015610a8257600080fd5b5061045e610a913660046154c7565b6121b8565b348015610aa257600080fd5b506104e26121ff565b348015610ab757600080fd5b506109c0610ac63660046154fc565b61220e565b348015610ad757600080fd5b5061045e610ae636600461552f565b6123dc565b348015610af757600080fd5b5061045e610b06366004614f15565b61240c565b348015610b1757600080fd5b5061045e610b26366004614efc565b61253c565b348015610b3757600080fd5b5061045e610b46366004615562565b61268a565b348015610b5757600080fd5b5061056460c881565b348015610b6c57600080fd5b50610564610b7b366004615599565b612731565b348015610b8c57600080fd5b50610ba0610b9b3660046155de565b61292b565b60405161048c9190615641565b348015610bb957600080fd5b506104b573fff9976782d46cc05630d1f6ebab18b2324d6b1481565b348015610be157600080fd5b50610564610bf036600461527d565b601360209081526000928352604080842090915290825290205481565b348015610c1957600080fd5b50600a546001600160a01b03811690600160a01b900461ffff166106ff565b348015610c4457600080fd5b5061045e610c533660046156a3565b612a9b565b348015610c6457600080fd5b50610564610c733660046156ff565b612adf565b348015610c8457600080fd5b50610c98610c93366004614efc565b612dbc565b60405161048c9190615779565b348015610cb157600080fd5b506104e2610cc0366004614efc565b612e6b565b348015610cd157600080fd5b5061045e610ce0366004614efc565b612f59565b348015610cf157600080fd5b50610564610d003660046157af565b613040565b348015610d1157600080fd5b506104b573ff34b3d4aee8ddcd6f9afffb6fe49bd371b8a35781565b348015610d3957600080fd5b5061056460155481565b348015610d4f57600080fd5b506104e2613354565b348015610d6457600080fd5b50610480610d7336600461527d565b6001600160a01b03918216600090815260076020908152604080832093909416825291909152205460ff1690565b348015610dad57600080fd5b506105646101f481565b348015610dc357600080fd5b506109c0610dd2366004614f3f565b6133e2565b348015610de357600080fd5b5061045e610df2366004614f3f565b61344e565b610e05565b60405180910390fd5b610e17610e1160005490565b8261349b565b610e328260016040518060200160405280600081525061351b565b5050565b60007f01ffc9a7000000000000000000000000000000000000000000000000000000006001600160e01b031983161480610e9957507f80ac58cd000000000000000000000000000000000000000000000000000000006001600160e01b03198316145b80610ecd57507f5b5e139f000000000000000000000000000000000000000000000000000000006001600160e01b03198316145b80610f0157506001600160e01b031982167f2a55205a00000000000000000000000000000000000000000000000000000000145b92915050565b606060028054610f16906157eb565b80601f0160208091040260200160405190810160405280929190818152602001828054610f42906157eb565b8015610f8f5780601f10610f6457610100808354040283529160200191610f8f565b820191906000526020600020905b815481529060010190602001808311610f7257829003601f168201915b5050505050905090565b6000610fa4826136e3565b610fda576040517fcf4700e400000000000000000000000000000000000000000000000000000000815260040160405180910390fd5b506000908152600660205260409020546001600160a01b031690565b60006110018261177c565b9050806001600160a01b0316836001600160a01b03160361104e576040517f943f7b8c00000000000000000000000000000000000000000000000000000000815260040160405180910390fd5b336001600160a01b0382161461109e576110688133610d73565b61109e576040517fcfb3b94200000000000000000000000000000000000000000000000000000000815260040160405180910390fd5b6110a983838361370e565b505050565b6110b661376a565b6110d3576040516316ccb9cb60e11b815260040160405180910390fd5b6110dc81613797565b50565b6110a98383836137e9565b60006110f5600c5490565b8210611130576040517f0f2624ee00000000000000000000000000000000000000000000000000000000815260048101839052602401610dfc565b600c828154811061114357611143615825565b90600052602060002001549050919050565b6000806000806111648661161b565b90945084925061ffff16905061271061117d8287615851565b611187919061587e565b925050509250929050565b6001600160a01b03821660009081526014602052604090205460ff1680156111ba5750600081115b6111c357600080fd5b6040517f23b872dd000000000000000000000000000000000000000000000000000000008152336004820152306024820152604481018290526001600160a01b038316906323b872dd906064016020604051808303816000875af115801561122f573d6000803e3d6000fd5b505050506040513d601f19601f820116820180604052508101906112539190615892565b503360009081526013602090815260408083206001600160a01b0386168452909152812080548392906112879084906158af565b90915550506040518181526001600160a01b0383169033907ff1444b5cad7ce70cb018d1b8edc8618fe303f3c7f034d8d572a6e27facbf2bef906020015b60405180910390a35050565b6110a983838360405180602001604052806000815250612a9b565b6110dc816001613a0b565b6000806113038361177c565b9050806001600160a01b0316846001600160a01b0316148061134a57506001600160a01b0380821660009081526007602090815260408083209388168352929052205460ff165b8061136e5750836001600160a01b031661136384610f99565b6001600160a01b0316145b949350505050565b600061138482840184614efc565b4260155590506000805b6010548110801561139e57508282105b156114d35760008181526011602052604090206006810154610100900460ff1680156113cf5750600681015460ff16155b80156113df575080600501544210155b156114c05760068101805460ff19166001179055826113fd816158c2565b60068301549094506201000090046001600160a01b03161580159150611427575060008160070154115b156114685760068101546007820154600883015460018401546009850154611466946001600160a01b0362010000909104811694938116921690613c01565b505b600180820154611483916001600160a01b039091169061435f565b60018101546040516001600160a01b039091169083907f6852407858602d696344801f0181bc507c808c727c914bb6cdfeabd42431af3890600090a35b50806114cb816158c2565b91505061138e565b5060408051428152602081018390527ff2d16d924eb54b4e0b6d5caea0349992ed5475ad6772b934ee978621b5d3d401910160405180910390a150505050565b60116020526000908152604090208054600182015460028301805492936001600160a01b0390921692611545906157eb565b80601f0160208091040260200160405190810160405280929190818152602001828054611571906157eb565b80156115be5780601f10611593576101008083540402835291602001916115be565b820191906000526020600020905b8154815290600101906020018083116115a157829003601f168201915b505050506003830154600484015460058501546006860154600787015460088801546009890154600a9099015497989597949650929460ff8084169561010085048216956001600160a01b0362010000909604861695169291168d565b6000818152600b60209081526040808320815180830190925280546001600160a01b031680835260019091015492820192909252829115611662578051602082015161167c565b600a546001600160a01b03811690600160a01b900461ffff165b9250925050915091565b805160609060008167ffffffffffffffff8111156116a6576116a6614d61565b6040519080825280602002602001820160405280156116f157816020015b60408051606081018252600080825260208083018290529282015282526000199092019101816116c45790505b50905060005b8281146117455761172085828151811061171357611713615825565b6020026020010151612dbc565b82828151811061173257611732615825565b60209081029190910101526001016116f7565b509392505050565b61175561376a565b61177257604051636fae358160e11b815260040160405180910390fd5b610e328282614492565b60006117878261453a565b5192915050565b60004286116117df5760405162461bcd60e51b815260206004820181905260248201527f457865637574696f6e2074696d65206d75737420626520696e206675747572656044820152606401610dfc565b6001600160a01b03851660009081526014602052604090205460ff166118475760405162461bcd60e51b815260206004820152601360248201527f546f6b656e206e6f7420737570706f72746564000000000000000000000000006044820152606401610dfc565b6101f48211156118995760405162461bcd60e51b815260206004820152601160248201527f536c69707061676520746f6f20686967680000000000000000000000000000006044820152606401610dfc565b6010805490819060006118ab836158c2565b9091555050604080516101a0810182528281523360208201529081018a90526060810189905242608082015260a08101889052600060c0820152600160e08201526001600160a01b038781166101008301526101208201879052851661014082015261016081018461191e5760c8611920565b845b815260016020918201819052600084815260118352604090819020845181559284015191830180546001600160a01b0319166001600160a01b039093169290921790915582015160028201906119769082615929565b50606082015160038201556080820151600482015560a0820151600582015560c082015160068201805460e08501516101008087015161ffff1990931694151561ff001916949094179015159093029290921775ffffffffffffffffffffffffffffffffffffffff00001916620100006001600160a01b039384160217905561012083015160078301556101408301516008830180546001600160a01b03191691909216179055610160820151600982015561018090910151600a909101805460ff1916911515919091179055336000818152601260209081526040808320805460018101825590845291909220018390555182907fb6f430c8722299f241d9c66e77ee068ce71fb3d66d1c0af7d457ef4e50b4e59b90611a98908d90614ee9565b60405180910390a398975050505050505050565b6000611abb8686868686613c01565b9695505050505050565b6009546001600160a01b03163314611af0576040516316ccb9cb60e11b815260040160405180910390fd5b6001600160a01b03166000908152601460205260409020805460ff19166001179055565b600060606000610e1060155442611b2b91906159e9565b1190506000805b60105481108015611b435750600582105b15611baa5760008181526011602052604090206006810154610100900460ff168015611b745750600681015460ff16155b8015611b84575080600501544210155b15611b975782611b93816158c2565b9350505b5080611ba2816158c2565b915050611b32565b50818015611bb85750600081115b935080604051602001611bcd91815260200190565b604051602081830303815290604052925050509250929050565b6009546001600160a01b03163314611c12576040516316ccb9cb60e11b815260040160405180910390fd5b806001600160a01b031663a9059cbb611c336009546001600160a01b031690565b6040517f70a082310000000000000000000000000000000000000000000000000000000081523060048201526001600160a01b038516906370a0823190602401602060405180830381865afa158015611c90573d6000803e3d6000fd5b505050506040513d601f19601f82011682018060405250810190611cb491906159fc565b6040516001600160e01b031960e085901b1681526001600160a01b03909216600483015260248201526044016020604051808303816000875af1158015611cff573d6000803e3d6000fd5b505050506040513d601f19601f82011682018060405250810190610e329190615892565b60006001600160a01b038216611d65576040517f8f4eb60400000000000000000000000000000000000000000000000000000000815260040160405180910390fd5b506001600160a01b031660009081526005602052604090205467ffffffffffffffff1690565b611d9e611d9760005490565b848461466f565b5050611dab84848361351b565b50505050565b6009546001600160a01b03163314611ddc576040516316ccb9cb60e11b815260040160405180910390fd5b6001600160a01b03166000908152601460205260409020805460ff19169055565b6009546001600160a01b03163314611e28576040516316ccb9cb60e11b815260040160405180910390fd5b6009546040516001600160a01b03909116904780156108fc02916000818181858888f193505050501580156110dc573d6000803e3d6000fd5b60606000806000611e7185611d23565b905060008167ffffffffffffffff811115611e8e57611e8e614d61565b604051908082528060200260200182016040528015611eb7578160200160208202803683370190505b50604080516060810182526000808252602082018190529181018290529192505b838614611f9457600081815260046020908152604091829020825160608101845290546001600160a01b0381168252600160a01b810467ffffffffffffffff1692820192909252600160e01b90910460ff1615159181018290529250611f8c5781516001600160a01b031615611f4d57815194505b876001600160a01b0316856001600160a01b031603611f8c5780838780600101985081518110611f7f57611f7f615825565b6020026020010181815250505b600101611ed8565b50909695505050505050565b60126020528160005260406000208181548110611fbc57600080fd5b90600052602060002001600091509150505481565b61205d604051806101a001604052806000815260200160006001600160a01b031681526020016060815260200160008152602001600081526020016000815260200160001515815260200160001515815260200160006001600160a01b031681526020016000815260200160006001600160a01b03168152602001600081526020016000151581525090565b60008281526011602090815260409182902082516101a0810184528154815260018201546001600160a01b03169281019290925260028101805492939192918401916120a8906157eb565b80601f01602080910402602001604051908101604052809291908181526020018280546120d4906157eb565b80156121215780601f106120f657610100808354040283529160200191612121565b820191906000526020600020905b81548152906001019060200180831161210457829003601f168201915b5050509183525050600382015460208201526004820154604082015260058201546060820152600682015460ff808216151560808401526101008083048216151560a0850152620100009092046001600160a01b0390811660c0850152600785015460e0850152600885015416918301919091526009830154610120830152600a9092015490911615156101409091015292915050565b6121c061376a565b6121f6576040517f9f7f092500000000000000000000000000000000000000000000000000000000815260040160405180910390fd5b6110dc816146d3565b606060038054610f16906157eb565b6060818310612249576040517f32c1995a00000000000000000000000000000000000000000000000000000000815260040160405180910390fd5b6000805480841115612259578093505b600061226487611d23565b905084861015612283578585038181101561227d578091505b50612287565b5060005b60008167ffffffffffffffff8111156122a2576122a2614d61565b6040519080825280602002602001820160405280156122cb578160200160208202803683370190505b509050816000036122e15793506123d592505050565b60006122ec88612dbc565b9050600081604001516122fd575080515b885b88811415801561230f5750848714155b156123c957600081815260046020908152604091829020825160608101845290546001600160a01b0381168252600160a01b810467ffffffffffffffff1692820192909252600160e01b90910460ff16151591810182905293506123c15782516001600160a01b03161561238257825191505b8a6001600160a01b0316826001600160a01b0316036123c157808488806001019950815181106123b4576123b4615825565b6020026020010181815250505b6001016122ff565b50505092835250909150505b9392505050565b6123e461376a565b61240157604051636fae358160e11b815260040160405180910390fd5b6110a98383836147af565b3360009081526013602090815260408083206001600160a01b038616845290915290205481111561243c57600080fd5b3360009081526013602090815260408083206001600160a01b03861684529091528120805483929061246f9084906159e9565b90915550506040517fa9059cbb000000000000000000000000000000000000000000000000000000008152336004820152602481018290526001600160a01b0383169063a9059cbb906044016020604051808303816000875af11580156124da573d6000803e3d6000fd5b505050506040513d601f19601f820116820180604052508101906124fe9190615892565b506040518181526001600160a01b0383169033907f8210728e7c071f615b840ee026032693858fbcd5e5359e67e438c890f59e5620906020016112c5565b600081815260116020526040902060018101546001600160a01b031633146125a65760405162461bcd60e51b815260206004820152601460248201527f4e6f742074686520696e74656e74206f776e65720000000000000000000000006044820152606401610dfc565b600681015460ff16156125fb5760405162461bcd60e51b815260206004820152601760248201527f496e74656e7420616c72656164792065786563757465640000000000000000006044820152606401610dfc565b600a81015460ff1661264f5760405162461bcd60e51b815260206004820152601860248201527f496e74656e7420616c72656164792063616e63656c6c656400000000000000006044820152606401610dfc565b600a8101805460ff1916905560405182907f2d8c53f76eb0afab114916b6c3aa17406ad39c7e874c92b099f79ab89c2e2a5490600090a25050565b336001600160a01b038316036126cc576040517fb06307db00000000000000000000000000000000000000000000000000000000815260040160405180910390fd5b3360008181526007602090815260408083206001600160a01b03871680855290835292819020805460ff191686151590811790915590519081529192917f17307eab39ab6107e8899845ad3d59bd9653f200f220920489ca2b5937696c3191016112c5565b60108054600091819083612744836158c2565b9091555050604080516101a08101825282815233602080830191825282840188815260608401889052426080850152600060a0850181905260c0850181905260e0850181905261010085018190526101208501819052610140850181905261016085018190526001610180860181905287825260119093529490942083518155915190820180546001600160a01b0319166001600160a01b03909216919091179055915190919060028201906127fa9082615929565b50606082015160038201556080820151600482015560a0820151600582015560c082015160068201805460e08501516101008087015161ffff1990931694151561ff001916949094179015159093029290921775ffffffffffffffffffffffffffffffffffffffff00001916620100006001600160a01b039384160217905561012083015160078301556101408301516008830180546001600160a01b03191691909216179055610160820151600982015561018090910151600a909101805460ff1916911515919091179055336000818152601260209081526040808320805460018101825590845291909220018390555182907fb6f430c8722299f241d9c66e77ee068ce71fb3d66d1c0af7d457ef4e50b4e59b9061291c908890614ee9565b60405180910390a39392505050565b60608167ffffffffffffffff81111561294657612946614d61565b60405190808252806020026020018201604052801561297957816020015b60608152602001906001900390816129645790505b509050336000805b84811015612a92578115612a00576129de308787848181106129a5576129a5615825565b90506020028101906129b79190615a15565b866040516020016129ca93929190615a63565b604051602081830303815290604052614862565b8482815181106129f0576129f0615825565b6020026020010181905250612a80565b612a6230878784818110612a1657612a16615825565b9050602002810190612a289190615a15565b8080601f01602080910402602001604051908101604052809392919081815260200183838082843760009201919091525061486292505050565b848281518110612a7457612a74615825565b60200260200101819052505b80612a8a816158c2565b915050612981565b50505092915050565b612aa68484846137e9565b6001600160a01b0383163b15611dab57612ac284848484614887565b611dab576040516368d2bf6b60e11b815260040160405180910390fd5b6001600160a01b03841660009081526014602052604081205460ff16612b475760405162461bcd60e51b815260206004820152601360248201527f546f6b656e206e6f7420737570706f72746564000000000000000000000000006044820152606401610dfc565b6101f4821115612b995760405162461bcd60e51b815260206004820152601160248201527f536c69707061676520746f6f20686967680000000000000000000000000000006044820152606401610dfc565b601080549081906000612bab836158c2565b9190505550604051806101a00160405280828152602001336001600160a01b0316815260200189815260200188815260200142815260200160008152602001600015158152602001600015158152602001876001600160a01b03168152602001868152602001856001600160a01b0316815260200160008511612c2f5760c8612c31565b845b815260016020918201819052600084815260118352604090819020845181559284015191830180546001600160a01b0319166001600160a01b03909316929092179091558201516002820190612c879082615929565b50606082015160038201556080820151600482015560a0820151600582015560c082015160068201805460e08501516101008087015161ffff1990931694151561ff001916949094179015159093029290921775ffffffffffffffffffffffffffffffffffffffff00001916620100006001600160a01b039384160217905561012083015160078301556101408301516008830180546001600160a01b03191691909216179055610160820151600982015561018090910151600a909101805460ff1916911515919091179055336000818152601260209081526040808320805460018101825590845291909220018390555182907fb6f430c8722299f241d9c66e77ee068ce71fb3d66d1c0af7d457ef4e50b4e59b90612da9908c90614ee9565b60405180910390a3979650505050505050565b6040805160608082018352600080835260208084018290528385018290528451928301855281835282018190529281018390529091506000548310612e015792915050565b50600082815260046020908152604091829020825160608101845290546001600160a01b0381168252600160a01b810467ffffffffffffffff1692820192909252600160e01b90910460ff161580159282019290925290612e625792915050565b6123d58361453a565b6000818152600f6020526040812080546060929190612e89906157eb565b80601f0160208091040260200160405190810160405280929190818152602001828054612eb5906157eb565b8015612f025780601f10612ed757610100808354040283529160200191612f02565b820191906000526020600020905b815481529060010190602001808311612ee557829003601f168201915b50505050509050600081511115612f195792915050565b6000612f2484614972565b905080612f3085614b09565b604051602001612f41929190615a89565b60405160208183030381529060405292505050919050565b600081815260116020526040902060018101546001600160a01b031633148015612f885750600681015460ff16155b612f9157600080fd5b60068101805460ff1916600117908190556201000090046001600160a01b031615801590612fc3575060008160070154115b156130045760068101546007820154600883015460018401546009850154613002946001600160a01b0362010000909104811694938116921690613c01565b505b61300f33600161435f565b604051339083907f6852407858602d696344801f0181bc507c808c727c914bb6cdfeabd42431af3890600090a35050565b600060606001600160a01b0383166130f3576040805160028082526060820183529091602083019080368337019050509050848160008151811061308657613086615825565b60200260200101906001600160a01b031690816001600160a01b03168152505073fff9976782d46cc05630d1f6ebab18b2324d6b14816001815181106130ce576130ce615825565b60200260200101906001600160a01b031690816001600160a01b031681525050613289565b6001600160a01b03851673fff9976782d46cc05630d1f6ebab18b2324d6b14148061313a57506001600160a01b03831673fff9976782d46cc05630d1f6ebab18b2324d6b14145b613145576003613148565b60025b60ff1667ffffffffffffffff81111561316357613163614d61565b60405190808252806020026020018201604052801561318c578160200160208202803683370190505b50905084816000815181106131a3576131a3615825565b6001600160a01b039283166020918202929092010152851673fff9976782d46cc05630d1f6ebab18b2324d6b1414806131f857506001600160a01b03831673fff9976782d46cc05630d1f6ebab18b2324d6b14145b6132165773fff9976782d46cc05630d1f6ebab18b2324d6b14613218565b825b8160018151811061322b5761322b615825565b60200260200101906001600160a01b031690816001600160a01b031681525050805160030361328957828160028151811061326857613268615825565b60200260200101906001600160a01b031690816001600160a01b0316815250505b60405163d06ca61f60e01b81526001600160a01b037f0000000000000000000000000000000000000000000000000000000000000000169063d06ca61f906132d79087908590600401615afc565b600060405180830381865afa92505050801561331557506040513d6000823e601f3d908101601f191682016040526133129190810190615b15565b60015b6133225760009150611745565b806001825161333191906159e9565b8151811061334157613341615825565b6020026020010151925050509392505050565b60088054613361906157eb565b80601f016020809104026020016040519081016040528092919081815260200182805461338d906157eb565b80156133da5780601f106133af576101008083540402835291602001916133da565b820191906000526020600020905b8154815290600101906020018083116133bd57829003601f168201915b505050505081565b6001600160a01b03811660009081526012602090815260409182902080548351818402810184019094528084526060939283018282801561344257602002820191906000526020600020905b81548152602001906001019080831161342e575b50505050509050919050565b6009546001600160a01b03163314613479576040516316ccb9cb60e11b815260040160405180910390fd5b601680546001600160a01b0319166001600160a01b0392909216919091179055565b6000828152600f6020526040902080546134b4906157eb565b1590506135035760405162461bcd60e51b815260206004820152600f60248201527f55524920616c72656164792073657400000000000000000000000000000000006044820152606401610dfc565b6000828152600f602052604090206110a98282615929565b6000546001600160a01b03841661354457604051622e076360e81b815260040160405180910390fd5b826000036135655760405163b562e8dd60e01b815260040160405180910390fd5b6001600160a01b038416600081815260056020908152604080832080546fffffffffffffffffffffffffffffffff19811667ffffffffffffffff8083168b0181169182176801000000000000000067ffffffffffffffff1990941690921783900481168b01811690920217909155858452600490925290912080546001600160e01b0319168317600160a01b42909316929092029190911790558190818501903b1561368e575b60405182906001600160a01b038816906000907fddf252ad1be2c89b69c2b068fc378daa952ba7f163c4a11628f55a4df523b3ef908290a46136576000878480600101955087614887565b613674576040516368d2bf6b60e11b815260040160405180910390fd5b80821061360c57826000541461368957600080fd5b6136d3565b5b6040516001830192906001600160a01b038816906000907fddf252ad1be2c89b69c2b068fc378daa952ba7f163c4a11628f55a4df523b3ef908290a480821061368f575b506000908155611dab9085838684565b6000805482108015610f01575050600090815260046020526040902054600160e01b900460ff161590565b60008281526006602052604080822080546001600160a01b0319166001600160a01b0387811691821790925591518593918516917f8c5be1e5ebec7d5bd14f71427d1e84f3dd0314c0f7b2291e5b200ac8c7c3b92591a4505050565b600061377e6009546001600160a01b031690565b6001600160a01b0316336001600160a01b031614905090565b600980546001600160a01b038381166001600160a01b0319831681179093556040519116919082907f8292fce18fa69edf4db7b94ea2e58241df0ae57f97e0a6c9b29067028bf92d7690600090a35050565b60006137f48261453a565b9050836001600160a01b031681600001516001600160a01b031614613845576040517fa114810000000000000000000000000000000000000000000000000000000000815260040160405180910390fd5b6000336001600160a01b038616148061386357506138638533610d73565b8061387e57503361387384610f99565b6001600160a01b0316145b90508061389e57604051632ce44b5f60e11b815260040160405180910390fd5b6001600160a01b0384166138de576040517fea553b3400000000000000000000000000000000000000000000000000000000815260040160405180910390fd5b6138ea6000848761370e565b6001600160a01b038581166000908152600560209081526040808320805467ffffffffffffffff1980821667ffffffffffffffff92831660001901831617909255898616808652838620805493841693831660019081018416949094179055898652600490945282852080546001600160e01b031916909417600160a01b429092169190910217835587018084529220805491939091166139c05760005482146139c0578054602086015167ffffffffffffffff16600160a01b026001600160e01b03199091166001600160a01b038a16171781555b50505082846001600160a01b0316866001600160a01b03167fddf252ad1be2c89b69c2b068fc378daa952ba7f163c4a11628f55a4df523b3ef60405160405180910390a45050505050565b6000613a168361453a565b80519091508215613a7c576000336001600160a01b0383161480613a3f5750613a3f8233610d73565b80613a5a575033613a4f86610f99565b6001600160a01b0316145b905080613a7a57604051632ce44b5f60e11b815260040160405180910390fd5b505b613a886000858361370e565b6001600160a01b038082166000818152600560209081526040808320805470010000000000000000000000000000000060001967ffffffffffffffff80841691909101811667ffffffffffffffff19841681178390048216600190810183169093027fffffffffffffffff0000000000000000ffffffffffffffff0000000000000000909416179290921783558b8652600490945282852080547fffffff00ffffffffffffffffffffffffffffffffffffffffffffffffffffffff42909316600160a01b026001600160e01b03199091169097179690961716600160e01b178555918901808452922080549194909116613bb7576000548214613bb7578054602087015167ffffffffffffffff16600160a01b026001600160e01b03199091166001600160a01b038716171781555b5050604051869250600091506001600160a01b038416907fddf252ad1be2c89b69c2b068fc378daa952ba7f163c4a11628f55a4df523b3ef908390a4505060018054810190555050565b6001600160a01b03851660009081526014602052604081205460ff168015613c4e57506001600160a01b038084166000908152601360209081526040808320938a16835292905220548511155b8015613c5c57506101f48211155b613c6557600080fd5b6001600160a01b038084166000908152601360209081526040808320938a1683529290529081208054879290613c9c9084906159e9565b90915550506040517f095ea7b30000000000000000000000000000000000000000000000000000000081526001600160a01b037f0000000000000000000000000000000000000000000000000000000000000000811660048301526024820187905287169063095ea7b3906044016020604051808303816000875af1158015613d29573d6000803e3d6000fd5b505050506040513d601f19601f82011682018060405250810190613d4d9190615892565b5060606001600160a01b038516613f8f5760408051600280825260608201835290916020830190803683370190505090508681600081518110613d9257613d92615825565b60200260200101906001600160a01b031690816001600160a01b03168152505073fff9976782d46cc05630d1f6ebab18b2324d6b1481600181518110613dda57613dda615825565b6001600160a01b03928316602091820292909201015260405163d06ca61f60e01b81526000917f0000000000000000000000000000000000000000000000000000000000000000169063d06ca61f90613e39908a908690600401615afc565b600060405180830381865afa158015613e56573d6000803e3d6000fd5b505050506040513d6000823e601f3d908101601f19168201604052613e7e9190810190615b15565b90506000612710613e8f86826159e9565b83600181518110613ea257613ea2615825565b6020026020010151613eb49190615851565b613ebe919061587e565b905060006001600160a01b037f0000000000000000000000000000000000000000000000000000000000000000166318cbafe58a84878b613f014261012c6158af565b6040518663ffffffff1660e01b8152600401613f21959493929190615b9b565b6000604051808303816000875af1158015613f40573d6000803e3d6000fd5b505050506040513d6000823e601f3d908101601f19168201604052613f689190810190615b15565b905080600181518110613f7d57613f7d615825565b602002602001015194505050506142f5565b6001600160a01b03871673fff9976782d46cc05630d1f6ebab18b2324d6b141480613fd657506001600160a01b03851673fff9976782d46cc05630d1f6ebab18b2324d6b14145b15614068576040805160028082526060820183529091602083019080368337019050509050868160008151811061400f5761400f615825565b60200260200101906001600160a01b031690816001600160a01b031681525050848160018151811061404357614043615825565b60200260200101906001600160a01b031690816001600160a01b03168152505061413a565b604080516003808252608082019092529060208201606080368337019050509050868160008151811061409d5761409d615825565b60200260200101906001600160a01b031690816001600160a01b03168152505073fff9976782d46cc05630d1f6ebab18b2324d6b14816001815181106140e5576140e5615825565b60200260200101906001600160a01b031690816001600160a01b031681525050848160028151811061411957614119615825565b60200260200101906001600160a01b031690816001600160a01b0316815250505b60405163d06ca61f60e01b81526000906001600160a01b037f0000000000000000000000000000000000000000000000000000000000000000169063d06ca61f9061418b908a908690600401615afc565b600060405180830381865afa1580156141a8573d6000803e3d6000fd5b505050506040513d6000823e601f3d908101601f191682016040526141d09190810190615b15565b905060006127106141e186826159e9565b83600185516141f091906159e9565b8151811061420057614200615825565b60200260200101516142129190615851565b61421c919061587e565b905060006001600160a01b037f0000000000000000000000000000000000000000000000000000000000000000166338ed17398a84878b61425f4261012c6158af565b6040518663ffffffff1660e01b815260040161427f959493929190615b9b565b6000604051808303816000875af115801561429e573d6000803e3d6000fd5b505050506040513d6000823e601f3d908101601f191682016040526142c69190810190615b15565b905080600182516142d791906159e9565b815181106142e7576142e7615825565b602002602001015194505050505b846001600160a01b0316876001600160a01b0316856001600160a01b03167f764f0dc063c06f32d89a3f3af80c0db4be8a090901f589a478b447e0a51f09f1898660405161434d929190918252602082015260400190565b60405180910390a45095945050505050565b6000546001600160a01b03831661438857604051622e076360e81b815260040160405180910390fd5b816000036143a95760405163b562e8dd60e01b815260040160405180910390fd5b6001600160a01b038316600081815260056020908152604080832080546fffffffffffffffffffffffffffffffff19811667ffffffffffffffff8083168a0181169182176801000000000000000067ffffffffffffffff1990941690921783900481168a01811690920217909155858452600490925290912080546001600160e01b031916909217600160a01b4290921691909102179055808083015b6040516001830192906001600160a01b038716906000907fddf252ad1be2c89b69c2b068fc378daa952ba7f163c4a11628f55a4df523b3ef908290a48082106144465750600055505050565b6127108111156144c057604051630a4930ad60e31b8152612710600482015260248101829052604401610dfc565b600a80546001600160a01b0384167fffffffffffffffffffff000000000000000000000000000000000000000000009091168117600160a01b61ffff851602179091556040518281527f90d7ec04bcb8978719414f82e52e4cb651db41d0e6f8cea6118c2191e6183adb9060200160405180910390a25050565b60408051606081018252600080825260208201819052918101919091528160005481101561463d57600081815260046020908152604091829020825160608101845290546001600160a01b0381168252600160a01b810467ffffffffffffffff1692820192909252600160e01b90910460ff1615159181018290529061463b5780516001600160a01b0316156145d1579392505050565b5060001901600081815260046020908152604091829020825160608101845290546001600160a01b038116808352600160a01b820467ffffffffffffffff1693830193909352600160e01b900460ff1615159281019290925215614636579392505050565b6145d1565b505b6040517fdf2d9b4200000000000000000000000000000000000000000000000000000000815260040160405180910390fd5b60008061467c84866158af565b600c8054600181019091557fdf6966c971051c3d54ec59162606531493a51404a002842f56009d7e5cf4a8c7018190556000818152600d602052604090209092508291506146ca8482615929565b50935093915050565b6000600880546146e2906157eb565b80601f016020809104026020016040519081016040528092919081815260200182805461470e906157eb565b801561475b5780601f106147305761010080835404028352916020019161475b565b820191906000526020600020905b81548152906001019060200180831161473e57829003601f168201915b5050505050905081600890816147719190615929565b507fc9c7c3fe08b88b4df9d4d47ef47d2c43d55c025a0ba88ca442580ed9e7348a1681836040516147a3929190615bd7565b60405180910390a15050565b6127108111156147dd57604051630a4930ad60e31b8152612710600482015260248101829052604401610dfc565b6040805180820182526001600160a01b0384811680835260208084018681526000898152600b8352869020945185546001600160a01b031916941693909317845591516001909301929092559151838152909185917f7365cf4122f072a3365c20d54eff9b38d73c096c28e1892ec8f5b0e403a0f12d910160405180910390a3505050565b60606123d58383604051806060016040528060278152602001615c8560279139614c3e565b604051630a85bd0160e11b81526000906001600160a01b0385169063150b7a02906148bc903390899088908890600401615c05565b6020604051808303816000875af19250505080156148f7575060408051601f3d908101601f191682019092526148f491810190615c37565b60015b614955573d808015614925576040519150601f19603f3d011682016040523d82523d6000602084013e61492a565b606091505b50805160000361494d576040516368d2bf6b60e11b815260040160405180910390fd5b805181602001fd5b6001600160e01b031916630a85bd0160e11b149050949350505050565b6060600061497f600c5490565b90506000600c8054806020026020016040519081016040528092919081815260200182805480156149cf57602002820191906000526020600020905b8154815260200190600101908083116149bb575b5050505050905060005b82811015614ad3578181815181106149f3576149f3615825565b6020026020010151851015614ac157600d6000838381518110614a1857614a18615825565b602002602001015181526020019081526020016000208054614a39906157eb565b80601f0160208091040260200160405190810160405280929190818152602001828054614a65906157eb565b8015614ab25780601f10614a8757610100808354040283529160200191614ab2565b820191906000526020600020905b815481529060010190602001808311614a9557829003601f168201915b50505050509350505050919050565b614acc6001826158af565b90506149d9565b506040517f25e5fda400000000000000000000000000000000000000000000000000000000815260048101859052602401610dfc565b606081600003614b4c57505060408051808201909152600181527f3000000000000000000000000000000000000000000000000000000000000000602082015290565b8160005b8115614b765780614b60816158c2565b9150614b6f9050600a8361587e565b9150614b50565b60008167ffffffffffffffff811115614b9157614b91614d61565b6040519080825280601f01601f191660200182016040528015614bbb576020820181803683370190505b5090505b841561136e57614bd06001836159e9565b9150614bdd600a86615c54565b614be89060306158af565b60f81b818381518110614bfd57614bfd615825565b60200101907effffffffffffffffffffffffffffffffffffffffffffffffffffffffffffff1916908160001a905350614c37600a8661587e565b9450614bbf565b6060600080856001600160a01b031685604051614c5b9190615c68565b600060405180830381855af49150503d8060008114614c96576040519150601f19603f3d011682016040523d82523d6000602084013e614c9b565b606091505b5091509150611abb8683838760608315614d16578251600003614d0f576001600160a01b0385163b614d0f5760405162461bcd60e51b815260206004820152601d60248201527f416464726573733a2063616c6c20746f206e6f6e2d636f6e74726163740000006044820152606401610dfc565b508161136e565b61136e8383815115614d2b5781518083602001fd5b8060405162461bcd60e51b8152600401610dfc9190614ee9565b80356001600160a01b0381168114614d5c57600080fd5b919050565b634e487b7160e01b600052604160045260246000fd5b604051601f8201601f1916810167ffffffffffffffff81118282101715614da057614da0614d61565b604052919050565b600082601f830112614db957600080fd5b813567ffffffffffffffff811115614dd357614dd3614d61565b614de6601f8201601f1916602001614d77565b818152846020838601011115614dfb57600080fd5b816020850160208301376000918101602001919091529392505050565b60008060408385031215614e2b57600080fd5b614e3483614d45565b9150602083013567ffffffffffffffff811115614e5057600080fd5b614e5c85828601614da8565b9150509250929050565b6001600160e01b0319811681146110dc57600080fd5b600060208284031215614e8e57600080fd5b81356123d581614e66565b60005b83811015614eb4578181015183820152602001614e9c565b50506000910152565b60008151808452614ed5816020860160208601614e99565b601f01601f19169290920160200192915050565b6020815260006123d56020830184614ebd565b600060208284031215614f0e57600080fd5b5035919050565b60008060408385031215614f2857600080fd5b614f3183614d45565b946020939093013593505050565b600060208284031215614f5157600080fd5b6123d582614d45565b600080600060608486031215614f6f57600080fd5b614f7884614d45565b9250614f8660208501614d45565b9150604084013590509250925092565b60008060408385031215614fa957600080fd5b50508035926020909101359150565b60008060208385031215614fcb57600080fd5b823567ffffffffffffffff80821115614fe357600080fd5b818501915085601f830112614ff757600080fd5b81358181111561500657600080fd5b86602082850101111561501857600080fd5b60209290920196919550909350505050565b60006101a08f83526001600160a01b038f1660208401528060408401526150538184018f614ebd565b9150508b60608301528a60808301528960a083015288151560c083015287151560e083015261508e6101008301886001600160a01b03169052565b856101208301526150ab6101408301866001600160a01b03169052565b836101608301526150c161018083018415159052565b9e9d5050505050505050505050505050565b600067ffffffffffffffff8211156150ed576150ed614d61565b5060051b60200190565b6000602080838503121561510a57600080fd5b823567ffffffffffffffff81111561512157600080fd5b8301601f8101851361513257600080fd5b8035615145615140826150d3565b614d77565b81815260059190911b8201830190838101908783111561516457600080fd5b928401925b8284101561518257833582529284019290840190615169565b979650505050505050565b6020808252825182820181905260009190848201906040850190845b81811015611f94576151e583855180516001600160a01b0316825260208082015167ffffffffffffffff16908301526040908101511515910152565b92840192606092909201916001016151a9565b600080600080600080600060e0888a03121561521357600080fd5b873567ffffffffffffffff81111561522a57600080fd5b6152368a828b01614da8565b975050602088013595506040880135945061525360608901614d45565b93506080880135925061526860a08901614d45565b915060c0880135905092959891949750929550565b6000806040838503121561529057600080fd5b61529983614d45565b91506152a760208401614d45565b90509250929050565b600080600080600060a086880312156152c857600080fd5b6152d186614d45565b9450602086013593506152e660408701614d45565b92506152f460608701614d45565b949793965091946080013592915050565b821515815260406020820152600061136e6040830184614ebd565b6000806000806080858703121561533657600080fd5b61533f85614d45565b935060208501359250604085013567ffffffffffffffff8082111561536357600080fd5b61536f88838901614da8565b9350606087013591508082111561538557600080fd5b5061539287828801614da8565b91505092959194509250565b6020808252825182820181905260009190848201906040850190845b81811015611f94578351835292840192918401916001016153ba565b6020815281516020820152600060208301516153fd60408401826001600160a01b03169052565b5060408301516101a080606085015261541a6101c0850183614ebd565b915060608501516080850152608085015160a085015260a085015160c085015260c085015161544d60e086018215159052565b5060e08501516101006154638187018315159052565b860151905061012061547f868201836001600160a01b03169052565b8601516101408681019190915286015190506101606154a8818701836001600160a01b03169052565b8601516101808681019190915290950151151593019290925250919050565b6000602082840312156154d957600080fd5b813567ffffffffffffffff8111156154f057600080fd5b61136e84828501614da8565b60008060006060848603121561551157600080fd5b61551a84614d45565b95602085013595506040909401359392505050565b60008060006060848603121561554457600080fd5b83359250614f8660208501614d45565b80151581146110dc57600080fd5b6000806040838503121561557557600080fd5b61557e83614d45565b9150602083013561558e81615554565b809150509250929050565b600080604083850312156155ac57600080fd5b823567ffffffffffffffff8111156155c357600080fd5b6155cf85828601614da8565b95602094909401359450505050565b600080602083850312156155f157600080fd5b823567ffffffffffffffff8082111561560957600080fd5b818501915085601f83011261561d57600080fd5b81358181111561562c57600080fd5b8660208260051b850101111561501857600080fd5b6000602080830181845280855180835260408601915060408160051b870101925083870160005b8281101561569657603f19888603018452615684858351614ebd565b94509285019290850190600101615668565b5092979650505050505050565b600080600080608085870312156156b957600080fd5b6156c285614d45565b93506156d060208601614d45565b925060408501359150606085013567ffffffffffffffff8111156156f357600080fd5b61539287828801614da8565b60008060008060008060c0878903121561571857600080fd5b863567ffffffffffffffff81111561572f57600080fd5b61573b89828a01614da8565b9650506020870135945061575160408801614d45565b93506060870135925061576660808801614d45565b915060a087013590509295509295509295565b81516001600160a01b0316815260208083015167ffffffffffffffff169082015260408083015115159082015260608101610f01565b6000806000606084860312156157c457600080fd5b6157cd84614d45565b9250602084013591506157e260408501614d45565b90509250925092565b600181811c908216806157ff57607f821691505b60208210810361581f57634e487b7160e01b600052602260045260246000fd5b50919050565b634e487b7160e01b600052603260045260246000fd5b634e487b7160e01b600052601160045260246000fd5b8082028115828204841417610f0157610f0161583b565b634e487b7160e01b600052601260045260246000fd5b60008261588d5761588d615868565b500490565b6000602082840312156158a457600080fd5b81516123d581615554565b80820180821115610f0157610f0161583b565b6000600182016158d4576158d461583b565b5060010190565b601f8211156110a957600081815260208120601f850160051c810160208610156159025750805b601f850160051c820191505b818110156159215782815560010161590e565b505050505050565b815167ffffffffffffffff81111561594357615943614d61565b6159578161595184546157eb565b846158db565b602080601f83116001811461598c57600084156159745750858301515b600019600386901b1c1916600185901b178555615921565b600085815260208120601f198616915b828110156159bb5788860151825594840194600190910190840161599c565b50858210156159d95787850151600019600388901b60f8161c191681555b5050505050600190811b01905550565b81810381811115610f0157610f0161583b565b600060208284031215615a0e57600080fd5b5051919050565b6000808335601e19843603018112615a2c57600080fd5b83018035915067ffffffffffffffff821115615a4757600080fd5b602001915036819003821315615a5c57600080fd5b9250929050565b8284823760609190911b6bffffffffffffffffffffffff19169101908152601401919050565b60008351615a9b818460208801614e99565b835190830190615aaf818360208801614e99565b01949350505050565b600081518084526020808501945080840160005b83811015615af15781516001600160a01b031687529582019590820190600101615acc565b509495945050505050565b82815260406020820152600061136e6040830184615ab8565b60006020808385031215615b2857600080fd5b825167ffffffffffffffff811115615b3f57600080fd5b8301601f81018513615b5057600080fd5b8051615b5e615140826150d3565b81815260059190911b82018301908381019087831115615b7d57600080fd5b928401925b8284101561518257835182529284019290840190615b82565b85815284602082015260a060408201526000615bba60a0830186615ab8565b6001600160a01b0394909416606083015250608001529392505050565b604081526000615bea6040830185614ebd565b8281036020840152615bfc8185614ebd565b95945050505050565b60006001600160a01b03808716835280861660208401525083604083015260806060830152611abb6080830184614ebd565b600060208284031215615c4957600080fd5b81516123d581614e66565b600082615c6357615c63615868565b500690565b60008251615c7a818460208701614e99565b919091019291505056fe416464726573733a206c6f772d6c6576656c2064656c65676174652063616c6c206661696c6564a264697066735822122048ed6735b823799a40a4ebc0cbb8bef69f94d120c428054c2106fcbe441ba86a64736f6c63430008150033",
  "linkReferences": {},
  "deployedLinkReferences": {}
}