{
  "_format": "hh-sol-artifact-1",
  "contractName": "WalletPlanner",
  "sourceName": "contracts/WalletPlanner.sol",
  "abi": [
    {
      "inputs": [
        {
          "internalType": "address",
          "name": "_defaultAdmin",
          "type": "address"
        },
        {
          "internalType": "string",
          "name": "_name",
          "type": "string"
        },
        {
          "internalType": "string",
          "name": "_symbol",
          "type": "string"
        },
        {
          "internalType": "address",
          "name": "_royaltyRecipient",
          "type": "address"
        },
        {
          "internalType": "uint128",
          "name": "_royaltyBps",
          "type": "uint128"
        }
      ],
      "stateMutability": "nonpayable",
      "type": "constructor"
    },
    {
      "inputs": [],
      "name": "ApprovalCallerNotOwnerNorApproved",
      "type": "error"
    },
    {
      "inputs": [],
      "name": "ApprovalQueryForNonexistentToken",
      "type": "error"
    },
    {
      "inputs": [],
      "name": "ApprovalToCurrentOwner",
      "type": "error"
    },
    {
      "inputs": [],
      "name": "ApproveToCaller",
      "type": "error"
    },
    {
      "inputs": [],
      "name": "BalanceQueryForZeroAddress",
      "type": "error"
    },
    {
      "inputs": [
        {
          "internalType": "uint256",
          "name": "index",
          "type": "uint256"
        }
      ],
      "name": "BatchMintInvalidBatchId",
      "type": "error"
    },
    {
      "inputs": [
        {
          "internalType": "uint256",
          "name": "tokenId",
          "type": "uint256"
        }
      ],
      "name": "BatchMintInvalidTokenId",
      "type": "error"
    },
    {
      "inputs": [
        {
          "internalType": "uint256",
          "name": "batchId",
          "type": "uint256"
        }
      ],
      "name": "BatchMintMetadataFrozen",
      "type": "error"
    },
    {
      "inputs": [],
      "name": "ContractMetadataUnauthorized",
      "type": "error"
    },
    {
      "inputs": [],
      "name": "InvalidQueryRange",
      "type": "error"
    },
    {
      "inputs": [],
      "name": "MintToZeroAddress",
      "type": "error"
    },
    {
      "inputs": [],
      "name": "MintZeroQuantity",
      "type": "error"
    },
    {
      "inputs": [],
      "name": "OwnableUnauthorized",
      "type": "error"
    },
    {
      "inputs": [],
      "name": "OwnerQueryForNonexistentToken",
      "type": "error"
    },
    {
      "inputs": [
        {
          "internalType": "uint256",
          "name": "max",
          "type": "uint256"
        },
        {
          "internalType": "uint256",
          "name": "actual",
          "type": "uint256"
        }
      ],
      "name": "RoyaltyExceededMaxFeeBps",
      "type": "error"
    },
    {
      "inputs": [
        {
          "internalType": "address",
          "name": "recipient",
          "type": "address"
        }
      ],
      "name": "RoyaltyInvalidRecipient",
      "type": "error"
    },
    {
      "inputs": [],
      "name": "RoyaltyUnauthorized",
      "type": "error"
    },
    {
      "inputs": [],
      "name": "TransferCallerNotOwnerNorApproved",
      "type": "error"
    },
    {
      "inputs": [],
      "name": "TransferFromIncorrectOwner",
      "type": "error"
    },
    {
      "inputs": [],
      "name": "TransferToNonERC721ReceiverImplementer",
      "type": "error"
    },
    {
      "inputs": [],
      "name": "TransferToZeroAddress",
      "type": "error"
    },
    {
      "inputs": [],
      "name": "URIQueryForNonexistentToken",
      "type": "error"
    },
    {
      "anonymous": false,
      "inputs": [
        {
          "indexed": true,
          "internalType": "address",
          "name": "owner",
          "type": "address"
        },
        {
          "indexed": true,
          "internalType": "address",
          "name": "approved",
          "type": "address"
        },
        {
          "indexed": true,
          "internalType": "uint256",
          "name": "tokenId",
          "type": "uint256"
        }
      ],
      "name": "Approval",
      "type": "event"
    },
    {
      "anonymous": false,
      "inputs": [
        {
          "indexed": true,
          "internalType": "address",
          "name": "owner",
          "type": "address"
        },
        {
          "indexed": true,
          "internalType": "address",
          "name": "operator",
          "type": "address"
        },
        {
          "indexed": false,
          "internalType": "bool",
          "name": "approved",
          "type": "bool"
        }
      ],
      "name": "ApprovalForAll",
      "type": "event"
    },
    {
      "anonymous": false,
      "inputs": [
        {
          "indexed": false,
          "internalType": "uint256",
          "name": "_fromTokenId",
          "type": "uint256"
        },
        {
          "indexed": false,
          "internalType": "uint256",
          "name": "_toTokenId",
          "type": "uint256"
        }
      ],
      "name": "BatchMetadataUpdate",
      "type": "event"
    },
    {
      "anonymous": false,
      "inputs": [
        {
          "indexed": false,
          "internalType": "string",
          "name": "prevURI",
          "type": "string"
        },
        {
          "indexed": false,
          "internalType": "string",
          "name": "newURI",
          "type": "string"
        }
      ],
      "name": "ContractURIUpdated",
      "type": "event"
    },
    {
      "anonymous": false,
      "inputs": [
        {
          "indexed": true,
          "internalType": "address",
          "name": "newRoyaltyRecipient",
          "type": "address"
        },
        {
          "indexed": false,
          "internalType": "uint256",
          "name": "newRoyaltyBps",
          "type": "uint256"
        }
      ],
      "name": "DefaultRoyalty",
      "type": "event"
    },
    {
      "anonymous": false,
      "inputs": [
        {
          "indexed": true,
          "internalType": "uint256",
          "name": "intentId",
          "type": "uint256"
        },
        {
          "indexed": true,
          "internalType": "address",
          "name": "user",
          "type": "address"
        },
        {
          "indexed": false,
          "internalType": "string",
          "name": "description",
          "type": "string"
        }
      ],
      "name": "IntentCreated",
      "type": "event"
    },
    {
      "anonymous": false,
      "inputs": [
        {
          "indexed": true,
          "internalType": "uint256",
          "name": "intentId",
          "type": "uint256"
        },
        {
          "indexed": true,
          "internalType": "address",
          "name": "user",
          "type": "address"
        }
      ],
      "name": "IntentExecuted",
      "type": "event"
    },
    {
      "anonymous": false,
      "inputs": [],
      "name": "MetadataFrozen",
      "type": "event"
    },
    {
      "anonymous": false,
      "inputs": [
        {
          "indexed": true,
          "internalType": "address",
          "name": "prevOwner",
          "type": "address"
        },
        {
          "indexed": true,
          "internalType": "address",
          "name": "newOwner",
          "type": "address"
        }
      ],
      "name": "OwnerUpdated",
      "type": "event"
    },
    {
      "anonymous": false,
      "inputs": [
        {
          "indexed": true,
          "internalType": "uint256",
          "name": "tokenId",
          "type": "uint256"
        },
        {
          "indexed": true,
          "internalType": "address",
          "name": "royaltyRecipient",
          "type": "address"
        },
        {
          "indexed": false,
          "internalType": "uint256",
          "name": "royaltyBps",
          "type": "uint256"
        }
      ],
      "name": "RoyaltyForToken",
      "type": "event"
    },
    {
      "anonymous": false,
      "inputs": [
        {
          "indexed": true,
          "internalType": "address",
          "name": "from",
          "type": "address"
        },
        {
          "indexed": true,
          "internalType": "address",
          "name": "to",
          "type": "address"
        },
        {
          "indexed": true,
          "internalType": "uint256",
          "name": "tokenId",
          "type": "uint256"
        }
      ],
      "name": "Transfer",
      "type": "event"
    },
    {
      "inputs": [
        {
          "internalType": "address",
          "name": "to",
          "type": "address"
        },
        {
          "internalType": "uint256",
          "name": "tokenId",
          "type": "uint256"
        }
      ],
      "name": "approve",
      "outputs": [],
      "stateMutability": "nonpayable",
      "type": "function"
    },
    {
      "inputs": [
        {
          "internalType": "address",
          "name": "owner",
          "type": "address"
        }
      ],
      "name": "balanceOf",
      "outputs": [
        {
          "internalType": "uint256",
          "name": "",
          "type": "uint256"
        }
      ],
      "stateMutability": "view",
      "type": "function"
    },
    {
      "inputs": [
        {
          "internalType": "uint256",
          "name": "",
          "type": "uint256"
        }
      ],
      "name": "batchFrozen",
      "outputs": [
        {
          "internalType": "bool",
          "name": "",
          "type": "bool"
        }
      ],
      "stateMutability": "view",
      "type": "function"
    },
    {
      "inputs": [
        {
          "internalType": "address",
          "name": "_to",
          "type": "address"
        },
        {
          "internalType": "uint256",
          "name": "_quantity",
          "type": "uint256"
        },
        {
          "internalType": "string",
          "name": "_baseURI",
          "type": "string"
        },
        {
          "internalType": "bytes",
          "name": "_data",
          "type": "bytes"
        }
      ],
      "name": "batchMintTo",
      "outputs": [],
      "stateMutability": "nonpayable",
      "type": "function"
    },
    {
      "inputs": [
        {
          "internalType": "uint256",
          "name": "_tokenId",
          "type": "uint256"
        }
      ],
      "name": "burn",
      "outputs": [],
      "stateMutability": "nonpayable",
      "type": "function"
    },
    {
      "inputs": [],
      "name": "contractURI",
      "outputs": [
        {
          "internalType": "string",
          "name": "",
          "type": "string"
        }
      ],
      "stateMutability": "view",
      "type": "function"
    },
    {
      "inputs": [
        {
          "internalType": "string",
          "name": "_description",
          "type": "string"
        },
        {
          "internalType": "uint256",
          "name": "_estimatedCost",
          "type": "uint256"
        }
      ],
      "name": "createIntent",
      "outputs": [
        {
          "internalType": "uint256",
          "name": "",
          "type": "uint256"
        }
      ],
      "stateMutability": "nonpayable",
      "type": "function"
    },
    {
      "inputs": [
        {
          "internalType": "uint256",
          "name": "_intentId",
          "type": "uint256"
        }
      ],
      "name": "executeIntent",
      "outputs": [],
      "stateMutability": "nonpayable",
      "type": "function"
    },
    {
      "inputs": [
        {
          "internalType": "uint256",
          "name": "tokenId",
          "type": "uint256"
        }
      ],
      "name": "explicitOwnershipOf",
      "outputs": [
        {
          "components": [
            {
              "internalType": "address",
              "name": "addr",
              "type": "address"
            },
            {
              "internalType": "uint64",
              "name": "startTimestamp",
              "type": "uint64"
            },
            {
              "internalType": "bool",
              "name": "burned",
              "type": "bool"
            }
          ],
          "internalType": "struct IERC721A.TokenOwnership",
          "name": "",
          "type": "tuple"
        }
      ],
      "stateMutability": "view",
      "type": "function"
    },
    {
      "inputs": [
        {
          "internalType": "uint256[]",
          "name": "tokenIds",
          "type": "uint256[]"
        }
      ],
      "name": "explicitOwnershipsOf",
      "outputs": [
        {
          "components": [
            {
              "internalType": "address",
              "name": "addr",
              "type": "address"
            },
            {
              "internalType": "uint64",
              "name": "startTimestamp",
              "type": "uint64"
            },
            {
              "internalType": "bool",
              "name": "burned",
              "type": "bool"
            }
          ],
          "internalType": "struct IERC721A.TokenOwnership[]",
          "name": "",
          "type": "tuple[]"
        }
      ],
      "stateMutability": "view",
      "type": "function"
    },
    {
      "inputs": [
        {
          "internalType": "uint256",
          "name": "tokenId",
          "type": "uint256"
        }
      ],
      "name": "getApproved",
      "outputs": [
        {
          "internalType": "address",
          "name": "",
          "type": "address"
        }
      ],
      "stateMutability": "view",
      "type": "function"
    },
    {
      "inputs": [],
      "name": "getBaseURICount",
      "outputs": [
        {
          "internalType": "uint256",
          "name": "",
          "type": "uint256"
        }
      ],
      "stateMutability": "view",
      "type": "function"
    },
    {
      "inputs": [
        {
          "internalType": "uint256",
          "name": "_index",
          "type": "uint256"
        }
      ],
      "name": "getBatchIdAtIndex",
      "outputs": [
        {
          "internalType": "uint256",
          "name": "",
          "type": "uint256"
        }
      ],
      "stateMutability": "view",
      "type": "function"
    },
    {
      "inputs": [],
      "name": "getDefaultRoyaltyInfo",
      "outputs": [
        {
          "internalType": "address",
          "name": "",
          "type": "address"
        },
        {
          "internalType": "uint16",
          "name": "",
          "type": "uint16"
        }
      ],
      "stateMutability": "view",
      "type": "function"
    },
    {
      "inputs": [
        {
          "internalType": "uint256",
          "name": "_intentId",
          "type": "uint256"
        }
      ],
      "name": "getIntent",
      "outputs": [
        {
          "components": [
            {
              "internalType": "uint256",
              "name": "id",
              "type": "uint256"
            },
            {
              "internalType": "address",
              "name": "user",
              "type": "address"
            },
            {
              "internalType": "string",
              "name": "description",
              "type": "string"
            },
            {
              "internalType": "uint256",
              "name": "estimatedCost",
              "type": "uint256"
            },
            {
              "internalType": "bool",
              "name": "executed",
              "type": "bool"
            },
            {
              "internalType": "uint256",
              "name": "timestamp",
              "type": "uint256"
            }
          ],
          "internalType": "struct WalletPlanner.Intent",
          "name": "",
          "type": "tuple"
        }
      ],
      "stateMutability": "view",
      "type": "function"
    },
    {
      "inputs": [
        {
          "internalType": "uint256",
          "name": "_tokenId",
          "type": "uint256"
        }
      ],
      "name": "getRoyaltyInfoForToken",
      "outputs": [
        {
          "internalType": "address",
          "name": "",
          "type": "address"
        },
        {
          "internalType": "uint16",
          "name": "",
          "type": "uint16"
        }
      ],
      "stateMutability": "view",
      "type": "function"
    },
    {
      "inputs": [
        {
          "internalType": "address",
          "name": "_user",
          "type": "address"
        }
      ],
      "name": "getUserIntents",
      "outputs": [
        {
          "internalType": "uint256[]",
          "name": "",
          "type": "uint256[]"
        }
      ],
      "stateMutability": "view",
      "type": "function"
    },
    {
      "inputs": [
        {
          "internalType": "uint256",
          "name": "",
          "type": "uint256"
        }
      ],
      "name": "intents",
      "outputs": [
        {
          "internalType": "uint256",
          "name": "id",
          "type": "uint256"
        },
        {
          "internalType": "address",
          "name": "user",
          "type": "address"
        },
        {
          "internalType": "string",
          "name": "description",
          "type": "string"
        },
        {
          "internalType": "uint256",
          "name": "estimatedCost",
          "type": "uint256"
        },
        {
          "internalType": "bool",
          "name": "executed",
          "type": "bool"
        },
        {
          "internalType": "uint256",
          "name": "timestamp",
          "type": "uint256"
        }
      ],
      "stateMutability": "view",
      "type": "function"
    },
    {
      "inputs": [
        {
          "internalType": "address",
          "name": "owner",
          "type": "address"
        },
        {
          "internalType": "address",
          "name": "operator",
          "type": "address"
        }
      ],
      "name": "isApprovedForAll",
      "outputs": [
        {
          "internalType": "bool",
          "name": "",
          "type": "bool"
        }
      ],
      "stateMutability": "view",
      "type": "function"
    },
    {
      "inputs": [
        {
          "internalType": "address",
          "name": "_operator",
          "type": "address"
        },
        {
          "internalType": "uint256",
          "name": "_tokenId",
          "type": "uint256"
        }
      ],
      "name": "isApprovedOrOwner",
      "outputs": [
        {
          "internalType": "bool",
          "name": "isApprovedOrOwnerOf",
          "type": "bool"
        }
      ],
      "stateMutability": "view",
      "type": "function"
    },
    {
      "inputs": [
        {
          "internalType": "address",
          "name": "_to",
          "type": "address"
        },
        {
          "internalType": "string",
          "name": "_tokenURI",
          "type": "string"
        }
      ],
      "name": "mintTo",
      "outputs": [],
      "stateMutability": "nonpayable",
      "type": "function"
    },
    {
      "inputs": [
        {
          "internalType": "bytes[]",
          "name": "data",
          "type": "bytes[]"
        }
      ],
      "name": "multicall",
      "outputs": [
        {
          "internalType": "bytes[]",
          "name": "results",
          "type": "bytes[]"
        }
      ],
      "stateMutability": "nonpayable",
      "type": "function"
    },
    {
      "inputs": [],
      "name": "name",
      "outputs": [
        {
          "internalType": "string",
          "name": "",
          "type": "string"
        }
      ],
      "stateMutability": "view",
      "type": "function"
    },
    {
      "inputs": [],
      "name": "nextTokenIdToMint",
      "outputs": [
        {
          "internalType": "uint256",
          "name": "",
          "type": "uint256"
        }
      ],
      "stateMutability": "view",
      "type": "function"
    },
    {
      "inputs": [],
      "name": "owner",
      "outputs": [
        {
          "internalType": "address",
          "name": "",
          "type": "address"
        }
      ],
      "stateMutability": "view",
      "type": "function"
    },
    {
      "inputs": [
        {
          "internalType": "uint256",
          "name": "tokenId",
          "type": "uint256"
        }
      ],
      "name": "ownerOf",
      "outputs": [
        {
          "internalType": "address",
          "name": "",
          "type": "address"
        }
      ],
      "stateMutability": "view",
      "type": "function"
    },
    {
      "inputs": [
        {
          "internalType": "uint256",
          "name": "tokenId",
          "type": "uint256"
        },
        {
          "internalType": "uint256",
          "name": "salePrice",
          "type": "uint256"
        }
      ],
      "name": "royaltyInfo",
      "outputs": [
        {
          "internalType": "address",
          "name": "receiver",
          "type": "address"
        },
        {
          "internalType": "uint256",
          "name": "royaltyAmount",
          "type": "uint256"
        }
      ],
      "stateMutability": "view",
      "type": "function"
    },
    {
      "inputs": [
        {
          "internalType": "address",
          "name": "from",
          "type": "address"
        },
        {
          "internalType": "address",
          "name": "to",
          "type": "address"
        },
        {
          "internalType": "uint256",
          "name": "tokenId",
          "type": "uint256"
        }
      ],
      "name": "safeTransferFrom",
      "outputs": [],
      "stateMutability": "nonpayable",
      "type": "function"
    },
    {
      "inputs": [
        {
          "internalType": "address",
          "name": "from",
          "type": "address"
        },
        {
          "internalType": "address",
          "name": "to",
          "type": "address"
        },
        {
          "internalType": "uint256",
          "name": "tokenId",
          "type": "uint256"
        },
        {
          "internalType": "bytes",
          "name": "_data",
          "type": "bytes"
        }
      ],
      "name": "safeTransferFrom",
      "outputs": [],
      "stateMutability": "nonpayable",
      "type": "function"
    },
    {
      "inputs": [
        {
          "internalType": "address",
          "name": "operator",
          "type": "address"
        },
        {
          "internalType": "bool",
          "name": "approved",
          "type": "bool"
        }
      ],
      "name": "setApprovalForAll",
      "outputs": [],
      "stateMutability": "nonpayable",
      "type": "function"
    },
    {
      "inputs": [
        {
          "internalType": "string",
          "name": "_uri",
          "type": "string"
        }
      ],
      "name": "setContractURI",
      "outputs": [],
      "stateMutability": "nonpayable",
      "type": "function"
    },
    {
      "inputs": [
        {
          "internalType": "address",
          "name": "_royaltyRecipient",
          "type": "address"
        },
        {
          "internalType": "uint256",
          "name": "_royaltyBps",
          "type": "uint256"
        }
      ],
      "name": "setDefaultRoyaltyInfo",
      "outputs": [],
      "stateMutability": "nonpayable",
      "type": "function"
    },
    {
      "inputs": [
        {
          "internalType": "address",
          "name": "_newOwner",
          "type": "address"
        }
      ],
      "name": "setOwner",
      "outputs": [],
      "stateMutability": "nonpayable",
      "type": "function"
    },
    {
      "inputs": [
        {
          "internalType": "uint256",
          "name": "_tokenId",
          "type": "uint256"
        },
        {
          "internalType": "address",
          "name": "_recipient",
          "type": "address"
        },
        {
          "internalType": "uint256",
          "name": "_bps",
          "type": "uint256"
        }
      ],
      "name": "setRoyaltyInfoForToken",
      "outputs": [],
      "stateMutability": "nonpayable",
      "type": "function"
    },
    {
      "inputs": [
        {
          "internalType": "bytes4",
          "name": "interfaceId",
          "type": "bytes4"
        }
      ],
      "name": "supportsInterface",
      "outputs": [
        {
          "internalType": "bool",
          "name": "",
          "type": "bool"
        }
      ],
      "stateMutability": "view",
      "type": "function"
    },
    {
      "inputs": [],
      "name": "symbol",
      "outputs": [
        {
          "internalType": "string",
          "name": "",
          "type": "string"
        }
      ],
      "stateMutability": "view",
      "type": "function"
    },
    {
      "inputs": [
        {
          "internalType": "uint256",
          "name": "_tokenId",
          "type": "uint256"
        }
      ],
      "name": "tokenURI",
      "outputs": [
        {
          "internalType": "string",
          "name": "",
          "type": "string"
        }
      ],
      "stateMutability": "view",
      "type": "function"
    },
    {
      "inputs": [
        {
          "internalType": "address",
          "name": "owner",
          "type": "address"
        }
      ],
      "name": "tokensOfOwner",
      "outputs": [
        {
          "internalType": "uint256[]",
          "name": "",
          "type": "uint256[]"
        }
      ],
      "stateMutability": "view",
      "type": "function"
    },
    {
      "inputs": [
        {
          "internalType": "address",
          "name": "owner",
          "type": "address"
        },
        {
          "internalType": "uint256",
          "name": "start",
          "type": "uint256"
        },
        {
          "internalType": "uint256",
          "name": "stop",
          "type": "uint256"
        }
      ],
      "name": "tokensOfOwnerIn",
      "outputs": [
        {
          "internalType": "uint256[]",
          "name": "",
          "type": "uint256[]"
        }
      ],
      "stateMutability": "view",
      "type": "function"
    },
    {
      "inputs": [],
      "name": "totalSupply",
      "outputs": [
        {
          "internalType": "uint256",
          "name": "",
          "type": "uint256"
        }
      ],
      "stateMutability": "view",
      "type": "function"
    },
    {
      "inputs": [
        {
          "internalType": "address",
          "name": "from",
          "type": "address"
        },
        {
          "internalType": "address",
          "name": "to",
          "type": "address"
        },
        {
          "internalType": "uint256",
          "name": "tokenId",
          "type": "uint256"
        }
      ],
      "name": "transferFrom",
      "outputs": [],
      "stateMutability": "nonpayable",
      "type": "function"
    },
    {
      "inputs": [
        {
          "internalType": "address",
          "name": "",
          "type": "address"
        },
        {
          "internalType": "uint256",
          "name": "",
          "type": "uint256"
        }
      ],
      "name": "userIntents",
      "outputs": [
        {
          "internalType": "uint256",
          "name": "",
          "type": "uint256"
        }
      ],
      "stateMutability": "view",
      "type": "function"
    }
  ],
  "bytecode": "0x60806040523480156200001157600080fd5b5060405162006825380380620068258339818101604052810190620000379190620004cf565b8484848484838381600290816200004f9190620007e0565b508060039081620000619190620007e0565b5062000072620000bf60201b60201c565b60008190555050506200008b85620000c460201b60201c565b620000af82826fffffffffffffffffffffffffffffffff166200018a60201b60201c565b5050505050505050505062000965565b600090565b6000600960009054906101000a900473ffffffffffffffffffffffffffffffffffffffff16905081600960006101000a81548173ffffffffffffffffffffffffffffffffffffffff021916908373ffffffffffffffffffffffffffffffffffffffff1602179055508173ffffffffffffffffffffffffffffffffffffffff168173ffffffffffffffffffffffffffffffffffffffff167f8292fce18fa69edf4db7b94ea2e58241df0ae57f97e0a6c9b29067028bf92d7660405160405180910390a35050565b612710811115620001d857612710816040517f52498568000000000000000000000000000000000000000000000000000000008152600401620001cf9291906200091b565b60405180910390fd5b81600a60006101000a81548173ffffffffffffffffffffffffffffffffffffffff021916908373ffffffffffffffffffffffffffffffffffffffff16021790555080600a60146101000a81548161ffff021916908361ffff1602179055508173ffffffffffffffffffffffffffffffffffffffff167f90d7ec04bcb8978719414f82e52e4cb651db41d0e6f8cea6118c2191e6183adb826040516200027e919062000948565b60405180910390a25050565b6000604051905090565b600080fd5b600080fd5b600073ffffffffffffffffffffffffffffffffffffffff82169050919050565b6000620002cb826200029e565b9050919050565b620002dd81620002be565b8114620002e957600080fd5b50565b600081519050620002fd81620002d2565b92915050565b600080fd5b600080fd5b6000601f19601f8301169050919050565b7f4e487b7100000000000000000000000000000000000000000000000000000000600052604160045260246000fd5b62000358826200030d565b810181811067ffffffffffffffff821117156200037a57620003796200031e565b5b80604052505050565b60006200038f6200028a565b90506200039d82826200034d565b919050565b600067ffffffffffffffff821115620003c057620003bf6200031e565b5b620003cb826200030d565b9050602081019050919050565b60005b83811015620003f8578082015181840152602081019050620003db565b60008484015250505050565b60006200041b6200041584620003a2565b62000383565b9050828152602081018484840111156200043a576200043962000308565b5b62000447848285620003d8565b509392505050565b600082601f83011262000467576200046662000303565b5b81516200047984826020860162000404565b91505092915050565b60006fffffffffffffffffffffffffffffffff82169050919050565b620004a98162000482565b8114620004b557600080fd5b50565b600081519050620004c9816200049e565b92915050565b600080600080600060a08688031215620004ee57620004ed62000294565b5b6000620004fe88828901620002ec565b955050602086015167ffffffffffffffff81111562000522576200052162000299565b5b62000530888289016200044f565b945050604086015167ffffffffffffffff81111562000554576200055362000299565b5b62000562888289016200044f565b93505060606200057588828901620002ec565b92505060806200058888828901620004b8565b9150509295509295909350565b600081519050919050565b7f4e487b7100000000000000000000000000000000000000000000000000000000600052602260045260246000fd5b60006002820490506001821680620005e857607f821691505b602082108103620005fe57620005fd620005a0565b5b50919050565b60008190508160005260206000209050919050565b60006020601f8301049050919050565b600082821b905092915050565b600060088302620006687fffffffffffffffffffffffffffffffffffffffffffffffffffffffffffffffff8262000629565b62000674868362000629565b95508019841693508086168417925050509392505050565b6000819050919050565b6000819050919050565b6000620006c1620006bb620006b5846200068c565b62000696565b6200068c565b9050919050565b6000819050919050565b620006dd83620006a0565b620006f5620006ec82620006c8565b84845462000636565b825550505050565b600090565b6200070c620006fd565b62000719818484620006d2565b505050565b5b8181101562000741576200073560008262000702565b6001810190506200071f565b5050565b601f82111562000790576200075a8162000604565b620007658462000619565b8101602085101562000775578190505b6200078d620007848562000619565b8301826200071e565b50505b505050565b600082821c905092915050565b6000620007b56000198460080262000795565b1980831691505092915050565b6000620007d08383620007a2565b9150826002028217905092915050565b620007eb8262000595565b67ffffffffffffffff8111156200080757620008066200031e565b5b620008138254620005cf565b6200082082828562000745565b600060209050601f83116001811462000858576000841562000843578287015190505b6200084f8582620007c2565b865550620008bf565b601f198416620008688662000604565b60005b8281101562000892578489015182556001820191506020850194506020810190506200086b565b86831015620008b25784890151620008ae601f891682620007a2565b8355505b6001600288020188555050505b505050505050565b6000819050919050565b6000620008f2620008ec620008e684620008c7565b62000696565b6200068c565b9050919050565b6200090481620008d1565b82525050565b62000915816200068c565b82525050565b6000604082019050620009326000830185620008f9565b6200094160208301846200090a565b9392505050565b60006020820190506200095f60008301846200090a565b92915050565b615eb080620009756000396000f3fe608060405234801561001057600080fd5b506004361061025d5760003560e01c8063754a81d911610146578063a22cb465116100c3578063c23dc68f11610087578063c23dc68f146107bc578063c87b56dd146107ec578063cd9d6aee1461081c578063e8a3d48514610838578063e985e9c514610856578063fa3209b2146108865761025d565b8063a22cb46514610705578063abef9ba114610721578063ac9650d814610751578063b24f2d3914610781578063b88d4fde146107a05761025d565b8063906e277b1161010a578063906e277b1461064f578063938e3d7b1461067f57806395d89b411461069b57806399a2557a146106b95780639bcf7a15146106e95761025d565b8063754a81d91461058557806383040532146105a15780638462151c146105d157806389c9c3ae146106015780638da5cb5b146106315761025d565b80633b1475a7116101df5780634cc157df116101a35780634cc157df1461048a5780635bbb2177146104bb578063600dd5ea146104eb5780636352211e1461050757806363b45e2d1461053757806370a08231146105555761025d565b80633b1475a7146103cf57806342842e0e146103ed57806342966c6814610409578063430c20811461042557806346a1a095146104555761025d565b806313af40351161022657806313af40351461031857806318160ddd1461033457806323b872dd146103525780632419f51b1461036e5780632a55205a1461039e5761025d565b806275a3171461026257806301ffc9a71461027e57806306fdde03146102ae578063081812fc146102cc578063095ea7b3146102fc575b600080fd5b61027c600480360381019061027791906145d1565b6108b6565b005b61029860048036038101906102939190614685565b61092d565b6040516102a591906146cd565b60405180910390f35b6102b6610a27565b6040516102c39190614767565b60405180910390f35b6102e660048036038101906102e191906147bf565b610ab9565b6040516102f391906147fb565b60405180910390f35b61031660048036038101906103119190614816565b610b35565b005b610332600480360381019061032d9190614856565b610c39565b005b61033c610c83565b6040516103499190614892565b60405180910390f35b61036c600480360381019061036791906148ad565b610c9a565b005b610388600480360381019061038391906147bf565b610caa565b6040516103959190614892565b60405180910390f35b6103b860048036038101906103b39190614900565b610d1d565b6040516103c6929190614940565b60405180910390f35b6103d7610d5b565b6040516103e49190614892565b60405180910390f35b610407600480360381019061040291906148ad565b610d64565b005b610423600480360381019061041e91906147bf565b610d84565b005b61043f600480360381019061043a9190614816565b610d92565b60405161044c91906146cd565b60405180910390f35b61046f600480360381019061046a91906147bf565b610e27565b60405161048196959493929190614969565b60405180910390f35b6104a4600480360381019061049f91906147bf565b610f18565b6040516104b29291906149ee565b60405180910390f35b6104d560048036038101906104d09190614adf565b611023565b6040516104e29190614c5a565b60405180910390f35b61050560048036038101906105009190614816565b6110e4565b005b610521600480360381019061051c91906147bf565b611130565b60405161052e91906147fb565b60405180910390f35b61053f611146565b60405161054c9190614892565b60405180910390f35b61056f600480360381019061056a9190614856565b611153565b60405161057c9190614892565b60405180910390f35b61059f600480360381019061059a9190614d1d565b611222565b005b6105bb60048036038101906105b691906147bf565b61128e565b6040516105c891906146cd565b60405180910390f35b6105eb60048036038101906105e69190614856565b6112ae565b6040516105f89190614e7a565b60405180910390f35b61061b60048036038101906106169190614816565b6114a9565b6040516106289190614892565b60405180910390f35b6106396114da565b60405161064691906147fb565b60405180910390f35b610669600480360381019061066491906147bf565b611504565b6040516106769190614f6f565b60405180910390f35b61069960048036038101906106949190614f91565b611652565b005b6106a361169c565b6040516106b09190614767565b60405180910390f35b6106d360048036038101906106ce9190614fda565b61172e565b6040516106e09190614e7a565b60405180910390f35b61070360048036038101906106fe919061502d565b6119ed565b005b61071f600480360381019061071a91906150ac565b611a3b565b005b61073b600480360381019061073691906150ec565b611bb2565b6040516107489190614892565b60405180910390f35b61076b600480360381019061076691906151a3565b611d84565b6040516107789190615307565b60405180910390f35b610789611f4c565b6040516107979291906149ee565b60405180910390f35b6107ba60048036038101906107b59190615329565b611f8b565b005b6107d660048036038101906107d191906147bf565b612003565b6040516107e391906153ee565b60405180910390f35b610806600480360381019061080191906147bf565b612120565b6040516108139190614767565b60405180910390f35b610836600480360381019061083191906147bf565b612216565b005b610840612381565b60405161084d9190614767565b60405180910390f35b610870600480360381019061086b9190615409565b61240f565b60405161087d91906146cd565b60405180910390f35b6108a0600480360381019061089b9190614856565b6124a3565b6040516108ad9190614e7a565b60405180910390f35b6108be61253a565b6108fd576040517f08c379a00000000000000000000000000000000000000000000000000000000081526004016108f490615495565b60405180910390fd5b61090e610908610d5b565b82612543565b610929826001604051806020016040528060008152506125ca565b5050565b60006301ffc9a760e01b827bffffffffffffffffffffffffffffffffffffffffffffffffffffffff1916148061098857506380ac58cd60e01b827bffffffffffffffffffffffffffffffffffffffffffffffffffffffff1916145b806109b85750635b5e139f60e01b827bffffffffffffffffffffffffffffffffffffffffffffffffffffffff1916145b80610a2057507f2a55205a000000000000000000000000000000000000000000000000000000007bffffffffffffffffffffffffffffffffffffffffffffffffffffffff1916827bffffffffffffffffffffffffffffffffffffffffffffffffffffffff1916145b9050919050565b606060028054610a36906154e4565b80601f0160208091040260200160405190810160405280929190818152602001828054610a62906154e4565b8015610aaf5780601f10610a8457610100808354040283529160200191610aaf565b820191906000526020600020905b815481529060010190602001808311610a9257829003601f168201915b5050505050905090565b6000610ac48261298a565b610afa576040517fcf4700e400000000000000000000000000000000000000000000000000000000815260040160405180910390fd5b6006600083815260200190815260200160002060009054906101000a900473ffffffffffffffffffffffffffffffffffffffff169050919050565b6000610b4082611130565b90508073ffffffffffffffffffffffffffffffffffffffff168373ffffffffffffffffffffffffffffffffffffffff1603610ba7576040517f943f7b8c00000000000000000000000000000000000000000000000000000000815260040160405180910390fd5b8073ffffffffffffffffffffffffffffffffffffffff16610bc66129d8565b73ffffffffffffffffffffffffffffffffffffffff1614610c2957610bf281610bed6129d8565b61240f565b610c28576040517fcfb3b94200000000000000000000000000000000000000000000000000000000815260040160405180910390fd5b5b610c348383836129e0565b505050565b610c41612a92565b610c77576040517f2d99739600000000000000000000000000000000000000000000000000000000815260040160405180910390fd5b610c8081612acf565b50565b6000610c8d612b95565b6001546000540303905090565b610ca5838383612b9a565b505050565b6000610cb4611146565b8210610cf757816040517f0f2624ee000000000000000000000000000000000000000000000000000000008152600401610cee9190614892565b60405180910390fd5b600c8281548110610d0b57610d0a615515565b5b90600052602060002001549050919050565b600080600080610d2c86610f18565b61ffff16915091508193506127108186610d469190615573565b610d5091906155e4565b925050509250929050565b60008054905090565b610d7f83838360405180602001604052806000815250611f8b565b505050565b610d8f81600161304e565b50565b600080610d9e83611130565b90508073ffffffffffffffffffffffffffffffffffffffff168473ffffffffffffffffffffffffffffffffffffffff161480610de05750610ddf818561240f565b5b80610e1e57508373ffffffffffffffffffffffffffffffffffffffff16610e0684610ab9565b73ffffffffffffffffffffffffffffffffffffffff16145b91505092915050565b60116020528060005260406000206000915090508060000154908060010160009054906101000a900473ffffffffffffffffffffffffffffffffffffffff1690806002018054610e76906154e4565b80601f0160208091040260200160405190810160405280929190818152602001828054610ea2906154e4565b8015610eef5780601f10610ec457610100808354040283529160200191610eef565b820191906000526020600020905b815481529060010190602001808311610ed257829003601f168201915b5050505050908060030154908060040160009054906101000a900460ff16908060050154905086565b6000806000600b60008581526020019081526020016000206040518060400160405290816000820160009054906101000a900473ffffffffffffffffffffffffffffffffffffffff1673ffffffffffffffffffffffffffffffffffffffff1673ffffffffffffffffffffffffffffffffffffffff1681526020016001820154815250509050600073ffffffffffffffffffffffffffffffffffffffff16816000015173ffffffffffffffffffffffffffffffffffffffff1614610fe45780600001518160200151611019565b600a60009054906101000a900473ffffffffffffffffffffffffffffffffffffffff16600a60149054906101000a900461ffff165b9250925050915091565b606060008251905060008167ffffffffffffffff811115611047576110466144a6565b5b60405190808252806020026020018201604052801561108057816020015b61106d614388565b8152602001906001900390816110655790505b50905060005b8281146110d9576110b08582815181106110a3576110a2615515565b5b6020026020010151612003565b8282815181106110c3576110c2615515565b5b6020026020010181905250806001019050611086565b508092505050919050565b6110ec61343d565b611122576040517fdf5c6b0200000000000000000000000000000000000000000000000000000000815260040160405180910390fd5b61112c828261347a565b5050565b600061113b82613575565b600001519050919050565b6000600c80549050905090565b60008073ffffffffffffffffffffffffffffffffffffffff168273ffffffffffffffffffffffffffffffffffffffff16036111ba576040517f8f4eb60400000000000000000000000000000000000000000000000000000000815260040160405180910390fd5b600560008373ffffffffffffffffffffffffffffffffffffffff1673ffffffffffffffffffffffffffffffffffffffff16815260200190815260200160002060000160009054906101000a900467ffffffffffffffff1667ffffffffffffffff169050919050565b61122a61253a565b611269576040517f08c379a000000000000000000000000000000000000000000000000000000000815260040161126090615495565b60405180910390fd5b61127b611274610d5b565b8484613800565b50506112888484836125ca565b50505050565b600e6020528060005260406000206000915054906101000a900460ff1681565b606060008060006112be85611153565b905060008167ffffffffffffffff8111156112dc576112db6144a6565b5b60405190808252806020026020018201604052801561130a5781602001602082028036833780820191505090505b509050611315614388565b600061131f612b95565b90505b83861461149b57600460008281526020019081526020016000206040518060600160405290816000820160009054906101000a900473ffffffffffffffffffffffffffffffffffffffff1673ffffffffffffffffffffffffffffffffffffffff1673ffffffffffffffffffffffffffffffffffffffff1681526020016000820160149054906101000a900467ffffffffffffffff1667ffffffffffffffff1667ffffffffffffffff16815260200160008201601c9054906101000a900460ff1615151515815250509150816040015161149057600073ffffffffffffffffffffffffffffffffffffffff16826000015173ffffffffffffffffffffffffffffffffffffffff161461143557816000015194505b8773ffffffffffffffffffffffffffffffffffffffff168573ffffffffffffffffffffffffffffffffffffffff160361148f578083878060010198508151811061148257611481615515565b5b6020026020010181815250505b5b806001019050611322565b508195505050505050919050565b601260205281600052604060002081815481106114c557600080fd5b90600052602060002001600091509150505481565b6000600960009054906101000a900473ffffffffffffffffffffffffffffffffffffffff16905090565b61150c6143cb565b601160008381526020019081526020016000206040518060c0016040529081600082015481526020016001820160009054906101000a900473ffffffffffffffffffffffffffffffffffffffff1673ffffffffffffffffffffffffffffffffffffffff1673ffffffffffffffffffffffffffffffffffffffff16815260200160028201805461159a906154e4565b80601f01602080910402602001604051908101604052809291908181526020018280546115c6906154e4565b80156116135780601f106115e857610100808354040283529160200191611613565b820191906000526020600020905b8154815290600101906020018083116115f657829003601f168201915b50505050508152602001600382015481526020016004820160009054906101000a900460ff161515151581526020016005820154815250509050919050565b61165a613866565b611690576040517f9f7f092500000000000000000000000000000000000000000000000000000000815260040160405180910390fd5b611699816138a3565b50565b6060600380546116ab906154e4565b80601f01602080910402602001604051908101604052809291908181526020018280546116d7906154e4565b80156117245780601f106116f957610100808354040283529160200191611724565b820191906000526020600020905b81548152906001019060200180831161170757829003601f168201915b5050505050905090565b6060818310611769576040517f32c1995a00000000000000000000000000000000000000000000000000000000815260040160405180910390fd5b6000806000549050611779612b95565b85101561178b57611788612b95565b94505b80841115611797578093505b60006117a287611153565b9050848610156117c55760008686039050818110156117bf578091505b506117ca565b600090505b60008167ffffffffffffffff8111156117e6576117e56144a6565b5b6040519080825280602002602001820160405280156118145781602001602082028036833780820191505090505b5090506000820361182b57809450505050506119e6565b600061183688612003565b90506000816040015161184b57816000015190505b60008990505b8881141580156118615750848714155b156119d857600460008281526020019081526020016000206040518060600160405290816000820160009054906101000a900473ffffffffffffffffffffffffffffffffffffffff1673ffffffffffffffffffffffffffffffffffffffff1673ffffffffffffffffffffffffffffffffffffffff1681526020016000820160149054906101000a900467ffffffffffffffff1667ffffffffffffffff1667ffffffffffffffff16815260200160008201601c9054906101000a900460ff161515151581525050925082604001516119cd57600073ffffffffffffffffffffffffffffffffffffffff16836000015173ffffffffffffffffffffffffffffffffffffffff161461197257826000015191505b8a73ffffffffffffffffffffffffffffffffffffffff168273ffffffffffffffffffffffffffffffffffffffff16036119cc57808488806001019950815181106119bf576119be615515565b5b6020026020010181815250505b5b806001019050611851565b508583528296505050505050505b9392505050565b6119f561343d565b611a2b576040517fdf5c6b0200000000000000000000000000000000000000000000000000000000815260040160405180910390fd5b611a3683838361397f565b505050565b611a436129d8565b73ffffffffffffffffffffffffffffffffffffffff168273ffffffffffffffffffffffffffffffffffffffff1603611aa7576040517fb06307db00000000000000000000000000000000000000000000000000000000815260040160405180910390fd5b8060076000611ab46129d8565b73ffffffffffffffffffffffffffffffffffffffff1673ffffffffffffffffffffffffffffffffffffffff16815260200190815260200160002060008473ffffffffffffffffffffffffffffffffffffffff1673ffffffffffffffffffffffffffffffffffffffff16815260200190815260200160002060006101000a81548160ff0219169083151502179055508173ffffffffffffffffffffffffffffffffffffffff16611b616129d8565b73ffffffffffffffffffffffffffffffffffffffff167f17307eab39ab6107e8899845ad3d59bd9653f200f220920489ca2b5937696c3183604051611ba691906146cd565b60405180910390a35050565b60008060106000815480929190611bc890615615565b9190505590506040518060c001604052808281526020013373ffffffffffffffffffffffffffffffffffffffff16815260200185815260200184815260200160001515815260200142815250601160008381526020019081526020016000206000820151816000015560208201518160010160006101000a81548173ffffffffffffffffffffffffffffffffffffffff021916908373ffffffffffffffffffffffffffffffffffffffff1602179055506040820151816002019081611c8d9190615809565b506060820151816003015560808201518160040160006101000a81548160ff02191690831515021790555060a08201518160050155905050601260003373ffffffffffffffffffffffffffffffffffffffff1673ffffffffffffffffffffffffffffffffffffffff1681526020019081526020016000208190806001815401808255809150506001900390600052602060002001600090919091909150553373ffffffffffffffffffffffffffffffffffffffff16817fb6f430c8722299f241d9c66e77ee068ce71fb3d66d1c0af7d457ef4e50b4e59b86604051611d729190614767565b60405180910390a38091505092915050565b60608282905067ffffffffffffffff811115611da357611da26144a6565b5b604051908082528060200260200182016040528015611dd657816020015b6060815260200190600190039081611dc15790505b5090506000611de36129d8565b905060008173ffffffffffffffffffffffffffffffffffffffff163373ffffffffffffffffffffffffffffffffffffffff161415905060005b85859050811015611f43578115611ea057611e7d30878784818110611e4457611e43615515565b5b9050602002810190611e5691906158ea565b86604051602001611e69939291906159c5565b604051602081830303815290604052613ab0565b848281518110611e9057611e8f615515565b5b6020026020010181905250611f30565b611f1130878784818110611eb757611eb6615515565b5b9050602002810190611ec991906158ea565b8080601f016020809104026020016040519081016040528093929190818152602001838380828437600081840152601f19601f82011690508083019250505050505050613ab0565b848281518110611f2457611f23615515565b5b60200260200101819052505b8080611f3b90615615565b915050611e1c565b50505092915050565b600080600a60009054906101000a900473ffffffffffffffffffffffffffffffffffffffff16600a60149054906101000a900461ffff16915091509091565b611f96848484612b9a565b611fb58373ffffffffffffffffffffffffffffffffffffffff16613add565b15611ffd57611fc684848484613b00565b611ffc576040517fd1a57ed600000000000000000000000000000000000000000000000000000000815260040160405180910390fd5b5b50505050565b61200b614388565b612013614388565b61201b612b95565b83108061202a57506000548310155b15612038578091505061211b565b600460008481526020019081526020016000206040518060600160405290816000820160009054906101000a900473ffffffffffffffffffffffffffffffffffffffff1673ffffffffffffffffffffffffffffffffffffffff1673ffffffffffffffffffffffffffffffffffffffff1681526020016000820160149054906101000a900467ffffffffffffffff1667ffffffffffffffff1667ffffffffffffffff16815260200160008201601c9054906101000a900460ff161515151581525050905080604001511561210e578091505061211b565b61211783613575565b9150505b919050565b60606000600f60008481526020019081526020016000208054612142906154e4565b80601f016020809104026020016040519081016040528092919081815260200182805461216e906154e4565b80156121bb5780601f10612190576101008083540402835291602001916121bb565b820191906000526020600020905b81548152906001019060200180831161219e57829003601f168201915b505050505090506000815111156121d55780915050612211565b60006121e084613c50565b9050806121ec85613df7565b6040516020016121fd929190615a2b565b604051602081830303815290604052925050505b919050565b60006011600083815260200190815260200160002090503373ffffffffffffffffffffffffffffffffffffffff168160010160009054906101000a900473ffffffffffffffffffffffffffffffffffffffff1673ffffffffffffffffffffffffffffffffffffffff16146122bf576040517f08c379a00000000000000000000000000000000000000000000000000000000081526004016122b690615a9b565b60405180910390fd5b8060040160009054906101000a900460ff1615612311576040517f08c379a000000000000000000000000000000000000000000000000000000000815260040161230890615b07565b60405180910390fd5b60018160040160006101000a81548160ff021916908315150217905550612339336001613f57565b3373ffffffffffffffffffffffffffffffffffffffff16827f6852407858602d696344801f0181bc507c808c727c914bb6cdfeabd42431af3860405160405180910390a35050565b6008805461238e906154e4565b80601f01602080910402602001604051908101604052809291908181526020018280546123ba906154e4565b80156124075780601f106123dc57610100808354040283529160200191612407565b820191906000526020600020905b8154815290600101906020018083116123ea57829003601f168201915b505050505081565b6000600760008473ffffffffffffffffffffffffffffffffffffffff1673ffffffffffffffffffffffffffffffffffffffff16815260200190815260200160002060008373ffffffffffffffffffffffffffffffffffffffff1673ffffffffffffffffffffffffffffffffffffffff16815260200190815260200160002060009054906101000a900460ff16905092915050565b6060601260008373ffffffffffffffffffffffffffffffffffffffff1673ffffffffffffffffffffffffffffffffffffffff16815260200190815260200160002080548060200260200160405190810160405280929190818152602001828054801561252e57602002820191906000526020600020905b81548152602001906001019080831161251a575b50505050509050919050565b60006001905090565b6000600f60008481526020019081526020016000208054612563906154e4565b9050146125a5576040517f08c379a000000000000000000000000000000000000000000000000000000000815260040161259c90615b73565b60405180910390fd5b80600f600084815260200190815260200160002090816125c59190615809565b505050565b600080549050600073ffffffffffffffffffffffffffffffffffffffff168473ffffffffffffffffffffffffffffffffffffffff1603612636576040517f2e07630000000000000000000000000000000000000000000000000000000000815260040160405180910390fd5b60008303612670576040517fb562e8dd00000000000000000000000000000000000000000000000000000000815260040160405180910390fd5b61267d6000858386614231565b82600560008673ffffffffffffffffffffffffffffffffffffffff1673ffffffffffffffffffffffffffffffffffffffff16815260200190815260200160002060000160008282829054906101000a900467ffffffffffffffff160192506101000a81548167ffffffffffffffff021916908367ffffffffffffffff16021790555082600560008673ffffffffffffffffffffffffffffffffffffffff1673ffffffffffffffffffffffffffffffffffffffff16815260200190815260200160002060000160088282829054906101000a900467ffffffffffffffff160192506101000a81548167ffffffffffffffff021916908367ffffffffffffffff160217905550836004600083815260200190815260200160002060000160006101000a81548173ffffffffffffffffffffffffffffffffffffffff021916908373ffffffffffffffffffffffffffffffffffffffff160217905550426004600083815260200190815260200160002060000160146101000a81548167ffffffffffffffff021916908367ffffffffffffffff16021790555060008190506000848201905061283e8673ffffffffffffffffffffffffffffffffffffffff16613add565b15612903575b818673ffffffffffffffffffffffffffffffffffffffff16600073ffffffffffffffffffffffffffffffffffffffff167fddf252ad1be2c89b69c2b068fc378daa952ba7f163c4a11628f55a4df523b3ef60405160405180910390a46128b36000878480600101955087613b00565b6128e9576040517fd1a57ed600000000000000000000000000000000000000000000000000000000815260040160405180910390fd5b8082106128445782600054146128fe57600080fd5b61296e565b5b818060010192508673ffffffffffffffffffffffffffffffffffffffff16600073ffffffffffffffffffffffffffffffffffffffff167fddf252ad1be2c89b69c2b068fc378daa952ba7f163c4a11628f55a4df523b3ef60405160405180910390a4808210612904575b8160008190555050506129846000858386614237565b50505050565b600081612995612b95565b111580156129a4575060005482105b80156129d1575060046000838152602001908152602001600020600001601c9054906101000a900460ff16155b9050919050565b600033905090565b826006600084815260200190815260200160002060006101000a81548173ffffffffffffffffffffffffffffffffffffffff021916908373ffffffffffffffffffffffffffffffffffffffff160217905550818373ffffffffffffffffffffffffffffffffffffffff168273ffffffffffffffffffffffffffffffffffffffff167f8c5be1e5ebec7d5bd14f71427d1e84f3dd0314c0f7b2291e5b200ac8c7c3b92560405160405180910390a4505050565b6000612a9c6114da565b73ffffffffffffffffffffffffffffffffffffffff163373ffffffffffffffffffffffffffffffffffffffff1614905090565b6000600960009054906101000a900473ffffffffffffffffffffffffffffffffffffffff16905081600960006101000a81548173ffffffffffffffffffffffffffffffffffffffff021916908373ffffffffffffffffffffffffffffffffffffffff1602179055508173ffffffffffffffffffffffffffffffffffffffff168173ffffffffffffffffffffffffffffffffffffffff167f8292fce18fa69edf4db7b94ea2e58241df0ae57f97e0a6c9b29067028bf92d7660405160405180910390a35050565b600090565b6000612ba582613575565b90508373ffffffffffffffffffffffffffffffffffffffff16816000015173ffffffffffffffffffffffffffffffffffffffff1614612c10576040517fa114810000000000000000000000000000000000000000000000000000000000815260040160405180910390fd5b60008473ffffffffffffffffffffffffffffffffffffffff16612c316129d8565b73ffffffffffffffffffffffffffffffffffffffff161480612c605750612c5f85612c5a6129d8565b61240f565b5b80612ca55750612c6e6129d8565b73ffffffffffffffffffffffffffffffffffffffff16612c8d84610ab9565b73ffffffffffffffffffffffffffffffffffffffff16145b905080612cde576040517f59c896be00000000000000000000000000000000000000000000000000000000815260040160405180910390fd5b600073ffffffffffffffffffffffffffffffffffffffff168473ffffffffffffffffffffffffffffffffffffffff1603612d44576040517fea553b3400000000000000000000000000000000000000000000000000000000815260040160405180910390fd5b612d518585856001614231565b612d5d600084876129e0565b6001600560008773ffffffffffffffffffffffffffffffffffffffff1673ffffffffffffffffffffffffffffffffffffffff16815260200190815260200160002060000160008282829054906101000a900467ffffffffffffffff160392506101000a81548167ffffffffffffffff021916908367ffffffffffffffff1602179055506001600560008673ffffffffffffffffffffffffffffffffffffffff1673ffffffffffffffffffffffffffffffffffffffff16815260200190815260200160002060000160008282829054906101000a900467ffffffffffffffff160192506101000a81548167ffffffffffffffff021916908367ffffffffffffffff1602179055506000600460008581526020019081526020016000209050848160000160006101000a81548173ffffffffffffffffffffffffffffffffffffffff021916908373ffffffffffffffffffffffffffffffffffffffff160217905550428160000160146101000a81548167ffffffffffffffff021916908367ffffffffffffffff16021790555060006001850190506000600460008381526020019081526020016000209050600073ffffffffffffffffffffffffffffffffffffffff168160000160009054906101000a900473ffffffffffffffffffffffffffffffffffffffff1673ffffffffffffffffffffffffffffffffffffffff1603612fdc576000548214612fdb57878160000160006101000a81548173ffffffffffffffffffffffffffffffffffffffff021916908373ffffffffffffffffffffffffffffffffffffffff16021790555084602001518160000160146101000a81548167ffffffffffffffff021916908367ffffffffffffffff1602179055505b5b505050828473ffffffffffffffffffffffffffffffffffffffff168673ffffffffffffffffffffffffffffffffffffffff167fddf252ad1be2c89b69c2b068fc378daa952ba7f163c4a11628f55a4df523b3ef60405160405180910390a46130478585856001614237565b5050505050565b600061305983613575565b9050600081600001519050821561313a5760008173ffffffffffffffffffffffffffffffffffffffff1661308b6129d8565b73ffffffffffffffffffffffffffffffffffffffff1614806130ba57506130b9826130b46129d8565b61240f565b5b806130ff57506130c86129d8565b73ffffffffffffffffffffffffffffffffffffffff166130e786610ab9565b73ffffffffffffffffffffffffffffffffffffffff16145b905080613138576040517f59c896be00000000000000000000000000000000000000000000000000000000815260040160405180910390fd5b505b613148816000866001614231565b613154600085836129e0565b6000600560008373ffffffffffffffffffffffffffffffffffffffff1673ffffffffffffffffffffffffffffffffffffffff168152602001908152602001600020905060018160000160008282829054906101000a900467ffffffffffffffff160392506101000a81548167ffffffffffffffff021916908367ffffffffffffffff16021790555060018160000160108282829054906101000a900467ffffffffffffffff160192506101000a81548167ffffffffffffffff021916908367ffffffffffffffff1602179055506000600460008781526020019081526020016000209050828160000160006101000a81548173ffffffffffffffffffffffffffffffffffffffff021916908373ffffffffffffffffffffffffffffffffffffffff160217905550428160000160146101000a81548167ffffffffffffffff021916908367ffffffffffffffff160217905550600181600001601c6101000a81548160ff02191690831515021790555060006001870190506000600460008381526020019081526020016000209050600073ffffffffffffffffffffffffffffffffffffffff168160000160009054906101000a900473ffffffffffffffffffffffffffffffffffffffff1673ffffffffffffffffffffffffffffffffffffffff16036133b75760005482146133b657848160000160006101000a81548173ffffffffffffffffffffffffffffffffffffffff021916908373ffffffffffffffffffffffffffffffffffffffff16021790555085602001518160000160146101000a81548167ffffffffffffffff021916908367ffffffffffffffff1602179055505b5b5050505083600073ffffffffffffffffffffffffffffffffffffffff168273ffffffffffffffffffffffffffffffffffffffff167fddf252ad1be2c89b69c2b068fc378daa952ba7f163c4a11628f55a4df523b3ef60405160405180910390a4613425816000866001614237565b60016000815480929190600101919050555050505050565b60006134476114da565b73ffffffffffffffffffffffffffffffffffffffff163373ffffffffffffffffffffffffffffffffffffffff1614905090565b6127108111156134c557612710816040517f524985680000000000000000000000000000000000000000000000000000000081526004016134bc929190615bce565b60405180910390fd5b81600a60006101000a81548173ffffffffffffffffffffffffffffffffffffffff021916908373ffffffffffffffffffffffffffffffffffffffff16021790555080600a60146101000a81548161ffff021916908361ffff1602179055508173ffffffffffffffffffffffffffffffffffffffff167f90d7ec04bcb8978719414f82e52e4cb651db41d0e6f8cea6118c2191e6183adb826040516135699190614892565b60405180910390a25050565b61357d614388565b60008290508061358b612b95565b116137c9576000548110156137c8576000600460008381526020019081526020016000206040518060600160405290816000820160009054906101000a900473ffffffffffffffffffffffffffffffffffffffff1673ffffffffffffffffffffffffffffffffffffffff1673ffffffffffffffffffffffffffffffffffffffff1681526020016000820160149054906101000a900467ffffffffffffffff1667ffffffffffffffff1667ffffffffffffffff16815260200160008201601c9054906101000a900460ff161515151581525050905080604001516137c657600073ffffffffffffffffffffffffffffffffffffffff16816000015173ffffffffffffffffffffffffffffffffffffffff16146136aa5780925050506137fb565b5b6001156137c557818060019003925050600460008381526020019081526020016000206040518060600160405290816000820160009054906101000a900473ffffffffffffffffffffffffffffffffffffffff1673ffffffffffffffffffffffffffffffffffffffff1673ffffffffffffffffffffffffffffffffffffffff1681526020016000820160149054906101000a900467ffffffffffffffff1667ffffffffffffffff1667ffffffffffffffff16815260200160008201601c9054906101000a900460ff1615151515815250509050600073ffffffffffffffffffffffffffffffffffffffff16816000015173ffffffffffffffffffffffffffffffffffffffff16146137c05780925050506137fb565b6136ab565b5b505b5b6040517fdf2d9b4200000000000000000000000000000000000000000000000000000000815260040160405180910390fd5b919050565b600080838561380f9190615bf7565b9050809150600c81908060018154018082558091505060019003906000526020600020016000909190919091505582600d6000838152602001908152602001600020908161385d9190615809565b50935093915050565b60006138706114da565b73ffffffffffffffffffffffffffffffffffffffff163373ffffffffffffffffffffffffffffffffffffffff1614905090565b6000600880546138b2906154e4565b80601f01602080910402602001604051908101604052809291908181526020018280546138de906154e4565b801561392b5780601f106139005761010080835404028352916020019161392b565b820191906000526020600020905b81548152906001019060200180831161390e57829003601f168201915b5050505050905081600890816139419190615809565b507fc9c7c3fe08b88b4df9d4d47ef47d2c43d55c025a0ba88ca442580ed9e7348a168183604051613973929190615c2b565b60405180910390a15050565b6127108111156139ca57612710816040517f524985680000000000000000000000000000000000000000000000000000000081526004016139c1929190615bce565b60405180910390fd5b60405180604001604052808373ffffffffffffffffffffffffffffffffffffffff16815260200182815250600b600085815260200190815260200160002060008201518160000160006101000a81548173ffffffffffffffffffffffffffffffffffffffff021916908373ffffffffffffffffffffffffffffffffffffffff160217905550602082015181600101559050508173ffffffffffffffffffffffffffffffffffffffff16837f7365cf4122f072a3365c20d54eff9b38d73c096c28e1892ec8f5b0e403a0f12d83604051613aa39190614892565b60405180910390a3505050565b6060613ad58383604051806060016040528060278152602001615e546027913961423d565b905092915050565b6000808273ffffffffffffffffffffffffffffffffffffffff163b119050919050565b60008373ffffffffffffffffffffffffffffffffffffffff1663150b7a02613b266129d8565b8786866040518563ffffffff1660e01b8152600401613b489493929190615cac565b6020604051808303816000875af1925050508015613b8457506040513d601f19601f82011682018060405250810190613b819190615d0d565b60015b613bfd573d8060008114613bb4576040519150601f19603f3d011682016040523d82523d6000602084013e613bb9565b606091505b506000815103613bf5576040517fd1a57ed600000000000000000000000000000000000000000000000000000000815260040160405180910390fd5b805181602001fd5b63150b7a0260e01b7bffffffffffffffffffffffffffffffffffffffffffffffffffffffff1916817bffffffffffffffffffffffffffffffffffffffffffffffffffffffff191614915050949350505050565b60606000613c5c611146565b90506000600c805480602002602001604051908101604052809291908181526020018280548015613cac57602002820191906000526020600020905b815481526020019060010190808311613c98575b5050505050905060005b82811015613db457818181518110613cd157613cd0615515565b5b6020026020010151851015613da057600d6000838381518110613cf757613cf6615515565b5b602002602001015181526020019081526020016000208054613d18906154e4565b80601f0160208091040260200160405190810160405280929190818152602001828054613d44906154e4565b8015613d915780601f10613d6657610100808354040283529160200191613d91565b820191906000526020600020905b815481529060010190602001808311613d7457829003601f168201915b50505050509350505050613df2565b600181613dad9190615bf7565b9050613cb6565b50836040517f25e5fda4000000000000000000000000000000000000000000000000000000008152600401613de99190614892565b60405180910390fd5b919050565b606060008203613e3e576040518060400160405280600181526020017f30000000000000000000000000000000000000000000000000000000000000008152509050613f52565b600082905060005b60008214613e70578080613e5990615615565b915050600a82613e6991906155e4565b9150613e46565b60008167ffffffffffffffff811115613e8c57613e8b6144a6565b5b6040519080825280601f01601f191660200182016040528015613ebe5781602001600182028036833780820191505090505b5090505b60008514613f4b57600182613ed79190615d3a565b9150600a85613ee69190615d6e565b6030613ef29190615bf7565b60f81b818381518110613f0857613f07615515565b5b60200101907effffffffffffffffffffffffffffffffffffffffffffffffffffffffffffff1916908160001a905350600a85613f4491906155e4565b9450613ec2565b8093505050505b919050565b600080549050600073ffffffffffffffffffffffffffffffffffffffff168373ffffffffffffffffffffffffffffffffffffffff1603613fc3576040517f2e07630000000000000000000000000000000000000000000000000000000000815260040160405180910390fd5b60008203613ffd576040517fb562e8dd00000000000000000000000000000000000000000000000000000000815260040160405180910390fd5b61400a6000848385614231565b81600560008573ffffffffffffffffffffffffffffffffffffffff1673ffffffffffffffffffffffffffffffffffffffff16815260200190815260200160002060000160008282829054906101000a900467ffffffffffffffff160192506101000a81548167ffffffffffffffff021916908367ffffffffffffffff16021790555081600560008573ffffffffffffffffffffffffffffffffffffffff1673ffffffffffffffffffffffffffffffffffffffff16815260200190815260200160002060000160088282829054906101000a900467ffffffffffffffff160192506101000a81548167ffffffffffffffff021916908367ffffffffffffffff160217905550826004600083815260200190815260200160002060000160006101000a81548173ffffffffffffffffffffffffffffffffffffffff021916908373ffffffffffffffffffffffffffffffffffffffff160217905550426004600083815260200190815260200160002060000160146101000a81548167ffffffffffffffff021916908367ffffffffffffffff1602179055506000819050600083820190505b818060010192508573ffffffffffffffffffffffffffffffffffffffff16600073ffffffffffffffffffffffffffffffffffffffff167fddf252ad1be2c89b69c2b068fc378daa952ba7f163c4a11628f55a4df523b3ef60405160405180910390a48082106141ad5781600081905550505061422c6000848385614237565b505050565b50505050565b50505050565b60606000808573ffffffffffffffffffffffffffffffffffffffff16856040516142679190615dd0565b600060405180830381855af49150503d80600081146142a2576040519150601f19603f3d011682016040523d82523d6000602084013e6142a7565b606091505b50915091506142b8868383876142c3565b925050509392505050565b6060831561432557600083510361431d576142dd85613add565b61431c576040517f08c379a000000000000000000000000000000000000000000000000000000000815260040161431390615e33565b60405180910390fd5b5b829050614330565b61432f8383614338565b5b949350505050565b60008251111561434b5781518083602001fd5b806040517f08c379a000000000000000000000000000000000000000000000000000000000815260040161437f9190614767565b60405180910390fd5b6040518060600160405280600073ffffffffffffffffffffffffffffffffffffffff168152602001600067ffffffffffffffff1681526020016000151581525090565b6040518060c0016040528060008152602001600073ffffffffffffffffffffffffffffffffffffffff1681526020016060815260200160008152602001600015158152602001600081525090565b6000604051905090565b600080fd5b600080fd5b600073ffffffffffffffffffffffffffffffffffffffff82169050919050565b60006144588261442d565b9050919050565b6144688161444d565b811461447357600080fd5b50565b6000813590506144858161445f565b92915050565b600080fd5b600080fd5b6000601f19601f8301169050919050565b7f4e487b7100000000000000000000000000000000000000000000000000000000600052604160045260246000fd5b6144de82614495565b810181811067ffffffffffffffff821117156144fd576144fc6144a6565b5b80604052505050565b6000614510614419565b905061451c82826144d5565b919050565b600067ffffffffffffffff82111561453c5761453b6144a6565b5b61454582614495565b9050602081019050919050565b82818337600083830152505050565b600061457461456f84614521565b614506565b9050828152602081018484840111156145905761458f614490565b5b61459b848285614552565b509392505050565b600082601f8301126145b8576145b761448b565b5b81356145c8848260208601614561565b91505092915050565b600080604083850312156145e8576145e7614423565b5b60006145f685828601614476565b925050602083013567ffffffffffffffff81111561461757614616614428565b5b614623858286016145a3565b9150509250929050565b60007fffffffff0000000000000000000000000000000000000000000000000000000082169050919050565b6146628161462d565b811461466d57600080fd5b50565b60008135905061467f81614659565b92915050565b60006020828403121561469b5761469a614423565b5b60006146a984828501614670565b91505092915050565b60008115159050919050565b6146c7816146b2565b82525050565b60006020820190506146e260008301846146be565b92915050565b600081519050919050565b600082825260208201905092915050565b60005b83811015614722578082015181840152602081019050614707565b60008484015250505050565b6000614739826146e8565b61474381856146f3565b9350614753818560208601614704565b61475c81614495565b840191505092915050565b60006020820190508181036000830152614781818461472e565b905092915050565b6000819050919050565b61479c81614789565b81146147a757600080fd5b50565b6000813590506147b981614793565b92915050565b6000602082840312156147d5576147d4614423565b5b60006147e3848285016147aa565b91505092915050565b6147f58161444d565b82525050565b600060208201905061481060008301846147ec565b92915050565b6000806040838503121561482d5761482c614423565b5b600061483b85828601614476565b925050602061484c858286016147aa565b9150509250929050565b60006020828403121561486c5761486b614423565b5b600061487a84828501614476565b91505092915050565b61488c81614789565b82525050565b60006020820190506148a76000830184614883565b92915050565b6000806000606084860312156148c6576148c5614423565b5b60006148d486828701614476565b93505060206148e586828701614476565b92505060406148f6868287016147aa565b9150509250925092565b6000806040838503121561491757614916614423565b5b6000614925858286016147aa565b9250506020614936858286016147aa565b9150509250929050565b600060408201905061495560008301856147ec565b6149626020830184614883565b9392505050565b600060c08201905061497e6000830189614883565b61498b60208301886147ec565b818103604083015261499d818761472e565b90506149ac6060830186614883565b6149b960808301856146be565b6149c660a0830184614883565b979650505050505050565b600061ffff82169050919050565b6149e8816149d1565b82525050565b6000604082019050614a0360008301856147ec565b614a1060208301846149df565b9392505050565b600067ffffffffffffffff821115614a3257614a316144a6565b5b602082029050602081019050919050565b600080fd5b6000614a5b614a5684614a17565b614506565b90508083825260208201905060208402830185811115614a7e57614a7d614a43565b5b835b81811015614aa75780614a9388826147aa565b845260208401935050602081019050614a80565b5050509392505050565b600082601f830112614ac657614ac561448b565b5b8135614ad6848260208601614a48565b91505092915050565b600060208284031215614af557614af4614423565b5b600082013567ffffffffffffffff811115614b1357614b12614428565b5b614b1f84828501614ab1565b91505092915050565b600081519050919050565b600082825260208201905092915050565b6000819050602082019050919050565b614b5d8161444d565b82525050565b600067ffffffffffffffff82169050919050565b614b8081614b63565b82525050565b614b8f816146b2565b82525050565b606082016000820151614bab6000850182614b54565b506020820151614bbe6020850182614b77565b506040820151614bd16040850182614b86565b50505050565b6000614be38383614b95565b60608301905092915050565b6000602082019050919050565b6000614c0782614b28565b614c118185614b33565b9350614c1c83614b44565b8060005b83811015614c4d578151614c348882614bd7565b9750614c3f83614bef565b925050600181019050614c20565b5085935050505092915050565b60006020820190508181036000830152614c748184614bfc565b905092915050565b600067ffffffffffffffff821115614c9757614c966144a6565b5b614ca082614495565b9050602081019050919050565b6000614cc0614cbb84614c7c565b614506565b905082815260208101848484011115614cdc57614cdb614490565b5b614ce7848285614552565b509392505050565b600082601f830112614d0457614d0361448b565b5b8135614d14848260208601614cad565b91505092915050565b60008060008060808587031215614d3757614d36614423565b5b6000614d4587828801614476565b9450506020614d56878288016147aa565b935050604085013567ffffffffffffffff811115614d7757614d76614428565b5b614d83878288016145a3565b925050606085013567ffffffffffffffff811115614da457614da3614428565b5b614db087828801614cef565b91505092959194509250565b600081519050919050565b600082825260208201905092915050565b6000819050602082019050919050565b614df181614789565b82525050565b6000614e038383614de8565b60208301905092915050565b6000602082019050919050565b6000614e2782614dbc565b614e318185614dc7565b9350614e3c83614dd8565b8060005b83811015614e6d578151614e548882614df7565b9750614e5f83614e0f565b925050600181019050614e40565b5085935050505092915050565b60006020820190508181036000830152614e948184614e1c565b905092915050565b600082825260208201905092915050565b6000614eb8826146e8565b614ec28185614e9c565b9350614ed2818560208601614704565b614edb81614495565b840191505092915050565b600060c083016000830151614efe6000860182614de8565b506020830151614f116020860182614b54565b5060408301518482036040860152614f298282614ead565b9150506060830151614f3e6060860182614de8565b506080830151614f516080860182614b86565b5060a0830151614f6460a0860182614de8565b508091505092915050565b60006020820190508181036000830152614f898184614ee6565b905092915050565b600060208284031215614fa757614fa6614423565b5b600082013567ffffffffffffffff811115614fc557614fc4614428565b5b614fd1848285016145a3565b91505092915050565b600080600060608486031215614ff357614ff2614423565b5b600061500186828701614476565b9350506020615012868287016147aa565b9250506040615023868287016147aa565b9150509250925092565b60008060006060848603121561504657615045614423565b5b6000615054868287016147aa565b935050602061506586828701614476565b9250506040615076868287016147aa565b9150509250925092565b615089816146b2565b811461509457600080fd5b50565b6000813590506150a681615080565b92915050565b600080604083850312156150c3576150c2614423565b5b60006150d185828601614476565b92505060206150e285828601615097565b9150509250929050565b6000806040838503121561510357615102614423565b5b600083013567ffffffffffffffff81111561512157615120614428565b5b61512d858286016145a3565b925050602061513e858286016147aa565b9150509250929050565b600080fd5b60008083601f8401126151635761516261448b565b5b8235905067ffffffffffffffff8111156151805761517f615148565b5b60208301915083602082028301111561519c5761519b614a43565b5b9250929050565b600080602083850312156151ba576151b9614423565b5b600083013567ffffffffffffffff8111156151d8576151d7614428565b5b6151e48582860161514d565b92509250509250929050565b600081519050919050565b600082825260208201905092915050565b6000819050602082019050919050565b600081519050919050565b600082825260208201905092915050565b60006152438261521c565b61524d8185615227565b935061525d818560208601614704565b61526681614495565b840191505092915050565b600061527d8383615238565b905092915050565b6000602082019050919050565b600061529d826151f0565b6152a781856151fb565b9350836020820285016152b98561520c565b8060005b858110156152f557848403895281516152d68582615271565b94506152e183615285565b925060208a019950506001810190506152bd565b50829750879550505050505092915050565b600060208201905081810360008301526153218184615292565b905092915050565b6000806000806080858703121561534357615342614423565b5b600061535187828801614476565b945050602061536287828801614476565b9350506040615373878288016147aa565b925050606085013567ffffffffffffffff81111561539457615393614428565b5b6153a087828801614cef565b91505092959194509250565b6060820160008201516153c26000850182614b54565b5060208201516153d56020850182614b77565b5060408201516153e86040850182614b86565b50505050565b600060608201905061540360008301846153ac565b92915050565b600080604083850312156154205761541f614423565b5b600061542e85828601614476565b925050602061543f85828601614476565b9150509250929050565b7f4e6f7420617574686f72697a656420746f206d696e742e000000000000000000600082015250565b600061547f6017836146f3565b915061548a82615449565b602082019050919050565b600060208201905081810360008301526154ae81615472565b9050919050565b7f4e487b7100000000000000000000000000000000000000000000000000000000600052602260045260246000fd5b600060028204905060018216806154fc57607f821691505b60208210810361550f5761550e6154b5565b5b50919050565b7f4e487b7100000000000000000000000000000000000000000000000000000000600052603260045260246000fd5b7f4e487b7100000000000000000000000000000000000000000000000000000000600052601160045260246000fd5b600061557e82614789565b915061558983614789565b925082820261559781614789565b915082820484148315176155ae576155ad615544565b5b5092915050565b7f4e487b7100000000000000000000000000000000000000000000000000000000600052601260045260246000fd5b60006155ef82614789565b91506155fa83614789565b92508261560a576156096155b5565b5b828204905092915050565b600061562082614789565b91507fffffffffffffffffffffffffffffffffffffffffffffffffffffffffffffffff820361565257615651615544565b5b600182019050919050565b60008190508160005260206000209050919050565b60006020601f8301049050919050565b600082821b905092915050565b6000600883026156bf7fffffffffffffffffffffffffffffffffffffffffffffffffffffffffffffffff82615682565b6156c98683615682565b95508019841693508086168417925050509392505050565b6000819050919050565b60006157066157016156fc84614789565b6156e1565b614789565b9050919050565b6000819050919050565b615720836156eb565b61573461572c8261570d565b84845461568f565b825550505050565b600090565b61574961573c565b615754818484615717565b505050565b5b818110156157785761576d600082615741565b60018101905061575a565b5050565b601f8211156157bd5761578e8161565d565b61579784615672565b810160208510156157a6578190505b6157ba6157b285615672565b830182615759565b50505b505050565b600082821c905092915050565b60006157e0600019846008026157c2565b1980831691505092915050565b60006157f983836157cf565b9150826002028217905092915050565b615812826146e8565b67ffffffffffffffff81111561582b5761582a6144a6565b5b61583582546154e4565b61584082828561577c565b600060209050601f8311600181146158735760008415615861578287015190505b61586b85826157ed565b8655506158d3565b601f1984166158818661565d565b60005b828110156158a957848901518255600182019150602085019450602081019050615884565b868310156158c657848901516158c2601f8916826157cf565b8355505b6001600288020188555050505b505050505050565b600080fd5b600080fd5b600080fd5b60008083356001602003843603038112615907576159066158db565b5b80840192508235915067ffffffffffffffff821115615929576159286158e0565b5b602083019250600182023603831315615945576159446158e5565b5b509250929050565b600081905092915050565b6000615964838561594d565b9350615971838584614552565b82840190509392505050565b60008160601b9050919050565b60006159958261597d565b9050919050565b60006159a78261598a565b9050919050565b6159bf6159ba8261444d565b61599c565b82525050565b60006159d2828587615958565b91506159de82846159ae565b601482019150819050949350505050565b600081905092915050565b6000615a05826146e8565b615a0f81856159ef565b9350615a1f818560208601614704565b80840191505092915050565b6000615a3782856159fa565b9150615a4382846159fa565b91508190509392505050565b7f4e6f7420617574686f72697a6564000000000000000000000000000000000000600082015250565b6000615a85600e836146f3565b9150615a9082615a4f565b602082019050919050565b60006020820190508181036000830152615ab481615a78565b9050919050565b7f416c726561647920657865637574656400000000000000000000000000000000600082015250565b6000615af16010836146f3565b9150615afc82615abb565b602082019050919050565b60006020820190508181036000830152615b2081615ae4565b9050919050565b7f55524920616c7265616479207365740000000000000000000000000000000000600082015250565b6000615b5d600f836146f3565b9150615b6882615b27565b602082019050919050565b60006020820190508181036000830152615b8c81615b50565b9050919050565b6000819050919050565b6000615bb8615bb3615bae84615b93565b6156e1565b614789565b9050919050565b615bc881615b9d565b82525050565b6000604082019050615be36000830185615bbf565b615bf06020830184614883565b9392505050565b6000615c0282614789565b9150615c0d83614789565b9250828201905080821115615c2557615c24615544565b5b92915050565b60006040820190508181036000830152615c45818561472e565b90508181036020830152615c59818461472e565b90509392505050565b600082825260208201905092915050565b6000615c7e8261521c565b615c888185615c62565b9350615c98818560208601614704565b615ca181614495565b840191505092915050565b6000608082019050615cc160008301876147ec565b615cce60208301866147ec565b615cdb6040830185614883565b8181036060830152615ced8184615c73565b905095945050505050565b600081519050615d0781614659565b92915050565b600060208284031215615d2357615d22614423565b5b6000615d3184828501615cf8565b91505092915050565b6000615d4582614789565b9150615d5083614789565b9250828203905081811115615d6857615d67615544565b5b92915050565b6000615d7982614789565b9150615d8483614789565b925082615d9457615d936155b5565b5b828206905092915050565b6000615daa8261521c565b615db4818561594d565b9350615dc4818560208601614704565b80840191505092915050565b6000615ddc8284615d9f565b915081905092915050565b7f416464726573733a2063616c6c20746f206e6f6e2d636f6e7472616374000000600082015250565b6000615e1d601d836146f3565b9150615e2882615de7565b602082019050919050565b60006020820190508181036000830152615e4c81615e10565b905091905056fe416464726573733a206c6f772d6c6576656c2064656c65676174652063616c6c206661696c6564a2646970667358221220b9010687cb1ba74850305307787b6b50e03bc01905d44bcda9b9d9548282e7d264736f6c63430008150033",
  "linkReferences": {},
  "deployedLinkReferences": {}
}