{
  "_format": "hh-sol-artifact-1",
  "contractName": "WalletPlanner",
  "sourceName": "contracts/WalletPlanner.sol",
  "abi": [
    {
      "inputs": [
        {
          "internalType": "address",
          "name": "_defaultAdmin",
          "type": "address"
        },
        {
          "internalType": "string",
          "name": "_name",
          "type": "string"
        },
        {
          "internalType": "string",
          "name": "_symbol",
          "type": "string"
        },
        {
          "internalType": "address",
          "name": "_royaltyRecipient",
          "type": "address"
        },
        {
          "internalType": "uint128",
          "name": "_royaltyBps",
          "type": "uint128"
        },
        {
          "internalType": "address",
          "name": "_uniswapRouter",
          "type": "address"
        }
      ],
      "stateMutability": "nonpayable",
      "type": "constructor"
    },
    {
      "inputs": [],
      "name": "ApprovalCallerNotOwnerNorApproved",
      "type": "error"
    },
    {
      "inputs": [],
      "name": "ApprovalQueryForNonexistentToken",
      "type": "error"
    },
    {
      "inputs": [],
      "name": "ApprovalToCurrentOwner",
      "type": "error"
    },
    {
      "inputs": [],
      "name": "ApproveToCaller",
      "type": "error"
    },
    {
      "inputs": [],
      "name": "BalanceQueryForZeroAddress",
      "type": "error"
    },
    {
      "inputs": [
        {
          "internalType": "uint256",
          "name": "index",
          "type": "uint256"
        }
      ],
      "name": "BatchMintInvalidBatchId",
      "type": "error"
    },
    {
      "inputs": [
        {
          "internalType": "uint256",
          "name": "tokenId",
          "type": "uint256"
        }
      ],
      "name": "BatchMintInvalidTokenId",
      "type": "error"
    },
    {
      "inputs": [
        {
          "internalType": "uint256",
          "name": "batchId",
          "type": "uint256"
        }
      ],
      "name": "BatchMintMetadataFrozen",
      "type": "error"
    },
    {
      "inputs": [],
      "name": "ContractMetadataUnauthorized",
      "type": "error"
    },
    {
      "inputs": [],
      "name": "InvalidQueryRange",
      "type": "error"
    },
    {
      "inputs": [],
      "name": "MintToZeroAddress",
      "type": "error"
    },
    {
      "inputs": [],
      "name": "MintZeroQuantity",
      "type": "error"
    },
    {
      "inputs": [],
      "name": "OnlySimulatedBackend",
      "type": "error"
    },
    {
      "inputs": [],
      "name": "OwnableUnauthorized",
      "type": "error"
    },
    {
      "inputs": [],
      "name": "OwnerQueryForNonexistentToken",
      "type": "error"
    },
    {
      "inputs": [
        {
          "internalType": "uint256",
          "name": "max",
          "type": "uint256"
        },
        {
          "internalType": "uint256",
          "name": "actual",
          "type": "uint256"
        }
      ],
      "name": "RoyaltyExceededMaxFeeBps",
      "type": "error"
    },
    {
      "inputs": [
        {
          "internalType": "address",
          "name": "recipient",
          "type": "address"
        }
      ],
      "name": "RoyaltyInvalidRecipient",
      "type": "error"
    },
    {
      "inputs": [],
      "name": "RoyaltyUnauthorized",
      "type": "error"
    },
    {
      "inputs": [],
      "name": "TransferCallerNotOwnerNorApproved",
      "type": "error"
    },
    {
      "inputs": [],
      "name": "TransferFromIncorrectOwner",
      "type": "error"
    },
    {
      "inputs": [],
      "name": "TransferToNonERC721ReceiverImplementer",
      "type": "error"
    },
    {
      "inputs": [],
      "name": "TransferToZeroAddress",
      "type": "error"
    },
    {
      "inputs": [],
      "name": "URIQueryForNonexistentToken",
      "type": "error"
    },
    {
      "anonymous": false,
      "inputs": [
        {
          "indexed": true,
          "internalType": "address",
          "name": "owner",
          "type": "address"
        },
        {
          "indexed": true,
          "internalType": "address",
          "name": "approved",
          "type": "address"
        },
        {
          "indexed": true,
          "internalType": "uint256",
          "name": "tokenId",
          "type": "uint256"
        }
      ],
      "name": "Approval",
      "type": "event"
    },
    {
      "anonymous": false,
      "inputs": [
        {
          "indexed": true,
          "internalType": "address",
          "name": "owner",
          "type": "address"
        },
        {
          "indexed": true,
          "internalType": "address",
          "name": "operator",
          "type": "address"
        },
        {
          "indexed": false,
          "internalType": "bool",
          "name": "approved",
          "type": "bool"
        }
      ],
      "name": "ApprovalForAll",
      "type": "event"
    },
    {
      "anonymous": false,
      "inputs": [
        {
          "indexed": false,
          "internalType": "uint256",
          "name": "timestamp",
          "type": "uint256"
        },
        {
          "indexed": false,
          "internalType": "uint256",
          "name": "intentsProcessed",
          "type": "uint256"
        }
      ],
      "name": "AutomationPerformed",
      "type": "event"
    },
    {
      "anonymous": false,
      "inputs": [
        {
          "indexed": false,
          "internalType": "uint256",
          "name": "_fromTokenId",
          "type": "uint256"
        },
        {
          "indexed": false,
          "internalType": "uint256",
          "name": "_toTokenId",
          "type": "uint256"
        }
      ],
      "name": "BatchMetadataUpdate",
      "type": "event"
    },
    {
      "anonymous": false,
      "inputs": [
        {
          "indexed": false,
          "internalType": "string",
          "name": "prevURI",
          "type": "string"
        },
        {
          "indexed": false,
          "internalType": "string",
          "name": "newURI",
          "type": "string"
        }
      ],
      "name": "ContractURIUpdated",
      "type": "event"
    },
    {
      "anonymous": false,
      "inputs": [
        {
          "indexed": true,
          "internalType": "address",
          "name": "newRoyaltyRecipient",
          "type": "address"
        },
        {
          "indexed": false,
          "internalType": "uint256",
          "name": "newRoyaltyBps",
          "type": "uint256"
        }
      ],
      "name": "DefaultRoyalty",
      "type": "event"
    },
    {
      "anonymous": false,
      "inputs": [
        {
          "indexed": true,
          "internalType": "uint256",
          "name": "intentId",
          "type": "uint256"
        },
        {
          "indexed": true,
          "internalType": "address",
          "name": "user",
          "type": "address"
        },
        {
          "indexed": false,
          "internalType": "string",
          "name": "description",
          "type": "string"
        }
      ],
      "name": "IntentCreated",
      "type": "event"
    },
    {
      "anonymous": false,
      "inputs": [
        {
          "indexed": true,
          "internalType": "uint256",
          "name": "intentId",
          "type": "uint256"
        },
        {
          "indexed": true,
          "internalType": "address",
          "name": "user",
          "type": "address"
        }
      ],
      "name": "IntentExecuted",
      "type": "event"
    },
    {
      "anonymous": false,
      "inputs": [],
      "name": "MetadataFrozen",
      "type": "event"
    },
    {
      "anonymous": false,
      "inputs": [
        {
          "indexed": true,
          "internalType": "address",
          "name": "prevOwner",
          "type": "address"
        },
        {
          "indexed": true,
          "internalType": "address",
          "name": "newOwner",
          "type": "address"
        }
      ],
      "name": "OwnerUpdated",
      "type": "event"
    },
    {
      "anonymous": false,
      "inputs": [
        {
          "indexed": true,
          "internalType": "uint256",
          "name": "tokenId",
          "type": "uint256"
        },
        {
          "indexed": true,
          "internalType": "address",
          "name": "royaltyRecipient",
          "type": "address"
        },
        {
          "indexed": false,
          "internalType": "uint256",
          "name": "royaltyBps",
          "type": "uint256"
        }
      ],
      "name": "RoyaltyForToken",
      "type": "event"
    },
    {
      "anonymous": false,
      "inputs": [
        {
          "indexed": true,
          "internalType": "address",
          "name": "user",
          "type": "address"
        },
        {
          "indexed": true,
          "internalType": "address",
          "name": "tokenIn",
          "type": "address"
        },
        {
          "indexed": true,
          "internalType": "address",
          "name": "tokenOut",
          "type": "address"
        },
        {
          "indexed": false,
          "internalType": "uint256",
          "name": "amountIn",
          "type": "uint256"
        },
        {
          "indexed": false,
          "internalType": "uint256",
          "name": "amountOut",
          "type": "uint256"
        }
      ],
      "name": "SwapExecuted",
      "type": "event"
    },
    {
      "anonymous": false,
      "inputs": [
        {
          "indexed": true,
          "internalType": "address",
          "name": "user",
          "type": "address"
        },
        {
          "indexed": true,
          "internalType": "address",
          "name": "token",
          "type": "address"
        },
        {
          "indexed": false,
          "internalType": "uint256",
          "name": "amount",
          "type": "uint256"
        }
      ],
      "name": "TokenDeposited",
      "type": "event"
    },
    {
      "anonymous": false,
      "inputs": [
        {
          "indexed": true,
          "internalType": "address",
          "name": "user",
          "type": "address"
        },
        {
          "indexed": true,
          "internalType": "address",
          "name": "token",
          "type": "address"
        },
        {
          "indexed": false,
          "internalType": "uint256",
          "name": "amount",
          "type": "uint256"
        }
      ],
      "name": "TokenWithdrawn",
      "type": "event"
    },
    {
      "anonymous": false,
      "inputs": [
        {
          "indexed": true,
          "internalType": "address",
          "name": "from",
          "type": "address"
        },
        {
          "indexed": true,
          "internalType": "address",
          "name": "to",
          "type": "address"
        },
        {
          "indexed": true,
          "internalType": "uint256",
          "name": "tokenId",
          "type": "uint256"
        }
      ],
      "name": "Transfer",
      "type": "event"
    },
    {
      "inputs": [],
      "name": "DAI",
      "outputs": [
        {
          "internalType": "address",
          "name": "",
          "type": "address"
        }
      ],
      "stateMutability": "view",
      "type": "function"
    },
    {
      "inputs": [],
      "name": "DEFAULT_SLIPPAGE",
      "outputs": [
        {
          "internalType": "uint256",
          "name": "",
          "type": "uint256"
        }
      ],
      "stateMutability": "view",
      "type": "function"
    },
    {
      "inputs": [],
      "name": "INTERVAL",
      "outputs": [
        {
          "internalType": "uint256",
          "name": "",
          "type": "uint256"
        }
      ],
      "stateMutability": "view",
      "type": "function"
    },
    {
      "inputs": [],
      "name": "MAX_SLIPPAGE",
      "outputs": [
        {
          "internalType": "uint256",
          "name": "",
          "type": "uint256"
        }
      ],
      "stateMutability": "view",
      "type": "function"
    },
    {
      "inputs": [],
      "name": "USDC",
      "outputs": [
        {
          "internalType": "address",
          "name": "",
          "type": "address"
        }
      ],
      "stateMutability": "view",
      "type": "function"
    },
    {
      "inputs": [],
      "name": "WETH",
      "outputs": [
        {
          "internalType": "address",
          "name": "",
          "type": "address"
        }
      ],
      "stateMutability": "view",
      "type": "function"
    },
    {
      "inputs": [
        {
          "internalType": "address",
          "name": "token",
          "type": "address"
        }
      ],
      "name": "addSupportedToken",
      "outputs": [],
      "stateMutability": "nonpayable",
      "type": "function"
    },
    {
      "inputs": [
        {
          "internalType": "address",
          "name": "to",
          "type": "address"
        },
        {
          "internalType": "uint256",
          "name": "tokenId",
          "type": "uint256"
        }
      ],
      "name": "approve",
      "outputs": [],
      "stateMutability": "nonpayable",
      "type": "function"
    },
    {
      "inputs": [
        {
          "internalType": "address",
          "name": "owner",
          "type": "address"
        }
      ],
      "name": "balanceOf",
      "outputs": [
        {
          "internalType": "uint256",
          "name": "",
          "type": "uint256"
        }
      ],
      "stateMutability": "view",
      "type": "function"
    },
    {
      "inputs": [
        {
          "internalType": "uint256",
          "name": "",
          "type": "uint256"
        }
      ],
      "name": "batchFrozen",
      "outputs": [
        {
          "internalType": "bool",
          "name": "",
          "type": "bool"
        }
      ],
      "stateMutability": "view",
      "type": "function"
    },
    {
      "inputs": [
        {
          "internalType": "address",
          "name": "_to",
          "type": "address"
        },
        {
          "internalType": "uint256",
          "name": "_quantity",
          "type": "uint256"
        },
        {
          "internalType": "string",
          "name": "_baseURI",
          "type": "string"
        },
        {
          "internalType": "bytes",
          "name": "_data",
          "type": "bytes"
        }
      ],
      "name": "batchMintTo",
      "outputs": [],
      "stateMutability": "nonpayable",
      "type": "function"
    },
    {
      "inputs": [
        {
          "internalType": "uint256",
          "name": "_tokenId",
          "type": "uint256"
        }
      ],
      "name": "burn",
      "outputs": [],
      "stateMutability": "nonpayable",
      "type": "function"
    },
    {
      "inputs": [
        {
          "internalType": "bytes",
          "name": "",
          "type": "bytes"
        }
      ],
      "name": "checkUpkeep",
      "outputs": [
        {
          "internalType": "bool",
          "name": "upkeepNeeded",
          "type": "bool"
        },
        {
          "internalType": "bytes",
          "name": "performData",
          "type": "bytes"
        }
      ],
      "stateMutability": "view",
      "type": "function"
    },
    {
      "inputs": [],
      "name": "contractURI",
      "outputs": [
        {
          "internalType": "string",
          "name": "",
          "type": "string"
        }
      ],
      "stateMutability": "view",
      "type": "function"
    },
    {
      "inputs": [
        {
          "internalType": "string",
          "name": "_description",
          "type": "string"
        },
        {
          "internalType": "uint256",
          "name": "_estimatedCost",
          "type": "uint256"
        }
      ],
      "name": "createIntent",
      "outputs": [
        {
          "internalType": "uint256",
          "name": "",
          "type": "uint256"
        }
      ],
      "stateMutability": "nonpayable",
      "type": "function"
    },
    {
      "inputs": [
        {
          "internalType": "string",
          "name": "_description",
          "type": "string"
        },
        {
          "internalType": "uint256",
          "name": "_estimatedCost",
          "type": "uint256"
        },
        {
          "internalType": "uint256",
          "name": "_executionTime",
          "type": "uint256"
        },
        {
          "internalType": "address",
          "name": "_tokenIn",
          "type": "address"
        },
        {
          "internalType": "uint256",
          "name": "_amountIn",
          "type": "uint256"
        },
        {
          "internalType": "address",
          "name": "_tokenOut",
          "type": "address"
        },
        {
          "internalType": "uint256",
          "name": "_slippageTolerance",
          "type": "uint256"
        }
      ],
      "name": "createScheduledSwapIntent",
      "outputs": [
        {
          "internalType": "uint256",
          "name": "",
          "type": "uint256"
        }
      ],
      "stateMutability": "nonpayable",
      "type": "function"
    },
    {
      "inputs": [
        {
          "internalType": "string",
          "name": "_description",
          "type": "string"
        },
        {
          "internalType": "uint256",
          "name": "_estimatedCost",
          "type": "uint256"
        },
        {
          "internalType": "address",
          "name": "_tokenIn",
          "type": "address"
        },
        {
          "internalType": "uint256",
          "name": "_amountIn",
          "type": "uint256"
        },
        {
          "internalType": "address",
          "name": "_tokenOut",
          "type": "address"
        },
        {
          "internalType": "uint256",
          "name": "_slippageTolerance",
          "type": "uint256"
        }
      ],
      "name": "createSwapIntent",
      "outputs": [
        {
          "internalType": "uint256",
          "name": "",
          "type": "uint256"
        }
      ],
      "stateMutability": "nonpayable",
      "type": "function"
    },
    {
      "inputs": [
        {
          "internalType": "address",
          "name": "token",
          "type": "address"
        },
        {
          "internalType": "uint256",
          "name": "amount",
          "type": "uint256"
        }
      ],
      "name": "depositToken",
      "outputs": [],
      "stateMutability": "nonpayable",
      "type": "function"
    },
    {
      "inputs": [
        {
          "internalType": "address",
          "name": "token",
          "type": "address"
        }
      ],
      "name": "emergencyWithdraw",
      "outputs": [],
      "stateMutability": "nonpayable",
      "type": "function"
    },
    {
      "inputs": [],
      "name": "emergencyWithdrawETH",
      "outputs": [],
      "stateMutability": "nonpayable",
      "type": "function"
    },
    {
      "inputs": [
        {
          "internalType": "uint256",
          "name": "_intentId",
          "type": "uint256"
        }
      ],
      "name": "executeIntent",
      "outputs": [],
      "stateMutability": "nonpayable",
      "type": "function"
    },
    {
      "inputs": [
        {
          "internalType": "address",
          "name": "tokenIn",
          "type": "address"
        },
        {
          "internalType": "uint256",
          "name": "amountIn",
          "type": "uint256"
        },
        {
          "internalType": "address",
          "name": "tokenOut",
          "type": "address"
        },
        {
          "internalType": "address",
          "name": "recipient",
          "type": "address"
        },
        {
          "internalType": "uint256",
          "name": "slippageTolerance",
          "type": "uint256"
        }
      ],
      "name": "executeSwap",
      "outputs": [
        {
          "internalType": "uint256",
          "name": "amountOut",
          "type": "uint256"
        }
      ],
      "stateMutability": "nonpayable",
      "type": "function"
    },
    {
      "inputs": [
        {
          "internalType": "uint256",
          "name": "tokenId",
          "type": "uint256"
        }
      ],
      "name": "explicitOwnershipOf",
      "outputs": [
        {
          "components": [
            {
              "internalType": "address",
              "name": "addr",
              "type": "address"
            },
            {
              "internalType": "uint64",
              "name": "startTimestamp",
              "type": "uint64"
            },
            {
              "internalType": "bool",
              "name": "burned",
              "type": "bool"
            }
          ],
          "internalType": "struct IERC721A.TokenOwnership",
          "name": "",
          "type": "tuple"
        }
      ],
      "stateMutability": "view",
      "type": "function"
    },
    {
      "inputs": [
        {
          "internalType": "uint256[]",
          "name": "tokenIds",
          "type": "uint256[]"
        }
      ],
      "name": "explicitOwnershipsOf",
      "outputs": [
        {
          "components": [
            {
              "internalType": "address",
              "name": "addr",
              "type": "address"
            },
            {
              "internalType": "uint64",
              "name": "startTimestamp",
              "type": "uint64"
            },
            {
              "internalType": "bool",
              "name": "burned",
              "type": "bool"
            }
          ],
          "internalType": "struct IERC721A.TokenOwnership[]",
          "name": "",
          "type": "tuple[]"
        }
      ],
      "stateMutability": "view",
      "type": "function"
    },
    {
      "inputs": [],
      "name": "functionsConsumer",
      "outputs": [
        {
          "internalType": "address",
          "name": "",
          "type": "address"
        }
      ],
      "stateMutability": "view",
      "type": "function"
    },
    {
      "inputs": [
        {
          "internalType": "uint256",
          "name": "tokenId",
          "type": "uint256"
        }
      ],
      "name": "getApproved",
      "outputs": [
        {
          "internalType": "address",
          "name": "",
          "type": "address"
        }
      ],
      "stateMutability": "view",
      "type": "function"
    },
    {
      "inputs": [],
      "name": "getBaseURICount",
      "outputs": [
        {
          "internalType": "uint256",
          "name": "",
          "type": "uint256"
        }
      ],
      "stateMutability": "view",
      "type": "function"
    },
    {
      "inputs": [
        {
          "internalType": "uint256",
          "name": "_index",
          "type": "uint256"
        }
      ],
      "name": "getBatchIdAtIndex",
      "outputs": [
        {
          "internalType": "uint256",
          "name": "",
          "type": "uint256"
        }
      ],
      "stateMutability": "view",
      "type": "function"
    },
    {
      "inputs": [],
      "name": "getDefaultRoyaltyInfo",
      "outputs": [
        {
          "internalType": "address",
          "name": "",
          "type": "address"
        },
        {
          "internalType": "uint16",
          "name": "",
          "type": "uint16"
        }
      ],
      "stateMutability": "view",
      "type": "function"
    },
    {
      "inputs": [
        {
          "internalType": "uint256",
          "name": "_intentId",
          "type": "uint256"
        }
      ],
      "name": "getIntent",
      "outputs": [
        {
          "components": [
            {
              "internalType": "uint256",
              "name": "id",
              "type": "uint256"
            },
            {
              "internalType": "address",
              "name": "user",
              "type": "address"
            },
            {
              "internalType": "string",
              "name": "description",
              "type": "string"
            },
            {
              "internalType": "uint256",
              "name": "estimatedCost",
              "type": "uint256"
            },
            {
              "internalType": "uint256",
              "name": "timestamp",
              "type": "uint256"
            },
            {
              "internalType": "uint256",
              "name": "executionTime",
              "type": "uint256"
            },
            {
              "internalType": "bool",
              "name": "executed",
              "type": "bool"
            },
            {
              "internalType": "bool",
              "name": "isScheduled",
              "type": "bool"
            },
            {
              "internalType": "address",
              "name": "tokenIn",
              "type": "address"
            },
            {
              "internalType": "uint256",
              "name": "amountIn",
              "type": "uint256"
            },
            {
              "internalType": "address",
              "name": "tokenOut",
              "type": "address"
            },
            {
              "internalType": "uint256",
              "name": "slippageTolerance",
              "type": "uint256"
            }
          ],
          "internalType": "struct WalletPlanner.Intent",
          "name": "",
          "type": "tuple"
        }
      ],
      "stateMutability": "view",
      "type": "function"
    },
    {
      "inputs": [
        {
          "internalType": "uint256",
          "name": "_tokenId",
          "type": "uint256"
        }
      ],
      "name": "getRoyaltyInfoForToken",
      "outputs": [
        {
          "internalType": "address",
          "name": "",
          "type": "address"
        },
        {
          "internalType": "uint16",
          "name": "",
          "type": "uint16"
        }
      ],
      "stateMutability": "view",
      "type": "function"
    },
    {
      "inputs": [
        {
          "internalType": "address",
          "name": "tokenIn",
          "type": "address"
        },
        {
          "internalType": "uint256",
          "name": "amountIn",
          "type": "uint256"
        },
        {
          "internalType": "address",
          "name": "tokenOut",
          "type": "address"
        }
      ],
      "name": "getSwapEstimate",
      "outputs": [
        {
          "internalType": "uint256",
          "name": "estimatedAmountOut",
          "type": "uint256"
        }
      ],
      "stateMutability": "view",
      "type": "function"
    },
    {
      "inputs": [
        {
          "internalType": "address",
          "name": "user",
          "type": "address"
        },
        {
          "internalType": "address",
          "name": "token",
          "type": "address"
        }
      ],
      "name": "getUserBalance",
      "outputs": [
        {
          "internalType": "uint256",
          "name": "",
          "type": "uint256"
        }
      ],
      "stateMutability": "view",
      "type": "function"
    },
    {
      "inputs": [
        {
          "internalType": "address",
          "name": "_user",
          "type": "address"
        }
      ],
      "name": "getUserIntents",
      "outputs": [
        {
          "internalType": "uint256[]",
          "name": "",
          "type": "uint256[]"
        }
      ],
      "stateMutability": "view",
      "type": "function"
    },
    {
      "inputs": [
        {
          "internalType": "uint256",
          "name": "",
          "type": "uint256"
        }
      ],
      "name": "intents",
      "outputs": [
        {
          "internalType": "uint256",
          "name": "id",
          "type": "uint256"
        },
        {
          "internalType": "address",
          "name": "user",
          "type": "address"
        },
        {
          "internalType": "string",
          "name": "description",
          "type": "string"
        },
        {
          "internalType": "uint256",
          "name": "estimatedCost",
          "type": "uint256"
        },
        {
          "internalType": "uint256",
          "name": "timestamp",
          "type": "uint256"
        },
        {
          "internalType": "uint256",
          "name": "executionTime",
          "type": "uint256"
        },
        {
          "internalType": "bool",
          "name": "executed",
          "type": "bool"
        },
        {
          "internalType": "bool",
          "name": "isScheduled",
          "type": "bool"
        },
        {
          "internalType": "address",
          "name": "tokenIn",
          "type": "address"
        },
        {
          "internalType": "uint256",
          "name": "amountIn",
          "type": "uint256"
        },
        {
          "internalType": "address",
          "name": "tokenOut",
          "type": "address"
        },
        {
          "internalType": "uint256",
          "name": "slippageTolerance",
          "type": "uint256"
        }
      ],
      "stateMutability": "view",
      "type": "function"
    },
    {
      "inputs": [
        {
          "internalType": "address",
          "name": "owner",
          "type": "address"
        },
        {
          "internalType": "address",
          "name": "operator",
          "type": "address"
        }
      ],
      "name": "isApprovedForAll",
      "outputs": [
        {
          "internalType": "bool",
          "name": "",
          "type": "bool"
        }
      ],
      "stateMutability": "view",
      "type": "function"
    },
    {
      "inputs": [
        {
          "internalType": "address",
          "name": "_operator",
          "type": "address"
        },
        {
          "internalType": "uint256",
          "name": "_tokenId",
          "type": "uint256"
        }
      ],
      "name": "isApprovedOrOwner",
      "outputs": [
        {
          "internalType": "bool",
          "name": "isApprovedOrOwnerOf",
          "type": "bool"
        }
      ],
      "stateMutability": "view",
      "type": "function"
    },
    {
      "inputs": [],
      "name": "lastChecked",
      "outputs": [
        {
          "internalType": "uint256",
          "name": "",
          "type": "uint256"
        }
      ],
      "stateMutability": "view",
      "type": "function"
    },
    {
      "inputs": [
        {
          "internalType": "address",
          "name": "_to",
          "type": "address"
        },
        {
          "internalType": "string",
          "name": "_tokenURI",
          "type": "string"
        }
      ],
      "name": "mintTo",
      "outputs": [],
      "stateMutability": "nonpayable",
      "type": "function"
    },
    {
      "inputs": [
        {
          "internalType": "bytes[]",
          "name": "data",
          "type": "bytes[]"
        }
      ],
      "name": "multicall",
      "outputs": [
        {
          "internalType": "bytes[]",
          "name": "results",
          "type": "bytes[]"
        }
      ],
      "stateMutability": "nonpayable",
      "type": "function"
    },
    {
      "inputs": [],
      "name": "name",
      "outputs": [
        {
          "internalType": "string",
          "name": "",
          "type": "string"
        }
      ],
      "stateMutability": "view",
      "type": "function"
    },
    {
      "inputs": [],
      "name": "nextTokenIdToMint",
      "outputs": [
        {
          "internalType": "uint256",
          "name": "",
          "type": "uint256"
        }
      ],
      "stateMutability": "view",
      "type": "function"
    },
    {
      "inputs": [],
      "name": "owner",
      "outputs": [
        {
          "internalType": "address",
          "name": "",
          "type": "address"
        }
      ],
      "stateMutability": "view",
      "type": "function"
    },
    {
      "inputs": [
        {
          "internalType": "uint256",
          "name": "tokenId",
          "type": "uint256"
        }
      ],
      "name": "ownerOf",
      "outputs": [
        {
          "internalType": "address",
          "name": "",
          "type": "address"
        }
      ],
      "stateMutability": "view",
      "type": "function"
    },
    {
      "inputs": [
        {
          "internalType": "bytes",
          "name": "performData",
          "type": "bytes"
        }
      ],
      "name": "performUpkeep",
      "outputs": [],
      "stateMutability": "nonpayable",
      "type": "function"
    },
    {
      "inputs": [
        {
          "internalType": "address",
          "name": "token",
          "type": "address"
        }
      ],
      "name": "removeSupportedToken",
      "outputs": [],
      "stateMutability": "nonpayable",
      "type": "function"
    },
    {
      "inputs": [
        {
          "internalType": "uint256",
          "name": "tokenId",
          "type": "uint256"
        },
        {
          "internalType": "uint256",
          "name": "salePrice",
          "type": "uint256"
        }
      ],
      "name": "royaltyInfo",
      "outputs": [
        {
          "internalType": "address",
          "name": "receiver",
          "type": "address"
        },
        {
          "internalType": "uint256",
          "name": "royaltyAmount",
          "type": "uint256"
        }
      ],
      "stateMutability": "view",
      "type": "function"
    },
    {
      "inputs": [
        {
          "internalType": "address",
          "name": "from",
          "type": "address"
        },
        {
          "internalType": "address",
          "name": "to",
          "type": "address"
        },
        {
          "internalType": "uint256",
          "name": "tokenId",
          "type": "uint256"
        }
      ],
      "name": "safeTransferFrom",
      "outputs": [],
      "stateMutability": "nonpayable",
      "type": "function"
    },
    {
      "inputs": [
        {
          "internalType": "address",
          "name": "from",
          "type": "address"
        },
        {
          "internalType": "address",
          "name": "to",
          "type": "address"
        },
        {
          "internalType": "uint256",
          "name": "tokenId",
          "type": "uint256"
        },
        {
          "internalType": "bytes",
          "name": "_data",
          "type": "bytes"
        }
      ],
      "name": "safeTransferFrom",
      "outputs": [],
      "stateMutability": "nonpayable",
      "type": "function"
    },
    {
      "inputs": [
        {
          "internalType": "address",
          "name": "operator",
          "type": "address"
        },
        {
          "internalType": "bool",
          "name": "approved",
          "type": "bool"
        }
      ],
      "name": "setApprovalForAll",
      "outputs": [],
      "stateMutability": "nonpayable",
      "type": "function"
    },
    {
      "inputs": [
        {
          "internalType": "string",
          "name": "_uri",
          "type": "string"
        }
      ],
      "name": "setContractURI",
      "outputs": [],
      "stateMutability": "nonpayable",
      "type": "function"
    },
    {
      "inputs": [
        {
          "internalType": "address",
          "name": "_royaltyRecipient",
          "type": "address"
        },
        {
          "internalType": "uint256",
          "name": "_royaltyBps",
          "type": "uint256"
        }
      ],
      "name": "setDefaultRoyaltyInfo",
      "outputs": [],
      "stateMutability": "nonpayable",
      "type": "function"
    },
    {
      "inputs": [
        {
          "internalType": "address",
          "name": "_functionsConsumer",
          "type": "address"
        }
      ],
      "name": "setFunctionsConsumer",
      "outputs": [],
      "stateMutability": "nonpayable",
      "type": "function"
    },
    {
      "inputs": [
        {
          "internalType": "address",
          "name": "_newOwner",
          "type": "address"
        }
      ],
      "name": "setOwner",
      "outputs": [],
      "stateMutability": "nonpayable",
      "type": "function"
    },
    {
      "inputs": [
        {
          "internalType": "uint256",
          "name": "_tokenId",
          "type": "uint256"
        },
        {
          "internalType": "address",
          "name": "_recipient",
          "type": "address"
        },
        {
          "internalType": "uint256",
          "name": "_bps",
          "type": "uint256"
        }
      ],
      "name": "setRoyaltyInfoForToken",
      "outputs": [],
      "stateMutability": "nonpayable",
      "type": "function"
    },
    {
      "inputs": [
        {
          "internalType": "address",
          "name": "",
          "type": "address"
        }
      ],
      "name": "supportedTokens",
      "outputs": [
        {
          "internalType": "bool",
          "name": "",
          "type": "bool"
        }
      ],
      "stateMutability": "view",
      "type": "function"
    },
    {
      "inputs": [
        {
          "internalType": "bytes4",
          "name": "interfaceId",
          "type": "bytes4"
        }
      ],
      "name": "supportsInterface",
      "outputs": [
        {
          "internalType": "bool",
          "name": "",
          "type": "bool"
        }
      ],
      "stateMutability": "view",
      "type": "function"
    },
    {
      "inputs": [],
      "name": "symbol",
      "outputs": [
        {
          "internalType": "string",
          "name": "",
          "type": "string"
        }
      ],
      "stateMutability": "view",
      "type": "function"
    },
    {
      "inputs": [
        {
          "internalType": "uint256",
          "name": "_tokenId",
          "type": "uint256"
        }
      ],
      "name": "tokenURI",
      "outputs": [
        {
          "internalType": "string",
          "name": "",
          "type": "string"
        }
      ],
      "stateMutability": "view",
      "type": "function"
    },
    {
      "inputs": [
        {
          "internalType": "address",
          "name": "owner",
          "type": "address"
        }
      ],
      "name": "tokensOfOwner",
      "outputs": [
        {
          "internalType": "uint256[]",
          "name": "",
          "type": "uint256[]"
        }
      ],
      "stateMutability": "view",
      "type": "function"
    },
    {
      "inputs": [
        {
          "internalType": "address",
          "name": "owner",
          "type": "address"
        },
        {
          "internalType": "uint256",
          "name": "start",
          "type": "uint256"
        },
        {
          "internalType": "uint256",
          "name": "stop",
          "type": "uint256"
        }
      ],
      "name": "tokensOfOwnerIn",
      "outputs": [
        {
          "internalType": "uint256[]",
          "name": "",
          "type": "uint256[]"
        }
      ],
      "stateMutability": "view",
      "type": "function"
    },
    {
      "inputs": [],
      "name": "totalSupply",
      "outputs": [
        {
          "internalType": "uint256",
          "name": "",
          "type": "uint256"
        }
      ],
      "stateMutability": "view",
      "type": "function"
    },
    {
      "inputs": [
        {
          "internalType": "address",
          "name": "from",
          "type": "address"
        },
        {
          "internalType": "address",
          "name": "to",
          "type": "address"
        },
        {
          "internalType": "uint256",
          "name": "tokenId",
          "type": "uint256"
        }
      ],
      "name": "transferFrom",
      "outputs": [],
      "stateMutability": "nonpayable",
      "type": "function"
    },
    {
      "inputs": [],
      "name": "uniswapRouter",
      "outputs": [
        {
          "internalType": "contract IUniswapV2Router02",
          "name": "",
          "type": "address"
        }
      ],
      "stateMutability": "view",
      "type": "function"
    },
    {
      "inputs": [
        {
          "internalType": "address",
          "name": "",
          "type": "address"
        },
        {
          "internalType": "address",
          "name": "",
          "type": "address"
        }
      ],
      "name": "userBalances",
      "outputs": [
        {
          "internalType": "uint256",
          "name": "",
          "type": "uint256"
        }
      ],
      "stateMutability": "view",
      "type": "function"
    },
    {
      "inputs": [
        {
          "internalType": "address",
          "name": "",
          "type": "address"
        },
        {
          "internalType": "uint256",
          "name": "",
          "type": "uint256"
        }
      ],
      "name": "userIntents",
      "outputs": [
        {
          "internalType": "uint256",
          "name": "",
          "type": "uint256"
        }
      ],
      "stateMutability": "view",
      "type": "function"
    },
    {
      "inputs": [
        {
          "internalType": "address",
          "name": "token",
          "type": "address"
        },
        {
          "internalType": "uint256",
          "name": "amount",
          "type": "uint256"
        }
      ],
      "name": "withdrawToken",
      "outputs": [],
      "stateMutability": "nonpayable",
      "type": "function"
    },
    {
      "stateMutability": "payable",
      "type": "receive"
    }
  ],
  "bytecode": "0x60a06040523480156200001157600080fd5b5060405162006b2a38038062006b2a833981016040819052620000349162000338565b85858585858383600262000049838262000489565b50600362000058828262000489565b505060008055506200006a856200016f565b6200007f826001600160801b038316620001c1565b505050506001600160a01b038216159050620000a8576001600160a01b038116608052620000c1565b73c532a74256d3db42d0bf7a0400fefdbad76940086080525b5050601460205250507f4f9053452157b4cea1242edc5539416610407ce8477c1a7a9036e88748ef0c7f8054600160ff1991821681179092557fe77da4f610b28935e934a6462fcdfb2ad6a0b0e24d20ef6dda246f831b48d72c805482168317905573fff9976782d46cc05630d1f6ebab18b2324d6b146000527fdc7948e2eb5a76580fa7093b5c69463e8d61d81b599b38c0a1ab26395c85778f8054909116909117905550620005559050565b600980546001600160a01b038381166001600160a01b0319831681179093556040519116919082907f8292fce18fa69edf4db7b94ea2e58241df0ae57f97e0a6c9b29067028bf92d7690600090a35050565b612710811115620001f457604051630a4930ad60e31b815261271060048201526024810182905260440160405180910390fd5b600a80546001600160a01b0384166001600160b01b03199091168117600160a01b61ffff851602179091556040518281527f90d7ec04bcb8978719414f82e52e4cb651db41d0e6f8cea6118c2191e6183adb9060200160405180910390a25050565b80516001600160a01b03811681146200026e57600080fd5b919050565b634e487b7160e01b600052604160045260246000fd5b600082601f8301126200029b57600080fd5b81516001600160401b0380821115620002b857620002b862000273565b604051601f8301601f19908116603f01168101908282118183101715620002e357620002e362000273565b816040528381526020925086838588010111156200030057600080fd5b600091505b8382101562000324578582018301518183018401529082019062000305565b600093810190920192909252949350505050565b60008060008060008060c087890312156200035257600080fd5b6200035d8762000256565b60208801519096506001600160401b03808211156200037b57600080fd5b620003898a838b0162000289565b96506040890151915080821115620003a057600080fd5b50620003af89828a0162000289565b945050620003c06060880162000256565b60808801519093506001600160801b0381168114620003de57600080fd5b9150620003ee60a0880162000256565b90509295509295509295565b600181811c908216806200040f57607f821691505b6020821081036200043057634e487b7160e01b600052602260045260246000fd5b50919050565b601f8211156200048457600081815260208120601f850160051c810160208610156200045f5750805b601f850160051c820191505b8181101562000480578281556001016200046b565b5050505b505050565b81516001600160401b03811115620004a557620004a562000273565b620004bd81620004b68454620003fa565b8462000436565b602080601f831160018114620004f55760008415620004dc5750858301515b600019600386901b1c1916600185901b17855562000480565b600085815260208120601f198616915b82811015620005265788860151825594840194600190910190840162000505565b5085821015620005455787850151600019600388901b60f8161c191681555b5050505050600190811b01905550565b60805161656c620005be600039600081816108dd01528181611cd601528181611e0701528181611ed10152818161216d0152818161224301528181613aa70152818161458a015281816146bb0152818161478501528181614a210152614af7015261656c6000f3fe6080604052600436106104175760003560e01c80637631919011610228578063ac9650d811610128578063cd9d6aee116100bb578063e8a3d4851161008a578063f97595181161006f578063f975951814610d65578063fa3209b214610d7b578063fbd7c03614610d9b57600080fd5b8063e8a3d48514610d07578063e985e9c514610d1c57600080fd5b8063cd9d6aee14610c89578063de02666b14610ca9578063e0bab4c414610cc9578063e5ada13e14610cf157600080fd5b8063b88d4fde116100f7578063b88d4fde14610bfc578063c056cd0f14610c1c578063c23dc68f14610c3c578063c87b56dd14610c6957600080fd5b8063ac9650d814610b44578063ad5c464814610b71578063adb5198014610b99578063b24f2d3914610bd157600080fd5b8063906e277b116101bb5780639bcf7a151161018a578063a22cb4651161016f578063a22cb46514610aef578063a879851014610b0f578063abef9ba114610b2457600080fd5b80639bcf7a1514610aaf5780639e281a9814610acf57600080fd5b8063906e277b14610a2d578063938e3d7b14610a5a57806395d89b4114610a7a57806399a2557a14610a8f57600080fd5b806389a30271116101f757806389a30271146109b157806389c9c3ae146109d957806389facb20146109f95780638da5cb5b14610a0f57600080fd5b8063763191901461091f578063830405321461093f578063845360171461096f5780638462151c1461098457600080fd5b80634585e33b116103335780636805d6ad116102c65780636e04ff0d1161029557806370a082311161027a57806370a08231146108ab578063735de9f7146108cb578063754a81d9146108ff57600080fd5b80636e04ff0d1461085d5780636ff1c9bc1461088b57600080fd5b80636805d6ad146107a7578063685b2bcc146107ed57806368c4ac261461080d5780636d69fcaf1461083d57600080fd5b8063600dd5ea11610302578063600dd5ea146107325780636352211e1461075257806363b45e2d1461077257806366af889d1461078757600080fd5b80634585e33b1461066b57806346a1a0951461068b5780634cc157df146106c35780635bbb21771461070557600080fd5b806323b872dd116103ab5780633b1475a71161037a5780633b1475a7146105f657806342842e0e1461060b57806342966c681461062b578063430c20811461064b57600080fd5b806323b872dd146105575780632419f51b146105775780632a55205a14610597578063338b5dea146105d657600080fd5b8063081812fc116103e7578063081812fc146104d4578063095ea7b3146104f457806313af40351461051457806318160ddd1461053457600080fd5b806275a3171461042357806301ffc9a7146104455780630689bafd1461047a57806306fdde03146104b257600080fd5b3661041e57005b600080fd5b34801561042f57600080fd5b5061044361043e3660046156e2565b610dbb565b005b34801561045157600080fd5b50610465610460366004615746565b610dfa565b60405190151581526020015b60405180910390f35b34801561048657600080fd5b5060165461049a906001600160a01b031681565b6040516001600160a01b039091168152602001610471565b3480156104be57600080fd5b506104c7610ecb565b60405161047191906157b3565b3480156104e057600080fd5b5061049a6104ef3660046157c6565b610f5d565b34801561050057600080fd5b5061044361050f3660046157df565b610fba565b34801561052057600080fd5b5061044361052f366004615809565b611072565b34801561054057600080fd5b50600154600054035b604051908152602001610471565b34801561056357600080fd5b50610443610572366004615824565b6110a3565b34801561058357600080fd5b506105496105923660046157c6565b6110ae565b3480156105a357600080fd5b506105b76105b2366004615860565b611119565b604080516001600160a01b039093168352602083019190915201610471565b3480156105e257600080fd5b506104436105f13660046157df565b611156565b34801561060257600080fd5b50600054610549565b34801561061757600080fd5b50610443610626366004615824565b61131c565b34801561063757600080fd5b506104436106463660046157c6565b611337565b34801561065757600080fd5b506104656106663660046157df565b611342565b34801561067757600080fd5b50610443610686366004615882565b6113c1565b34801561069757600080fd5b506106ab6106a63660046157c6565b61155e565b6040516104719c9b9a999897969594939291906158f4565b3480156106cf57600080fd5b506106e36106de3660046157c6565b611662565b604080516001600160a01b03909316835261ffff909116602083015201610471565b34801561071157600080fd5b50610725610720366004615990565b6116cd565b6040516104719190615a26565b34801561073e57600080fd5b5061044361074d3660046157df565b611794565b34801561075e57600080fd5b5061049a61076d3660046157c6565b6117c3565b34801561077e57600080fd5b50600c54610549565b34801561079357600080fd5b506105496107a2366004615a91565b6117d5565b3480156107b357600080fd5b506105496107c2366004615b16565b6001600160a01b03918216600090815260136020908152604080832093909416825291909152205490565b3480156107f957600080fd5b50610549610808366004615b49565b611b5a565b34801561081957600080fd5b50610465610828366004615809565b60146020526000908152604090205460ff1681565b34801561084957600080fd5b50610443610858366004615809565b612364565b34801561086957600080fd5b5061087d610878366004615882565b6123b3565b604051610471929190615b9e565b34801561089757600080fd5b506104436108a6366004615809565b612486565b3480156108b757600080fd5b506105496108c6366004615809565b6125c9565b3480156108d757600080fd5b5061049a7f000000000000000000000000000000000000000000000000000000000000000081565b34801561090b57600080fd5b5061044361091a366004615bb9565b612631565b34801561092b57600080fd5b5061044361093a366004615809565b612657565b34801561094b57600080fd5b5061046561095a3660046157c6565b600e6020526000908152604090205460ff1681565b34801561097b57600080fd5b506104436126a3565b34801561099057600080fd5b506109a461099f366004615809565b612707565b6040516104719190615c37565b3480156109bd57600080fd5b5061049a731c7d4b196cb0c7b01d743fbc6116a902379c723881565b3480156109e557600080fd5b506105496109f43660046157df565b612846565b348015610a0557600080fd5b50610549610e1081565b348015610a1b57600080fd5b506009546001600160a01b031661049a565b348015610a3957600080fd5b50610a4d610a483660046157c6565b612877565b6040516104719190615c6f565b348015610a6657600080fd5b50610443610a75366004615d52565b612a43565b348015610a8657600080fd5b506104c7612a8a565b348015610a9b57600080fd5b506109a4610aaa366004615d87565b612a99565b348015610abb57600080fd5b50610443610aca366004615dba565b612c67565b348015610adb57600080fd5b50610443610aea3660046157df565b612c97565b348015610afb57600080fd5b50610443610b0a366004615ded565b612e0a565b348015610b1b57600080fd5b5061054960c881565b348015610b3057600080fd5b50610549610b3f366004615e24565b612eb1565b348015610b5057600080fd5b50610b64610b5f366004615e69565b613089565b6040516104719190615ecc565b348015610b7d57600080fd5b5061049a73fff9976782d46cc05630d1f6ebab18b2324d6b1481565b348015610ba557600080fd5b50610549610bb4366004615b16565b601360209081526000928352604080842090915290825290205481565b348015610bdd57600080fd5b50600a546001600160a01b03811690600160a01b900461ffff166106e3565b348015610c0857600080fd5b50610443610c17366004615f2e565b6131f9565b348015610c2857600080fd5b50610549610c37366004615f8a565b61323d565b348015610c4857600080fd5b50610c5c610c573660046157c6565b61354c565b6040516104719190616004565b348015610c7557600080fd5b506104c7610c843660046157c6565b6135fb565b348015610c9557600080fd5b50610443610ca43660046157c6565b6136e9565b348015610cb557600080fd5b50610549610cc436600461603a565b613857565b348015610cd557600080fd5b5061049a73ff34b3d4aee8ddcd6f9afffb6fe49bd371b8a35781565b348015610cfd57600080fd5b5061054960155481565b348015610d1357600080fd5b506104c7613b5b565b348015610d2857600080fd5b50610465610d37366004615b16565b6001600160a01b03918216600090815260076020908152604080832093909416825291909152205460ff1690565b348015610d7157600080fd5b506105496101f481565b348015610d8757600080fd5b506109a4610d96366004615809565b613be9565b348015610da757600080fd5b50610443610db6366004615809565b613c55565b610dc9565b60405180910390fd5b610ddb610dd560005490565b82613ca2565b610df682600160405180602001604052806000815250613d22565b5050565b60007f01ffc9a7000000000000000000000000000000000000000000000000000000006001600160e01b031983161480610e5d57507f80ac58cd000000000000000000000000000000000000000000000000000000006001600160e01b03198316145b80610e9157507f5b5e139f000000000000000000000000000000000000000000000000000000006001600160e01b03198316145b80610ec557506001600160e01b031982167f2a55205a00000000000000000000000000000000000000000000000000000000145b92915050565b606060028054610eda90616076565b80601f0160208091040260200160405190810160405280929190818152602001828054610f0690616076565b8015610f535780601f10610f2857610100808354040283529160200191610f53565b820191906000526020600020905b815481529060010190602001808311610f3657829003601f168201915b5050505050905090565b6000610f6882613eea565b610f9e576040517fcf4700e400000000000000000000000000000000000000000000000000000000815260040160405180910390fd5b506000908152600660205260409020546001600160a01b031690565b6000610fc5826117c3565b9050806001600160a01b0316836001600160a01b031603611012576040517f943f7b8c00000000000000000000000000000000000000000000000000000000815260040160405180910390fd5b336001600160a01b038216146110625761102c8133610d37565b611062576040517fcfb3b94200000000000000000000000000000000000000000000000000000000815260040160405180910390fd5b61106d838383613f15565b505050565b61107a613f71565b611097576040516316ccb9cb60e11b815260040160405180910390fd5b6110a081613f9e565b50565b61106d838383613ff0565b60006110b9600c5490565b82106110f4576040517f0f2624ee00000000000000000000000000000000000000000000000000000000815260048101839052602401610dc0565b600c8281548110611107576111076160b0565b90600052602060002001549050919050565b60008060008061112886611662565b90945084925061ffff16905061271061114182876160dc565b61114b9190616109565b925050509250929050565b6001600160a01b03821660009081526014602052604090205460ff166111be5760405162461bcd60e51b815260206004820152601360248201527f546f6b656e206e6f7420737570706f72746564000000000000000000000000006044820152606401610dc0565b6000811161120e5760405162461bcd60e51b815260206004820152601d60248201527f416d6f756e74206d7573742062652067726561746572207468616e20300000006044820152606401610dc0565b6040517f23b872dd000000000000000000000000000000000000000000000000000000008152336004820152306024820152604481018290526001600160a01b038316906323b872dd906064016020604051808303816000875af115801561127a573d6000803e3d6000fd5b505050506040513d601f19601f8201168201806040525081019061129e919061611d565b503360009081526013602090815260408083206001600160a01b0386168452909152812080548392906112d290849061613a565b90915550506040518181526001600160a01b0383169033907ff1444b5cad7ce70cb018d1b8edc8618fe303f3c7f034d8d572a6e27facbf2bef906020015b60405180910390a35050565b61106d838383604051806020016040528060008152506131f9565b6110a0816001614212565b60008061134e836117c3565b9050806001600160a01b0316846001600160a01b0316148061139557506001600160a01b0380821660009081526007602090815260408083209388168352929052205460ff165b806113b95750836001600160a01b03166113ae84610f5d565b6001600160a01b0316145b949350505050565b60006113cf828401846157c6565b4260155590506000805b601054811080156113e957508282105b1561151e5760008181526011602052604090206006810154610100900460ff16801561141a5750600681015460ff16155b801561142a575080600501544210155b1561150b5760068101805460ff19166001179055826114488161614d565b60068301549094506201000090046001600160a01b03161580159150611472575060008160070154115b156114b357600681015460078201546008830154600184015460098501546114b1946001600160a01b0362010000909104811694938116921690614408565b505b6001808201546114ce916001600160a01b0390911690614c1a565b60018101546040516001600160a01b039091169083907f6852407858602d696344801f0181bc507c808c727c914bb6cdfeabd42431af3890600090a35b50806115168161614d565b9150506113d9565b5060408051428152602081018390527ff2d16d924eb54b4e0b6d5caea0349992ed5475ad6772b934ee978621b5d3d401910160405180910390a150505050565b60116020526000908152604090208054600182015460028301805492936001600160a01b039092169261159090616076565b80601f01602080910402602001604051908101604052809291908181526020018280546115bc90616076565b80156116095780601f106115de57610100808354040283529160200191611609565b820191906000526020600020905b8154815290600101906020018083116115ec57829003601f168201915b5050505060038301546004840154600585015460068601546007870154600888015460099098015496979496939550919360ff80831694610100840490911693620100009093046001600160a01b03908116939216908c565b6000818152600b60209081526040808320815180830190925280546001600160a01b0316808352600190910154928201929092528291156116a957805160208201516116c3565b600a546001600160a01b03811690600160a01b900461ffff165b9250925050915091565b805160609060008167ffffffffffffffff8111156116ed576116ed61562b565b60405190808252806020026020018201604052801561173857816020015b604080516060810182526000808252602080830182905292820152825260001990920191018161170b5790505b50905060005b82811461178c5761176785828151811061175a5761175a6160b0565b602002602001015161354c565b828281518110611779576117796160b0565b602090810291909101015260010161173e565b509392505050565b61179c613f71565b6117b957604051636fae358160e11b815260040160405180910390fd5b610df68282614d4d565b60006117ce82614df5565b5192915050565b600042861161184b5760405162461bcd60e51b8152602060048201526024808201527f457865637574696f6e2074696d65206d75737420626520696e2074686520667560448201527f74757265000000000000000000000000000000000000000000000000000000006064820152608401610dc0565b6001600160a01b03851660009081526014602052604090205460ff166118b35760405162461bcd60e51b815260206004820152601360248201527f546f6b656e206e6f7420737570706f72746564000000000000000000000000006044820152606401610dc0565b3360009081526013602090815260408083206001600160a01b03891684529091529020548411156119145760405162461bcd60e51b815260206004820152600b60248201526a4c6f772062616c616e636560a81b6044820152606401610dc0565b6101f48211156119565760405162461bcd60e51b815260206004820152600d60248201526c4869676820736c69707061676560981b6044820152606401610dc0565b60108054600091826119678361614d565b919050559050604051806101800160405280828152602001336001600160a01b031681526020018a8152602001898152602001428152602001888152602001600015158152602001600115158152602001876001600160a01b03168152602001868152602001856001600160a01b03168152602001600085116119eb5760c86119ed565b845b905260008281526011602090815260409182902083518155908301516001820180546001600160a01b0319166001600160a01b03909216919091179055908201516002820190611a3d90826161b4565b50606082015160038201556080820151600482015560a0820151600582015560c082015160068201805460e08501516101008087015161ffff1990931694151561ff001916949094179015159093029290921775ffffffffffffffffffffffffffffffffffffffff00001916620100006001600160a01b039384160217905561012083015160078301556101408301516008830180546001600160a01b0319169190921617905561016090910151600990910155336000818152601260209081526040808320805460018101825590845291909220018390555182907fb6f430c8722299f241d9c66e77ee068ce71fb3d66d1c0af7d457ef4e50b4e59b90611b46908d906157b3565b60405180910390a398975050505050505050565b6001600160a01b03851660009081526014602052604081205460ff16611bc25760405162461bcd60e51b815260206004820152601960248201527f496e70757420746f6b656e206e6f7420737570706f72746564000000000000006044820152606401610dc0565b3360009081526013602090815260408083206001600160a01b038a168452909152902054851115611c355760405162461bcd60e51b815260206004820152601460248201527f496e73756666696369656e742062616c616e63650000000000000000000000006044820152606401610dc0565b6101f4821115611c875760405162461bcd60e51b815260206004820152601160248201527f536c69707061676520746f6f20686967680000000000000000000000000000006044820152606401610dc0565b3360009081526013602090815260408083206001600160a01b038a16845290915281208054879290611cba908490616274565b909155505060405163095ea7b360e01b81526001600160a01b037f0000000000000000000000000000000000000000000000000000000000000000811660048301526024820187905287169063095ea7b3906044016020604051808303816000875af1158015611d2e573d6000803e3d6000fd5b505050506040513d601f19601f82011682018060405250810190611d52919061611d565b5060606001600160a01b038516611f945760408051600280825260608201835290916020830190803683370190505090508681600081518110611d9757611d976160b0565b60200260200101906001600160a01b031690816001600160a01b03168152505073fff9976782d46cc05630d1f6ebab18b2324d6b1481600181518110611ddf57611ddf6160b0565b6001600160a01b03928316602091820292909201015260405163d06ca61f60e01b81526000917f0000000000000000000000000000000000000000000000000000000000000000169063d06ca61f90611e3e908a9086906004016162cb565b600060405180830381865afa158015611e5b573d6000803e3d6000fd5b505050506040513d6000823e601f3d908101601f19168201604052611e8391908101906162e4565b90506000612710611e948682616274565b83600181518110611ea757611ea76160b0565b6020026020010151611eb991906160dc565b611ec39190616109565b905060006001600160a01b037f0000000000000000000000000000000000000000000000000000000000000000166318cbafe58a84878b611f064261012c61613a565b6040518663ffffffff1660e01b8152600401611f2695949392919061636a565b6000604051808303816000875af1158015611f45573d6000803e3d6000fd5b505050506040513d6000823e601f3d908101601f19168201604052611f6d91908101906162e4565b905080600181518110611f8257611f826160b0565b6020026020010151945050505061230e565b73fff9976782d46cc05630d1f6ebab18b2324d6b13196001600160a01b038816016120555760025b604051908082528060200260200182016040528015611fe5578160200160208202803683370190505b5090508681600081518110611ffc57611ffc6160b0565b60200260200101906001600160a01b031690816001600160a01b0316815250508481600181518110612030576120306160b0565b60200260200101906001600160a01b031690816001600160a01b031681525050612153565b73fff9976782d46cc05630d1f6ebab18b2324d6b13196001600160a01b03861601612081576002611fbc565b60408051600380825260808201909252906020820160608036833701905050905086816000815181106120b6576120b66160b0565b60200260200101906001600160a01b031690816001600160a01b03168152505073fff9976782d46cc05630d1f6ebab18b2324d6b14816001815181106120fe576120fe6160b0565b60200260200101906001600160a01b031690816001600160a01b0316815250508481600281518110612132576121326160b0565b60200260200101906001600160a01b031690816001600160a01b0316815250505b60405163d06ca61f60e01b81526000906001600160a01b037f0000000000000000000000000000000000000000000000000000000000000000169063d06ca61f906121a4908a9086906004016162cb565b600060405180830381865afa1580156121c1573d6000803e3d6000fd5b505050506040513d6000823e601f3d908101601f191682016040526121e991908101906162e4565b905060006127106121fa8682616274565b83600185516122099190616274565b81518110612219576122196160b0565b602002602001015161222b91906160dc565b6122359190616109565b905060006001600160a01b037f0000000000000000000000000000000000000000000000000000000000000000166338ed17398a84878b6122784261012c61613a565b6040518663ffffffff1660e01b815260040161229895949392919061636a565b6000604051808303816000875af11580156122b7573d6000803e3d6000fd5b505050506040513d6000823e601f3d908101601f191682016040526122df91908101906162e4565b905080600182516122f09190616274565b81518110612300576123006160b0565b602002602001015194505050505b60408051878152602081018490526001600160a01b0380881692908a169133917f764f0dc063c06f32d89a3f3af80c0db4be8a090901f589a478b447e0a51f09f191015b60405180910390a45095945050505050565b6009546001600160a01b0316331461238f576040516316ccb9cb60e11b815260040160405180910390fd5b6001600160a01b03166000908152601460205260409020805460ff19166001179055565b600060606000610e10601554426123ca9190616274565b1190506000805b601054811080156123e25750600582105b156124495760008181526011602052604090206006810154610100900460ff1680156124135750600681015460ff16155b8015612423575080600501544210155b1561243657826124328161614d565b9350505b50806124418161614d565b9150506123d1565b508180156124575750600081115b93508060405160200161246c91815260200190565b604051602081830303815290604052925050509250929050565b6009546001600160a01b031633146124b1576040516316ccb9cb60e11b815260040160405180910390fd5b6040517f70a082310000000000000000000000000000000000000000000000000000000081523060048201526000906001600160a01b038316906370a0823190602401602060405180830381865afa158015612511573d6000803e3d6000fd5b505050506040513d601f19601f8201168201806040525081019061253591906163a6565b9050816001600160a01b031663a9059cbb6125586009546001600160a01b031690565b6040516001600160e01b031960e084901b1681526001600160a01b039091166004820152602481018490526044016020604051808303816000875af11580156125a5573d6000803e3d6000fd5b505050506040513d601f19601f8201168201806040525081019061106d919061611d565b60006001600160a01b03821661260b576040517f8f4eb60400000000000000000000000000000000000000000000000000000000815260040160405180910390fd5b506001600160a01b031660009081526005602052604090205467ffffffffffffffff1690565b61264461263d60005490565b8484614f2a565b5050612651848483613d22565b50505050565b6009546001600160a01b03163314612682576040516316ccb9cb60e11b815260040160405180910390fd5b6001600160a01b03166000908152601460205260409020805460ff19169055565b6009546001600160a01b031633146126ce576040516316ccb9cb60e11b815260040160405180910390fd5b6009546040516001600160a01b03909116904780156108fc02916000818181858888f193505050501580156110a0573d6000803e3d6000fd5b60606000806000612717856125c9565b905060008167ffffffffffffffff8111156127345761273461562b565b60405190808252806020026020018201604052801561275d578160200160208202803683370190505b50604080516060810182526000808252602082018190529181018290529192505b83861461283a57600081815260046020908152604091829020825160608101845290546001600160a01b0381168252600160a01b810467ffffffffffffffff1692820192909252600160e01b90910460ff16151591810182905292506128325781516001600160a01b0316156127f357815194505b876001600160a01b0316856001600160a01b0316036128325780838780600101985081518110612825576128256160b0565b6020026020010181815250505b60010161277e565b50909695505050505050565b6012602052816000526040600020818154811061286257600080fd5b90600052602060002001600091509150505481565b6128fa6040518061018001604052806000815260200160006001600160a01b031681526020016060815260200160008152602001600081526020016000815260200160001515815260200160001515815260200160006001600160a01b031681526020016000815260200160006001600160a01b03168152602001600081525090565b6000828152601160209081526040918290208251610180810184528154815260018201546001600160a01b031692810192909252600281018054929391929184019161294590616076565b80601f016020809104026020016040519081016040528092919081815260200182805461297190616076565b80156129be5780601f10612993576101008083540402835291602001916129be565b820191906000526020600020905b8154815290600101906020018083116129a157829003601f168201915b5050509183525050600382015460208201526004820154604082015260058201546060820152600682015460ff80821615156080840152610100808304909116151560a0840152620100009091046001600160a01b0390811660c0840152600784015460e0840152600884015416908201526009909101546101209091015292915050565b612a4b613f71565b612a81576040517f9f7f092500000000000000000000000000000000000000000000000000000000815260040160405180910390fd5b6110a081614f8e565b606060038054610eda90616076565b6060818310612ad4576040517f32c1995a00000000000000000000000000000000000000000000000000000000815260040160405180910390fd5b6000805480841115612ae4578093505b6000612aef876125c9565b905084861015612b0e5785850381811015612b08578091505b50612b12565b5060005b60008167ffffffffffffffff811115612b2d57612b2d61562b565b604051908082528060200260200182016040528015612b56578160200160208202803683370190505b50905081600003612b6c579350612c6092505050565b6000612b778861354c565b905060008160400151612b88575080515b885b888114158015612b9a5750848714155b15612c5457600081815260046020908152604091829020825160608101845290546001600160a01b0381168252600160a01b810467ffffffffffffffff1692820192909252600160e01b90910460ff1615159181018290529350612c4c5782516001600160a01b031615612c0d57825191505b8a6001600160a01b0316826001600160a01b031603612c4c5780848880600101995081518110612c3f57612c3f6160b0565b6020026020010181815250505b600101612b8a565b50505092835250909150505b9392505050565b612c6f613f71565b612c8c57604051636fae358160e11b815260040160405180910390fd5b61106d83838361506a565b3360009081526013602090815260408083206001600160a01b0386168452909152902054811115612d0a5760405162461bcd60e51b815260206004820152601460248201527f496e73756666696369656e742062616c616e63650000000000000000000000006044820152606401610dc0565b3360009081526013602090815260408083206001600160a01b038616845290915281208054839290612d3d908490616274565b90915550506040517fa9059cbb000000000000000000000000000000000000000000000000000000008152336004820152602481018290526001600160a01b0383169063a9059cbb906044016020604051808303816000875af1158015612da8573d6000803e3d6000fd5b505050506040513d601f19601f82011682018060405250810190612dcc919061611d565b506040518181526001600160a01b0383169033907f8210728e7c071f615b840ee026032693858fbcd5e5359e67e438c890f59e562090602001611310565b336001600160a01b03831603612e4c576040517fb06307db00000000000000000000000000000000000000000000000000000000815260040160405180910390fd5b3360008181526007602090815260408083206001600160a01b03871680855290835292819020805460ff191686151590811790915590519081529192917f17307eab39ab6107e8899845ad3d59bd9653f200f220920489ca2b5937696c319101611310565b6010805460009182919082612ec58361614d565b90915550604080516101808101825282815233602080830191825282840189815260608401899052426080850152600060a0850181905260c0850181905260e08501819052610100850181905261012085018190526101408501819052610160850181905286815260119092529390208251815590516001820180546001600160a01b0319166001600160a01b039092169190911790559151929350916002820190612f7190826161b4565b50606082015160038201556080820151600482015560a0820151600582015560c082015160068201805460e08501516101008087015161ffff1990931694151561ff001916949094179015159093029290921775ffffffffffffffffffffffffffffffffffffffff00001916620100006001600160a01b039384160217905561012083015160078301556101408301516008830180546001600160a01b0319169190921617905561016090910151600990910155336000818152601260209081526040808320805460018101825590845291909220018390555182907fb6f430c8722299f241d9c66e77ee068ce71fb3d66d1c0af7d457ef4e50b4e59b9061307a9088906157b3565b60405180910390a39392505050565b60608167ffffffffffffffff8111156130a4576130a461562b565b6040519080825280602002602001820160405280156130d757816020015b60608152602001906001900390816130c25790505b509050336000805b848110156131f057811561315e5761313c30878784818110613103576131036160b0565b905060200281019061311591906163bf565b866040516020016131289392919061640d565b60405160208183030381529060405261511d565b84828151811061314e5761314e6160b0565b60200260200101819052506131de565b6131c030878784818110613174576131746160b0565b905060200281019061318691906163bf565b8080601f01602080910402602001604051908101604052809392919081815260200183838082843760009201919091525061511d92505050565b8482815181106131d2576131d26160b0565b60200260200101819052505b806131e88161614d565b9150506130df565b50505092915050565b613204848484613ff0565b6001600160a01b0383163b156126515761322084848484615142565b612651576040516368d2bf6b60e11b815260040160405180910390fd5b6001600160a01b03841660009081526014602052604081205460ff166132a55760405162461bcd60e51b815260206004820152601360248201527f546f6b656e206e6f7420737570706f72746564000000000000000000000000006044820152606401610dc0565b3360009081526013602090815260408083206001600160a01b03891684529091529020548411156133065760405162461bcd60e51b815260206004820152600b60248201526a4c6f772062616c616e636560a81b6044820152606401610dc0565b6101f48211156133485760405162461bcd60e51b815260206004820152600d60248201526c4869676820736c69707061676560981b6044820152606401610dc0565b60108054600091826133598361614d565b919050559050604051806101800160405280828152602001336001600160a01b0316815260200189815260200188815260200142815260200160008152602001600015158152602001600015158152602001876001600160a01b03168152602001868152602001856001600160a01b03168152602001600085116133de5760c86133e0565b845b905260008281526011602090815260409182902083518155908301516001820180546001600160a01b0319166001600160a01b0390921691909117905590820151600282019061343090826161b4565b50606082015160038201556080820151600482015560a0820151600582015560c082015160068201805460e08501516101008087015161ffff1990931694151561ff001916949094179015159093029290921775ffffffffffffffffffffffffffffffffffffffff00001916620100006001600160a01b039384160217905561012083015160078301556101408301516008830180546001600160a01b0319169190921617905561016090910151600990910155336000818152601260209081526040808320805460018101825590845291909220018390555182907fb6f430c8722299f241d9c66e77ee068ce71fb3d66d1c0af7d457ef4e50b4e59b90613539908c906157b3565b60405180910390a3979650505050505050565b60408051606080820183526000808352602080840182905283850182905284519283018552818352820181905292810183905290915060005483106135915792915050565b50600082815260046020908152604091829020825160608101845290546001600160a01b0381168252600160a01b810467ffffffffffffffff1692820192909252600160e01b90910460ff1615801592820192909252906135f25792915050565b612c6083614df5565b6000818152600f602052604081208054606092919061361990616076565b80601f016020809104026020016040519081016040528092919081815260200182805461364590616076565b80156136925780601f1061366757610100808354040283529160200191613692565b820191906000526020600020905b81548152906001019060200180831161367557829003601f168201915b505050505090506000815111156136a95792915050565b60006136b48461522d565b9050806136c0856153c4565b6040516020016136d1929190616433565b60405160208183030381529060405292505050919050565b600081815260116020526040902060018101546001600160a01b031633146137535760405162461bcd60e51b815260206004820152600e60248201527f4e6f7420617574686f72697a65640000000000000000000000000000000000006044820152606401610dc0565b600681015460ff16156137a85760405162461bcd60e51b815260206004820152601060248201527f416c7265616479206578656375746564000000000000000000000000000000006044820152606401610dc0565b60068101805460ff1916600117908190556201000090046001600160a01b0316158015906137da575060008160070154115b1561381b5760068101546007820154600883015460018401546009850154613819946001600160a01b0362010000909104811694938116921690614408565b505b613826336001614c1a565b604051339083907f6852407858602d696344801f0181bc507c808c727c914bb6cdfeabd42431af3890600090a35050565b600060606001600160a01b03831661390a576040805160028082526060820183529091602083019080368337019050509050848160008151811061389d5761389d6160b0565b60200260200101906001600160a01b031690816001600160a01b03168152505073fff9976782d46cc05630d1f6ebab18b2324d6b14816001815181106138e5576138e56160b0565b60200260200101906001600160a01b031690816001600160a01b031681525050613a90565b6001600160a01b03851673fff9976782d46cc05630d1f6ebab18b2324d6b14148061395157506001600160a01b03831673fff9976782d46cc05630d1f6ebab18b2324d6b14145b156139be576040805160028082526060820183529091602083019080368337019050509050848160008151811061398a5761398a6160b0565b60200260200101906001600160a01b031690816001600160a01b03168152505082816001815181106138e5576138e56160b0565b60408051600380825260808201909252906020820160608036833701905050905084816000815181106139f3576139f36160b0565b60200260200101906001600160a01b031690816001600160a01b03168152505073fff9976782d46cc05630d1f6ebab18b2324d6b1481600181518110613a3b57613a3b6160b0565b60200260200101906001600160a01b031690816001600160a01b0316815250508281600281518110613a6f57613a6f6160b0565b60200260200101906001600160a01b031690816001600160a01b0316815250505b60405163d06ca61f60e01b81526001600160a01b037f0000000000000000000000000000000000000000000000000000000000000000169063d06ca61f90613ade90879085906004016162cb565b600060405180830381865afa925050508015613b1c57506040513d6000823e601f3d908101601f19168201604052613b1991908101906162e4565b60015b613b29576000915061178c565b8060018251613b389190616274565b81518110613b4857613b486160b0565b6020026020010151925050509392505050565b60088054613b6890616076565b80601f0160208091040260200160405190810160405280929190818152602001828054613b9490616076565b8015613be15780601f10613bb657610100808354040283529160200191613be1565b820191906000526020600020905b815481529060010190602001808311613bc457829003601f168201915b505050505081565b6001600160a01b038116600090815260126020908152604091829020805483518184028101840190945280845260609392830182828015613c4957602002820191906000526020600020905b815481526020019060010190808311613c35575b50505050509050919050565b6009546001600160a01b03163314613c80576040516316ccb9cb60e11b815260040160405180910390fd5b601680546001600160a01b0319166001600160a01b0392909216919091179055565b6000828152600f602052604090208054613cbb90616076565b159050613d0a5760405162461bcd60e51b815260206004820152600f60248201527f55524920616c72656164792073657400000000000000000000000000000000006044820152606401610dc0565b6000828152600f6020526040902061106d82826161b4565b6000546001600160a01b038416613d4b57604051622e076360e81b815260040160405180910390fd5b82600003613d6c5760405163b562e8dd60e01b815260040160405180910390fd5b6001600160a01b038416600081815260056020908152604080832080546fffffffffffffffffffffffffffffffff19811667ffffffffffffffff8083168b0181169182176801000000000000000067ffffffffffffffff1990941690921783900481168b01811690920217909155858452600490925290912080546001600160e01b0319168317600160a01b42909316929092029190911790558190818501903b15613e95575b60405182906001600160a01b038816906000907fddf252ad1be2c89b69c2b068fc378daa952ba7f163c4a11628f55a4df523b3ef908290a4613e5e6000878480600101955087615142565b613e7b576040516368d2bf6b60e11b815260040160405180910390fd5b808210613e13578260005414613e9057600080fd5b613eda565b5b6040516001830192906001600160a01b038816906000907fddf252ad1be2c89b69c2b068fc378daa952ba7f163c4a11628f55a4df523b3ef908290a4808210613e96575b5060009081556126519085838684565b6000805482108015610ec5575050600090815260046020526040902054600160e01b900460ff161590565b60008281526006602052604080822080546001600160a01b0319166001600160a01b0387811691821790925591518593918516917f8c5be1e5ebec7d5bd14f71427d1e84f3dd0314c0f7b2291e5b200ac8c7c3b92591a4505050565b6000613f856009546001600160a01b031690565b6001600160a01b0316336001600160a01b031614905090565b600980546001600160a01b038381166001600160a01b0319831681179093556040519116919082907f8292fce18fa69edf4db7b94ea2e58241df0ae57f97e0a6c9b29067028bf92d7690600090a35050565b6000613ffb82614df5565b9050836001600160a01b031681600001516001600160a01b03161461404c576040517fa114810000000000000000000000000000000000000000000000000000000000815260040160405180910390fd5b6000336001600160a01b038616148061406a575061406a8533610d37565b8061408557503361407a84610f5d565b6001600160a01b0316145b9050806140a557604051632ce44b5f60e11b815260040160405180910390fd5b6001600160a01b0384166140e5576040517fea553b3400000000000000000000000000000000000000000000000000000000815260040160405180910390fd5b6140f160008487613f15565b6001600160a01b038581166000908152600560209081526040808320805467ffffffffffffffff1980821667ffffffffffffffff92831660001901831617909255898616808652838620805493841693831660019081018416949094179055898652600490945282852080546001600160e01b031916909417600160a01b429092169190910217835587018084529220805491939091166141c75760005482146141c7578054602086015167ffffffffffffffff16600160a01b026001600160e01b03199091166001600160a01b038a16171781555b50505082846001600160a01b0316866001600160a01b03167fddf252ad1be2c89b69c2b068fc378daa952ba7f163c4a11628f55a4df523b3ef60405160405180910390a45050505050565b600061421d83614df5565b80519091508215614283576000336001600160a01b038316148061424657506142468233610d37565b8061426157503361425686610f5d565b6001600160a01b0316145b90508061428157604051632ce44b5f60e11b815260040160405180910390fd5b505b61428f60008583613f15565b6001600160a01b038082166000818152600560209081526040808320805470010000000000000000000000000000000060001967ffffffffffffffff80841691909101811667ffffffffffffffff19841681178390048216600190810183169093027fffffffffffffffff0000000000000000ffffffffffffffff0000000000000000909416179290921783558b8652600490945282852080547fffffff00ffffffffffffffffffffffffffffffffffffffffffffffffffffffff42909316600160a01b026001600160e01b03199091169097179690961716600160e01b1785559189018084529220805491949091166143be5760005482146143be578054602087015167ffffffffffffffff16600160a01b026001600160e01b03199091166001600160a01b038716171781555b5050604051869250600091506001600160a01b038416907fddf252ad1be2c89b69c2b068fc378daa952ba7f163c4a11628f55a4df523b3ef908390a4505060018054810190555050565b6001600160a01b03851660009081526014602052604081205460ff166144705760405162461bcd60e51b815260206004820152601960248201527f496e70757420746f6b656e206e6f7420737570706f72746564000000000000006044820152606401610dc0565b6001600160a01b038084166000908152601360209081526040808320938a16835292905220548511156144e55760405162461bcd60e51b815260206004820152601460248201527f496e73756666696369656e742062616c616e63650000000000000000000000006044820152606401610dc0565b6101f48211156145375760405162461bcd60e51b815260206004820152601160248201527f536c69707061676520746f6f20686967680000000000000000000000000000006044820152606401610dc0565b6001600160a01b038084166000908152601360209081526040808320938a168352929052908120805487929061456e908490616274565b909155505060405163095ea7b360e01b81526001600160a01b037f0000000000000000000000000000000000000000000000000000000000000000811660048301526024820187905287169063095ea7b3906044016020604051808303816000875af11580156145e2573d6000803e3d6000fd5b505050506040513d601f19601f82011682018060405250810190614606919061611d565b5060606001600160a01b038516614848576040805160028082526060820183529091602083019080368337019050509050868160008151811061464b5761464b6160b0565b60200260200101906001600160a01b031690816001600160a01b03168152505073fff9976782d46cc05630d1f6ebab18b2324d6b1481600181518110614693576146936160b0565b6001600160a01b03928316602091820292909201015260405163d06ca61f60e01b81526000917f0000000000000000000000000000000000000000000000000000000000000000169063d06ca61f906146f2908a9086906004016162cb565b600060405180830381865afa15801561470f573d6000803e3d6000fd5b505050506040513d6000823e601f3d908101601f1916820160405261473791908101906162e4565b905060006127106147488682616274565b8360018151811061475b5761475b6160b0565b602002602001015161476d91906160dc565b6147779190616109565b905060006001600160a01b037f0000000000000000000000000000000000000000000000000000000000000000166318cbafe58a84878b6147ba4261012c61613a565b6040518663ffffffff1660e01b81526004016147da95949392919061636a565b6000604051808303816000875af11580156147f9573d6000803e3d6000fd5b505050506040513d6000823e601f3d908101601f1916820160405261482191908101906162e4565b905080600181518110614836576148366160b0565b60200260200101519450505050614bc2565b73fff9976782d46cc05630d1f6ebab18b2324d6b13196001600160a01b038816016149095760025b604051908082528060200260200182016040528015614899578160200160208202803683370190505b50905086816000815181106148b0576148b06160b0565b60200260200101906001600160a01b031690816001600160a01b03168152505084816001815181106148e4576148e46160b0565b60200260200101906001600160a01b031690816001600160a01b031681525050614a07565b73fff9976782d46cc05630d1f6ebab18b2324d6b13196001600160a01b03861601614935576002614870565b604080516003808252608082019092529060208201606080368337019050509050868160008151811061496a5761496a6160b0565b60200260200101906001600160a01b031690816001600160a01b03168152505073fff9976782d46cc05630d1f6ebab18b2324d6b14816001815181106149b2576149b26160b0565b60200260200101906001600160a01b031690816001600160a01b03168152505084816002815181106149e6576149e66160b0565b60200260200101906001600160a01b031690816001600160a01b0316815250505b60405163d06ca61f60e01b81526000906001600160a01b037f0000000000000000000000000000000000000000000000000000000000000000169063d06ca61f90614a58908a9086906004016162cb565b600060405180830381865afa158015614a75573d6000803e3d6000fd5b505050506040513d6000823e601f3d908101601f19168201604052614a9d91908101906162e4565b90506000612710614aae8682616274565b8360018551614abd9190616274565b81518110614acd57614acd6160b0565b6020026020010151614adf91906160dc565b614ae99190616109565b905060006001600160a01b037f0000000000000000000000000000000000000000000000000000000000000000166338ed17398a84878b614b2c4261012c61613a565b6040518663ffffffff1660e01b8152600401614b4c95949392919061636a565b6000604051808303816000875af1158015614b6b573d6000803e3d6000fd5b505050506040513d6000823e601f3d908101601f19168201604052614b9391908101906162e4565b90508060018251614ba49190616274565b81518110614bb457614bb46160b0565b602002602001015194505050505b846001600160a01b0316876001600160a01b0316856001600160a01b03167f764f0dc063c06f32d89a3f3af80c0db4be8a090901f589a478b447e0a51f09f18986604051612352929190918252602082015260400190565b6000546001600160a01b038316614c4357604051622e076360e81b815260040160405180910390fd5b81600003614c645760405163b562e8dd60e01b815260040160405180910390fd5b6001600160a01b038316600081815260056020908152604080832080546fffffffffffffffffffffffffffffffff19811667ffffffffffffffff8083168a0181169182176801000000000000000067ffffffffffffffff1990941690921783900481168a01811690920217909155858452600490925290912080546001600160e01b031916909217600160a01b4290921691909102179055808083015b6040516001830192906001600160a01b038716906000907fddf252ad1be2c89b69c2b068fc378daa952ba7f163c4a11628f55a4df523b3ef908290a4808210614d015750600055505050565b612710811115614d7b57604051630a4930ad60e31b8152612710600482015260248101829052604401610dc0565b600a80546001600160a01b0384167fffffffffffffffffffff000000000000000000000000000000000000000000009091168117600160a01b61ffff851602179091556040518281527f90d7ec04bcb8978719414f82e52e4cb651db41d0e6f8cea6118c2191e6183adb9060200160405180910390a25050565b604080516060810182526000808252602082018190529181019190915281600054811015614ef857600081815260046020908152604091829020825160608101845290546001600160a01b0381168252600160a01b810467ffffffffffffffff1692820192909252600160e01b90910460ff16151591810182905290614ef65780516001600160a01b031615614e8c579392505050565b5060001901600081815260046020908152604091829020825160608101845290546001600160a01b038116808352600160a01b820467ffffffffffffffff1693830193909352600160e01b900460ff1615159281019290925215614ef1579392505050565b614e8c565b505b6040517fdf2d9b4200000000000000000000000000000000000000000000000000000000815260040160405180910390fd5b600080614f37848661613a565b600c8054600181019091557fdf6966c971051c3d54ec59162606531493a51404a002842f56009d7e5cf4a8c7018190556000818152600d60205260409020909250829150614f8584826161b4565b50935093915050565b600060088054614f9d90616076565b80601f0160208091040260200160405190810160405280929190818152602001828054614fc990616076565b80156150165780601f10614feb57610100808354040283529160200191615016565b820191906000526020600020905b815481529060010190602001808311614ff957829003601f168201915b50505050509050816008908161502c91906161b4565b507fc9c7c3fe08b88b4df9d4d47ef47d2c43d55c025a0ba88ca442580ed9e7348a16818360405161505e929190616462565b60405180910390a15050565b61271081111561509857604051630a4930ad60e31b8152612710600482015260248101829052604401610dc0565b6040805180820182526001600160a01b0384811680835260208084018681526000898152600b8352869020945185546001600160a01b031916941693909317845591516001909301929092559151838152909185917f7365cf4122f072a3365c20d54eff9b38d73c096c28e1892ec8f5b0e403a0f12d910160405180910390a3505050565b6060612c608383604051806060016040528060278152602001616510602791396154f9565b604051630a85bd0160e11b81526000906001600160a01b0385169063150b7a0290615177903390899088908890600401616490565b6020604051808303816000875af19250505080156151b2575060408051601f3d908101601f191682019092526151af918101906164c2565b60015b615210573d8080156151e0576040519150601f19603f3d011682016040523d82523d6000602084013e6151e5565b606091505b508051600003615208576040516368d2bf6b60e11b815260040160405180910390fd5b805181602001fd5b6001600160e01b031916630a85bd0160e11b149050949350505050565b6060600061523a600c5490565b90506000600c80548060200260200160405190810160405280929190818152602001828054801561528a57602002820191906000526020600020905b815481526020019060010190808311615276575b5050505050905060005b8281101561538e578181815181106152ae576152ae6160b0565b602002602001015185101561537c57600d60008383815181106152d3576152d36160b0565b6020026020010151815260200190815260200160002080546152f490616076565b80601f016020809104026020016040519081016040528092919081815260200182805461532090616076565b801561536d5780601f106153425761010080835404028352916020019161536d565b820191906000526020600020905b81548152906001019060200180831161535057829003601f168201915b50505050509350505050919050565b61538760018261613a565b9050615294565b506040517f25e5fda400000000000000000000000000000000000000000000000000000000815260048101859052602401610dc0565b60608160000361540757505060408051808201909152600181527f3000000000000000000000000000000000000000000000000000000000000000602082015290565b8160005b8115615431578061541b8161614d565b915061542a9050600a83616109565b915061540b565b60008167ffffffffffffffff81111561544c5761544c61562b565b6040519080825280601f01601f191660200182016040528015615476576020820181803683370190505b5090505b84156113b95761548b600183616274565b9150615498600a866164df565b6154a390603061613a565b60f81b8183815181106154b8576154b86160b0565b60200101907effffffffffffffffffffffffffffffffffffffffffffffffffffffffffffff1916908160001a9053506154f2600a86616109565b945061547a565b6060600080856001600160a01b03168560405161551691906164f3565b600060405180830381855af49150503d8060008114615551576040519150601f19603f3d011682016040523d82523d6000602084013e615556565b606091505b509150915061556786838387615571565b9695505050505050565b606083156155e05782516000036155d9576001600160a01b0385163b6155d95760405162461bcd60e51b815260206004820152601d60248201527f416464726573733a2063616c6c20746f206e6f6e2d636f6e74726163740000006044820152606401610dc0565b50816113b9565b6113b983838151156155f55781518083602001fd5b8060405162461bcd60e51b8152600401610dc091906157b3565b80356001600160a01b038116811461562657600080fd5b919050565b634e487b7160e01b600052604160045260246000fd5b604051601f8201601f1916810167ffffffffffffffff8111828210171561566a5761566a61562b565b604052919050565b600082601f83011261568357600080fd5b813567ffffffffffffffff81111561569d5761569d61562b565b6156b0601f8201601f1916602001615641565b8181528460208386010111156156c557600080fd5b816020850160208301376000918101602001919091529392505050565b600080604083850312156156f557600080fd5b6156fe8361560f565b9150602083013567ffffffffffffffff81111561571a57600080fd5b61572685828601615672565b9150509250929050565b6001600160e01b0319811681146110a057600080fd5b60006020828403121561575857600080fd5b8135612c6081615730565b60005b8381101561577e578181015183820152602001615766565b50506000910152565b6000815180845261579f816020860160208601615763565b601f01601f19169290920160200192915050565b602081526000612c606020830184615787565b6000602082840312156157d857600080fd5b5035919050565b600080604083850312156157f257600080fd5b6157fb8361560f565b946020939093013593505050565b60006020828403121561581b57600080fd5b612c608261560f565b60008060006060848603121561583957600080fd5b6158428461560f565b92506158506020850161560f565b9150604084013590509250925092565b6000806040838503121561587357600080fd5b50508035926020909101359150565b6000806020838503121561589557600080fd5b823567ffffffffffffffff808211156158ad57600080fd5b818501915085601f8301126158c157600080fd5b8135818111156158d057600080fd5b8660208285010111156158e257600080fd5b60209290920196919550909350505050565b60006101808e83526001600160a01b03808f16602085015281604085015261591e8285018f615787565b606085019d909d52608084019b909b52505060a081019790975294151560c087015292151560e086015290851661010085015261012084015290921661014082015261016001529392505050565b600067ffffffffffffffff8211156159865761598661562b565b5060051b60200190565b600060208083850312156159a357600080fd5b823567ffffffffffffffff8111156159ba57600080fd5b8301601f810185136159cb57600080fd5b80356159de6159d98261596c565b615641565b81815260059190911b820183019083810190878311156159fd57600080fd5b928401925b82841015615a1b57833582529284019290840190615a02565b979650505050505050565b6020808252825182820181905260009190848201906040850190845b8181101561283a57615a7e83855180516001600160a01b0316825260208082015167ffffffffffffffff16908301526040908101511515910152565b9284019260609290920191600101615a42565b600080600080600080600060e0888a031215615aac57600080fd5b873567ffffffffffffffff811115615ac357600080fd5b615acf8a828b01615672565b9750506020880135955060408801359450615aec6060890161560f565b935060808801359250615b0160a0890161560f565b915060c0880135905092959891949750929550565b60008060408385031215615b2957600080fd5b615b328361560f565b9150615b406020840161560f565b90509250929050565b600080600080600060a08688031215615b6157600080fd5b615b6a8661560f565b945060208601359350615b7f6040870161560f565b9250615b8d6060870161560f565b949793965091946080013592915050565b82151581526040602082015260006113b96040830184615787565b60008060008060808587031215615bcf57600080fd5b615bd88561560f565b935060208501359250604085013567ffffffffffffffff80821115615bfc57600080fd5b615c0888838901615672565b93506060870135915080821115615c1e57600080fd5b50615c2b87828801615672565b91505092959194509250565b6020808252825182820181905260009190848201906040850190845b8181101561283a57835183529284019291840191600101615c53565b602081528151602082015260006020830151615c9660408401826001600160a01b03169052565b506040830151610180806060850152615cb36101a0850183615787565b915060608501516080850152608085015160a085015260a085015160c085015260c0850151615ce660e086018215159052565b5060e0850151610100615cfc8187018315159052565b8601519050610120615d18868201836001600160a01b03169052565b860151610140868101919091528601519050610160615d41818701836001600160a01b03169052565b959095015193019290925250919050565b600060208284031215615d6457600080fd5b813567ffffffffffffffff811115615d7b57600080fd5b6113b984828501615672565b600080600060608486031215615d9c57600080fd5b615da58461560f565b95602085013595506040909401359392505050565b600080600060608486031215615dcf57600080fd5b833592506158506020850161560f565b80151581146110a057600080fd5b60008060408385031215615e0057600080fd5b615e098361560f565b91506020830135615e1981615ddf565b809150509250929050565b60008060408385031215615e3757600080fd5b823567ffffffffffffffff811115615e4e57600080fd5b615e5a85828601615672565b95602094909401359450505050565b60008060208385031215615e7c57600080fd5b823567ffffffffffffffff80821115615e9457600080fd5b818501915085601f830112615ea857600080fd5b813581811115615eb757600080fd5b8660208260051b85010111156158e257600080fd5b6000602080830181845280855180835260408601915060408160051b870101925083870160005b82811015615f2157603f19888603018452615f0f858351615787565b94509285019290850190600101615ef3565b5092979650505050505050565b60008060008060808587031215615f4457600080fd5b615f4d8561560f565b9350615f5b6020860161560f565b925060408501359150606085013567ffffffffffffffff811115615f7e57600080fd5b615c2b87828801615672565b60008060008060008060c08789031215615fa357600080fd5b863567ffffffffffffffff811115615fba57600080fd5b615fc689828a01615672565b96505060208701359450615fdc6040880161560f565b935060608701359250615ff16080880161560f565b915060a087013590509295509295509295565b81516001600160a01b0316815260208083015167ffffffffffffffff169082015260408083015115159082015260608101610ec5565b60008060006060848603121561604f57600080fd5b6160588461560f565b92506020840135915061606d6040850161560f565b90509250925092565b600181811c9082168061608a57607f821691505b6020821081036160aa57634e487b7160e01b600052602260045260246000fd5b50919050565b634e487b7160e01b600052603260045260246000fd5b634e487b7160e01b600052601160045260246000fd5b8082028115828204841417610ec557610ec56160c6565b634e487b7160e01b600052601260045260246000fd5b600082616118576161186160f3565b500490565b60006020828403121561612f57600080fd5b8151612c6081615ddf565b80820180821115610ec557610ec56160c6565b60006001820161615f5761615f6160c6565b5060010190565b601f82111561106d57600081815260208120601f850160051c8101602086101561618d5750805b601f850160051c820191505b818110156161ac57828155600101616199565b505050505050565b815167ffffffffffffffff8111156161ce576161ce61562b565b6161e2816161dc8454616076565b84616166565b602080601f83116001811461621757600084156161ff5750858301515b600019600386901b1c1916600185901b1785556161ac565b600085815260208120601f198616915b8281101561624657888601518255948401946001909101908401616227565b50858210156162645787850151600019600388901b60f8161c191681555b5050505050600190811b01905550565b81810381811115610ec557610ec56160c6565b600081518084526020808501945080840160005b838110156162c05781516001600160a01b03168752958201959082019060010161629b565b509495945050505050565b8281526040602082015260006113b96040830184616287565b600060208083850312156162f757600080fd5b825167ffffffffffffffff81111561630e57600080fd5b8301601f8101851361631f57600080fd5b805161632d6159d98261596c565b81815260059190911b8201830190838101908783111561634c57600080fd5b928401925b82841015615a1b57835182529284019290840190616351565b85815284602082015260a06040820152600061638960a0830186616287565b6001600160a01b0394909416606083015250608001529392505050565b6000602082840312156163b857600080fd5b5051919050565b6000808335601e198436030181126163d657600080fd5b83018035915067ffffffffffffffff8211156163f157600080fd5b60200191503681900382131561640657600080fd5b9250929050565b8284823760609190911b6bffffffffffffffffffffffff19169101908152601401919050565b60008351616445818460208801615763565b835190830190616459818360208801615763565b01949350505050565b6040815260006164756040830185615787565b82810360208401526164878185615787565b95945050505050565b60006001600160a01b038087168352808616602084015250836040830152608060608301526155676080830184615787565b6000602082840312156164d457600080fd5b8151612c6081615730565b6000826164ee576164ee6160f3565b500690565b60008251616505818460208701615763565b919091019291505056fe416464726573733a206c6f772d6c6576656c2064656c65676174652063616c6c206661696c6564a2646970667358221220df8a0d639afa48b30ac1e416d7963e6c65531a7396e6cbbf0d52b5c41dbeebab64736f6c63430008150033",
  "linkReferences": {},
  "deployedLinkReferences": {}
}