{
  "_format": "hh-sol-artifact-1",
  "contractName": "WalletPlanner",
  "sourceName": "contracts/WalletPlanner.sol",
  "abi": [
    {
      "inputs": [
        {
          "internalType": "address",
          "name": "_defaultAdmin",
          "type": "address"
        },
        {
          "internalType": "string",
          "name": "_name",
          "type": "string"
        },
        {
          "internalType": "string",
          "name": "_symbol",
          "type": "string"
        },
        {
          "internalType": "address",
          "name": "_royaltyRecipient",
          "type": "address"
        },
        {
          "internalType": "uint128",
          "name": "_royaltyBps",
          "type": "uint128"
        }
      ],
      "stateMutability": "nonpayable",
      "type": "constructor"
    },
    {
      "inputs": [],
      "name": "ApprovalCallerNotOwnerNorApproved",
      "type": "error"
    },
    {
      "inputs": [],
      "name": "ApprovalQueryForNonexistentToken",
      "type": "error"
    },
    {
      "inputs": [],
      "name": "ApprovalToCurrentOwner",
      "type": "error"
    },
    {
      "inputs": [],
      "name": "ApproveToCaller",
      "type": "error"
    },
    {
      "inputs": [],
      "name": "BalanceQueryForZeroAddress",
      "type": "error"
    },
    {
      "inputs": [
        {
          "internalType": "uint256",
          "name": "index",
          "type": "uint256"
        }
      ],
      "name": "BatchMintInvalidBatchId",
      "type": "error"
    },
    {
      "inputs": [
        {
          "internalType": "uint256",
          "name": "tokenId",
          "type": "uint256"
        }
      ],
      "name": "BatchMintInvalidTokenId",
      "type": "error"
    },
    {
      "inputs": [
        {
          "internalType": "uint256",
          "name": "batchId",
          "type": "uint256"
        }
      ],
      "name": "BatchMintMetadataFrozen",
      "type": "error"
    },
    {
      "inputs": [],
      "name": "ContractMetadataUnauthorized",
      "type": "error"
    },
    {
      "inputs": [],
      "name": "InvalidQueryRange",
      "type": "error"
    },
    {
      "inputs": [],
      "name": "MintToZeroAddress",
      "type": "error"
    },
    {
      "inputs": [],
      "name": "MintZeroQuantity",
      "type": "error"
    },
    {
      "inputs": [],
      "name": "OnlySimulatedBackend",
      "type": "error"
    },
    {
      "inputs": [],
      "name": "OwnableUnauthorized",
      "type": "error"
    },
    {
      "inputs": [],
      "name": "OwnerQueryForNonexistentToken",
      "type": "error"
    },
    {
      "inputs": [
        {
          "internalType": "uint256",
          "name": "max",
          "type": "uint256"
        },
        {
          "internalType": "uint256",
          "name": "actual",
          "type": "uint256"
        }
      ],
      "name": "RoyaltyExceededMaxFeeBps",
      "type": "error"
    },
    {
      "inputs": [
        {
          "internalType": "address",
          "name": "recipient",
          "type": "address"
        }
      ],
      "name": "RoyaltyInvalidRecipient",
      "type": "error"
    },
    {
      "inputs": [],
      "name": "RoyaltyUnauthorized",
      "type": "error"
    },
    {
      "inputs": [],
      "name": "TransferCallerNotOwnerNorApproved",
      "type": "error"
    },
    {
      "inputs": [],
      "name": "TransferFromIncorrectOwner",
      "type": "error"
    },
    {
      "inputs": [],
      "name": "TransferToNonERC721ReceiverImplementer",
      "type": "error"
    },
    {
      "inputs": [],
      "name": "TransferToZeroAddress",
      "type": "error"
    },
    {
      "inputs": [],
      "name": "URIQueryForNonexistentToken",
      "type": "error"
    },
    {
      "anonymous": false,
      "inputs": [
        {
          "indexed": true,
          "internalType": "address",
          "name": "owner",
          "type": "address"
        },
        {
          "indexed": true,
          "internalType": "address",
          "name": "approved",
          "type": "address"
        },
        {
          "indexed": true,
          "internalType": "uint256",
          "name": "tokenId",
          "type": "uint256"
        }
      ],
      "name": "Approval",
      "type": "event"
    },
    {
      "anonymous": false,
      "inputs": [
        {
          "indexed": true,
          "internalType": "address",
          "name": "owner",
          "type": "address"
        },
        {
          "indexed": true,
          "internalType": "address",
          "name": "operator",
          "type": "address"
        },
        {
          "indexed": false,
          "internalType": "bool",
          "name": "approved",
          "type": "bool"
        }
      ],
      "name": "ApprovalForAll",
      "type": "event"
    },
    {
      "anonymous": false,
      "inputs": [
        {
          "indexed": false,
          "internalType": "uint256",
          "name": "timestamp",
          "type": "uint256"
        },
        {
          "indexed": false,
          "internalType": "uint256",
          "name": "intentsProcessed",
          "type": "uint256"
        }
      ],
      "name": "AutomationPerformed",
      "type": "event"
    },
    {
      "anonymous": false,
      "inputs": [
        {
          "indexed": false,
          "internalType": "uint256",
          "name": "_fromTokenId",
          "type": "uint256"
        },
        {
          "indexed": false,
          "internalType": "uint256",
          "name": "_toTokenId",
          "type": "uint256"
        }
      ],
      "name": "BatchMetadataUpdate",
      "type": "event"
    },
    {
      "anonymous": false,
      "inputs": [
        {
          "indexed": false,
          "internalType": "string",
          "name": "prevURI",
          "type": "string"
        },
        {
          "indexed": false,
          "internalType": "string",
          "name": "newURI",
          "type": "string"
        }
      ],
      "name": "ContractURIUpdated",
      "type": "event"
    },
    {
      "anonymous": false,
      "inputs": [
        {
          "indexed": true,
          "internalType": "address",
          "name": "newRoyaltyRecipient",
          "type": "address"
        },
        {
          "indexed": false,
          "internalType": "uint256",
          "name": "newRoyaltyBps",
          "type": "uint256"
        }
      ],
      "name": "DefaultRoyalty",
      "type": "event"
    },
    {
      "anonymous": false,
      "inputs": [
        {
          "indexed": true,
          "internalType": "address",
          "name": "oldConsumer",
          "type": "address"
        },
        {
          "indexed": true,
          "internalType": "address",
          "name": "newConsumer",
          "type": "address"
        }
      ],
      "name": "FunctionsConsumerUpdated",
      "type": "event"
    },
    {
      "anonymous": false,
      "inputs": [
        {
          "indexed": true,
          "internalType": "uint256",
          "name": "intentId",
          "type": "uint256"
        },
        {
          "indexed": true,
          "internalType": "address",
          "name": "user",
          "type": "address"
        },
        {
          "indexed": false,
          "internalType": "string",
          "name": "description",
          "type": "string"
        }
      ],
      "name": "IntentCreated",
      "type": "event"
    },
    {
      "anonymous": false,
      "inputs": [
        {
          "indexed": true,
          "internalType": "uint256",
          "name": "intentId",
          "type": "uint256"
        },
        {
          "indexed": true,
          "internalType": "address",
          "name": "user",
          "type": "address"
        }
      ],
      "name": "IntentExecuted",
      "type": "event"
    },
    {
      "anonymous": false,
      "inputs": [],
      "name": "MetadataFrozen",
      "type": "event"
    },
    {
      "anonymous": false,
      "inputs": [
        {
          "indexed": true,
          "internalType": "address",
          "name": "prevOwner",
          "type": "address"
        },
        {
          "indexed": true,
          "internalType": "address",
          "name": "newOwner",
          "type": "address"
        }
      ],
      "name": "OwnerUpdated",
      "type": "event"
    },
    {
      "anonymous": false,
      "inputs": [
        {
          "indexed": true,
          "internalType": "uint256",
          "name": "tokenId",
          "type": "uint256"
        },
        {
          "indexed": true,
          "internalType": "address",
          "name": "royaltyRecipient",
          "type": "address"
        },
        {
          "indexed": false,
          "internalType": "uint256",
          "name": "royaltyBps",
          "type": "uint256"
        }
      ],
      "name": "RoyaltyForToken",
      "type": "event"
    },
    {
      "anonymous": false,
      "inputs": [
        {
          "indexed": true,
          "internalType": "address",
          "name": "from",
          "type": "address"
        },
        {
          "indexed": true,
          "internalType": "address",
          "name": "to",
          "type": "address"
        },
        {
          "indexed": true,
          "internalType": "uint256",
          "name": "tokenId",
          "type": "uint256"
        }
      ],
      "name": "Transfer",
      "type": "event"
    },
    {
      "inputs": [
        {
          "internalType": "address",
          "name": "to",
          "type": "address"
        },
        {
          "internalType": "uint256",
          "name": "tokenId",
          "type": "uint256"
        }
      ],
      "name": "approve",
      "outputs": [],
      "stateMutability": "nonpayable",
      "type": "function"
    },
    {
      "inputs": [
        {
          "internalType": "address",
          "name": "owner",
          "type": "address"
        }
      ],
      "name": "balanceOf",
      "outputs": [
        {
          "internalType": "uint256",
          "name": "",
          "type": "uint256"
        }
      ],
      "stateMutability": "view",
      "type": "function"
    },
    {
      "inputs": [
        {
          "internalType": "uint256",
          "name": "",
          "type": "uint256"
        }
      ],
      "name": "batchFrozen",
      "outputs": [
        {
          "internalType": "bool",
          "name": "",
          "type": "bool"
        }
      ],
      "stateMutability": "view",
      "type": "function"
    },
    {
      "inputs": [
        {
          "internalType": "address",
          "name": "_to",
          "type": "address"
        },
        {
          "internalType": "uint256",
          "name": "_quantity",
          "type": "uint256"
        },
        {
          "internalType": "string",
          "name": "_baseURI",
          "type": "string"
        },
        {
          "internalType": "bytes",
          "name": "_data",
          "type": "bytes"
        }
      ],
      "name": "batchMintTo",
      "outputs": [],
      "stateMutability": "nonpayable",
      "type": "function"
    },
    {
      "inputs": [
        {
          "internalType": "uint256",
          "name": "_tokenId",
          "type": "uint256"
        }
      ],
      "name": "burn",
      "outputs": [],
      "stateMutability": "nonpayable",
      "type": "function"
    },
    {
      "inputs": [
        {
          "internalType": "bytes",
          "name": "",
          "type": "bytes"
        }
      ],
      "name": "checkUpkeep",
      "outputs": [
        {
          "internalType": "bool",
          "name": "upkeepNeeded",
          "type": "bool"
        },
        {
          "internalType": "bytes",
          "name": "performData",
          "type": "bytes"
        }
      ],
      "stateMutability": "view",
      "type": "function"
    },
    {
      "inputs": [],
      "name": "contractURI",
      "outputs": [
        {
          "internalType": "string",
          "name": "",
          "type": "string"
        }
      ],
      "stateMutability": "view",
      "type": "function"
    },
    {
      "inputs": [
        {
          "internalType": "string",
          "name": "_description",
          "type": "string"
        },
        {
          "internalType": "uint256",
          "name": "_estimatedCost",
          "type": "uint256"
        }
      ],
      "name": "createIntent",
      "outputs": [
        {
          "internalType": "uint256",
          "name": "",
          "type": "uint256"
        }
      ],
      "stateMutability": "nonpayable",
      "type": "function"
    },
    {
      "inputs": [
        {
          "internalType": "string",
          "name": "_description",
          "type": "string"
        },
        {
          "internalType": "uint256",
          "name": "_estimatedCost",
          "type": "uint256"
        },
        {
          "internalType": "uint256",
          "name": "_executionTime",
          "type": "uint256"
        }
      ],
      "name": "createScheduledIntent",
      "outputs": [
        {
          "internalType": "uint256",
          "name": "",
          "type": "uint256"
        }
      ],
      "stateMutability": "nonpayable",
      "type": "function"
    },
    {
      "inputs": [
        {
          "internalType": "uint256",
          "name": "_intentId",
          "type": "uint256"
        }
      ],
      "name": "executeIntent",
      "outputs": [],
      "stateMutability": "nonpayable",
      "type": "function"
    },
    {
      "inputs": [
        {
          "internalType": "uint256",
          "name": "tokenId",
          "type": "uint256"
        }
      ],
      "name": "explicitOwnershipOf",
      "outputs": [
        {
          "components": [
            {
              "internalType": "address",
              "name": "addr",
              "type": "address"
            },
            {
              "internalType": "uint64",
              "name": "startTimestamp",
              "type": "uint64"
            },
            {
              "internalType": "bool",
              "name": "burned",
              "type": "bool"
            }
          ],
          "internalType": "struct IERC721A.TokenOwnership",
          "name": "",
          "type": "tuple"
        }
      ],
      "stateMutability": "view",
      "type": "function"
    },
    {
      "inputs": [
        {
          "internalType": "uint256[]",
          "name": "tokenIds",
          "type": "uint256[]"
        }
      ],
      "name": "explicitOwnershipsOf",
      "outputs": [
        {
          "components": [
            {
              "internalType": "address",
              "name": "addr",
              "type": "address"
            },
            {
              "internalType": "uint64",
              "name": "startTimestamp",
              "type": "uint64"
            },
            {
              "internalType": "bool",
              "name": "burned",
              "type": "bool"
            }
          ],
          "internalType": "struct IERC721A.TokenOwnership[]",
          "name": "",
          "type": "tuple[]"
        }
      ],
      "stateMutability": "view",
      "type": "function"
    },
    {
      "inputs": [],
      "name": "functionsConsumer",
      "outputs": [
        {
          "internalType": "address",
          "name": "",
          "type": "address"
        }
      ],
      "stateMutability": "view",
      "type": "function"
    },
    {
      "inputs": [
        {
          "internalType": "uint256",
          "name": "tokenId",
          "type": "uint256"
        }
      ],
      "name": "getApproved",
      "outputs": [
        {
          "internalType": "address",
          "name": "",
          "type": "address"
        }
      ],
      "stateMutability": "view",
      "type": "function"
    },
    {
      "inputs": [],
      "name": "getBaseURICount",
      "outputs": [
        {
          "internalType": "uint256",
          "name": "",
          "type": "uint256"
        }
      ],
      "stateMutability": "view",
      "type": "function"
    },
    {
      "inputs": [
        {
          "internalType": "uint256",
          "name": "_index",
          "type": "uint256"
        }
      ],
      "name": "getBatchIdAtIndex",
      "outputs": [
        {
          "internalType": "uint256",
          "name": "",
          "type": "uint256"
        }
      ],
      "stateMutability": "view",
      "type": "function"
    },
    {
      "inputs": [],
      "name": "getDefaultRoyaltyInfo",
      "outputs": [
        {
          "internalType": "address",
          "name": "",
          "type": "address"
        },
        {
          "internalType": "uint16",
          "name": "",
          "type": "uint16"
        }
      ],
      "stateMutability": "view",
      "type": "function"
    },
    {
      "inputs": [
        {
          "internalType": "uint256",
          "name": "_intentId",
          "type": "uint256"
        }
      ],
      "name": "getIntent",
      "outputs": [
        {
          "components": [
            {
              "internalType": "uint256",
              "name": "id",
              "type": "uint256"
            },
            {
              "internalType": "address",
              "name": "user",
              "type": "address"
            },
            {
              "internalType": "string",
              "name": "description",
              "type": "string"
            },
            {
              "internalType": "uint256",
              "name": "estimatedCost",
              "type": "uint256"
            },
            {
              "internalType": "bool",
              "name": "executed",
              "type": "bool"
            },
            {
              "internalType": "uint256",
              "name": "timestamp",
              "type": "uint256"
            },
            {
              "internalType": "uint256",
              "name": "executionTime",
              "type": "uint256"
            },
            {
              "internalType": "bool",
              "name": "isScheduled",
              "type": "bool"
            }
          ],
          "internalType": "struct WalletPlanner.Intent",
          "name": "",
          "type": "tuple"
        }
      ],
      "stateMutability": "view",
      "type": "function"
    },
    {
      "inputs": [
        {
          "internalType": "uint256",
          "name": "_tokenId",
          "type": "uint256"
        }
      ],
      "name": "getRoyaltyInfoForToken",
      "outputs": [
        {
          "internalType": "address",
          "name": "",
          "type": "address"
        },
        {
          "internalType": "uint16",
          "name": "",
          "type": "uint16"
        }
      ],
      "stateMutability": "view",
      "type": "function"
    },
    {
      "inputs": [
        {
          "internalType": "address",
          "name": "_user",
          "type": "address"
        }
      ],
      "name": "getUserIntents",
      "outputs": [
        {
          "internalType": "uint256[]",
          "name": "",
          "type": "uint256[]"
        }
      ],
      "stateMutability": "view",
      "type": "function"
    },
    {
      "inputs": [
        {
          "internalType": "uint256",
          "name": "",
          "type": "uint256"
        }
      ],
      "name": "intents",
      "outputs": [
        {
          "internalType": "uint256",
          "name": "id",
          "type": "uint256"
        },
        {
          "internalType": "address",
          "name": "user",
          "type": "address"
        },
        {
          "internalType": "string",
          "name": "description",
          "type": "string"
        },
        {
          "internalType": "uint256",
          "name": "estimatedCost",
          "type": "uint256"
        },
        {
          "internalType": "bool",
          "name": "executed",
          "type": "bool"
        },
        {
          "internalType": "uint256",
          "name": "timestamp",
          "type": "uint256"
        },
        {
          "internalType": "uint256",
          "name": "executionTime",
          "type": "uint256"
        },
        {
          "internalType": "bool",
          "name": "isScheduled",
          "type": "bool"
        }
      ],
      "stateMutability": "view",
      "type": "function"
    },
    {
      "inputs": [],
      "name": "interval",
      "outputs": [
        {
          "internalType": "uint256",
          "name": "",
          "type": "uint256"
        }
      ],
      "stateMutability": "view",
      "type": "function"
    },
    {
      "inputs": [
        {
          "internalType": "address",
          "name": "owner",
          "type": "address"
        },
        {
          "internalType": "address",
          "name": "operator",
          "type": "address"
        }
      ],
      "name": "isApprovedForAll",
      "outputs": [
        {
          "internalType": "bool",
          "name": "",
          "type": "bool"
        }
      ],
      "stateMutability": "view",
      "type": "function"
    },
    {
      "inputs": [
        {
          "internalType": "address",
          "name": "_operator",
          "type": "address"
        },
        {
          "internalType": "uint256",
          "name": "_tokenId",
          "type": "uint256"
        }
      ],
      "name": "isApprovedOrOwner",
      "outputs": [
        {
          "internalType": "bool",
          "name": "isApprovedOrOwnerOf",
          "type": "bool"
        }
      ],
      "stateMutability": "view",
      "type": "function"
    },
    {
      "inputs": [],
      "name": "lastChecked",
      "outputs": [
        {
          "internalType": "uint256",
          "name": "",
          "type": "uint256"
        }
      ],
      "stateMutability": "view",
      "type": "function"
    },
    {
      "inputs": [
        {
          "internalType": "address",
          "name": "_to",
          "type": "address"
        },
        {
          "internalType": "string",
          "name": "_tokenURI",
          "type": "string"
        }
      ],
      "name": "mintTo",
      "outputs": [],
      "stateMutability": "nonpayable",
      "type": "function"
    },
    {
      "inputs": [
        {
          "internalType": "bytes[]",
          "name": "data",
          "type": "bytes[]"
        }
      ],
      "name": "multicall",
      "outputs": [
        {
          "internalType": "bytes[]",
          "name": "results",
          "type": "bytes[]"
        }
      ],
      "stateMutability": "nonpayable",
      "type": "function"
    },
    {
      "inputs": [],
      "name": "name",
      "outputs": [
        {
          "internalType": "string",
          "name": "",
          "type": "string"
        }
      ],
      "stateMutability": "view",
      "type": "function"
    },
    {
      "inputs": [],
      "name": "nextTokenIdToMint",
      "outputs": [
        {
          "internalType": "uint256",
          "name": "",
          "type": "uint256"
        }
      ],
      "stateMutability": "view",
      "type": "function"
    },
    {
      "inputs": [],
      "name": "owner",
      "outputs": [
        {
          "internalType": "address",
          "name": "",
          "type": "address"
        }
      ],
      "stateMutability": "view",
      "type": "function"
    },
    {
      "inputs": [
        {
          "internalType": "uint256",
          "name": "tokenId",
          "type": "uint256"
        }
      ],
      "name": "ownerOf",
      "outputs": [
        {
          "internalType": "address",
          "name": "",
          "type": "address"
        }
      ],
      "stateMutability": "view",
      "type": "function"
    },
    {
      "inputs": [
        {
          "internalType": "bytes",
          "name": "performData",
          "type": "bytes"
        }
      ],
      "name": "performUpkeep",
      "outputs": [],
      "stateMutability": "nonpayable",
      "type": "function"
    },
    {
      "inputs": [
        {
          "internalType": "uint256",
          "name": "tokenId",
          "type": "uint256"
        },
        {
          "internalType": "uint256",
          "name": "salePrice",
          "type": "uint256"
        }
      ],
      "name": "royaltyInfo",
      "outputs": [
        {
          "internalType": "address",
          "name": "receiver",
          "type": "address"
        },
        {
          "internalType": "uint256",
          "name": "royaltyAmount",
          "type": "uint256"
        }
      ],
      "stateMutability": "view",
      "type": "function"
    },
    {
      "inputs": [
        {
          "internalType": "address",
          "name": "from",
          "type": "address"
        },
        {
          "internalType": "address",
          "name": "to",
          "type": "address"
        },
        {
          "internalType": "uint256",
          "name": "tokenId",
          "type": "uint256"
        }
      ],
      "name": "safeTransferFrom",
      "outputs": [],
      "stateMutability": "nonpayable",
      "type": "function"
    },
    {
      "inputs": [
        {
          "internalType": "address",
          "name": "from",
          "type": "address"
        },
        {
          "internalType": "address",
          "name": "to",
          "type": "address"
        },
        {
          "internalType": "uint256",
          "name": "tokenId",
          "type": "uint256"
        },
        {
          "internalType": "bytes",
          "name": "_data",
          "type": "bytes"
        }
      ],
      "name": "safeTransferFrom",
      "outputs": [],
      "stateMutability": "nonpayable",
      "type": "function"
    },
    {
      "inputs": [
        {
          "internalType": "address",
          "name": "operator",
          "type": "address"
        },
        {
          "internalType": "bool",
          "name": "approved",
          "type": "bool"
        }
      ],
      "name": "setApprovalForAll",
      "outputs": [],
      "stateMutability": "nonpayable",
      "type": "function"
    },
    {
      "inputs": [
        {
          "internalType": "uint256",
          "name": "_interval",
          "type": "uint256"
        }
      ],
      "name": "setAutomationInterval",
      "outputs": [],
      "stateMutability": "nonpayable",
      "type": "function"
    },
    {
      "inputs": [
        {
          "internalType": "string",
          "name": "_uri",
          "type": "string"
        }
      ],
      "name": "setContractURI",
      "outputs": [],
      "stateMutability": "nonpayable",
      "type": "function"
    },
    {
      "inputs": [
        {
          "internalType": "address",
          "name": "_royaltyRecipient",
          "type": "address"
        },
        {
          "internalType": "uint256",
          "name": "_royaltyBps",
          "type": "uint256"
        }
      ],
      "name": "setDefaultRoyaltyInfo",
      "outputs": [],
      "stateMutability": "nonpayable",
      "type": "function"
    },
    {
      "inputs": [
        {
          "internalType": "address",
          "name": "_functionsConsumer",
          "type": "address"
        }
      ],
      "name": "setFunctionsConsumer",
      "outputs": [],
      "stateMutability": "nonpayable",
      "type": "function"
    },
    {
      "inputs": [
        {
          "internalType": "address",
          "name": "_newOwner",
          "type": "address"
        }
      ],
      "name": "setOwner",
      "outputs": [],
      "stateMutability": "nonpayable",
      "type": "function"
    },
    {
      "inputs": [
        {
          "internalType": "uint256",
          "name": "_tokenId",
          "type": "uint256"
        },
        {
          "internalType": "address",
          "name": "_recipient",
          "type": "address"
        },
        {
          "internalType": "uint256",
          "name": "_bps",
          "type": "uint256"
        }
      ],
      "name": "setRoyaltyInfoForToken",
      "outputs": [],
      "stateMutability": "nonpayable",
      "type": "function"
    },
    {
      "inputs": [
        {
          "internalType": "bytes4",
          "name": "interfaceId",
          "type": "bytes4"
        }
      ],
      "name": "supportsInterface",
      "outputs": [
        {
          "internalType": "bool",
          "name": "",
          "type": "bool"
        }
      ],
      "stateMutability": "view",
      "type": "function"
    },
    {
      "inputs": [],
      "name": "symbol",
      "outputs": [
        {
          "internalType": "string",
          "name": "",
          "type": "string"
        }
      ],
      "stateMutability": "view",
      "type": "function"
    },
    {
      "inputs": [
        {
          "internalType": "uint256",
          "name": "_tokenId",
          "type": "uint256"
        }
      ],
      "name": "tokenURI",
      "outputs": [
        {
          "internalType": "string",
          "name": "",
          "type": "string"
        }
      ],
      "stateMutability": "view",
      "type": "function"
    },
    {
      "inputs": [
        {
          "internalType": "address",
          "name": "owner",
          "type": "address"
        }
      ],
      "name": "tokensOfOwner",
      "outputs": [
        {
          "internalType": "uint256[]",
          "name": "",
          "type": "uint256[]"
        }
      ],
      "stateMutability": "view",
      "type": "function"
    },
    {
      "inputs": [
        {
          "internalType": "address",
          "name": "owner",
          "type": "address"
        },
        {
          "internalType": "uint256",
          "name": "start",
          "type": "uint256"
        },
        {
          "internalType": "uint256",
          "name": "stop",
          "type": "uint256"
        }
      ],
      "name": "tokensOfOwnerIn",
      "outputs": [
        {
          "internalType": "uint256[]",
          "name": "",
          "type": "uint256[]"
        }
      ],
      "stateMutability": "view",
      "type": "function"
    },
    {
      "inputs": [],
      "name": "totalSupply",
      "outputs": [
        {
          "internalType": "uint256",
          "name": "",
          "type": "uint256"
        }
      ],
      "stateMutability": "view",
      "type": "function"
    },
    {
      "inputs": [
        {
          "internalType": "address",
          "name": "from",
          "type": "address"
        },
        {
          "internalType": "address",
          "name": "to",
          "type": "address"
        },
        {
          "internalType": "uint256",
          "name": "tokenId",
          "type": "uint256"
        }
      ],
      "name": "transferFrom",
      "outputs": [],
      "stateMutability": "nonpayable",
      "type": "function"
    },
    {
      "inputs": [
        {
          "internalType": "address",
          "name": "",
          "type": "address"
        },
        {
          "internalType": "uint256",
          "name": "",
          "type": "uint256"
        }
      ],
      "name": "userIntents",
      "outputs": [
        {
          "internalType": "uint256",
          "name": "",
          "type": "uint256"
        }
      ],
      "stateMutability": "view",
      "type": "function"
    }
  ],
  "bytecode": "0x6080604052610e106013553480156200001757600080fd5b506040516200736e3803806200736e83398181016040528101906200003d9190620004d5565b848484848483838160029081620000559190620007e6565b508060039081620000679190620007e6565b5062000078620000c560201b60201c565b60008190555050506200009185620000ca60201b60201c565b620000b582826fffffffffffffffffffffffffffffffff166200019060201b60201c565b505050505050505050506200096b565b600090565b6000600960009054906101000a900473ffffffffffffffffffffffffffffffffffffffff16905081600960006101000a81548173ffffffffffffffffffffffffffffffffffffffff021916908373ffffffffffffffffffffffffffffffffffffffff1602179055508173ffffffffffffffffffffffffffffffffffffffff168173ffffffffffffffffffffffffffffffffffffffff167f8292fce18fa69edf4db7b94ea2e58241df0ae57f97e0a6c9b29067028bf92d7660405160405180910390a35050565b612710811115620001de57612710816040517f52498568000000000000000000000000000000000000000000000000000000008152600401620001d592919062000921565b60405180910390fd5b81600a60006101000a81548173ffffffffffffffffffffffffffffffffffffffff021916908373ffffffffffffffffffffffffffffffffffffffff16021790555080600a60146101000a81548161ffff021916908361ffff1602179055508173ffffffffffffffffffffffffffffffffffffffff167f90d7ec04bcb8978719414f82e52e4cb651db41d0e6f8cea6118c2191e6183adb826040516200028491906200094e565b60405180910390a25050565b6000604051905090565b600080fd5b600080fd5b600073ffffffffffffffffffffffffffffffffffffffff82169050919050565b6000620002d182620002a4565b9050919050565b620002e381620002c4565b8114620002ef57600080fd5b50565b6000815190506200030381620002d8565b92915050565b600080fd5b600080fd5b6000601f19601f8301169050919050565b7f4e487b7100000000000000000000000000000000000000000000000000000000600052604160045260246000fd5b6200035e8262000313565b810181811067ffffffffffffffff8211171562000380576200037f62000324565b5b80604052505050565b60006200039562000290565b9050620003a3828262000353565b919050565b600067ffffffffffffffff821115620003c657620003c562000324565b5b620003d18262000313565b9050602081019050919050565b60005b83811015620003fe578082015181840152602081019050620003e1565b60008484015250505050565b6000620004216200041b84620003a8565b62000389565b90508281526020810184848401111562000440576200043f6200030e565b5b6200044d848285620003de565b509392505050565b600082601f8301126200046d576200046c62000309565b5b81516200047f8482602086016200040a565b91505092915050565b60006fffffffffffffffffffffffffffffffff82169050919050565b620004af8162000488565b8114620004bb57600080fd5b50565b600081519050620004cf81620004a4565b92915050565b600080600080600060a08688031215620004f457620004f36200029a565b5b60006200050488828901620002f2565b955050602086015167ffffffffffffffff8111156200052857620005276200029f565b5b620005368882890162000455565b945050604086015167ffffffffffffffff8111156200055a57620005596200029f565b5b620005688882890162000455565b93505060606200057b88828901620002f2565b92505060806200058e88828901620004be565b9150509295509295909350565b600081519050919050565b7f4e487b7100000000000000000000000000000000000000000000000000000000600052602260045260246000fd5b60006002820490506001821680620005ee57607f821691505b602082108103620006045762000603620005a6565b5b50919050565b60008190508160005260206000209050919050565b60006020601f8301049050919050565b600082821b905092915050565b6000600883026200066e7fffffffffffffffffffffffffffffffffffffffffffffffffffffffffffffffff826200062f565b6200067a86836200062f565b95508019841693508086168417925050509392505050565b6000819050919050565b6000819050919050565b6000620006c7620006c1620006bb8462000692565b6200069c565b62000692565b9050919050565b6000819050919050565b620006e383620006a6565b620006fb620006f282620006ce565b8484546200063c565b825550505050565b600090565b6200071262000703565b6200071f818484620006d8565b505050565b5b8181101562000747576200073b60008262000708565b60018101905062000725565b5050565b601f821115620007965762000760816200060a565b6200076b846200061f565b810160208510156200077b578190505b620007936200078a856200061f565b83018262000724565b50505b505050565b600082821c905092915050565b6000620007bb600019846008026200079b565b1980831691505092915050565b6000620007d68383620007a8565b9150826002028217905092915050565b620007f1826200059b565b67ffffffffffffffff8111156200080d576200080c62000324565b5b620008198254620005d5565b620008268282856200074b565b600060209050601f8311600181146200085e576000841562000849578287015190505b620008558582620007c8565b865550620008c5565b601f1984166200086e866200060a565b60005b82811015620008985784890151825560018201915060208501945060208101905062000871565b86831015620008b85784890151620008b4601f891682620007a8565b8355505b6001600288020188555050505b505050505050565b6000819050919050565b6000620008f8620008f2620008ec84620008cd565b6200069c565b62000692565b9050919050565b6200090a81620008d7565b82525050565b6200091b8162000692565b82525050565b6000604082019050620009386000830185620008ff565b62000947602083018462000910565b9392505050565b600060208201905062000965600083018462000910565b92915050565b6169f3806200097b6000396000f3fe608060405234801561001057600080fd5b50600436106102d55760003560e01c806370a0823111610182578063a22cb465116100e9578063c87b56dd116100a2578063e8a3d4851161007c578063e8a3d485146109a5578063e985e9c5146109c3578063fa3209b2146109f3578063fbd7c03614610a23576102d5565b8063c87b56dd1461093b578063cd9d6aee1461096b578063e5ada13e14610987576102d5565b8063a22cb46514610854578063abef9ba114610870578063ac9650d8146108a0578063b24f2d39146108d0578063b88d4fde146108ef578063c23dc68f1461090b576102d5565b8063906e277b1161013b578063906e277b14610780578063938e3d7b146107b0578063947a36fb146107cc57806395d89b41146107ea57806399a2557a146108085780639bcf7a1514610838576102d5565b806370a0823114610686578063754a81d9146106b657806383040532146106d25780638462151c1461070257806389c9c3ae146107325780638da5cb5b14610762576102d5565b80633f40d41c116102415780634cc157df116101fa578063600dd5ea116101d4578063600dd5ea146105eb5780636352211e1461060757806363b45e2d146106375780636e04ff0d14610655576102d5565b80634cc157df1461055a57806357ef2d1a1461058b5780635bbb2177146105bb576102d5565b80633f40d41c1461048357806342842e0e1461049f57806342966c68146104bb578063430c2081146104d75780634585e33b1461050757806346a1a09514610523576102d5565b806313af40351161029357806313af4035146103ae57806318160ddd146103ca57806323b872dd146103e85780632419f51b146104045780632a55205a146104345780633b1475a714610465576102d5565b806275a317146102da57806301ffc9a7146102f65780630689bafd1461032657806306fdde0314610344578063081812fc14610362578063095ea7b314610392575b600080fd5b6102f460048036038101906102ef9190614ed3565b610a3f565b005b610310600480360381019061030b9190614f87565b610ab6565b60405161031d9190614fcf565b60405180910390f35b61032e610bb0565b60405161033b9190614ff9565b60405180910390f35b61034c610bd6565b6040516103599190615093565b60405180910390f35b61037c600480360381019061037791906150eb565b610c68565b6040516103899190614ff9565b60405180910390f35b6103ac60048036038101906103a79190615118565b610ce4565b005b6103c860048036038101906103c39190615158565b610de8565b005b6103d2610e32565b6040516103df9190615194565b60405180910390f35b61040260048036038101906103fd91906151af565b610e49565b005b61041e600480360381019061041991906150eb565b610e59565b60405161042b9190615194565b60405180910390f35b61044e60048036038101906104499190615202565b610ecc565b60405161045c929190615242565b60405180910390f35b61046d610f0a565b60405161047a9190615194565b60405180910390f35b61049d600480360381019061049891906150eb565b610f13565b005b6104b960048036038101906104b491906151af565b610fa4565b005b6104d560048036038101906104d091906150eb565b610fc4565b005b6104f160048036038101906104ec9190615118565b610fd2565b6040516104fe9190614fcf565b60405180910390f35b610521600480360381019061051c91906152cb565b611067565b005b61053d600480360381019061053891906150eb565b61120a565b604051610551989796959493929190615318565b60405180910390f35b610574600480360381019061056f91906150eb565b611314565b6040516105829291906153ba565b60405180910390f35b6105a560048036038101906105a091906153e3565b61141f565b6040516105b29190615194565b60405180910390f35b6105d560048036038101906105d09190615515565b61166f565b6040516105e29190615690565b60405180910390f35b61060560048036038101906106009190615118565b611730565b005b610621600480360381019061061c91906150eb565b61177c565b60405161062e9190614ff9565b60405180910390f35b61063f611792565b60405161064c9190615194565b60405180910390f35b61066f600480360381019061066a91906152cb565b61179f565b60405161067d929190615707565b60405180910390f35b6106a0600480360381019061069b9190615158565b61188a565b6040516106ad9190615194565b60405180910390f35b6106d060048036038101906106cb91906157d8565b611959565b005b6106ec60048036038101906106e791906150eb565b6119c5565b6040516106f99190614fcf565b60405180910390f35b61071c60048036038101906107179190615158565b6119e5565b6040516107299190615935565b60405180910390f35b61074c60048036038101906107479190615118565b611be0565b6040516107599190615194565b60405180910390f35b61076a611c11565b6040516107779190614ff9565b60405180910390f35b61079a600480360381019061079591906150eb565b611c3b565b6040516107a79190615a51565b60405180910390f35b6107ca60048036038101906107c59190615a73565b611daf565b005b6107d4611df9565b6040516107e19190615194565b60405180910390f35b6107f2611dff565b6040516107ff9190615093565b60405180910390f35b610822600480360381019061081d9190615abc565b611e91565b60405161082f9190615935565b60405180910390f35b610852600480360381019061084d9190615b0f565b612150565b005b61086e60048036038101906108699190615b8e565b61219e565b005b61088a60048036038101906108859190615bce565b612315565b6040516108979190615194565b60405180910390f35b6108ba60048036038101906108b59190615c80565b612522565b6040516108c79190615dd9565b60405180910390f35b6108d86126ea565b6040516108e69291906153ba565b60405180910390f35b61090960048036038101906109049190615dfb565b612729565b005b610925600480360381019061092091906150eb565b6127a1565b6040516109329190615ec0565b60405180910390f35b610955600480360381019061095091906150eb565b6128be565b6040516109629190615093565b60405180910390f35b610985600480360381019061098091906150eb565b6129b4565b005b61098f612b1f565b60405161099c9190615194565b60405180910390f35b6109ad612b25565b6040516109ba9190615093565b60405180910390f35b6109dd60048036038101906109d89190615edb565b612bb3565b6040516109ea9190614fcf565b60405180910390f35b610a0d6004803603810190610a089190615158565b612c47565b604051610a1a9190615935565b60405180910390f35b610a3d6004803603810190610a389190615158565b612cde565b005b610a47612e2b565b610a86576040517f08c379a0000000000000000000000000000000000000000000000000000000008152600401610a7d90615f67565b60405180910390fd5b610a97610a91610f0a565b82612e34565b610ab282600160405180602001604052806000815250612ebb565b5050565b60006301ffc9a760e01b827bffffffffffffffffffffffffffffffffffffffffffffffffffffffff19161480610b1157506380ac58cd60e01b827bffffffffffffffffffffffffffffffffffffffffffffffffffffffff1916145b80610b415750635b5e139f60e01b827bffffffffffffffffffffffffffffffffffffffffffffffffffffffff1916145b80610ba957507f2a55205a000000000000000000000000000000000000000000000000000000007bffffffffffffffffffffffffffffffffffffffffffffffffffffffff1916827bffffffffffffffffffffffffffffffffffffffffffffffffffffffff1916145b9050919050565b601560009054906101000a900473ffffffffffffffffffffffffffffffffffffffff1681565b606060028054610be590615fb6565b80601f0160208091040260200160405190810160405280929190818152602001828054610c1190615fb6565b8015610c5e5780601f10610c3357610100808354040283529160200191610c5e565b820191906000526020600020905b815481529060010190602001808311610c4157829003601f168201915b5050505050905090565b6000610c738261327b565b610ca9576040517fcf4700e400000000000000000000000000000000000000000000000000000000815260040160405180910390fd5b6006600083815260200190815260200160002060009054906101000a900473ffffffffffffffffffffffffffffffffffffffff169050919050565b6000610cef8261177c565b90508073ffffffffffffffffffffffffffffffffffffffff168373ffffffffffffffffffffffffffffffffffffffff1603610d56576040517f943f7b8c00000000000000000000000000000000000000000000000000000000815260040160405180910390fd5b8073ffffffffffffffffffffffffffffffffffffffff16610d756132c9565b73ffffffffffffffffffffffffffffffffffffffff1614610dd857610da181610d9c6132c9565b612bb3565b610dd7576040517fcfb3b94200000000000000000000000000000000000000000000000000000000815260040160405180910390fd5b5b610de38383836132d1565b505050565b610df0613383565b610e26576040517f2d99739600000000000000000000000000000000000000000000000000000000815260040160405180910390fd5b610e2f816133c0565b50565b6000610e3c613486565b6001546000540303905090565b610e5483838361348b565b505050565b6000610e63611792565b8210610ea657816040517f0f2624ee000000000000000000000000000000000000000000000000000000008152600401610e9d9190615194565b60405180910390fd5b600c8281548110610eba57610eb9615fe7565b5b90600052602060002001549050919050565b600080600080610edb86611314565b61ffff16915091508193506127108186610ef59190616045565b610eff91906160b6565b925050509250929050565b60008054905090565b600960009054906101000a900473ffffffffffffffffffffffffffffffffffffffff1673ffffffffffffffffffffffffffffffffffffffff163373ffffffffffffffffffffffffffffffffffffffff1614610f9a576040517f2d99739600000000000000000000000000000000000000000000000000000000815260040160405180910390fd5b8060138190555050565b610fbf83838360405180602001604052806000815250612729565b505050565b610fcf81600161393f565b50565b600080610fde8361177c565b90508073ffffffffffffffffffffffffffffffffffffffff168473ffffffffffffffffffffffffffffffffffffffff161480611020575061101f8185612bb3565b5b8061105e57508373ffffffffffffffffffffffffffffffffffffffff1661104684610c68565b73ffffffffffffffffffffffffffffffffffffffff16145b91505092915050565b6000828281019061107891906150eb565b9050426014819055506000805b6010548110801561109557508282105b156111ca5760006011600083815260200190815260200160002090508060070160009054906101000a900460ff1680156110de57508060040160009054906101000a900460ff16155b80156110ee575080600601544210155b156111b65760018160040160006101000a81548160ff021916908315150217905550828061111b906160e7565b93505061114d8160010160009054906101000a900473ffffffffffffffffffffffffffffffffffffffff166001613d2e565b8060010160009054906101000a900473ffffffffffffffffffffffffffffffffffffffff1673ffffffffffffffffffffffffffffffffffffffff16827f6852407858602d696344801f0181bc507c808c727c914bb6cdfeabd42431af3860405160405180910390a35b5080806111c2906160e7565b915050611085565b507ff2d16d924eb54b4e0b6d5caea0349992ed5475ad6772b934ee978621b5d3d40142826040516111fc92919061612f565b60405180910390a150505050565b60116020528060005260406000206000915090508060000154908060010160009054906101000a900473ffffffffffffffffffffffffffffffffffffffff169080600201805461125990615fb6565b80601f016020809104026020016040519081016040528092919081815260200182805461128590615fb6565b80156112d25780601f106112a7576101008083540402835291602001916112d2565b820191906000526020600020905b8154815290600101906020018083116112b557829003601f168201915b5050505050908060030154908060040160009054906101000a900460ff16908060050154908060060154908060070160009054906101000a900460ff16905088565b6000806000600b60008581526020019081526020016000206040518060400160405290816000820160009054906101000a900473ffffffffffffffffffffffffffffffffffffffff1673ffffffffffffffffffffffffffffffffffffffff1673ffffffffffffffffffffffffffffffffffffffff1681526020016001820154815250509050600073ffffffffffffffffffffffffffffffffffffffff16816000015173ffffffffffffffffffffffffffffffffffffffff16146113e05780600001518160200151611415565b600a60009054906101000a900473ffffffffffffffffffffffffffffffffffffffff16600a60149054906101000a900461ffff165b9250925050915091565b6000428211611463576040517f08c379a000000000000000000000000000000000000000000000000000000000815260040161145a906161ca565b60405180910390fd5b600060106000815480929190611478906160e7565b9190505590506040518061010001604052808281526020013373ffffffffffffffffffffffffffffffffffffffff16815260200186815260200185815260200160001515815260200142815260200184815260200160011515815250601160008381526020019081526020016000206000820151816000015560208201518160010160006101000a81548173ffffffffffffffffffffffffffffffffffffffff021916908373ffffffffffffffffffffffffffffffffffffffff160217905550604082015181600201908161154d9190616396565b506060820151816003015560808201518160040160006101000a81548160ff02191690831515021790555060a0820151816005015560c0820151816006015560e08201518160070160006101000a81548160ff021916908315150217905550905050601260003373ffffffffffffffffffffffffffffffffffffffff1673ffffffffffffffffffffffffffffffffffffffff1681526020019081526020016000208190806001815401808255809150506001900390600052602060002001600090919091909150553373ffffffffffffffffffffffffffffffffffffffff16817fb6f430c8722299f241d9c66e77ee068ce71fb3d66d1c0af7d457ef4e50b4e59b8760405161165c9190615093565b60405180910390a3809150509392505050565b606060008251905060008167ffffffffffffffff81111561169357611692614da8565b5b6040519080825280602002602001820160405280156116cc57816020015b6116b9614c79565b8152602001906001900390816116b15790505b50905060005b828114611725576116fc8582815181106116ef576116ee615fe7565b5b60200260200101516127a1565b82828151811061170f5761170e615fe7565b5b60200260200101819052508060010190506116d2565b508092505050919050565b611738614008565b61176e576040517fdf5c6b0200000000000000000000000000000000000000000000000000000000815260040160405180910390fd5b6117788282614045565b5050565b600061178782614140565b600001519050919050565b6000600c80549050905090565b600060606000601354601454426117b69190616468565b1190506000805b601054811080156117ce5750600a82105b1561184f5760006011600083815260200190815260200160002090508060070160009054906101000a900460ff16801561181757508060040160009054906101000a900460ff16155b8015611827575080600601544210155b1561183b578280611837906160e7565b9350505b508080611847906160e7565b9150506117bd565b5081801561185d5750600081115b9350806040516020016118709190615194565b604051602081830303815290604052925050509250929050565b60008073ffffffffffffffffffffffffffffffffffffffff168273ffffffffffffffffffffffffffffffffffffffff16036118f1576040517f8f4eb60400000000000000000000000000000000000000000000000000000000815260040160405180910390fd5b600560008373ffffffffffffffffffffffffffffffffffffffff1673ffffffffffffffffffffffffffffffffffffffff16815260200190815260200160002060000160009054906101000a900467ffffffffffffffff1667ffffffffffffffff169050919050565b611961612e2b565b6119a0576040517f08c379a000000000000000000000000000000000000000000000000000000000815260040161199790615f67565b60405180910390fd5b6119b26119ab610f0a565b84846143cb565b50506119bf848483612ebb565b50505050565b600e6020528060005260406000206000915054906101000a900460ff1681565b606060008060006119f58561188a565b905060008167ffffffffffffffff811115611a1357611a12614da8565b5b604051908082528060200260200182016040528015611a415781602001602082028036833780820191505090505b509050611a4c614c79565b6000611a56613486565b90505b838614611bd257600460008281526020019081526020016000206040518060600160405290816000820160009054906101000a900473ffffffffffffffffffffffffffffffffffffffff1673ffffffffffffffffffffffffffffffffffffffff1673ffffffffffffffffffffffffffffffffffffffff1681526020016000820160149054906101000a900467ffffffffffffffff1667ffffffffffffffff1667ffffffffffffffff16815260200160008201601c9054906101000a900460ff16151515158152505091508160400151611bc757600073ffffffffffffffffffffffffffffffffffffffff16826000015173ffffffffffffffffffffffffffffffffffffffff1614611b6c57816000015194505b8773ffffffffffffffffffffffffffffffffffffffff168573ffffffffffffffffffffffffffffffffffffffff1603611bc65780838780600101985081518110611bb957611bb8615fe7565b5b6020026020010181815250505b5b806001019050611a59565b508195505050505050919050565b60126020528160005260406000208181548110611bfc57600080fd5b90600052602060002001600091509150505481565b6000600960009054906101000a900473ffffffffffffffffffffffffffffffffffffffff16905090565b611c43614cbc565b6011600083815260200190815260200160002060405180610100016040529081600082015481526020016001820160009054906101000a900473ffffffffffffffffffffffffffffffffffffffff1673ffffffffffffffffffffffffffffffffffffffff1673ffffffffffffffffffffffffffffffffffffffff168152602001600282018054611cd290615fb6565b80601f0160208091040260200160405190810160405280929190818152602001828054611cfe90615fb6565b8015611d4b5780601f10611d2057610100808354040283529160200191611d4b565b820191906000526020600020905b815481529060010190602001808311611d2e57829003601f168201915b50505050508152602001600382015481526020016004820160009054906101000a900460ff1615151515815260200160058201548152602001600682015481526020016007820160009054906101000a900460ff1615151515815250509050919050565b611db7614431565b611ded576040517f9f7f092500000000000000000000000000000000000000000000000000000000815260040160405180910390fd5b611df68161446e565b50565b60135481565b606060038054611e0e90615fb6565b80601f0160208091040260200160405190810160405280929190818152602001828054611e3a90615fb6565b8015611e875780601f10611e5c57610100808354040283529160200191611e87565b820191906000526020600020905b815481529060010190602001808311611e6a57829003601f168201915b5050505050905090565b6060818310611ecc576040517f32c1995a00000000000000000000000000000000000000000000000000000000815260040160405180910390fd5b6000806000549050611edc613486565b851015611eee57611eeb613486565b94505b80841115611efa578093505b6000611f058761188a565b905084861015611f28576000868603905081811015611f22578091505b50611f2d565b600090505b60008167ffffffffffffffff811115611f4957611f48614da8565b5b604051908082528060200260200182016040528015611f775781602001602082028036833780820191505090505b50905060008203611f8e5780945050505050612149565b6000611f99886127a1565b905060008160400151611fae57816000015190505b60008990505b888114158015611fc45750848714155b1561213b57600460008281526020019081526020016000206040518060600160405290816000820160009054906101000a900473ffffffffffffffffffffffffffffffffffffffff1673ffffffffffffffffffffffffffffffffffffffff1673ffffffffffffffffffffffffffffffffffffffff1681526020016000820160149054906101000a900467ffffffffffffffff1667ffffffffffffffff1667ffffffffffffffff16815260200160008201601c9054906101000a900460ff1615151515815250509250826040015161213057600073ffffffffffffffffffffffffffffffffffffffff16836000015173ffffffffffffffffffffffffffffffffffffffff16146120d557826000015191505b8a73ffffffffffffffffffffffffffffffffffffffff168273ffffffffffffffffffffffffffffffffffffffff160361212f578084888060010199508151811061212257612121615fe7565b5b6020026020010181815250505b5b806001019050611fb4565b508583528296505050505050505b9392505050565b612158614008565b61218e576040517fdf5c6b0200000000000000000000000000000000000000000000000000000000815260040160405180910390fd5b61219983838361454a565b505050565b6121a66132c9565b73ffffffffffffffffffffffffffffffffffffffff168273ffffffffffffffffffffffffffffffffffffffff160361220a576040517fb06307db00000000000000000000000000000000000000000000000000000000815260040160405180910390fd5b80600760006122176132c9565b73ffffffffffffffffffffffffffffffffffffffff1673ffffffffffffffffffffffffffffffffffffffff16815260200190815260200160002060008473ffffffffffffffffffffffffffffffffffffffff1673ffffffffffffffffffffffffffffffffffffffff16815260200190815260200160002060006101000a81548160ff0219169083151502179055508173ffffffffffffffffffffffffffffffffffffffff166122c46132c9565b73ffffffffffffffffffffffffffffffffffffffff167f17307eab39ab6107e8899845ad3d59bd9653f200f220920489ca2b5937696c31836040516123099190614fcf565b60405180910390a35050565b6000806010600081548092919061232b906160e7565b9190505590506040518061010001604052808281526020013373ffffffffffffffffffffffffffffffffffffffff1681526020018581526020018481526020016000151581526020014281526020016000815260200160001515815250601160008381526020019081526020016000206000820151816000015560208201518160010160006101000a81548173ffffffffffffffffffffffffffffffffffffffff021916908373ffffffffffffffffffffffffffffffffffffffff16021790555060408201518160020190816124019190616396565b506060820151816003015560808201518160040160006101000a81548160ff02191690831515021790555060a0820151816005015560c0820151816006015560e08201518160070160006101000a81548160ff021916908315150217905550905050601260003373ffffffffffffffffffffffffffffffffffffffff1673ffffffffffffffffffffffffffffffffffffffff1681526020019081526020016000208190806001815401808255809150506001900390600052602060002001600090919091909150553373ffffffffffffffffffffffffffffffffffffffff16817fb6f430c8722299f241d9c66e77ee068ce71fb3d66d1c0af7d457ef4e50b4e59b866040516125109190615093565b60405180910390a38091505092915050565b60608282905067ffffffffffffffff81111561254157612540614da8565b5b60405190808252806020026020018201604052801561257457816020015b606081526020019060019003908161255f5790505b50905060006125816132c9565b905060008173ffffffffffffffffffffffffffffffffffffffff163373ffffffffffffffffffffffffffffffffffffffff161415905060005b858590508110156126e157811561263e5761261b308787848181106125e2576125e1615fe7565b5b90506020028101906125f491906164ab565b8660405160200161260793929190616586565b60405160208183030381529060405261467b565b84828151811061262e5761262d615fe7565b5b60200260200101819052506126ce565b6126af3087878481811061265557612654615fe7565b5b905060200281019061266791906164ab565b8080601f016020809104026020016040519081016040528093929190818152602001838380828437600081840152601f19601f8201169050808301925050505050505061467b565b8482815181106126c2576126c1615fe7565b5b60200260200101819052505b80806126d9906160e7565b9150506125ba565b50505092915050565b600080600a60009054906101000a900473ffffffffffffffffffffffffffffffffffffffff16600a60149054906101000a900461ffff16915091509091565b61273484848461348b565b6127538373ffffffffffffffffffffffffffffffffffffffff166146a8565b1561279b57612764848484846146cb565b61279a576040517fd1a57ed600000000000000000000000000000000000000000000000000000000815260040160405180910390fd5b5b50505050565b6127a9614c79565b6127b1614c79565b6127b9613486565b8310806127c857506000548310155b156127d657809150506128b9565b600460008481526020019081526020016000206040518060600160405290816000820160009054906101000a900473ffffffffffffffffffffffffffffffffffffffff1673ffffffffffffffffffffffffffffffffffffffff1673ffffffffffffffffffffffffffffffffffffffff1681526020016000820160149054906101000a900467ffffffffffffffff1667ffffffffffffffff1667ffffffffffffffff16815260200160008201601c9054906101000a900460ff16151515158152505090508060400151156128ac57809150506128b9565b6128b583614140565b9150505b919050565b60606000600f600084815260200190815260200160002080546128e090615fb6565b80601f016020809104026020016040519081016040528092919081815260200182805461290c90615fb6565b80156129595780601f1061292e57610100808354040283529160200191612959565b820191906000526020600020905b81548152906001019060200180831161293c57829003601f168201915b5050505050905060008151111561297357809150506129af565b600061297e8461481b565b90508061298a856149c2565b60405160200161299b9291906165ec565b604051602081830303815290604052925050505b919050565b60006011600083815260200190815260200160002090503373ffffffffffffffffffffffffffffffffffffffff168160010160009054906101000a900473ffffffffffffffffffffffffffffffffffffffff1673ffffffffffffffffffffffffffffffffffffffff1614612a5d576040517f08c379a0000000000000000000000000000000000000000000000000000000008152600401612a549061665c565b60405180910390fd5b8060040160009054906101000a900460ff1615612aaf576040517f08c379a0000000000000000000000000000000000000000000000000000000008152600401612aa6906166c8565b60405180910390fd5b60018160040160006101000a81548160ff021916908315150217905550612ad7336001613d2e565b3373ffffffffffffffffffffffffffffffffffffffff16827f6852407858602d696344801f0181bc507c808c727c914bb6cdfeabd42431af3860405160405180910390a35050565b60145481565b60088054612b3290615fb6565b80601f0160208091040260200160405190810160405280929190818152602001828054612b5e90615fb6565b8015612bab5780601f10612b8057610100808354040283529160200191612bab565b820191906000526020600020905b815481529060010190602001808311612b8e57829003601f168201915b505050505081565b6000600760008473ffffffffffffffffffffffffffffffffffffffff1673ffffffffffffffffffffffffffffffffffffffff16815260200190815260200160002060008373ffffffffffffffffffffffffffffffffffffffff1673ffffffffffffffffffffffffffffffffffffffff16815260200190815260200160002060009054906101000a900460ff16905092915050565b6060601260008373ffffffffffffffffffffffffffffffffffffffff1673ffffffffffffffffffffffffffffffffffffffff168152602001908152602001600020805480602002602001604051908101604052809291908181526020018280548015612cd257602002820191906000526020600020905b815481526020019060010190808311612cbe575b50505050509050919050565b600960009054906101000a900473ffffffffffffffffffffffffffffffffffffffff1673ffffffffffffffffffffffffffffffffffffffff163373ffffffffffffffffffffffffffffffffffffffff1614612d65576040517f2d99739600000000000000000000000000000000000000000000000000000000815260040160405180910390fd5b6000601560009054906101000a900473ffffffffffffffffffffffffffffffffffffffff16905081601560006101000a81548173ffffffffffffffffffffffffffffffffffffffff021916908373ffffffffffffffffffffffffffffffffffffffff1602179055508173ffffffffffffffffffffffffffffffffffffffff168173ffffffffffffffffffffffffffffffffffffffff167f1566c4e11d9ad36725b51dfa23bea54db489d3392043536734123d86063ad57660405160405180910390a35050565b60006001905090565b6000600f60008481526020019081526020016000208054612e5490615fb6565b905014612e96576040517f08c379a0000000000000000000000000000000000000000000000000000000008152600401612e8d90616734565b60405180910390fd5b80600f60008481526020019081526020016000209081612eb69190616396565b505050565b600080549050600073ffffffffffffffffffffffffffffffffffffffff168473ffffffffffffffffffffffffffffffffffffffff1603612f27576040517f2e07630000000000000000000000000000000000000000000000000000000000815260040160405180910390fd5b60008303612f61576040517fb562e8dd00000000000000000000000000000000000000000000000000000000815260040160405180910390fd5b612f6e6000858386614b22565b82600560008673ffffffffffffffffffffffffffffffffffffffff1673ffffffffffffffffffffffffffffffffffffffff16815260200190815260200160002060000160008282829054906101000a900467ffffffffffffffff160192506101000a81548167ffffffffffffffff021916908367ffffffffffffffff16021790555082600560008673ffffffffffffffffffffffffffffffffffffffff1673ffffffffffffffffffffffffffffffffffffffff16815260200190815260200160002060000160088282829054906101000a900467ffffffffffffffff160192506101000a81548167ffffffffffffffff021916908367ffffffffffffffff160217905550836004600083815260200190815260200160002060000160006101000a81548173ffffffffffffffffffffffffffffffffffffffff021916908373ffffffffffffffffffffffffffffffffffffffff160217905550426004600083815260200190815260200160002060000160146101000a81548167ffffffffffffffff021916908367ffffffffffffffff16021790555060008190506000848201905061312f8673ffffffffffffffffffffffffffffffffffffffff166146a8565b156131f4575b818673ffffffffffffffffffffffffffffffffffffffff16600073ffffffffffffffffffffffffffffffffffffffff167fddf252ad1be2c89b69c2b068fc378daa952ba7f163c4a11628f55a4df523b3ef60405160405180910390a46131a460008784806001019550876146cb565b6131da576040517fd1a57ed600000000000000000000000000000000000000000000000000000000815260040160405180910390fd5b8082106131355782600054146131ef57600080fd5b61325f565b5b818060010192508673ffffffffffffffffffffffffffffffffffffffff16600073ffffffffffffffffffffffffffffffffffffffff167fddf252ad1be2c89b69c2b068fc378daa952ba7f163c4a11628f55a4df523b3ef60405160405180910390a48082106131f5575b8160008190555050506132756000858386614b28565b50505050565b600081613286613486565b11158015613295575060005482105b80156132c2575060046000838152602001908152602001600020600001601c9054906101000a900460ff16155b9050919050565b600033905090565b826006600084815260200190815260200160002060006101000a81548173ffffffffffffffffffffffffffffffffffffffff021916908373ffffffffffffffffffffffffffffffffffffffff160217905550818373ffffffffffffffffffffffffffffffffffffffff168273ffffffffffffffffffffffffffffffffffffffff167f8c5be1e5ebec7d5bd14f71427d1e84f3dd0314c0f7b2291e5b200ac8c7c3b92560405160405180910390a4505050565b600061338d611c11565b73ffffffffffffffffffffffffffffffffffffffff163373ffffffffffffffffffffffffffffffffffffffff1614905090565b6000600960009054906101000a900473ffffffffffffffffffffffffffffffffffffffff16905081600960006101000a81548173ffffffffffffffffffffffffffffffffffffffff021916908373ffffffffffffffffffffffffffffffffffffffff1602179055508173ffffffffffffffffffffffffffffffffffffffff168173ffffffffffffffffffffffffffffffffffffffff167f8292fce18fa69edf4db7b94ea2e58241df0ae57f97e0a6c9b29067028bf92d7660405160405180910390a35050565b600090565b600061349682614140565b90508373ffffffffffffffffffffffffffffffffffffffff16816000015173ffffffffffffffffffffffffffffffffffffffff1614613501576040517fa114810000000000000000000000000000000000000000000000000000000000815260040160405180910390fd5b60008473ffffffffffffffffffffffffffffffffffffffff166135226132c9565b73ffffffffffffffffffffffffffffffffffffffff16148061355157506135508561354b6132c9565b612bb3565b5b80613596575061355f6132c9565b73ffffffffffffffffffffffffffffffffffffffff1661357e84610c68565b73ffffffffffffffffffffffffffffffffffffffff16145b9050806135cf576040517f59c896be00000000000000000000000000000000000000000000000000000000815260040160405180910390fd5b600073ffffffffffffffffffffffffffffffffffffffff168473ffffffffffffffffffffffffffffffffffffffff1603613635576040517fea553b3400000000000000000000000000000000000000000000000000000000815260040160405180910390fd5b6136428585856001614b22565b61364e600084876132d1565b6001600560008773ffffffffffffffffffffffffffffffffffffffff1673ffffffffffffffffffffffffffffffffffffffff16815260200190815260200160002060000160008282829054906101000a900467ffffffffffffffff160392506101000a81548167ffffffffffffffff021916908367ffffffffffffffff1602179055506001600560008673ffffffffffffffffffffffffffffffffffffffff1673ffffffffffffffffffffffffffffffffffffffff16815260200190815260200160002060000160008282829054906101000a900467ffffffffffffffff160192506101000a81548167ffffffffffffffff021916908367ffffffffffffffff1602179055506000600460008581526020019081526020016000209050848160000160006101000a81548173ffffffffffffffffffffffffffffffffffffffff021916908373ffffffffffffffffffffffffffffffffffffffff160217905550428160000160146101000a81548167ffffffffffffffff021916908367ffffffffffffffff16021790555060006001850190506000600460008381526020019081526020016000209050600073ffffffffffffffffffffffffffffffffffffffff168160000160009054906101000a900473ffffffffffffffffffffffffffffffffffffffff1673ffffffffffffffffffffffffffffffffffffffff16036138cd5760005482146138cc57878160000160006101000a81548173ffffffffffffffffffffffffffffffffffffffff021916908373ffffffffffffffffffffffffffffffffffffffff16021790555084602001518160000160146101000a81548167ffffffffffffffff021916908367ffffffffffffffff1602179055505b5b505050828473ffffffffffffffffffffffffffffffffffffffff168673ffffffffffffffffffffffffffffffffffffffff167fddf252ad1be2c89b69c2b068fc378daa952ba7f163c4a11628f55a4df523b3ef60405160405180910390a46139388585856001614b28565b5050505050565b600061394a83614140565b90506000816000015190508215613a2b5760008173ffffffffffffffffffffffffffffffffffffffff1661397c6132c9565b73ffffffffffffffffffffffffffffffffffffffff1614806139ab57506139aa826139a56132c9565b612bb3565b5b806139f057506139b96132c9565b73ffffffffffffffffffffffffffffffffffffffff166139d886610c68565b73ffffffffffffffffffffffffffffffffffffffff16145b905080613a29576040517f59c896be00000000000000000000000000000000000000000000000000000000815260040160405180910390fd5b505b613a39816000866001614b22565b613a45600085836132d1565b6000600560008373ffffffffffffffffffffffffffffffffffffffff1673ffffffffffffffffffffffffffffffffffffffff168152602001908152602001600020905060018160000160008282829054906101000a900467ffffffffffffffff160392506101000a81548167ffffffffffffffff021916908367ffffffffffffffff16021790555060018160000160108282829054906101000a900467ffffffffffffffff160192506101000a81548167ffffffffffffffff021916908367ffffffffffffffff1602179055506000600460008781526020019081526020016000209050828160000160006101000a81548173ffffffffffffffffffffffffffffffffffffffff021916908373ffffffffffffffffffffffffffffffffffffffff160217905550428160000160146101000a81548167ffffffffffffffff021916908367ffffffffffffffff160217905550600181600001601c6101000a81548160ff02191690831515021790555060006001870190506000600460008381526020019081526020016000209050600073ffffffffffffffffffffffffffffffffffffffff168160000160009054906101000a900473ffffffffffffffffffffffffffffffffffffffff1673ffffffffffffffffffffffffffffffffffffffff1603613ca8576000548214613ca757848160000160006101000a81548173ffffffffffffffffffffffffffffffffffffffff021916908373ffffffffffffffffffffffffffffffffffffffff16021790555085602001518160000160146101000a81548167ffffffffffffffff021916908367ffffffffffffffff1602179055505b5b5050505083600073ffffffffffffffffffffffffffffffffffffffff168273ffffffffffffffffffffffffffffffffffffffff167fddf252ad1be2c89b69c2b068fc378daa952ba7f163c4a11628f55a4df523b3ef60405160405180910390a4613d16816000866001614b28565b60016000815480929190600101919050555050505050565b600080549050600073ffffffffffffffffffffffffffffffffffffffff168373ffffffffffffffffffffffffffffffffffffffff1603613d9a576040517f2e07630000000000000000000000000000000000000000000000000000000000815260040160405180910390fd5b60008203613dd4576040517fb562e8dd00000000000000000000000000000000000000000000000000000000815260040160405180910390fd5b613de16000848385614b22565b81600560008573ffffffffffffffffffffffffffffffffffffffff1673ffffffffffffffffffffffffffffffffffffffff16815260200190815260200160002060000160008282829054906101000a900467ffffffffffffffff160192506101000a81548167ffffffffffffffff021916908367ffffffffffffffff16021790555081600560008573ffffffffffffffffffffffffffffffffffffffff1673ffffffffffffffffffffffffffffffffffffffff16815260200190815260200160002060000160088282829054906101000a900467ffffffffffffffff160192506101000a81548167ffffffffffffffff021916908367ffffffffffffffff160217905550826004600083815260200190815260200160002060000160006101000a81548173ffffffffffffffffffffffffffffffffffffffff021916908373ffffffffffffffffffffffffffffffffffffffff160217905550426004600083815260200190815260200160002060000160146101000a81548167ffffffffffffffff021916908367ffffffffffffffff1602179055506000819050600083820190505b818060010192508573ffffffffffffffffffffffffffffffffffffffff16600073ffffffffffffffffffffffffffffffffffffffff167fddf252ad1be2c89b69c2b068fc378daa952ba7f163c4a11628f55a4df523b3ef60405160405180910390a4808210613f84578160008190555050506140036000848385614b28565b505050565b6000614012611c11565b73ffffffffffffffffffffffffffffffffffffffff163373ffffffffffffffffffffffffffffffffffffffff1614905090565b61271081111561409057612710816040517f5249856800000000000000000000000000000000000000000000000000000000815260040161408792919061678f565b60405180910390fd5b81600a60006101000a81548173ffffffffffffffffffffffffffffffffffffffff021916908373ffffffffffffffffffffffffffffffffffffffff16021790555080600a60146101000a81548161ffff021916908361ffff1602179055508173ffffffffffffffffffffffffffffffffffffffff167f90d7ec04bcb8978719414f82e52e4cb651db41d0e6f8cea6118c2191e6183adb826040516141349190615194565b60405180910390a25050565b614148614c79565b600082905080614156613486565b1161439457600054811015614393576000600460008381526020019081526020016000206040518060600160405290816000820160009054906101000a900473ffffffffffffffffffffffffffffffffffffffff1673ffffffffffffffffffffffffffffffffffffffff1673ffffffffffffffffffffffffffffffffffffffff1681526020016000820160149054906101000a900467ffffffffffffffff1667ffffffffffffffff1667ffffffffffffffff16815260200160008201601c9054906101000a900460ff1615151515815250509050806040015161439157600073ffffffffffffffffffffffffffffffffffffffff16816000015173ffffffffffffffffffffffffffffffffffffffff16146142755780925050506143c6565b5b60011561439057818060019003925050600460008381526020019081526020016000206040518060600160405290816000820160009054906101000a900473ffffffffffffffffffffffffffffffffffffffff1673ffffffffffffffffffffffffffffffffffffffff1673ffffffffffffffffffffffffffffffffffffffff1681526020016000820160149054906101000a900467ffffffffffffffff1667ffffffffffffffff1667ffffffffffffffff16815260200160008201601c9054906101000a900460ff1615151515815250509050600073ffffffffffffffffffffffffffffffffffffffff16816000015173ffffffffffffffffffffffffffffffffffffffff161461438b5780925050506143c6565b614276565b5b505b5b6040517fdf2d9b4200000000000000000000000000000000000000000000000000000000815260040160405180910390fd5b919050565b60008083856143da91906167b8565b9050809150600c81908060018154018082558091505060019003906000526020600020016000909190919091505582600d600083815260200190815260200160002090816144289190616396565b50935093915050565b600061443b611c11565b73ffffffffffffffffffffffffffffffffffffffff163373ffffffffffffffffffffffffffffffffffffffff1614905090565b60006008805461447d90615fb6565b80601f01602080910402602001604051908101604052809291908181526020018280546144a990615fb6565b80156144f65780601f106144cb576101008083540402835291602001916144f6565b820191906000526020600020905b8154815290600101906020018083116144d957829003601f168201915b50505050509050816008908161450c9190616396565b507fc9c7c3fe08b88b4df9d4d47ef47d2c43d55c025a0ba88ca442580ed9e7348a16818360405161453e9291906167ec565b60405180910390a15050565b61271081111561459557612710816040517f5249856800000000000000000000000000000000000000000000000000000000815260040161458c92919061678f565b60405180910390fd5b60405180604001604052808373ffffffffffffffffffffffffffffffffffffffff16815260200182815250600b600085815260200190815260200160002060008201518160000160006101000a81548173ffffffffffffffffffffffffffffffffffffffff021916908373ffffffffffffffffffffffffffffffffffffffff160217905550602082015181600101559050508173ffffffffffffffffffffffffffffffffffffffff16837f7365cf4122f072a3365c20d54eff9b38d73c096c28e1892ec8f5b0e403a0f12d8360405161466e9190615194565b60405180910390a3505050565b60606146a0838360405180606001604052806027815260200161699760279139614b2e565b905092915050565b6000808273ffffffffffffffffffffffffffffffffffffffff163b119050919050565b60008373ffffffffffffffffffffffffffffffffffffffff1663150b7a026146f16132c9565b8786866040518563ffffffff1660e01b81526004016147139493929190616823565b6020604051808303816000875af192505050801561474f57506040513d601f19601f8201168201806040525081019061474c9190616884565b60015b6147c8573d806000811461477f576040519150601f19603f3d011682016040523d82523d6000602084013e614784565b606091505b5060008151036147c0576040517fd1a57ed600000000000000000000000000000000000000000000000000000000815260040160405180910390fd5b805181602001fd5b63150b7a0260e01b7bffffffffffffffffffffffffffffffffffffffffffffffffffffffff1916817bffffffffffffffffffffffffffffffffffffffffffffffffffffffff191614915050949350505050565b60606000614827611792565b90506000600c80548060200260200160405190810160405280929190818152602001828054801561487757602002820191906000526020600020905b815481526020019060010190808311614863575b5050505050905060005b8281101561497f5781818151811061489c5761489b615fe7565b5b602002602001015185101561496b57600d60008383815181106148c2576148c1615fe7565b5b6020026020010151815260200190815260200160002080546148e390615fb6565b80601f016020809104026020016040519081016040528092919081815260200182805461490f90615fb6565b801561495c5780601f106149315761010080835404028352916020019161495c565b820191906000526020600020905b81548152906001019060200180831161493f57829003601f168201915b505050505093505050506149bd565b60018161497891906167b8565b9050614881565b50836040517f25e5fda40000000000000000000000000000000000000000000000000000000081526004016149b49190615194565b60405180910390fd5b919050565b606060008203614a09576040518060400160405280600181526020017f30000000000000000000000000000000000000000000000000000000000000008152509050614b1d565b600082905060005b60008214614a3b578080614a24906160e7565b915050600a82614a3491906160b6565b9150614a11565b60008167ffffffffffffffff811115614a5757614a56614da8565b5b6040519080825280601f01601f191660200182016040528015614a895781602001600182028036833780820191505090505b5090505b60008514614b1657600182614aa29190616468565b9150600a85614ab191906168b1565b6030614abd91906167b8565b60f81b818381518110614ad357614ad2615fe7565b5b60200101907effffffffffffffffffffffffffffffffffffffffffffffffffffffffffffff1916908160001a905350600a85614b0f91906160b6565b9450614a8d565b8093505050505b919050565b50505050565b50505050565b60606000808573ffffffffffffffffffffffffffffffffffffffff1685604051614b589190616913565b600060405180830381855af49150503d8060008114614b93576040519150601f19603f3d011682016040523d82523d6000602084013e614b98565b606091505b5091509150614ba986838387614bb4565b925050509392505050565b60608315614c16576000835103614c0e57614bce856146a8565b614c0d576040517f08c379a0000000000000000000000000000000000000000000000000000000008152600401614c0490616976565b60405180910390fd5b5b829050614c21565b614c208383614c29565b5b949350505050565b600082511115614c3c5781518083602001fd5b806040517f08c379a0000000000000000000000000000000000000000000000000000000008152600401614c709190615093565b60405180910390fd5b6040518060600160405280600073ffffffffffffffffffffffffffffffffffffffff168152602001600067ffffffffffffffff1681526020016000151581525090565b60405180610100016040528060008152602001600073ffffffffffffffffffffffffffffffffffffffff168152602001606081526020016000815260200160001515815260200160008152602001600081526020016000151581525090565b6000604051905090565b600080fd5b600080fd5b600073ffffffffffffffffffffffffffffffffffffffff82169050919050565b6000614d5a82614d2f565b9050919050565b614d6a81614d4f565b8114614d7557600080fd5b50565b600081359050614d8781614d61565b92915050565b600080fd5b600080fd5b6000601f19601f8301169050919050565b7f4e487b7100000000000000000000000000000000000000000000000000000000600052604160045260246000fd5b614de082614d97565b810181811067ffffffffffffffff82111715614dff57614dfe614da8565b5b80604052505050565b6000614e12614d1b565b9050614e1e8282614dd7565b919050565b600067ffffffffffffffff821115614e3e57614e3d614da8565b5b614e4782614d97565b9050602081019050919050565b82818337600083830152505050565b6000614e76614e7184614e23565b614e08565b905082815260208101848484011115614e9257614e91614d92565b5b614e9d848285614e54565b509392505050565b600082601f830112614eba57614eb9614d8d565b5b8135614eca848260208601614e63565b91505092915050565b60008060408385031215614eea57614ee9614d25565b5b6000614ef885828601614d78565b925050602083013567ffffffffffffffff811115614f1957614f18614d2a565b5b614f2585828601614ea5565b9150509250929050565b60007fffffffff0000000000000000000000000000000000000000000000000000000082169050919050565b614f6481614f2f565b8114614f6f57600080fd5b50565b600081359050614f8181614f5b565b92915050565b600060208284031215614f9d57614f9c614d25565b5b6000614fab84828501614f72565b91505092915050565b60008115159050919050565b614fc981614fb4565b82525050565b6000602082019050614fe46000830184614fc0565b92915050565b614ff381614d4f565b82525050565b600060208201905061500e6000830184614fea565b92915050565b600081519050919050565b600082825260208201905092915050565b60005b8381101561504e578082015181840152602081019050615033565b60008484015250505050565b600061506582615014565b61506f818561501f565b935061507f818560208601615030565b61508881614d97565b840191505092915050565b600060208201905081810360008301526150ad818461505a565b905092915050565b6000819050919050565b6150c8816150b5565b81146150d357600080fd5b50565b6000813590506150e5816150bf565b92915050565b60006020828403121561510157615100614d25565b5b600061510f848285016150d6565b91505092915050565b6000806040838503121561512f5761512e614d25565b5b600061513d85828601614d78565b925050602061514e858286016150d6565b9150509250929050565b60006020828403121561516e5761516d614d25565b5b600061517c84828501614d78565b91505092915050565b61518e816150b5565b82525050565b60006020820190506151a96000830184615185565b92915050565b6000806000606084860312156151c8576151c7614d25565b5b60006151d686828701614d78565b93505060206151e786828701614d78565b92505060406151f8868287016150d6565b9150509250925092565b6000806040838503121561521957615218614d25565b5b6000615227858286016150d6565b9250506020615238858286016150d6565b9150509250929050565b60006040820190506152576000830185614fea565b6152646020830184615185565b9392505050565b600080fd5b600080fd5b60008083601f84011261528b5761528a614d8d565b5b8235905067ffffffffffffffff8111156152a8576152a761526b565b5b6020830191508360018202830111156152c4576152c3615270565b5b9250929050565b600080602083850312156152e2576152e1614d25565b5b600083013567ffffffffffffffff811115615300576152ff614d2a565b5b61530c85828601615275565b92509250509250929050565b60006101008201905061532e600083018b615185565b61533b602083018a614fea565b818103604083015261534d818961505a565b905061535c6060830188615185565b6153696080830187614fc0565b61537660a0830186615185565b61538360c0830185615185565b61539060e0830184614fc0565b9998505050505050505050565b600061ffff82169050919050565b6153b48161539d565b82525050565b60006040820190506153cf6000830185614fea565b6153dc60208301846153ab565b9392505050565b6000806000606084860312156153fc576153fb614d25565b5b600084013567ffffffffffffffff81111561541a57615419614d2a565b5b61542686828701614ea5565b9350506020615437868287016150d6565b9250506040615448868287016150d6565b9150509250925092565b600067ffffffffffffffff82111561546d5761546c614da8565b5b602082029050602081019050919050565b600061549161548c84615452565b614e08565b905080838252602082019050602084028301858111156154b4576154b3615270565b5b835b818110156154dd57806154c988826150d6565b8452602084019350506020810190506154b6565b5050509392505050565b600082601f8301126154fc576154fb614d8d565b5b813561550c84826020860161547e565b91505092915050565b60006020828403121561552b5761552a614d25565b5b600082013567ffffffffffffffff81111561554957615548614d2a565b5b615555848285016154e7565b91505092915050565b600081519050919050565b600082825260208201905092915050565b6000819050602082019050919050565b61559381614d4f565b82525050565b600067ffffffffffffffff82169050919050565b6155b681615599565b82525050565b6155c581614fb4565b82525050565b6060820160008201516155e1600085018261558a565b5060208201516155f460208501826155ad565b50604082015161560760408501826155bc565b50505050565b600061561983836155cb565b60608301905092915050565b6000602082019050919050565b600061563d8261555e565b6156478185615569565b93506156528361557a565b8060005b8381101561568357815161566a888261560d565b975061567583615625565b925050600181019050615656565b5085935050505092915050565b600060208201905081810360008301526156aa8184615632565b905092915050565b600081519050919050565b600082825260208201905092915050565b60006156d9826156b2565b6156e381856156bd565b93506156f3818560208601615030565b6156fc81614d97565b840191505092915050565b600060408201905061571c6000830185614fc0565b818103602083015261572e81846156ce565b90509392505050565b600067ffffffffffffffff82111561575257615751614da8565b5b61575b82614d97565b9050602081019050919050565b600061577b61577684615737565b614e08565b90508281526020810184848401111561579757615796614d92565b5b6157a2848285614e54565b509392505050565b600082601f8301126157bf576157be614d8d565b5b81356157cf848260208601615768565b91505092915050565b600080600080608085870312156157f2576157f1614d25565b5b600061580087828801614d78565b9450506020615811878288016150d6565b935050604085013567ffffffffffffffff81111561583257615831614d2a565b5b61583e87828801614ea5565b925050606085013567ffffffffffffffff81111561585f5761585e614d2a565b5b61586b878288016157aa565b91505092959194509250565b600081519050919050565b600082825260208201905092915050565b6000819050602082019050919050565b6158ac816150b5565b82525050565b60006158be83836158a3565b60208301905092915050565b6000602082019050919050565b60006158e282615877565b6158ec8185615882565b93506158f783615893565b8060005b8381101561592857815161590f88826158b2565b975061591a836158ca565b9250506001810190506158fb565b5085935050505092915050565b6000602082019050818103600083015261594f81846158d7565b905092915050565b600082825260208201905092915050565b600061597382615014565b61597d8185615957565b935061598d818560208601615030565b61599681614d97565b840191505092915050565b6000610100830160008301516159ba60008601826158a3565b5060208301516159cd602086018261558a565b50604083015184820360408601526159e58282615968565b91505060608301516159fa60608601826158a3565b506080830151615a0d60808601826155bc565b5060a0830151615a2060a08601826158a3565b5060c0830151615a3360c08601826158a3565b5060e0830151615a4660e08601826155bc565b508091505092915050565b60006020820190508181036000830152615a6b81846159a1565b905092915050565b600060208284031215615a8957615a88614d25565b5b600082013567ffffffffffffffff811115615aa757615aa6614d2a565b5b615ab384828501614ea5565b91505092915050565b600080600060608486031215615ad557615ad4614d25565b5b6000615ae386828701614d78565b9350506020615af4868287016150d6565b9250506040615b05868287016150d6565b9150509250925092565b600080600060608486031215615b2857615b27614d25565b5b6000615b36868287016150d6565b9350506020615b4786828701614d78565b9250506040615b58868287016150d6565b9150509250925092565b615b6b81614fb4565b8114615b7657600080fd5b50565b600081359050615b8881615b62565b92915050565b60008060408385031215615ba557615ba4614d25565b5b6000615bb385828601614d78565b9250506020615bc485828601615b79565b9150509250929050565b60008060408385031215615be557615be4614d25565b5b600083013567ffffffffffffffff811115615c0357615c02614d2a565b5b615c0f85828601614ea5565b9250506020615c20858286016150d6565b9150509250929050565b60008083601f840112615c4057615c3f614d8d565b5b8235905067ffffffffffffffff811115615c5d57615c5c61526b565b5b602083019150836020820283011115615c7957615c78615270565b5b9250929050565b60008060208385031215615c9757615c96614d25565b5b600083013567ffffffffffffffff811115615cb557615cb4614d2a565b5b615cc185828601615c2a565b92509250509250929050565b600081519050919050565b600082825260208201905092915050565b6000819050602082019050919050565b600082825260208201905092915050565b6000615d15826156b2565b615d1f8185615cf9565b9350615d2f818560208601615030565b615d3881614d97565b840191505092915050565b6000615d4f8383615d0a565b905092915050565b6000602082019050919050565b6000615d6f82615ccd565b615d798185615cd8565b935083602082028501615d8b85615ce9565b8060005b85811015615dc75784840389528151615da88582615d43565b9450615db383615d57565b925060208a01995050600181019050615d8f565b50829750879550505050505092915050565b60006020820190508181036000830152615df38184615d64565b905092915050565b60008060008060808587031215615e1557615e14614d25565b5b6000615e2387828801614d78565b9450506020615e3487828801614d78565b9350506040615e45878288016150d6565b925050606085013567ffffffffffffffff811115615e6657615e65614d2a565b5b615e72878288016157aa565b91505092959194509250565b606082016000820151615e94600085018261558a565b506020820151615ea760208501826155ad565b506040820151615eba60408501826155bc565b50505050565b6000606082019050615ed56000830184615e7e565b92915050565b60008060408385031215615ef257615ef1614d25565b5b6000615f0085828601614d78565b9250506020615f1185828601614d78565b9150509250929050565b7f4e6f7420617574686f72697a656420746f206d696e742e000000000000000000600082015250565b6000615f5160178361501f565b9150615f5c82615f1b565b602082019050919050565b60006020820190508181036000830152615f8081615f44565b9050919050565b7f4e487b7100000000000000000000000000000000000000000000000000000000600052602260045260246000fd5b60006002820490506001821680615fce57607f821691505b602082108103615fe157615fe0615f87565b5b50919050565b7f4e487b7100000000000000000000000000000000000000000000000000000000600052603260045260246000fd5b7f4e487b7100000000000000000000000000000000000000000000000000000000600052601160045260246000fd5b6000616050826150b5565b915061605b836150b5565b9250828202616069816150b5565b915082820484148315176160805761607f616016565b5b5092915050565b7f4e487b7100000000000000000000000000000000000000000000000000000000600052601260045260246000fd5b60006160c1826150b5565b91506160cc836150b5565b9250826160dc576160db616087565b5b828204905092915050565b60006160f2826150b5565b91507fffffffffffffffffffffffffffffffffffffffffffffffffffffffffffffffff820361612457616123616016565b5b600182019050919050565b60006040820190506161446000830185615185565b6161516020830184615185565b9392505050565b7f457865637574696f6e2074696d65206d75737420626520696e2074686520667560008201527f7475726500000000000000000000000000000000000000000000000000000000602082015250565b60006161b460248361501f565b91506161bf82616158565b604082019050919050565b600060208201905081810360008301526161e3816161a7565b9050919050565b60008190508160005260206000209050919050565b60006020601f8301049050919050565b600082821b905092915050565b60006008830261624c7fffffffffffffffffffffffffffffffffffffffffffffffffffffffffffffffff8261620f565b616256868361620f565b95508019841693508086168417925050509392505050565b6000819050919050565b600061629361628e616289846150b5565b61626e565b6150b5565b9050919050565b6000819050919050565b6162ad83616278565b6162c16162b98261629a565b84845461621c565b825550505050565b600090565b6162d66162c9565b6162e18184846162a4565b505050565b5b81811015616305576162fa6000826162ce565b6001810190506162e7565b5050565b601f82111561634a5761631b816161ea565b616324846161ff565b81016020851015616333578190505b61634761633f856161ff565b8301826162e6565b50505b505050565b600082821c905092915050565b600061636d6000198460080261634f565b1980831691505092915050565b6000616386838361635c565b9150826002028217905092915050565b61639f82615014565b67ffffffffffffffff8111156163b8576163b7614da8565b5b6163c28254615fb6565b6163cd828285616309565b600060209050601f83116001811461640057600084156163ee578287015190505b6163f8858261637a565b865550616460565b601f19841661640e866161ea565b60005b8281101561643657848901518255600182019150602085019450602081019050616411565b86831015616453578489015161644f601f89168261635c565b8355505b6001600288020188555050505b505050505050565b6000616473826150b5565b915061647e836150b5565b925082820390508181111561649657616495616016565b5b92915050565b600080fd5b600080fd5b600080fd5b600080833560016020038436030381126164c8576164c761649c565b5b80840192508235915067ffffffffffffffff8211156164ea576164e96164a1565b5b602083019250600182023603831315616506576165056164a6565b5b509250929050565b600081905092915050565b6000616525838561650e565b9350616532838584614e54565b82840190509392505050565b60008160601b9050919050565b60006165568261653e565b9050919050565b60006165688261654b565b9050919050565b61658061657b82614d4f565b61655d565b82525050565b6000616593828587616519565b915061659f828461656f565b601482019150819050949350505050565b600081905092915050565b60006165c682615014565b6165d081856165b0565b93506165e0818560208601615030565b80840191505092915050565b60006165f882856165bb565b915061660482846165bb565b91508190509392505050565b7f4e6f7420617574686f72697a6564000000000000000000000000000000000000600082015250565b6000616646600e8361501f565b915061665182616610565b602082019050919050565b6000602082019050818103600083015261667581616639565b9050919050565b7f416c726561647920657865637574656400000000000000000000000000000000600082015250565b60006166b260108361501f565b91506166bd8261667c565b602082019050919050565b600060208201905081810360008301526166e1816166a5565b9050919050565b7f55524920616c7265616479207365740000000000000000000000000000000000600082015250565b600061671e600f8361501f565b9150616729826166e8565b602082019050919050565b6000602082019050818103600083015261674d81616711565b9050919050565b6000819050919050565b600061677961677461676f84616754565b61626e565b6150b5565b9050919050565b6167898161675e565b82525050565b60006040820190506167a46000830185616780565b6167b16020830184615185565b9392505050565b60006167c3826150b5565b91506167ce836150b5565b92508282019050808211156167e6576167e5616016565b5b92915050565b60006040820190508181036000830152616806818561505a565b9050818103602083015261681a818461505a565b90509392505050565b60006080820190506168386000830187614fea565b6168456020830186614fea565b6168526040830185615185565b818103606083015261686481846156ce565b905095945050505050565b60008151905061687e81614f5b565b92915050565b60006020828403121561689a57616899614d25565b5b60006168a88482850161686f565b91505092915050565b60006168bc826150b5565b91506168c7836150b5565b9250826168d7576168d6616087565b5b828206905092915050565b60006168ed826156b2565b6168f7818561650e565b9350616907818560208601615030565b80840191505092915050565b600061691f82846168e2565b915081905092915050565b7f416464726573733a2063616c6c20746f206e6f6e2d636f6e7472616374000000600082015250565b6000616960601d8361501f565b915061696b8261692a565b602082019050919050565b6000602082019050818103600083015261698f81616953565b905091905056fe416464726573733a206c6f772d6c6576656c2064656c65676174652063616c6c206661696c6564a26469706673582212200678b771d26318a6135bba182d798f31a163427b753d411ff8764de3c08fa96764736f6c63430008150033",
  "linkReferences": {},
  "deployedLinkReferences": {}
}