{
  "_format": "hh-sol-artifact-1",
  "contractName": "WalletPlanner",
  "sourceName": "contracts/WalletPlanner.sol",
  "abi": [
    {
      "inputs": [],
      "stateMutability": "nonpayable",
      "type": "constructor"
    },
    {
      "anonymous": false,
      "inputs": [
        {
          "indexed": true,
          "internalType": "uint256",
          "name": "intentId",
          "type": "uint256"
        },
        {
          "indexed": true,
          "internalType": "address",
          "name": "owner",
          "type": "address"
        },
        {
          "indexed": false,
          "internalType": "string",
          "name": "title",
          "type": "string"
        },
        {
          "indexed": false,
          "internalType": "string",
          "name": "action",
          "type": "string"
        }
      ],
      "name": "IntentCreated",
      "type": "event"
    },
    {
      "anonymous": false,
      "inputs": [
        {
          "indexed": true,
          "internalType": "uint256",
          "name": "intentId",
          "type": "uint256"
        },
        {
          "indexed": true,
          "internalType": "address",
          "name": "owner",
          "type": "address"
        },
        {
          "indexed": false,
          "internalType": "bool",
          "name": "success",
          "type": "bool"
        }
      ],
      "name": "IntentExecuted",
      "type": "event"
    },
    {
      "inputs": [
        {
          "internalType": "string",
          "name": "_title",
          "type": "string"
        },
        {
          "internalType": "string",
          "name": "_description",
          "type": "string"
        },
        {
          "internalType": "string",
          "name": "_action",
          "type": "string"
        },
        {
          "internalType": "string",
          "name": "_token",
          "type": "string"
        },
        {
          "internalType": "uint256",
          "name": "_amount",
          "type": "uint256"
        },
        {
          "internalType": "string",
          "name": "_frequency",
          "type": "string"
        },
        {
          "internalType": "string",
          "name": "_targetChain",
          "type": "string"
        },
        {
          "internalType": "uint256",
          "name": "_nextExecution",
          "type": "uint256"
        }
      ],
      "name": "createIntent",
      "outputs": [
        {
          "internalType": "uint256",
          "name": "",
          "type": "uint256"
        }
      ],
      "stateMutability": "nonpayable",
      "type": "function"
    },
    {
      "inputs": [
        {
          "internalType": "uint256",
          "name": "_intentId",
          "type": "uint256"
        }
      ],
      "name": "executeIntent",
      "outputs": [],
      "stateMutability": "nonpayable",
      "type": "function"
    },
    {
      "inputs": [
        {
          "internalType": "uint256",
          "name": "_intentId",
          "type": "uint256"
        }
      ],
      "name": "getIntent",
      "outputs": [
        {
          "components": [
            {
              "internalType": "uint256",
              "name": "id",
              "type": "uint256"
            },
            {
              "internalType": "address",
              "name": "owner",
              "type": "address"
            },
            {
              "internalType": "string",
              "name": "title",
              "type": "string"
            },
            {
              "internalType": "string",
              "name": "description",
              "type": "string"
            },
            {
              "internalType": "string",
              "name": "action",
              "type": "string"
            },
            {
              "internalType": "string",
              "name": "token",
              "type": "string"
            },
            {
              "internalType": "uint256",
              "name": "amount",
              "type": "uint256"
            },
            {
              "internalType": "string",
              "name": "frequency",
              "type": "string"
            },
            {
              "internalType": "string",
              "name": "targetChain",
              "type": "string"
            },
            {
              "internalType": "bool",
              "name": "isActive",
              "type": "bool"
            },
            {
              "internalType": "uint256",
              "name": "nextExecution",
              "type": "uint256"
            },
            {
              "internalType": "uint256",
              "name": "createdAt",
              "type": "uint256"
            }
          ],
          "internalType": "struct WalletPlanner.Intent",
          "name": "",
          "type": "tuple"
        }
      ],
      "stateMutability": "view",
      "type": "function"
    },
    {
      "inputs": [
        {
          "internalType": "address",
          "name": "_user",
          "type": "address"
        }
      ],
      "name": "getUserIntents",
      "outputs": [
        {
          "internalType": "uint256[]",
          "name": "",
          "type": "uint256[]"
        }
      ],
      "stateMutability": "view",
      "type": "function"
    },
    {
      "inputs": [
        {
          "internalType": "uint256",
          "name": "",
          "type": "uint256"
        }
      ],
      "name": "intents",
      "outputs": [
        {
          "internalType": "uint256",
          "name": "id",
          "type": "uint256"
        },
        {
          "internalType": "address",
          "name": "owner",
          "type": "address"
        },
        {
          "internalType": "string",
          "name": "title",
          "type": "string"
        },
        {
          "internalType": "string",
          "name": "description",
          "type": "string"
        },
        {
          "internalType": "string",
          "name": "action",
          "type": "string"
        },
        {
          "internalType": "string",
          "name": "token",
          "type": "string"
        },
        {
          "internalType": "uint256",
          "name": "amount",
          "type": "uint256"
        },
        {
          "internalType": "string",
          "name": "frequency",
          "type": "string"
        },
        {
          "internalType": "string",
          "name": "targetChain",
          "type": "string"
        },
        {
          "internalType": "bool",
          "name": "isActive",
          "type": "bool"
        },
        {
          "internalType": "uint256",
          "name": "nextExecution",
          "type": "uint256"
        },
        {
          "internalType": "uint256",
          "name": "createdAt",
          "type": "uint256"
        }
      ],
      "stateMutability": "view",
      "type": "function"
    },
    {
      "inputs": [
        {
          "internalType": "uint256",
          "name": "_intentId",
          "type": "uint256"
        }
      ],
      "name": "toggleIntentStatus",
      "outputs": [],
      "stateMutability": "nonpayable",
      "type": "function"
    },
    {
      "inputs": [
        {
          "internalType": "address",
          "name": "",
          "type": "address"
        },
        {
          "internalType": "uint256",
          "name": "",
          "type": "uint256"
        }
      ],
      "name": "userIntents",
      "outputs": [
        {
          "internalType": "uint256",
          "name": "",
          "type": "uint256"
        }
      ],
      "stateMutability": "view",
      "type": "function"
    }
  ],
  "bytecode": "0x6080604052348015600f57600080fd5b5060008081905550611cf1806100266000396000f3fe608060405234801561001057600080fd5b506004361061007d5760003560e01c806399642ee21161005b57806399642ee21461011d578063cd9d6aee1461014d578063f3ed713c14610169578063fa3209b2146101855761007d565b806346a1a0951461008257806389c9c3ae146100bd578063906e277b146100ed575b600080fd5b61009c60048036038101906100979190610fec565b6101b5565b6040516100b49c9b9a99989796959493929190611114565b60405180910390f35b6100d760048036038101906100d29190611224565b610572565b6040516100e49190611264565b60405180910390f35b61010760048036038101906101029190610fec565b6105a3565b604051610114919061141d565b60405180910390f35b61013760048036038101906101329190611574565b6109d6565b6040516101449190611264565b60405180910390f35b61016760048036038101906101629190610fec565b610c54565b005b610183600480360381019061017e9190610fec565b610d99565b005b61019f600480360381019061019a91906116d2565b610e92565b6040516101ac91906117ae565b60405180910390f35b60016020528060005260406000206000915090508060000154908060010160009054906101000a900473ffffffffffffffffffffffffffffffffffffffff1690806002018054610204906117ff565b80601f0160208091040260200160405190810160405280929190818152602001828054610230906117ff565b801561027d5780601f106102525761010080835404028352916020019161027d565b820191906000526020600020905b81548152906001019060200180831161026057829003601f168201915b505050505090806003018054610292906117ff565b80601f01602080910402602001604051908101604052809291908181526020018280546102be906117ff565b801561030b5780601f106102e05761010080835404028352916020019161030b565b820191906000526020600020905b8154815290600101906020018083116102ee57829003601f168201915b505050505090806004018054610320906117ff565b80601f016020809104026020016040519081016040528092919081815260200182805461034c906117ff565b80156103995780601f1061036e57610100808354040283529160200191610399565b820191906000526020600020905b81548152906001019060200180831161037c57829003601f168201915b5050505050908060050180546103ae906117ff565b80601f01602080910402602001604051908101604052809291908181526020018280546103da906117ff565b80156104275780601f106103fc57610100808354040283529160200191610427565b820191906000526020600020905b81548152906001019060200180831161040a57829003601f168201915b505050505090806006015490806007018054610442906117ff565b80601f016020809104026020016040519081016040528092919081815260200182805461046e906117ff565b80156104bb5780601f10610490576101008083540402835291602001916104bb565b820191906000526020600020905b81548152906001019060200180831161049e57829003601f168201915b5050505050908060080180546104d0906117ff565b80601f01602080910402602001604051908101604052809291908181526020018280546104fc906117ff565b80156105495780601f1061051e57610100808354040283529160200191610549565b820191906000526020600020905b81548152906001019060200180831161052c57829003601f168201915b5050505050908060090160009054906101000a900460ff169080600a01549080600b015490508c565b6002602052816000526040600020818154811061058e57600080fd5b90600052602060002001600091509150505481565b6105ab610f29565b6001600083815260200190815260200160002060405180610180016040529081600082015481526020016001820160009054906101000a900473ffffffffffffffffffffffffffffffffffffffff1673ffffffffffffffffffffffffffffffffffffffff1673ffffffffffffffffffffffffffffffffffffffff16815260200160028201805461063a906117ff565b80601f0160208091040260200160405190810160405280929190818152602001828054610666906117ff565b80156106b35780601f10610688576101008083540402835291602001916106b3565b820191906000526020600020905b81548152906001019060200180831161069657829003601f168201915b505050505081526020016003820180546106cc906117ff565b80601f01602080910402602001604051908101604052809291908181526020018280546106f8906117ff565b80156107455780601f1061071a57610100808354040283529160200191610745565b820191906000526020600020905b81548152906001019060200180831161072857829003601f168201915b5050505050815260200160048201805461075e906117ff565b80601f016020809104026020016040519081016040528092919081815260200182805461078a906117ff565b80156107d75780601f106107ac576101008083540402835291602001916107d7565b820191906000526020600020905b8154815290600101906020018083116107ba57829003601f168201915b505050505081526020016005820180546107f0906117ff565b80601f016020809104026020016040519081016040528092919081815260200182805461081c906117ff565b80156108695780601f1061083e57610100808354040283529160200191610869565b820191906000526020600020905b81548152906001019060200180831161084c57829003601f168201915b505050505081526020016006820154815260200160078201805461088c906117ff565b80601f01602080910402602001604051908101604052809291908181526020018280546108b8906117ff565b80156109055780601f106108da57610100808354040283529160200191610905565b820191906000526020600020905b8154815290600101906020018083116108e857829003601f168201915b5050505050815260200160088201805461091e906117ff565b80601f016020809104026020016040519081016040528092919081815260200182805461094a906117ff565b80156109975780601f1061096c57610100808354040283529160200191610997565b820191906000526020600020905b81548152906001019060200180831161097a57829003601f168201915b505050505081526020016009820160009054906101000a900460ff16151515158152602001600a8201548152602001600b820154815250509050919050565b60008060008154809291906109ea9061185f565b91905055506000805490506040518061018001604052808281526020013373ffffffffffffffffffffffffffffffffffffffff1681526020018b81526020018a815260200189815260200188815260200187815260200186815260200185815260200160011515815260200184815260200142815250600160008381526020019081526020016000206000820151816000015560208201518160010160006101000a81548173ffffffffffffffffffffffffffffffffffffffff021916908373ffffffffffffffffffffffffffffffffffffffff1602179055506040820151816002019081610ad99190611a53565b506060820151816003019081610aef9190611a53565b506080820151816004019081610b059190611a53565b5060a0820151816005019081610b1b9190611a53565b5060c0820151816006015560e0820151816007019081610b3b9190611a53565b50610100820151816008019081610b529190611a53565b506101208201518160090160006101000a81548160ff02191690831515021790555061014082015181600a015561016082015181600b0155905050600260003373ffffffffffffffffffffffffffffffffffffffff1673ffffffffffffffffffffffffffffffffffffffff1681526020019081526020016000208190806001815401808255809150506001900390600052602060002001600090919091909150553373ffffffffffffffffffffffffffffffffffffffff16817f990e64c9bfc18e9cfdbe2d36955c8ba62785d3e7e84e5a43a22e58146a7d4ad88c8b604051610c3c929190611b25565b60405180910390a38091505098975050505050505050565b6001600082815260200190815260200160002060090160009054906101000a900460ff16610cb7576040517f08c379a0000000000000000000000000000000000000000000000000000000008152600401610cae90611ba8565b60405180910390fd5b60016000828152602001908152602001600020600a0154421015610d10576040517f08c379a0000000000000000000000000000000000000000000000000000000008152600401610d0790611c14565b60405180910390fd5b6001600082815260200190815260200160002060010160009054906101000a900473ffffffffffffffffffffffffffffffffffffffff1673ffffffffffffffffffffffffffffffffffffffff16817f3705788bc113c1535a4e4ee5dbe0b70170fac885c2b08a1483e339f4db0c1d446001604051610d8e9190611c34565b60405180910390a350565b3373ffffffffffffffffffffffffffffffffffffffff166001600083815260200190815260200160002060010160009054906101000a900473ffffffffffffffffffffffffffffffffffffffff1673ffffffffffffffffffffffffffffffffffffffff1614610e3d576040517f08c379a0000000000000000000000000000000000000000000000000000000008152600401610e3490611c9b565b60405180910390fd5b6001600082815260200190815260200160002060090160009054906101000a900460ff16156001600083815260200190815260200160002060090160006101000a81548160ff02191690831515021790555050565b6060600260008373ffffffffffffffffffffffffffffffffffffffff1673ffffffffffffffffffffffffffffffffffffffff168152602001908152602001600020805480602002602001604051908101604052809291908181526020018280548015610f1d57602002820191906000526020600020905b815481526020019060010190808311610f09575b50505050509050919050565b60405180610180016040528060008152602001600073ffffffffffffffffffffffffffffffffffffffff1681526020016060815260200160608152602001606081526020016060815260200160008152602001606081526020016060815260200160001515815260200160008152602001600081525090565b6000604051905090565b600080fd5b600080fd5b6000819050919050565b610fc981610fb6565b8114610fd457600080fd5b50565b600081359050610fe681610fc0565b92915050565b60006020828403121561100257611001610fac565b5b600061101084828501610fd7565b91505092915050565b61102281610fb6565b82525050565b600073ffffffffffffffffffffffffffffffffffffffff82169050919050565b600061105382611028565b9050919050565b61106381611048565b82525050565b600081519050919050565b600082825260208201905092915050565b60005b838110156110a3578082015181840152602081019050611088565b60008484015250505050565b6000601f19601f8301169050919050565b60006110cb82611069565b6110d58185611074565b93506110e5818560208601611085565b6110ee816110af565b840191505092915050565b60008115159050919050565b61110e816110f9565b82525050565b60006101808201905061112a600083018f611019565b611137602083018e61105a565b8181036040830152611149818d6110c0565b9050818103606083015261115d818c6110c0565b90508181036080830152611171818b6110c0565b905081810360a0830152611185818a6110c0565b905061119460c0830189611019565b81810360e08301526111a681886110c0565b90508181036101008301526111bb81876110c0565b90506111cb610120830186611105565b6111d9610140830185611019565b6111e7610160830184611019565b9d9c50505050505050505050505050565b61120181611048565b811461120c57600080fd5b50565b60008135905061121e816111f8565b92915050565b6000806040838503121561123b5761123a610fac565b5b60006112498582860161120f565b925050602061125a85828601610fd7565b9150509250929050565b60006020820190506112796000830184611019565b92915050565b61128881610fb6565b82525050565b61129781611048565b82525050565b600082825260208201905092915050565b60006112b982611069565b6112c3818561129d565b93506112d3818560208601611085565b6112dc816110af565b840191505092915050565b6112f0816110f9565b82525050565b60006101808301600083015161130f600086018261127f565b506020830151611322602086018261128e565b506040830151848203604086015261133a82826112ae565b9150506060830151848203606086015261135482826112ae565b9150506080830151848203608086015261136e82826112ae565b91505060a083015184820360a086015261138882826112ae565b91505060c083015161139d60c086018261127f565b5060e083015184820360e08601526113b582826112ae565b9150506101008301518482036101008601526113d182826112ae565b9150506101208301516113e86101208601826112e7565b506101408301516113fd61014086018261127f565b5061016083015161141261016086018261127f565b508091505092915050565b6000602082019050818103600083015261143781846112f6565b905092915050565b600080fd5b600080fd5b7f4e487b7100000000000000000000000000000000000000000000000000000000600052604160045260246000fd5b611481826110af565b810181811067ffffffffffffffff821117156114a05761149f611449565b5b80604052505050565b60006114b3610fa2565b90506114bf8282611478565b919050565b600067ffffffffffffffff8211156114df576114de611449565b5b6114e8826110af565b9050602081019050919050565b82818337600083830152505050565b6000611517611512846114c4565b6114a9565b90508281526020810184848401111561153357611532611444565b5b61153e8482856114f5565b509392505050565b600082601f83011261155b5761155a61143f565b5b813561156b848260208601611504565b91505092915050565b600080600080600080600080610100898b03121561159557611594610fac565b5b600089013567ffffffffffffffff8111156115b3576115b2610fb1565b5b6115bf8b828c01611546565b985050602089013567ffffffffffffffff8111156115e0576115df610fb1565b5b6115ec8b828c01611546565b975050604089013567ffffffffffffffff81111561160d5761160c610fb1565b5b6116198b828c01611546565b965050606089013567ffffffffffffffff81111561163a57611639610fb1565b5b6116468b828c01611546565b95505060806116578b828c01610fd7565b94505060a089013567ffffffffffffffff81111561167857611677610fb1565b5b6116848b828c01611546565b93505060c089013567ffffffffffffffff8111156116a5576116a4610fb1565b5b6116b18b828c01611546565b92505060e06116c28b828c01610fd7565b9150509295985092959890939650565b6000602082840312156116e8576116e7610fac565b5b60006116f68482850161120f565b91505092915050565b600081519050919050565b600082825260208201905092915050565b6000819050602082019050919050565b6000611737838361127f565b60208301905092915050565b6000602082019050919050565b600061175b826116ff565b611765818561170a565b93506117708361171b565b8060005b838110156117a1578151611788888261172b565b975061179383611743565b925050600181019050611774565b5085935050505092915050565b600060208201905081810360008301526117c88184611750565b905092915050565b7f4e487b7100000000000000000000000000000000000000000000000000000000600052602260045260246000fd5b6000600282049050600182168061181757607f821691505b60208210810361182a576118296117d0565b5b50919050565b7f4e487b7100000000000000000000000000000000000000000000000000000000600052601160045260246000fd5b600061186a82610fb6565b91507fffffffffffffffffffffffffffffffffffffffffffffffffffffffffffffffff820361189c5761189b611830565b5b600182019050919050565b60008190508160005260206000209050919050565b60006020601f8301049050919050565b600082821b905092915050565b6000600883026119097fffffffffffffffffffffffffffffffffffffffffffffffffffffffffffffffff826118cc565b61191386836118cc565b95508019841693508086168417925050509392505050565b6000819050919050565b600061195061194b61194684610fb6565b61192b565b610fb6565b9050919050565b6000819050919050565b61196a83611935565b61197e61197682611957565b8484546118d9565b825550505050565b600090565b611993611986565b61199e818484611961565b505050565b5b818110156119c2576119b760008261198b565b6001810190506119a4565b5050565b601f821115611a07576119d8816118a7565b6119e1846118bc565b810160208510156119f0578190505b611a046119fc856118bc565b8301826119a3565b50505b505050565b600082821c905092915050565b6000611a2a60001984600802611a0c565b1980831691505092915050565b6000611a438383611a19565b9150826002028217905092915050565b611a5c82611069565b67ffffffffffffffff811115611a7557611a74611449565b5b611a7f82546117ff565b611a8a8282856119c6565b600060209050601f831160018114611abd5760008415611aab578287015190505b611ab58582611a37565b865550611b1d565b601f198416611acb866118a7565b60005b82811015611af357848901518255600182019150602085019450602081019050611ace565b86831015611b105784890151611b0c601f891682611a19565b8355505b6001600288020188555050505b505050505050565b60006040820190508181036000830152611b3f81856110c0565b90508181036020830152611b5381846110c0565b90509392505050565b7f496e74656e74206e6f7420616374697665000000000000000000000000000000600082015250565b6000611b92601183611074565b9150611b9d82611b5c565b602082019050919050565b60006020820190508181036000830152611bc181611b85565b9050919050565b7f4e6f7420726561647920666f7220657865637574696f6e000000000000000000600082015250565b6000611bfe601783611074565b9150611c0982611bc8565b602082019050919050565b60006020820190508181036000830152611c2d81611bf1565b9050919050565b6000602082019050611c496000830184611105565b92915050565b7f4e6f7420696e74656e74206f776e657200000000000000000000000000000000600082015250565b6000611c85601083611074565b9150611c9082611c4f565b602082019050919050565b60006020820190508181036000830152611cb481611c78565b905091905056fea26469706673582212206e01e20efc3ba4e79fba875ef9550f9e205019b678a1de2e22568ce5e1ebe31864736f6c634300081c0033",
  "linkReferences": {},
  "deployedLinkReferences": {}
}