{
  "_format": "hh-sol-artifact-1",
  "contractName": "WalletPlanner",
  "sourceName": "contracts/WalletPlanner.sol",
  "abi": [
    {
      "inputs": [
        {
          "internalType": "address",
          "name": "_defaultAdmin",
          "type": "address"
        },
        {
          "internalType": "string",
          "name": "_name",
          "type": "string"
        },
        {
          "internalType": "string",
          "name": "_symbol",
          "type": "string"
        },
        {
          "internalType": "address",
          "name": "_royaltyRecipient",
          "type": "address"
        },
        {
          "internalType": "uint128",
          "name": "_royaltyBps",
          "type": "uint128"
        }
      ],
      "stateMutability": "nonpayable",
      "type": "constructor"
    },
    {
      "inputs": [],
      "name": "ApprovalCallerNotOwnerNorApproved",
      "type": "error"
    },
    {
      "inputs": [],
      "name": "ApprovalQueryForNonexistentToken",
      "type": "error"
    },
    {
      "inputs": [],
      "name": "ApprovalToCurrentOwner",
      "type": "error"
    },
    {
      "inputs": [],
      "name": "ApproveToCaller",
      "type": "error"
    },
    {
      "inputs": [],
      "name": "BalanceQueryForZeroAddress",
      "type": "error"
    },
    {
      "inputs": [
        {
          "internalType": "uint256",
          "name": "index",
          "type": "uint256"
        }
      ],
      "name": "BatchMintInvalidBatchId",
      "type": "error"
    },
    {
      "inputs": [
        {
          "internalType": "uint256",
          "name": "tokenId",
          "type": "uint256"
        }
      ],
      "name": "BatchMintInvalidTokenId",
      "type": "error"
    },
    {
      "inputs": [
        {
          "internalType": "uint256",
          "name": "batchId",
          "type": "uint256"
        }
      ],
      "name": "BatchMintMetadataFrozen",
      "type": "error"
    },
    {
      "inputs": [],
      "name": "ContractMetadataUnauthorized",
      "type": "error"
    },
    {
      "inputs": [],
      "name": "InvalidQueryRange",
      "type": "error"
    },
    {
      "inputs": [],
      "name": "MintToZeroAddress",
      "type": "error"
    },
    {
      "inputs": [],
      "name": "MintZeroQuantity",
      "type": "error"
    },
    {
      "inputs": [],
      "name": "OnlySimulatedBackend",
      "type": "error"
    },
    {
      "inputs": [],
      "name": "OwnableUnauthorized",
      "type": "error"
    },
    {
      "inputs": [],
      "name": "OwnerQueryForNonexistentToken",
      "type": "error"
    },
    {
      "inputs": [
        {
          "internalType": "uint256",
          "name": "max",
          "type": "uint256"
        },
        {
          "internalType": "uint256",
          "name": "actual",
          "type": "uint256"
        }
      ],
      "name": "RoyaltyExceededMaxFeeBps",
      "type": "error"
    },
    {
      "inputs": [
        {
          "internalType": "address",
          "name": "recipient",
          "type": "address"
        }
      ],
      "name": "RoyaltyInvalidRecipient",
      "type": "error"
    },
    {
      "inputs": [],
      "name": "RoyaltyUnauthorized",
      "type": "error"
    },
    {
      "inputs": [],
      "name": "TransferCallerNotOwnerNorApproved",
      "type": "error"
    },
    {
      "inputs": [],
      "name": "TransferFromIncorrectOwner",
      "type": "error"
    },
    {
      "inputs": [],
      "name": "TransferToNonERC721ReceiverImplementer",
      "type": "error"
    },
    {
      "inputs": [],
      "name": "TransferToZeroAddress",
      "type": "error"
    },
    {
      "inputs": [],
      "name": "URIQueryForNonexistentToken",
      "type": "error"
    },
    {
      "anonymous": false,
      "inputs": [
        {
          "indexed": true,
          "internalType": "address",
          "name": "owner",
          "type": "address"
        },
        {
          "indexed": true,
          "internalType": "address",
          "name": "approved",
          "type": "address"
        },
        {
          "indexed": true,
          "internalType": "uint256",
          "name": "tokenId",
          "type": "uint256"
        }
      ],
      "name": "Approval",
      "type": "event"
    },
    {
      "anonymous": false,
      "inputs": [
        {
          "indexed": true,
          "internalType": "address",
          "name": "owner",
          "type": "address"
        },
        {
          "indexed": true,
          "internalType": "address",
          "name": "operator",
          "type": "address"
        },
        {
          "indexed": false,
          "internalType": "bool",
          "name": "approved",
          "type": "bool"
        }
      ],
      "name": "ApprovalForAll",
      "type": "event"
    },
    {
      "anonymous": false,
      "inputs": [
        {
          "indexed": false,
          "internalType": "uint256",
          "name": "timestamp",
          "type": "uint256"
        },
        {
          "indexed": false,
          "internalType": "uint256",
          "name": "intentsProcessed",
          "type": "uint256"
        }
      ],
      "name": "AutomationPerformed",
      "type": "event"
    },
    {
      "anonymous": false,
      "inputs": [
        {
          "indexed": false,
          "internalType": "uint256",
          "name": "_fromTokenId",
          "type": "uint256"
        },
        {
          "indexed": false,
          "internalType": "uint256",
          "name": "_toTokenId",
          "type": "uint256"
        }
      ],
      "name": "BatchMetadataUpdate",
      "type": "event"
    },
    {
      "anonymous": false,
      "inputs": [
        {
          "indexed": false,
          "internalType": "string",
          "name": "prevURI",
          "type": "string"
        },
        {
          "indexed": false,
          "internalType": "string",
          "name": "newURI",
          "type": "string"
        }
      ],
      "name": "ContractURIUpdated",
      "type": "event"
    },
    {
      "anonymous": false,
      "inputs": [
        {
          "indexed": true,
          "internalType": "address",
          "name": "newRoyaltyRecipient",
          "type": "address"
        },
        {
          "indexed": false,
          "internalType": "uint256",
          "name": "newRoyaltyBps",
          "type": "uint256"
        }
      ],
      "name": "DefaultRoyalty",
      "type": "event"
    },
    {
      "anonymous": false,
      "inputs": [
        {
          "indexed": true,
          "internalType": "address",
          "name": "oldConsumer",
          "type": "address"
        },
        {
          "indexed": true,
          "internalType": "address",
          "name": "newConsumer",
          "type": "address"
        }
      ],
      "name": "FunctionsConsumerUpdated",
      "type": "event"
    },
    {
      "anonymous": false,
      "inputs": [
        {
          "indexed": true,
          "internalType": "uint256",
          "name": "intentId",
          "type": "uint256"
        },
        {
          "indexed": true,
          "internalType": "address",
          "name": "user",
          "type": "address"
        },
        {
          "indexed": false,
          "internalType": "string",
          "name": "description",
          "type": "string"
        }
      ],
      "name": "IntentCreated",
      "type": "event"
    },
    {
      "anonymous": false,
      "inputs": [
        {
          "indexed": true,
          "internalType": "uint256",
          "name": "intentId",
          "type": "uint256"
        },
        {
          "indexed": true,
          "internalType": "address",
          "name": "user",
          "type": "address"
        }
      ],
      "name": "IntentExecuted",
      "type": "event"
    },
    {
      "anonymous": false,
      "inputs": [],
      "name": "MetadataFrozen",
      "type": "event"
    },
    {
      "anonymous": false,
      "inputs": [
        {
          "indexed": true,
          "internalType": "address",
          "name": "prevOwner",
          "type": "address"
        },
        {
          "indexed": true,
          "internalType": "address",
          "name": "newOwner",
          "type": "address"
        }
      ],
      "name": "OwnerUpdated",
      "type": "event"
    },
    {
      "anonymous": false,
      "inputs": [
        {
          "indexed": true,
          "internalType": "uint256",
          "name": "tokenId",
          "type": "uint256"
        },
        {
          "indexed": true,
          "internalType": "address",
          "name": "royaltyRecipient",
          "type": "address"
        },
        {
          "indexed": false,
          "internalType": "uint256",
          "name": "royaltyBps",
          "type": "uint256"
        }
      ],
      "name": "RoyaltyForToken",
      "type": "event"
    },
    {
      "anonymous": false,
      "inputs": [
        {
          "indexed": true,
          "internalType": "address",
          "name": "from",
          "type": "address"
        },
        {
          "indexed": true,
          "internalType": "address",
          "name": "to",
          "type": "address"
        },
        {
          "indexed": true,
          "internalType": "uint256",
          "name": "tokenId",
          "type": "uint256"
        }
      ],
      "name": "Transfer",
      "type": "event"
    },
    {
      "inputs": [
        {
          "internalType": "address",
          "name": "to",
          "type": "address"
        },
        {
          "internalType": "uint256",
          "name": "tokenId",
          "type": "uint256"
        }
      ],
      "name": "approve",
      "outputs": [],
      "stateMutability": "nonpayable",
      "type": "function"
    },
    {
      "inputs": [
        {
          "internalType": "address",
          "name": "owner",
          "type": "address"
        }
      ],
      "name": "balanceOf",
      "outputs": [
        {
          "internalType": "uint256",
          "name": "",
          "type": "uint256"
        }
      ],
      "stateMutability": "view",
      "type": "function"
    },
    {
      "inputs": [
        {
          "internalType": "uint256",
          "name": "",
          "type": "uint256"
        }
      ],
      "name": "batchFrozen",
      "outputs": [
        {
          "internalType": "bool",
          "name": "",
          "type": "bool"
        }
      ],
      "stateMutability": "view",
      "type": "function"
    },
    {
      "inputs": [
        {
          "internalType": "address",
          "name": "_to",
          "type": "address"
        },
        {
          "internalType": "uint256",
          "name": "_quantity",
          "type": "uint256"
        },
        {
          "internalType": "string",
          "name": "_baseURI",
          "type": "string"
        },
        {
          "internalType": "bytes",
          "name": "_data",
          "type": "bytes"
        }
      ],
      "name": "batchMintTo",
      "outputs": [],
      "stateMutability": "nonpayable",
      "type": "function"
    },
    {
      "inputs": [
        {
          "internalType": "uint256",
          "name": "_tokenId",
          "type": "uint256"
        }
      ],
      "name": "burn",
      "outputs": [],
      "stateMutability": "nonpayable",
      "type": "function"
    },
    {
      "inputs": [
        {
          "internalType": "bytes",
          "name": "",
          "type": "bytes"
        }
      ],
      "name": "checkUpkeep",
      "outputs": [
        {
          "internalType": "bool",
          "name": "upkeepNeeded",
          "type": "bool"
        },
        {
          "internalType": "bytes",
          "name": "performData",
          "type": "bytes"
        }
      ],
      "stateMutability": "view",
      "type": "function"
    },
    {
      "inputs": [],
      "name": "contractURI",
      "outputs": [
        {
          "internalType": "string",
          "name": "",
          "type": "string"
        }
      ],
      "stateMutability": "view",
      "type": "function"
    },
    {
      "inputs": [
        {
          "internalType": "string",
          "name": "_description",
          "type": "string"
        },
        {
          "internalType": "uint256",
          "name": "_estimatedCost",
          "type": "uint256"
        }
      ],
      "name": "createIntent",
      "outputs": [
        {
          "internalType": "uint256",
          "name": "",
          "type": "uint256"
        }
      ],
      "stateMutability": "nonpayable",
      "type": "function"
    },
    {
      "inputs": [
        {
          "internalType": "string",
          "name": "_description",
          "type": "string"
        },
        {
          "internalType": "uint256",
          "name": "_estimatedCost",
          "type": "uint256"
        },
        {
          "internalType": "uint256",
          "name": "_executionTime",
          "type": "uint256"
        }
      ],
      "name": "createScheduledIntent",
      "outputs": [
        {
          "internalType": "uint256",
          "name": "",
          "type": "uint256"
        }
      ],
      "stateMutability": "nonpayable",
      "type": "function"
    },
    {
      "inputs": [
        {
          "internalType": "uint256",
          "name": "_intentId",
          "type": "uint256"
        }
      ],
      "name": "executeIntent",
      "outputs": [],
      "stateMutability": "nonpayable",
      "type": "function"
    },
    {
      "inputs": [
        {
          "internalType": "uint256",
          "name": "tokenId",
          "type": "uint256"
        }
      ],
      "name": "explicitOwnershipOf",
      "outputs": [
        {
          "components": [
            {
              "internalType": "address",
              "name": "addr",
              "type": "address"
            },
            {
              "internalType": "uint64",
              "name": "startTimestamp",
              "type": "uint64"
            },
            {
              "internalType": "bool",
              "name": "burned",
              "type": "bool"
            }
          ],
          "internalType": "struct IERC721A.TokenOwnership",
          "name": "",
          "type": "tuple"
        }
      ],
      "stateMutability": "view",
      "type": "function"
    },
    {
      "inputs": [
        {
          "internalType": "uint256[]",
          "name": "tokenIds",
          "type": "uint256[]"
        }
      ],
      "name": "explicitOwnershipsOf",
      "outputs": [
        {
          "components": [
            {
              "internalType": "address",
              "name": "addr",
              "type": "address"
            },
            {
              "internalType": "uint64",
              "name": "startTimestamp",
              "type": "uint64"
            },
            {
              "internalType": "bool",
              "name": "burned",
              "type": "bool"
            }
          ],
          "internalType": "struct IERC721A.TokenOwnership[]",
          "name": "",
          "type": "tuple[]"
        }
      ],
      "stateMutability": "view",
      "type": "function"
    },
    {
      "inputs": [],
      "name": "functionsConsumer",
      "outputs": [
        {
          "internalType": "address",
          "name": "",
          "type": "address"
        }
      ],
      "stateMutability": "view",
      "type": "function"
    },
    {
      "inputs": [
        {
          "internalType": "uint256",
          "name": "tokenId",
          "type": "uint256"
        }
      ],
      "name": "getApproved",
      "outputs": [
        {
          "internalType": "address",
          "name": "",
          "type": "address"
        }
      ],
      "stateMutability": "view",
      "type": "function"
    },
    {
      "inputs": [],
      "name": "getBaseURICount",
      "outputs": [
        {
          "internalType": "uint256",
          "name": "",
          "type": "uint256"
        }
      ],
      "stateMutability": "view",
      "type": "function"
    },
    {
      "inputs": [
        {
          "internalType": "uint256",
          "name": "_index",
          "type": "uint256"
        }
      ],
      "name": "getBatchIdAtIndex",
      "outputs": [
        {
          "internalType": "uint256",
          "name": "",
          "type": "uint256"
        }
      ],
      "stateMutability": "view",
      "type": "function"
    },
    {
      "inputs": [],
      "name": "getDefaultRoyaltyInfo",
      "outputs": [
        {
          "internalType": "address",
          "name": "",
          "type": "address"
        },
        {
          "internalType": "uint16",
          "name": "",
          "type": "uint16"
        }
      ],
      "stateMutability": "view",
      "type": "function"
    },
    {
      "inputs": [
        {
          "internalType": "uint256",
          "name": "_intentId",
          "type": "uint256"
        }
      ],
      "name": "getIntent",
      "outputs": [
        {
          "components": [
            {
              "internalType": "uint256",
              "name": "id",
              "type": "uint256"
            },
            {
              "internalType": "address",
              "name": "user",
              "type": "address"
            },
            {
              "internalType": "string",
              "name": "description",
              "type": "string"
            },
            {
              "internalType": "uint256",
              "name": "estimatedCost",
              "type": "uint256"
            },
            {
              "internalType": "bool",
              "name": "executed",
              "type": "bool"
            },
            {
              "internalType": "uint256",
              "name": "timestamp",
              "type": "uint256"
            },
            {
              "internalType": "uint256",
              "name": "executionTime",
              "type": "uint256"
            },
            {
              "internalType": "bool",
              "name": "isScheduled",
              "type": "bool"
            }
          ],
          "internalType": "struct WalletPlanner.Intent",
          "name": "",
          "type": "tuple"
        }
      ],
      "stateMutability": "view",
      "type": "function"
    },
    {
      "inputs": [],
      "name": "getReadyIntents",
      "outputs": [
        {
          "internalType": "uint256[]",
          "name": "",
          "type": "uint256[]"
        }
      ],
      "stateMutability": "view",
      "type": "function"
    },
    {
      "inputs": [
        {
          "internalType": "uint256",
          "name": "_tokenId",
          "type": "uint256"
        }
      ],
      "name": "getRoyaltyInfoForToken",
      "outputs": [
        {
          "internalType": "address",
          "name": "",
          "type": "address"
        },
        {
          "internalType": "uint16",
          "name": "",
          "type": "uint16"
        }
      ],
      "stateMutability": "view",
      "type": "function"
    },
    {
      "inputs": [],
      "name": "getScheduledIntents",
      "outputs": [
        {
          "internalType": "uint256[]",
          "name": "",
          "type": "uint256[]"
        }
      ],
      "stateMutability": "view",
      "type": "function"
    },
    {
      "inputs": [
        {
          "internalType": "address",
          "name": "_user",
          "type": "address"
        }
      ],
      "name": "getUserIntents",
      "outputs": [
        {
          "internalType": "uint256[]",
          "name": "",
          "type": "uint256[]"
        }
      ],
      "stateMutability": "view",
      "type": "function"
    },
    {
      "inputs": [
        {
          "internalType": "uint256",
          "name": "",
          "type": "uint256"
        }
      ],
      "name": "intents",
      "outputs": [
        {
          "internalType": "uint256",
          "name": "id",
          "type": "uint256"
        },
        {
          "internalType": "address",
          "name": "user",
          "type": "address"
        },
        {
          "internalType": "string",
          "name": "description",
          "type": "string"
        },
        {
          "internalType": "uint256",
          "name": "estimatedCost",
          "type": "uint256"
        },
        {
          "internalType": "bool",
          "name": "executed",
          "type": "bool"
        },
        {
          "internalType": "uint256",
          "name": "timestamp",
          "type": "uint256"
        },
        {
          "internalType": "uint256",
          "name": "executionTime",
          "type": "uint256"
        },
        {
          "internalType": "bool",
          "name": "isScheduled",
          "type": "bool"
        }
      ],
      "stateMutability": "view",
      "type": "function"
    },
    {
      "inputs": [],
      "name": "interval",
      "outputs": [
        {
          "internalType": "uint256",
          "name": "",
          "type": "uint256"
        }
      ],
      "stateMutability": "view",
      "type": "function"
    },
    {
      "inputs": [
        {
          "internalType": "address",
          "name": "owner",
          "type": "address"
        },
        {
          "internalType": "address",
          "name": "operator",
          "type": "address"
        }
      ],
      "name": "isApprovedForAll",
      "outputs": [
        {
          "internalType": "bool",
          "name": "",
          "type": "bool"
        }
      ],
      "stateMutability": "view",
      "type": "function"
    },
    {
      "inputs": [
        {
          "internalType": "address",
          "name": "_operator",
          "type": "address"
        },
        {
          "internalType": "uint256",
          "name": "_tokenId",
          "type": "uint256"
        }
      ],
      "name": "isApprovedOrOwner",
      "outputs": [
        {
          "internalType": "bool",
          "name": "isApprovedOrOwnerOf",
          "type": "bool"
        }
      ],
      "stateMutability": "view",
      "type": "function"
    },
    {
      "inputs": [],
      "name": "lastChecked",
      "outputs": [
        {
          "internalType": "uint256",
          "name": "",
          "type": "uint256"
        }
      ],
      "stateMutability": "view",
      "type": "function"
    },
    {
      "inputs": [
        {
          "internalType": "address",
          "name": "_to",
          "type": "address"
        },
        {
          "internalType": "string",
          "name": "_tokenURI",
          "type": "string"
        }
      ],
      "name": "mintTo",
      "outputs": [],
      "stateMutability": "nonpayable",
      "type": "function"
    },
    {
      "inputs": [
        {
          "internalType": "bytes[]",
          "name": "data",
          "type": "bytes[]"
        }
      ],
      "name": "multicall",
      "outputs": [
        {
          "internalType": "bytes[]",
          "name": "results",
          "type": "bytes[]"
        }
      ],
      "stateMutability": "nonpayable",
      "type": "function"
    },
    {
      "inputs": [],
      "name": "name",
      "outputs": [
        {
          "internalType": "string",
          "name": "",
          "type": "string"
        }
      ],
      "stateMutability": "view",
      "type": "function"
    },
    {
      "inputs": [],
      "name": "nextTokenIdToMint",
      "outputs": [
        {
          "internalType": "uint256",
          "name": "",
          "type": "uint256"
        }
      ],
      "stateMutability": "view",
      "type": "function"
    },
    {
      "inputs": [],
      "name": "owner",
      "outputs": [
        {
          "internalType": "address",
          "name": "",
          "type": "address"
        }
      ],
      "stateMutability": "view",
      "type": "function"
    },
    {
      "inputs": [
        {
          "internalType": "uint256",
          "name": "tokenId",
          "type": "uint256"
        }
      ],
      "name": "ownerOf",
      "outputs": [
        {
          "internalType": "address",
          "name": "",
          "type": "address"
        }
      ],
      "stateMutability": "view",
      "type": "function"
    },
    {
      "inputs": [
        {
          "internalType": "bytes",
          "name": "performData",
          "type": "bytes"
        }
      ],
      "name": "performUpkeep",
      "outputs": [],
      "stateMutability": "nonpayable",
      "type": "function"
    },
    {
      "inputs": [
        {
          "internalType": "uint256",
          "name": "tokenId",
          "type": "uint256"
        },
        {
          "internalType": "uint256",
          "name": "salePrice",
          "type": "uint256"
        }
      ],
      "name": "royaltyInfo",
      "outputs": [
        {
          "internalType": "address",
          "name": "receiver",
          "type": "address"
        },
        {
          "internalType": "uint256",
          "name": "royaltyAmount",
          "type": "uint256"
        }
      ],
      "stateMutability": "view",
      "type": "function"
    },
    {
      "inputs": [
        {
          "internalType": "address",
          "name": "from",
          "type": "address"
        },
        {
          "internalType": "address",
          "name": "to",
          "type": "address"
        },
        {
          "internalType": "uint256",
          "name": "tokenId",
          "type": "uint256"
        }
      ],
      "name": "safeTransferFrom",
      "outputs": [],
      "stateMutability": "nonpayable",
      "type": "function"
    },
    {
      "inputs": [
        {
          "internalType": "address",
          "name": "from",
          "type": "address"
        },
        {
          "internalType": "address",
          "name": "to",
          "type": "address"
        },
        {
          "internalType": "uint256",
          "name": "tokenId",
          "type": "uint256"
        },
        {
          "internalType": "bytes",
          "name": "_data",
          "type": "bytes"
        }
      ],
      "name": "safeTransferFrom",
      "outputs": [],
      "stateMutability": "nonpayable",
      "type": "function"
    },
    {
      "inputs": [
        {
          "internalType": "address",
          "name": "operator",
          "type": "address"
        },
        {
          "internalType": "bool",
          "name": "approved",
          "type": "bool"
        }
      ],
      "name": "setApprovalForAll",
      "outputs": [],
      "stateMutability": "nonpayable",
      "type": "function"
    },
    {
      "inputs": [
        {
          "internalType": "uint256",
          "name": "_interval",
          "type": "uint256"
        }
      ],
      "name": "setAutomationInterval",
      "outputs": [],
      "stateMutability": "nonpayable",
      "type": "function"
    },
    {
      "inputs": [
        {
          "internalType": "string",
          "name": "_uri",
          "type": "string"
        }
      ],
      "name": "setContractURI",
      "outputs": [],
      "stateMutability": "nonpayable",
      "type": "function"
    },
    {
      "inputs": [
        {
          "internalType": "address",
          "name": "_royaltyRecipient",
          "type": "address"
        },
        {
          "internalType": "uint256",
          "name": "_royaltyBps",
          "type": "uint256"
        }
      ],
      "name": "setDefaultRoyaltyInfo",
      "outputs": [],
      "stateMutability": "nonpayable",
      "type": "function"
    },
    {
      "inputs": [
        {
          "internalType": "address",
          "name": "_functionsConsumer",
          "type": "address"
        }
      ],
      "name": "setFunctionsConsumer",
      "outputs": [],
      "stateMutability": "nonpayable",
      "type": "function"
    },
    {
      "inputs": [
        {
          "internalType": "address",
          "name": "_newOwner",
          "type": "address"
        }
      ],
      "name": "setOwner",
      "outputs": [],
      "stateMutability": "nonpayable",
      "type": "function"
    },
    {
      "inputs": [
        {
          "internalType": "uint256",
          "name": "_tokenId",
          "type": "uint256"
        },
        {
          "internalType": "address",
          "name": "_recipient",
          "type": "address"
        },
        {
          "internalType": "uint256",
          "name": "_bps",
          "type": "uint256"
        }
      ],
      "name": "setRoyaltyInfoForToken",
      "outputs": [],
      "stateMutability": "nonpayable",
      "type": "function"
    },
    {
      "inputs": [
        {
          "internalType": "bytes4",
          "name": "interfaceId",
          "type": "bytes4"
        }
      ],
      "name": "supportsInterface",
      "outputs": [
        {
          "internalType": "bool",
          "name": "",
          "type": "bool"
        }
      ],
      "stateMutability": "view",
      "type": "function"
    },
    {
      "inputs": [],
      "name": "symbol",
      "outputs": [
        {
          "internalType": "string",
          "name": "",
          "type": "string"
        }
      ],
      "stateMutability": "view",
      "type": "function"
    },
    {
      "inputs": [
        {
          "internalType": "uint256",
          "name": "_tokenId",
          "type": "uint256"
        }
      ],
      "name": "tokenURI",
      "outputs": [
        {
          "internalType": "string",
          "name": "",
          "type": "string"
        }
      ],
      "stateMutability": "view",
      "type": "function"
    },
    {
      "inputs": [
        {
          "internalType": "address",
          "name": "owner",
          "type": "address"
        }
      ],
      "name": "tokensOfOwner",
      "outputs": [
        {
          "internalType": "uint256[]",
          "name": "",
          "type": "uint256[]"
        }
      ],
      "stateMutability": "view",
      "type": "function"
    },
    {
      "inputs": [
        {
          "internalType": "address",
          "name": "owner",
          "type": "address"
        },
        {
          "internalType": "uint256",
          "name": "start",
          "type": "uint256"
        },
        {
          "internalType": "uint256",
          "name": "stop",
          "type": "uint256"
        }
      ],
      "name": "tokensOfOwnerIn",
      "outputs": [
        {
          "internalType": "uint256[]",
          "name": "",
          "type": "uint256[]"
        }
      ],
      "stateMutability": "view",
      "type": "function"
    },
    {
      "inputs": [],
      "name": "totalSupply",
      "outputs": [
        {
          "internalType": "uint256",
          "name": "",
          "type": "uint256"
        }
      ],
      "stateMutability": "view",
      "type": "function"
    },
    {
      "inputs": [
        {
          "internalType": "address",
          "name": "from",
          "type": "address"
        },
        {
          "internalType": "address",
          "name": "to",
          "type": "address"
        },
        {
          "internalType": "uint256",
          "name": "tokenId",
          "type": "uint256"
        }
      ],
      "name": "transferFrom",
      "outputs": [],
      "stateMutability": "nonpayable",
      "type": "function"
    },
    {
      "inputs": [
        {
          "internalType": "address",
          "name": "",
          "type": "address"
        },
        {
          "internalType": "uint256",
          "name": "",
          "type": "uint256"
        }
      ],
      "name": "userIntents",
      "outputs": [
        {
          "internalType": "uint256",
          "name": "",
          "type": "uint256"
        }
      ],
      "stateMutability": "view",
      "type": "function"
    }
  ],
  "bytecode": "0x6080604052610e106013553480156200001757600080fd5b506040516200786b3803806200786b83398181016040528101906200003d9190620004d5565b848484848483838160029081620000559190620007e6565b508060039081620000679190620007e6565b5062000078620000c560201b60201c565b60008190555050506200009185620000ca60201b60201c565b620000b582826fffffffffffffffffffffffffffffffff166200019060201b60201c565b505050505050505050506200096b565b600090565b6000600960009054906101000a900473ffffffffffffffffffffffffffffffffffffffff16905081600960006101000a81548173ffffffffffffffffffffffffffffffffffffffff021916908373ffffffffffffffffffffffffffffffffffffffff1602179055508173ffffffffffffffffffffffffffffffffffffffff168173ffffffffffffffffffffffffffffffffffffffff167f8292fce18fa69edf4db7b94ea2e58241df0ae57f97e0a6c9b29067028bf92d7660405160405180910390a35050565b612710811115620001de57612710816040517f52498568000000000000000000000000000000000000000000000000000000008152600401620001d592919062000921565b60405180910390fd5b81600a60006101000a81548173ffffffffffffffffffffffffffffffffffffffff021916908373ffffffffffffffffffffffffffffffffffffffff16021790555080600a60146101000a81548161ffff021916908361ffff1602179055508173ffffffffffffffffffffffffffffffffffffffff167f90d7ec04bcb8978719414f82e52e4cb651db41d0e6f8cea6118c2191e6183adb826040516200028491906200094e565b60405180910390a25050565b6000604051905090565b600080fd5b600080fd5b600073ffffffffffffffffffffffffffffffffffffffff82169050919050565b6000620002d182620002a4565b9050919050565b620002e381620002c4565b8114620002ef57600080fd5b50565b6000815190506200030381620002d8565b92915050565b600080fd5b600080fd5b6000601f19601f8301169050919050565b7f4e487b7100000000000000000000000000000000000000000000000000000000600052604160045260246000fd5b6200035e8262000313565b810181811067ffffffffffffffff8211171562000380576200037f62000324565b5b80604052505050565b60006200039562000290565b9050620003a3828262000353565b919050565b600067ffffffffffffffff821115620003c657620003c562000324565b5b620003d18262000313565b9050602081019050919050565b60005b83811015620003fe578082015181840152602081019050620003e1565b60008484015250505050565b6000620004216200041b84620003a8565b62000389565b90508281526020810184848401111562000440576200043f6200030e565b5b6200044d848285620003de565b509392505050565b600082601f8301126200046d576200046c62000309565b5b81516200047f8482602086016200040a565b91505092915050565b60006fffffffffffffffffffffffffffffffff82169050919050565b620004af8162000488565b8114620004bb57600080fd5b50565b600081519050620004cf81620004a4565b92915050565b600080600080600060a08688031215620004f457620004f36200029a565b5b60006200050488828901620002f2565b955050602086015167ffffffffffffffff8111156200052857620005276200029f565b5b620005368882890162000455565b945050604086015167ffffffffffffffff8111156200055a57620005596200029f565b5b620005688882890162000455565b93505060606200057b88828901620002f2565b92505060806200058e88828901620004be565b9150509295509295909350565b600081519050919050565b7f4e487b7100000000000000000000000000000000000000000000000000000000600052602260045260246000fd5b60006002820490506001821680620005ee57607f821691505b602082108103620006045762000603620005a6565b5b50919050565b60008190508160005260206000209050919050565b60006020601f8301049050919050565b600082821b905092915050565b6000600883026200066e7fffffffffffffffffffffffffffffffffffffffffffffffffffffffffffffffff826200062f565b6200067a86836200062f565b95508019841693508086168417925050509392505050565b6000819050919050565b6000819050919050565b6000620006c7620006c1620006bb8462000692565b6200069c565b62000692565b9050919050565b6000819050919050565b620006e383620006a6565b620006fb620006f282620006ce565b8484546200063c565b825550505050565b600090565b6200071262000703565b6200071f818484620006d8565b505050565b5b8181101562000747576200073b60008262000708565b60018101905062000725565b5050565b601f821115620007965762000760816200060a565b6200076b846200061f565b810160208510156200077b578190505b620007936200078a856200061f565b83018262000724565b50505b505050565b600082821c905092915050565b6000620007bb600019846008026200079b565b1980831691505092915050565b6000620007d68383620007a8565b9150826002028217905092915050565b620007f1826200059b565b67ffffffffffffffff8111156200080d576200080c62000324565b5b620008198254620005d5565b620008268282856200074b565b600060209050601f8311600181146200085e576000841562000849578287015190505b620008558582620007c8565b865550620008c5565b601f1984166200086e866200060a565b60005b82811015620008985784890151825560018201915060208501945060208101905062000871565b86831015620008b85784890151620008b4601f891682620007a8565b8355505b6001600288020188555050505b505050505050565b6000819050919050565b6000620008f8620008f2620008ec84620008cd565b6200069c565b62000692565b9050919050565b6200090a81620008d7565b82525050565b6200091b8162000692565b82525050565b6000604082019050620009386000830185620008ff565b62000947602083018462000910565b9392505050565b600060208201905062000965600083018462000910565b92915050565b616ef0806200097b6000396000f3fe608060405234801561001057600080fd5b506004361061030b5760003560e01c806370a082311161019d578063abef9ba1116100e9578063cd9d6aee116100a2578063e985e9c51161007c578063e985e9c514610a17578063f33444e714610a47578063fa3209b214610a65578063fbd7c03614610a955761030b565b8063cd9d6aee146109bf578063e5ada13e146109db578063e8a3d485146109f95761030b565b8063abef9ba1146108c4578063ac9650d8146108f4578063b24f2d3914610924578063b88d4fde14610943578063c23dc68f1461095f578063c87b56dd1461098f5761030b565b8063906e277b1161015657806395d89b411161013057806395d89b411461083e57806399a2557a1461085c5780639bcf7a151461088c578063a22cb465146108a85761030b565b8063906e277b146107d4578063938e3d7b14610804578063947a36fb146108205761030b565b806370a08231146106da578063754a81d91461070a57806383040532146107265780638462151c1461075657806389c9c3ae146107865780638da5cb5b146107b65761030b565b80633f40d41c1161025c5780634cc157df11610215578063600dd5ea116101ef578063600dd5ea1461063f5780636352211e1461065b57806363b45e2d1461068b5780636e04ff0d146106a95761030b565b80634cc157df146105ae57806357ef2d1a146105df5780635bbb21771461060f5761030b565b80633f40d41c146104d757806342842e0e146104f357806342966c681461050f578063430c20811461052b5780634585e33b1461055b57806346a1a095146105775761030b565b806313af4035116102c95780632419f51b116102a35780632419f51b1461043a5780632a55205a1461046a5780632d9b61ce1461049b5780633b1475a7146104b95761030b565b806313af4035146103e457806318160ddd1461040057806323b872dd1461041e5761030b565b806275a3171461031057806301ffc9a71461032c5780630689bafd1461035c57806306fdde031461037a578063081812fc14610398578063095ea7b3146103c8575b600080fd5b61032a60048036038101906103259190615344565b610ab1565b005b610346600480360381019061034191906153f8565b610b28565b6040516103539190615440565b60405180910390f35b610364610c22565b604051610371919061546a565b60405180910390f35b610382610c48565b60405161038f9190615504565b60405180910390f35b6103b260048036038101906103ad919061555c565b610cda565b6040516103bf919061546a565b60405180910390f35b6103e260048036038101906103dd9190615589565b610d56565b005b6103fe60048036038101906103f991906155c9565b610e5a565b005b610408610ea4565b6040516104159190615605565b60405180910390f35b61043860048036038101906104339190615620565b610ebb565b005b610454600480360381019061044f919061555c565b610ecb565b6040516104619190615605565b60405180910390f35b610484600480360381019061047f9190615673565b610f3e565b6040516104929291906156b3565b60405180910390f35b6104a3610f7c565b6040516104b0919061579a565b60405180910390f35b6104c161110a565b6040516104ce9190615605565b60405180910390f35b6104f160048036038101906104ec919061555c565b611113565b005b61050d60048036038101906105089190615620565b6111a4565b005b6105296004803603810190610524919061555c565b6111c4565b005b61054560048036038101906105409190615589565b6111d2565b6040516105529190615440565b60405180910390f35b6105756004803603810190610570919061581c565b611267565b005b610591600480360381019061058c919061555c565b611481565b6040516105a5989796959493929190615869565b60405180910390f35b6105c860048036038101906105c3919061555c565b61158b565b6040516105d692919061590b565b60405180910390f35b6105f960048036038101906105f49190615934565b611696565b6040516106069190615605565b60405180910390f35b61062960048036038101906106249190615a66565b6118e6565b6040516106369190615be1565b60405180910390f35b61065960048036038101906106549190615589565b6119a7565b005b6106756004803603810190610670919061555c565b6119f3565b604051610682919061546a565b60405180910390f35b610693611a09565b6040516106a09190615605565b60405180910390f35b6106c360048036038101906106be919061581c565b611a16565b6040516106d1929190615c58565b60405180910390f35b6106f460048036038101906106ef91906155c9565b611b72565b6040516107019190615605565b60405180910390f35b610724600480360381019061071f9190615d29565b611c41565b005b610740600480360381019061073b919061555c565b611cad565b60405161074d9190615440565b60405180910390f35b610770600480360381019061076b91906155c9565b611ccd565b60405161077d919061579a565b60405180910390f35b6107a0600480360381019061079b9190615589565b611ec8565b6040516107ad9190615605565b60405180910390f35b6107be611ef9565b6040516107cb919061546a565b60405180910390f35b6107ee60048036038101906107e9919061555c565b611f23565b6040516107fb9190615ec2565b60405180910390f35b61081e60048036038101906108199190615ee4565b612097565b005b6108286120e1565b6040516108359190615605565b60405180910390f35b6108466120e7565b6040516108539190615504565b60405180910390f35b61087660048036038101906108719190615f2d565b612179565b604051610883919061579a565b60405180910390f35b6108a660048036038101906108a19190615f80565b612438565b005b6108c260048036038101906108bd9190615fff565b612486565b005b6108de60048036038101906108d9919061603f565b6125fd565b6040516108eb9190615605565b60405180910390f35b61090e600480360381019061090991906160f1565b61280a565b60405161091b919061624a565b60405180910390f35b61092c6129d2565b60405161093a92919061590b565b60405180910390f35b61095d6004803603810190610958919061626c565b612a11565b005b6109796004803603810190610974919061555c565b612a89565b6040516109869190616331565b60405180910390f35b6109a960048036038101906109a4919061555c565b612ba6565b6040516109b69190615504565b60405180910390f35b6109d960048036038101906109d4919061555c565b612c9c565b005b6109e3612e07565b6040516109f09190615605565b60405180910390f35b610a01612e0d565b604051610a0e9190615504565b60405180910390f35b610a316004803603810190610a2c919061634c565b612e9b565b604051610a3e9190615440565b60405180910390f35b610a4f612f2f565b604051610a5c919061579a565b60405180910390f35b610a7f6004803603810190610a7a91906155c9565b6130b5565b604051610a8c919061579a565b60405180910390f35b610aaf6004803603810190610aaa91906155c9565b61314c565b005b610ab9613299565b610af8576040517f08c379a0000000000000000000000000000000000000000000000000000000008152600401610aef906163d8565b60405180910390fd5b610b09610b0361110a565b826132a2565b610b2482600160405180602001604052806000815250613329565b5050565b60006301ffc9a760e01b827bffffffffffffffffffffffffffffffffffffffffffffffffffffffff19161480610b8357506380ac58cd60e01b827bffffffffffffffffffffffffffffffffffffffffffffffffffffffff1916145b80610bb35750635b5e139f60e01b827bffffffffffffffffffffffffffffffffffffffffffffffffffffffff1916145b80610c1b57507f2a55205a000000000000000000000000000000000000000000000000000000007bffffffffffffffffffffffffffffffffffffffffffffffffffffffff1916827bffffffffffffffffffffffffffffffffffffffffffffffffffffffff1916145b9050919050565b601560009054906101000a900473ffffffffffffffffffffffffffffffffffffffff1681565b606060028054610c5790616427565b80601f0160208091040260200160405190810160405280929190818152602001828054610c8390616427565b8015610cd05780601f10610ca557610100808354040283529160200191610cd0565b820191906000526020600020905b815481529060010190602001808311610cb357829003601f168201915b5050505050905090565b6000610ce5826136e9565b610d1b576040517fcf4700e400000000000000000000000000000000000000000000000000000000815260040160405180910390fd5b6006600083815260200190815260200160002060009054906101000a900473ffffffffffffffffffffffffffffffffffffffff169050919050565b6000610d61826119f3565b90508073ffffffffffffffffffffffffffffffffffffffff168373ffffffffffffffffffffffffffffffffffffffff1603610dc8576040517f943f7b8c00000000000000000000000000000000000000000000000000000000815260040160405180910390fd5b8073ffffffffffffffffffffffffffffffffffffffff16610de7613737565b73ffffffffffffffffffffffffffffffffffffffff1614610e4a57610e1381610e0e613737565b612e9b565b610e49576040517fcfb3b94200000000000000000000000000000000000000000000000000000000815260040160405180910390fd5b5b610e5583838361373f565b505050565b610e626137f1565b610e98576040517f2d99739600000000000000000000000000000000000000000000000000000000815260040160405180910390fd5b610ea18161382e565b50565b6000610eae6138f4565b6001546000540303905090565b610ec68383836138f9565b505050565b6000610ed5611a09565b8210610f1857816040517f0f2624ee000000000000000000000000000000000000000000000000000000008152600401610f0f9190615605565b60405180910390fd5b600c8281548110610f2c57610f2b616458565b5b90600052602060002001549050919050565b600080600080610f4d8661158b565b61ffff16915091508193506127108186610f6791906164b6565b610f719190616527565b925050509250929050565b60606000805b6010548110156110085760006011600083815260200190815260200160002090508060070160009054906101000a900460ff168015610fd057508060040160009054906101000a900460ff16155b8015610fe0575080600601544210155b15610ff4578280610ff090616558565b9350505b50808061100090616558565b915050610f82565b5060008167ffffffffffffffff81111561102557611024615219565b5b6040519080825280602002602001820160405280156110535781602001602082028036833780820191505090505b5090506000805b6010548110156111005760006011600083815260200190815260200160002090508060070160009054906101000a900460ff1680156110a857508060040160009054906101000a900460ff16155b80156110b8575080600601544210155b156110ec57818484815181106110d1576110d0616458565b5b60200260200101818152505082806110e890616558565b9350505b5080806110f890616558565b91505061105a565b5081935050505090565b60008054905090565b600960009054906101000a900473ffffffffffffffffffffffffffffffffffffffff1673ffffffffffffffffffffffffffffffffffffffff163373ffffffffffffffffffffffffffffffffffffffff161461119a576040517f2d99739600000000000000000000000000000000000000000000000000000000815260040160405180910390fd5b8060138190555050565b6111bf83838360405180602001604052806000815250612a11565b505050565b6111cf816001613dad565b50565b6000806111de836119f3565b90508073ffffffffffffffffffffffffffffffffffffffff168473ffffffffffffffffffffffffffffffffffffffff161480611220575061121f8185612e9b565b5b8061125e57508373ffffffffffffffffffffffffffffffffffffffff1661124684610cda565b73ffffffffffffffffffffffffffffffffffffffff16145b91505092915050565b600080838381019061127991906165a0565b91509150426014819055506000805b828110156114405760008482815181106112a5576112a4616458565b5b6020026020010151905060006011600083815260200190815260200160002090508060070160009054906101000a900460ff1680156112f357508060040160009054906101000a900460ff16155b8015611303575080600601544210155b1561142b5760018160040160006101000a81548160ff021916908315150217905550838061133090616558565b9450506113628160010160009054906101000a900473ffffffffffffffffffffffffffffffffffffffff16600161419c565b8060010160009054906101000a900473ffffffffffffffffffffffffffffffffffffffff1673ffffffffffffffffffffffffffffffffffffffff16827f6852407858602d696344801f0181bc507c808c727c914bb6cdfeabd42431af3860405160405180910390a3600073ffffffffffffffffffffffffffffffffffffffff16601560009054906101000a900473ffffffffffffffffffffffffffffffffffffffff1673ffffffffffffffffffffffffffffffffffffffff161461142a5761142982614476565b5b5b5050808061143890616558565b915050611288565b507ff2d16d924eb54b4e0b6d5caea0349992ed5475ad6772b934ee978621b5d3d40142826040516114729291906165fc565b60405180910390a15050505050565b60116020528060005260406000206000915090508060000154908060010160009054906101000a900473ffffffffffffffffffffffffffffffffffffffff16908060020180546114d090616427565b80601f01602080910402602001604051908101604052809291908181526020018280546114fc90616427565b80156115495780601f1061151e57610100808354040283529160200191611549565b820191906000526020600020905b81548152906001019060200180831161152c57829003601f168201915b5050505050908060030154908060040160009054906101000a900460ff16908060050154908060060154908060070160009054906101000a900460ff16905088565b6000806000600b60008581526020019081526020016000206040518060400160405290816000820160009054906101000a900473ffffffffffffffffffffffffffffffffffffffff1673ffffffffffffffffffffffffffffffffffffffff1673ffffffffffffffffffffffffffffffffffffffff1681526020016001820154815250509050600073ffffffffffffffffffffffffffffffffffffffff16816000015173ffffffffffffffffffffffffffffffffffffffff1614611657578060000151816020015161168c565b600a60009054906101000a900473ffffffffffffffffffffffffffffffffffffffff16600a60149054906101000a900461ffff165b9250925050915091565b60004282116116da576040517f08c379a00000000000000000000000000000000000000000000000000000000081526004016116d190616697565b60405180910390fd5b6000601060008154809291906116ef90616558565b9190505590506040518061010001604052808281526020013373ffffffffffffffffffffffffffffffffffffffff16815260200186815260200185815260200160001515815260200142815260200184815260200160011515815250601160008381526020019081526020016000206000820151816000015560208201518160010160006101000a81548173ffffffffffffffffffffffffffffffffffffffff021916908373ffffffffffffffffffffffffffffffffffffffff16021790555060408201518160020190816117c49190616863565b506060820151816003015560808201518160040160006101000a81548160ff02191690831515021790555060a0820151816005015560c0820151816006015560e08201518160070160006101000a81548160ff021916908315150217905550905050601260003373ffffffffffffffffffffffffffffffffffffffff1673ffffffffffffffffffffffffffffffffffffffff1681526020019081526020016000208190806001815401808255809150506001900390600052602060002001600090919091909150553373ffffffffffffffffffffffffffffffffffffffff16817fb6f430c8722299f241d9c66e77ee068ce71fb3d66d1c0af7d457ef4e50b4e59b876040516118d39190615504565b60405180910390a3809150509392505050565b606060008251905060008167ffffffffffffffff81111561190a57611909615219565b5b60405190808252806020026020018201604052801561194357816020015b6119306150ea565b8152602001906001900390816119285790505b50905060005b82811461199c5761197385828151811061196657611965616458565b5b6020026020010151612a89565b82828151811061198657611985616458565b5b6020026020010181905250806001019050611949565b508092505050919050565b6119af614479565b6119e5576040517fdf5c6b0200000000000000000000000000000000000000000000000000000000815260040160405180910390fd5b6119ef82826144b6565b5050565b60006119fe826145b1565b600001519050919050565b6000600c80549050905090565b60006060600060135460145442611a2d9190616935565b119050600080606467ffffffffffffffff811115611a4e57611a4d615219565b5b604051908082528060200260200182016040528015611a7c5781602001602082028036833780820191505090505b50905060005b60105481108015611a935750606483105b15611b345760006011600083815260200190815260200160002090508060070160009054906101000a900460ff168015611adc57508060040160009054906101000a900460ff16155b8015611aec575080600601544210155b15611b205781838581518110611b0557611b04616458565b5b6020026020010181815250508380611b1c90616558565b9450505b508080611b2c90616558565b915050611a82565b50828015611b425750600082115b94508082604051602001611b57929190616969565b60405160208183030381529060405293505050509250929050565b60008073ffffffffffffffffffffffffffffffffffffffff168273ffffffffffffffffffffffffffffffffffffffff1603611bd9576040517f8f4eb60400000000000000000000000000000000000000000000000000000000815260040160405180910390fd5b600560008373ffffffffffffffffffffffffffffffffffffffff1673ffffffffffffffffffffffffffffffffffffffff16815260200190815260200160002060000160009054906101000a900467ffffffffffffffff1667ffffffffffffffff169050919050565b611c49613299565b611c88576040517f08c379a0000000000000000000000000000000000000000000000000000000008152600401611c7f906163d8565b60405180910390fd5b611c9a611c9361110a565b848461483c565b5050611ca7848483613329565b50505050565b600e6020528060005260406000206000915054906101000a900460ff1681565b60606000806000611cdd85611b72565b905060008167ffffffffffffffff811115611cfb57611cfa615219565b5b604051908082528060200260200182016040528015611d295781602001602082028036833780820191505090505b509050611d346150ea565b6000611d3e6138f4565b90505b838614611eba57600460008281526020019081526020016000206040518060600160405290816000820160009054906101000a900473ffffffffffffffffffffffffffffffffffffffff1673ffffffffffffffffffffffffffffffffffffffff1673ffffffffffffffffffffffffffffffffffffffff1681526020016000820160149054906101000a900467ffffffffffffffff1667ffffffffffffffff1667ffffffffffffffff16815260200160008201601c9054906101000a900460ff16151515158152505091508160400151611eaf57600073ffffffffffffffffffffffffffffffffffffffff16826000015173ffffffffffffffffffffffffffffffffffffffff1614611e5457816000015194505b8773ffffffffffffffffffffffffffffffffffffffff168573ffffffffffffffffffffffffffffffffffffffff1603611eae5780838780600101985081518110611ea157611ea0616458565b5b6020026020010181815250505b5b806001019050611d41565b508195505050505050919050565b60126020528160005260406000208181548110611ee457600080fd5b90600052602060002001600091509150505481565b6000600960009054906101000a900473ffffffffffffffffffffffffffffffffffffffff16905090565b611f2b61512d565b6011600083815260200190815260200160002060405180610100016040529081600082015481526020016001820160009054906101000a900473ffffffffffffffffffffffffffffffffffffffff1673ffffffffffffffffffffffffffffffffffffffff1673ffffffffffffffffffffffffffffffffffffffff168152602001600282018054611fba90616427565b80601f0160208091040260200160405190810160405280929190818152602001828054611fe690616427565b80156120335780601f1061200857610100808354040283529160200191612033565b820191906000526020600020905b81548152906001019060200180831161201657829003601f168201915b50505050508152602001600382015481526020016004820160009054906101000a900460ff1615151515815260200160058201548152602001600682015481526020016007820160009054906101000a900460ff1615151515815250509050919050565b61209f6148a2565b6120d5576040517f9f7f092500000000000000000000000000000000000000000000000000000000815260040160405180910390fd5b6120de816148df565b50565b60135481565b6060600380546120f690616427565b80601f016020809104026020016040519081016040528092919081815260200182805461212290616427565b801561216f5780601f106121445761010080835404028352916020019161216f565b820191906000526020600020905b81548152906001019060200180831161215257829003601f168201915b5050505050905090565b60608183106121b4576040517f32c1995a00000000000000000000000000000000000000000000000000000000815260040160405180910390fd5b60008060005490506121c46138f4565b8510156121d6576121d36138f4565b94505b808411156121e2578093505b60006121ed87611b72565b90508486101561221057600086860390508181101561220a578091505b50612215565b600090505b60008167ffffffffffffffff81111561223157612230615219565b5b60405190808252806020026020018201604052801561225f5781602001602082028036833780820191505090505b509050600082036122765780945050505050612431565b600061228188612a89565b90506000816040015161229657816000015190505b60008990505b8881141580156122ac5750848714155b1561242357600460008281526020019081526020016000206040518060600160405290816000820160009054906101000a900473ffffffffffffffffffffffffffffffffffffffff1673ffffffffffffffffffffffffffffffffffffffff1673ffffffffffffffffffffffffffffffffffffffff1681526020016000820160149054906101000a900467ffffffffffffffff1667ffffffffffffffff1667ffffffffffffffff16815260200160008201601c9054906101000a900460ff1615151515815250509250826040015161241857600073ffffffffffffffffffffffffffffffffffffffff16836000015173ffffffffffffffffffffffffffffffffffffffff16146123bd57826000015191505b8a73ffffffffffffffffffffffffffffffffffffffff168273ffffffffffffffffffffffffffffffffffffffff1603612417578084888060010199508151811061240a57612409616458565b5b6020026020010181815250505b5b80600101905061229c565b508583528296505050505050505b9392505050565b612440614479565b612476576040517fdf5c6b0200000000000000000000000000000000000000000000000000000000815260040160405180910390fd5b6124818383836149bb565b505050565b61248e613737565b73ffffffffffffffffffffffffffffffffffffffff168273ffffffffffffffffffffffffffffffffffffffff16036124f2576040517fb06307db00000000000000000000000000000000000000000000000000000000815260040160405180910390fd5b80600760006124ff613737565b73ffffffffffffffffffffffffffffffffffffffff1673ffffffffffffffffffffffffffffffffffffffff16815260200190815260200160002060008473ffffffffffffffffffffffffffffffffffffffff1673ffffffffffffffffffffffffffffffffffffffff16815260200190815260200160002060006101000a81548160ff0219169083151502179055508173ffffffffffffffffffffffffffffffffffffffff166125ac613737565b73ffffffffffffffffffffffffffffffffffffffff167f17307eab39ab6107e8899845ad3d59bd9653f200f220920489ca2b5937696c31836040516125f19190615440565b60405180910390a35050565b6000806010600081548092919061261390616558565b9190505590506040518061010001604052808281526020013373ffffffffffffffffffffffffffffffffffffffff1681526020018581526020018481526020016000151581526020014281526020016000815260200160001515815250601160008381526020019081526020016000206000820151816000015560208201518160010160006101000a81548173ffffffffffffffffffffffffffffffffffffffff021916908373ffffffffffffffffffffffffffffffffffffffff16021790555060408201518160020190816126e99190616863565b506060820151816003015560808201518160040160006101000a81548160ff02191690831515021790555060a0820151816005015560c0820151816006015560e08201518160070160006101000a81548160ff021916908315150217905550905050601260003373ffffffffffffffffffffffffffffffffffffffff1673ffffffffffffffffffffffffffffffffffffffff1681526020019081526020016000208190806001815401808255809150506001900390600052602060002001600090919091909150553373ffffffffffffffffffffffffffffffffffffffff16817fb6f430c8722299f241d9c66e77ee068ce71fb3d66d1c0af7d457ef4e50b4e59b866040516127f89190615504565b60405180910390a38091505092915050565b60608282905067ffffffffffffffff81111561282957612828615219565b5b60405190808252806020026020018201604052801561285c57816020015b60608152602001906001900390816128475790505b5090506000612869613737565b905060008173ffffffffffffffffffffffffffffffffffffffff163373ffffffffffffffffffffffffffffffffffffffff161415905060005b858590508110156129c957811561292657612903308787848181106128ca576128c9616458565b5b90506020028101906128dc91906169a8565b866040516020016128ef93929190616a83565b604051602081830303815290604052614aec565b84828151811061291657612915616458565b5b60200260200101819052506129b6565b6129973087878481811061293d5761293c616458565b5b905060200281019061294f91906169a8565b8080601f016020809104026020016040519081016040528093929190818152602001838380828437600081840152601f19601f82011690508083019250505050505050614aec565b8482815181106129aa576129a9616458565b5b60200260200101819052505b80806129c190616558565b9150506128a2565b50505092915050565b600080600a60009054906101000a900473ffffffffffffffffffffffffffffffffffffffff16600a60149054906101000a900461ffff16915091509091565b612a1c8484846138f9565b612a3b8373ffffffffffffffffffffffffffffffffffffffff16614b19565b15612a8357612a4c84848484614b3c565b612a82576040517fd1a57ed600000000000000000000000000000000000000000000000000000000815260040160405180910390fd5b5b50505050565b612a916150ea565b612a996150ea565b612aa16138f4565b831080612ab057506000548310155b15612abe5780915050612ba1565b600460008481526020019081526020016000206040518060600160405290816000820160009054906101000a900473ffffffffffffffffffffffffffffffffffffffff1673ffffffffffffffffffffffffffffffffffffffff1673ffffffffffffffffffffffffffffffffffffffff1681526020016000820160149054906101000a900467ffffffffffffffff1667ffffffffffffffff1667ffffffffffffffff16815260200160008201601c9054906101000a900460ff1615151515815250509050806040015115612b945780915050612ba1565b612b9d836145b1565b9150505b919050565b60606000600f60008481526020019081526020016000208054612bc890616427565b80601f0160208091040260200160405190810160405280929190818152602001828054612bf490616427565b8015612c415780601f10612c1657610100808354040283529160200191612c41565b820191906000526020600020905b815481529060010190602001808311612c2457829003601f168201915b50505050509050600081511115612c5b5780915050612c97565b6000612c6684614c8c565b905080612c7285614e33565b604051602001612c83929190616ae9565b604051602081830303815290604052925050505b919050565b60006011600083815260200190815260200160002090503373ffffffffffffffffffffffffffffffffffffffff168160010160009054906101000a900473ffffffffffffffffffffffffffffffffffffffff1673ffffffffffffffffffffffffffffffffffffffff1614612d45576040517f08c379a0000000000000000000000000000000000000000000000000000000008152600401612d3c90616b59565b60405180910390fd5b8060040160009054906101000a900460ff1615612d97576040517f08c379a0000000000000000000000000000000000000000000000000000000008152600401612d8e90616bc5565b60405180910390fd5b60018160040160006101000a81548160ff021916908315150217905550612dbf33600161419c565b3373ffffffffffffffffffffffffffffffffffffffff16827f6852407858602d696344801f0181bc507c808c727c914bb6cdfeabd42431af3860405160405180910390a35050565b60145481565b60088054612e1a90616427565b80601f0160208091040260200160405190810160405280929190818152602001828054612e4690616427565b8015612e935780601f10612e6857610100808354040283529160200191612e93565b820191906000526020600020905b815481529060010190602001808311612e7657829003601f168201915b505050505081565b6000600760008473ffffffffffffffffffffffffffffffffffffffff1673ffffffffffffffffffffffffffffffffffffffff16815260200190815260200160002060008373ffffffffffffffffffffffffffffffffffffffff1673ffffffffffffffffffffffffffffffffffffffff16815260200190815260200160002060009054906101000a900460ff16905092915050565b60606000805b601054811015612fb7576011600082815260200190815260200160002060070160009054906101000a900460ff168015612f9057506011600082815260200190815260200160002060040160009054906101000a900460ff16155b15612fa4578180612fa090616558565b9250505b8080612faf90616558565b915050612f35565b5060008167ffffffffffffffff811115612fd457612fd3615219565b5b6040519080825280602002602001820160405280156130025781602001602082028036833780820191505090505b5090506000805b6010548110156130ab576011600082815260200190815260200160002060070160009054906101000a900460ff16801561306457506011600082815260200190815260200160002060040160009054906101000a900460ff16155b15613098578083838151811061307d5761307c616458565b5b602002602001018181525050818061309490616558565b9250505b80806130a390616558565b915050613009565b5081935050505090565b6060601260008373ffffffffffffffffffffffffffffffffffffffff1673ffffffffffffffffffffffffffffffffffffffff16815260200190815260200160002080548060200260200160405190810160405280929190818152602001828054801561314057602002820191906000526020600020905b81548152602001906001019080831161312c575b50505050509050919050565b600960009054906101000a900473ffffffffffffffffffffffffffffffffffffffff1673ffffffffffffffffffffffffffffffffffffffff163373ffffffffffffffffffffffffffffffffffffffff16146131d3576040517f2d99739600000000000000000000000000000000000000000000000000000000815260040160405180910390fd5b6000601560009054906101000a900473ffffffffffffffffffffffffffffffffffffffff16905081601560006101000a81548173ffffffffffffffffffffffffffffffffffffffff021916908373ffffffffffffffffffffffffffffffffffffffff1602179055508173ffffffffffffffffffffffffffffffffffffffff168173ffffffffffffffffffffffffffffffffffffffff167f1566c4e11d9ad36725b51dfa23bea54db489d3392043536734123d86063ad57660405160405180910390a35050565b60006001905090565b6000600f600084815260200190815260200160002080546132c290616427565b905014613304576040517f08c379a00000000000000000000000000000000000000000000000000000000081526004016132fb90616c31565b60405180910390fd5b80600f600084815260200190815260200160002090816133249190616863565b505050565b600080549050600073ffffffffffffffffffffffffffffffffffffffff168473ffffffffffffffffffffffffffffffffffffffff1603613395576040517f2e07630000000000000000000000000000000000000000000000000000000000815260040160405180910390fd5b600083036133cf576040517fb562e8dd00000000000000000000000000000000000000000000000000000000815260040160405180910390fd5b6133dc6000858386614f93565b82600560008673ffffffffffffffffffffffffffffffffffffffff1673ffffffffffffffffffffffffffffffffffffffff16815260200190815260200160002060000160008282829054906101000a900467ffffffffffffffff160192506101000a81548167ffffffffffffffff021916908367ffffffffffffffff16021790555082600560008673ffffffffffffffffffffffffffffffffffffffff1673ffffffffffffffffffffffffffffffffffffffff16815260200190815260200160002060000160088282829054906101000a900467ffffffffffffffff160192506101000a81548167ffffffffffffffff021916908367ffffffffffffffff160217905550836004600083815260200190815260200160002060000160006101000a81548173ffffffffffffffffffffffffffffffffffffffff021916908373ffffffffffffffffffffffffffffffffffffffff160217905550426004600083815260200190815260200160002060000160146101000a81548167ffffffffffffffff021916908367ffffffffffffffff16021790555060008190506000848201905061359d8673ffffffffffffffffffffffffffffffffffffffff16614b19565b15613662575b818673ffffffffffffffffffffffffffffffffffffffff16600073ffffffffffffffffffffffffffffffffffffffff167fddf252ad1be2c89b69c2b068fc378daa952ba7f163c4a11628f55a4df523b3ef60405160405180910390a46136126000878480600101955087614b3c565b613648576040517fd1a57ed600000000000000000000000000000000000000000000000000000000815260040160405180910390fd5b8082106135a357826000541461365d57600080fd5b6136cd565b5b818060010192508673ffffffffffffffffffffffffffffffffffffffff16600073ffffffffffffffffffffffffffffffffffffffff167fddf252ad1be2c89b69c2b068fc378daa952ba7f163c4a11628f55a4df523b3ef60405160405180910390a4808210613663575b8160008190555050506136e36000858386614f99565b50505050565b6000816136f46138f4565b11158015613703575060005482105b8015613730575060046000838152602001908152602001600020600001601c9054906101000a900460ff16155b9050919050565b600033905090565b826006600084815260200190815260200160002060006101000a81548173ffffffffffffffffffffffffffffffffffffffff021916908373ffffffffffffffffffffffffffffffffffffffff160217905550818373ffffffffffffffffffffffffffffffffffffffff168273ffffffffffffffffffffffffffffffffffffffff167f8c5be1e5ebec7d5bd14f71427d1e84f3dd0314c0f7b2291e5b200ac8c7c3b92560405160405180910390a4505050565b60006137fb611ef9565b73ffffffffffffffffffffffffffffffffffffffff163373ffffffffffffffffffffffffffffffffffffffff1614905090565b6000600960009054906101000a900473ffffffffffffffffffffffffffffffffffffffff16905081600960006101000a81548173ffffffffffffffffffffffffffffffffffffffff021916908373ffffffffffffffffffffffffffffffffffffffff1602179055508173ffffffffffffffffffffffffffffffffffffffff168173ffffffffffffffffffffffffffffffffffffffff167f8292fce18fa69edf4db7b94ea2e58241df0ae57f97e0a6c9b29067028bf92d7660405160405180910390a35050565b600090565b6000613904826145b1565b90508373ffffffffffffffffffffffffffffffffffffffff16816000015173ffffffffffffffffffffffffffffffffffffffff161461396f576040517fa114810000000000000000000000000000000000000000000000000000000000815260040160405180910390fd5b60008473ffffffffffffffffffffffffffffffffffffffff16613990613737565b73ffffffffffffffffffffffffffffffffffffffff1614806139bf57506139be856139b9613737565b612e9b565b5b80613a0457506139cd613737565b73ffffffffffffffffffffffffffffffffffffffff166139ec84610cda565b73ffffffffffffffffffffffffffffffffffffffff16145b905080613a3d576040517f59c896be00000000000000000000000000000000000000000000000000000000815260040160405180910390fd5b600073ffffffffffffffffffffffffffffffffffffffff168473ffffffffffffffffffffffffffffffffffffffff1603613aa3576040517fea553b3400000000000000000000000000000000000000000000000000000000815260040160405180910390fd5b613ab08585856001614f93565b613abc6000848761373f565b6001600560008773ffffffffffffffffffffffffffffffffffffffff1673ffffffffffffffffffffffffffffffffffffffff16815260200190815260200160002060000160008282829054906101000a900467ffffffffffffffff160392506101000a81548167ffffffffffffffff021916908367ffffffffffffffff1602179055506001600560008673ffffffffffffffffffffffffffffffffffffffff1673ffffffffffffffffffffffffffffffffffffffff16815260200190815260200160002060000160008282829054906101000a900467ffffffffffffffff160192506101000a81548167ffffffffffffffff021916908367ffffffffffffffff1602179055506000600460008581526020019081526020016000209050848160000160006101000a81548173ffffffffffffffffffffffffffffffffffffffff021916908373ffffffffffffffffffffffffffffffffffffffff160217905550428160000160146101000a81548167ffffffffffffffff021916908367ffffffffffffffff16021790555060006001850190506000600460008381526020019081526020016000209050600073ffffffffffffffffffffffffffffffffffffffff168160000160009054906101000a900473ffffffffffffffffffffffffffffffffffffffff1673ffffffffffffffffffffffffffffffffffffffff1603613d3b576000548214613d3a57878160000160006101000a81548173ffffffffffffffffffffffffffffffffffffffff021916908373ffffffffffffffffffffffffffffffffffffffff16021790555084602001518160000160146101000a81548167ffffffffffffffff021916908367ffffffffffffffff1602179055505b5b505050828473ffffffffffffffffffffffffffffffffffffffff168673ffffffffffffffffffffffffffffffffffffffff167fddf252ad1be2c89b69c2b068fc378daa952ba7f163c4a11628f55a4df523b3ef60405160405180910390a4613da68585856001614f99565b5050505050565b6000613db8836145b1565b90506000816000015190508215613e995760008173ffffffffffffffffffffffffffffffffffffffff16613dea613737565b73ffffffffffffffffffffffffffffffffffffffff161480613e195750613e1882613e13613737565b612e9b565b5b80613e5e5750613e27613737565b73ffffffffffffffffffffffffffffffffffffffff16613e4686610cda565b73ffffffffffffffffffffffffffffffffffffffff16145b905080613e97576040517f59c896be00000000000000000000000000000000000000000000000000000000815260040160405180910390fd5b505b613ea7816000866001614f93565b613eb36000858361373f565b6000600560008373ffffffffffffffffffffffffffffffffffffffff1673ffffffffffffffffffffffffffffffffffffffff168152602001908152602001600020905060018160000160008282829054906101000a900467ffffffffffffffff160392506101000a81548167ffffffffffffffff021916908367ffffffffffffffff16021790555060018160000160108282829054906101000a900467ffffffffffffffff160192506101000a81548167ffffffffffffffff021916908367ffffffffffffffff1602179055506000600460008781526020019081526020016000209050828160000160006101000a81548173ffffffffffffffffffffffffffffffffffffffff021916908373ffffffffffffffffffffffffffffffffffffffff160217905550428160000160146101000a81548167ffffffffffffffff021916908367ffffffffffffffff160217905550600181600001601c6101000a81548160ff02191690831515021790555060006001870190506000600460008381526020019081526020016000209050600073ffffffffffffffffffffffffffffffffffffffff168160000160009054906101000a900473ffffffffffffffffffffffffffffffffffffffff1673ffffffffffffffffffffffffffffffffffffffff160361411657600054821461411557848160000160006101000a81548173ffffffffffffffffffffffffffffffffffffffff021916908373ffffffffffffffffffffffffffffffffffffffff16021790555085602001518160000160146101000a81548167ffffffffffffffff021916908367ffffffffffffffff1602179055505b5b5050505083600073ffffffffffffffffffffffffffffffffffffffff168273ffffffffffffffffffffffffffffffffffffffff167fddf252ad1be2c89b69c2b068fc378daa952ba7f163c4a11628f55a4df523b3ef60405160405180910390a4614184816000866001614f99565b60016000815480929190600101919050555050505050565b600080549050600073ffffffffffffffffffffffffffffffffffffffff168373ffffffffffffffffffffffffffffffffffffffff1603614208576040517f2e07630000000000000000000000000000000000000000000000000000000000815260040160405180910390fd5b60008203614242576040517fb562e8dd00000000000000000000000000000000000000000000000000000000815260040160405180910390fd5b61424f6000848385614f93565b81600560008573ffffffffffffffffffffffffffffffffffffffff1673ffffffffffffffffffffffffffffffffffffffff16815260200190815260200160002060000160008282829054906101000a900467ffffffffffffffff160192506101000a81548167ffffffffffffffff021916908367ffffffffffffffff16021790555081600560008573ffffffffffffffffffffffffffffffffffffffff1673ffffffffffffffffffffffffffffffffffffffff16815260200190815260200160002060000160088282829054906101000a900467ffffffffffffffff160192506101000a81548167ffffffffffffffff021916908367ffffffffffffffff160217905550826004600083815260200190815260200160002060000160006101000a81548173ffffffffffffffffffffffffffffffffffffffff021916908373ffffffffffffffffffffffffffffffffffffffff160217905550426004600083815260200190815260200160002060000160146101000a81548167ffffffffffffffff021916908367ffffffffffffffff1602179055506000819050600083820190505b818060010192508573ffffffffffffffffffffffffffffffffffffffff16600073ffffffffffffffffffffffffffffffffffffffff167fddf252ad1be2c89b69c2b068fc378daa952ba7f163c4a11628f55a4df523b3ef60405160405180910390a48082106143f2578160008190555050506144716000848385614f99565b505050565b50565b6000614483611ef9565b73ffffffffffffffffffffffffffffffffffffffff163373ffffffffffffffffffffffffffffffffffffffff1614905090565b61271081111561450157612710816040517f524985680000000000000000000000000000000000000000000000000000000081526004016144f8929190616c8c565b60405180910390fd5b81600a60006101000a81548173ffffffffffffffffffffffffffffffffffffffff021916908373ffffffffffffffffffffffffffffffffffffffff16021790555080600a60146101000a81548161ffff021916908361ffff1602179055508173ffffffffffffffffffffffffffffffffffffffff167f90d7ec04bcb8978719414f82e52e4cb651db41d0e6f8cea6118c2191e6183adb826040516145a59190615605565b60405180910390a25050565b6145b96150ea565b6000829050806145c76138f4565b1161480557600054811015614804576000600460008381526020019081526020016000206040518060600160405290816000820160009054906101000a900473ffffffffffffffffffffffffffffffffffffffff1673ffffffffffffffffffffffffffffffffffffffff1673ffffffffffffffffffffffffffffffffffffffff1681526020016000820160149054906101000a900467ffffffffffffffff1667ffffffffffffffff1667ffffffffffffffff16815260200160008201601c9054906101000a900460ff1615151515815250509050806040015161480257600073ffffffffffffffffffffffffffffffffffffffff16816000015173ffffffffffffffffffffffffffffffffffffffff16146146e6578092505050614837565b5b60011561480157818060019003925050600460008381526020019081526020016000206040518060600160405290816000820160009054906101000a900473ffffffffffffffffffffffffffffffffffffffff1673ffffffffffffffffffffffffffffffffffffffff1673ffffffffffffffffffffffffffffffffffffffff1681526020016000820160149054906101000a900467ffffffffffffffff1667ffffffffffffffff1667ffffffffffffffff16815260200160008201601c9054906101000a900460ff1615151515815250509050600073ffffffffffffffffffffffffffffffffffffffff16816000015173ffffffffffffffffffffffffffffffffffffffff16146147fc578092505050614837565b6146e7565b5b505b5b6040517fdf2d9b4200000000000000000000000000000000000000000000000000000000815260040160405180910390fd5b919050565b600080838561484b9190616cb5565b9050809150600c81908060018154018082558091505060019003906000526020600020016000909190919091505582600d600083815260200190815260200160002090816148999190616863565b50935093915050565b60006148ac611ef9565b73ffffffffffffffffffffffffffffffffffffffff163373ffffffffffffffffffffffffffffffffffffffff1614905090565b6000600880546148ee90616427565b80601f016020809104026020016040519081016040528092919081815260200182805461491a90616427565b80156149675780601f1061493c57610100808354040283529160200191614967565b820191906000526020600020905b81548152906001019060200180831161494a57829003601f168201915b50505050509050816008908161497d9190616863565b507fc9c7c3fe08b88b4df9d4d47ef47d2c43d55c025a0ba88ca442580ed9e7348a1681836040516149af929190616ce9565b60405180910390a15050565b612710811115614a0657612710816040517f524985680000000000000000000000000000000000000000000000000000000081526004016149fd929190616c8c565b60405180910390fd5b60405180604001604052808373ffffffffffffffffffffffffffffffffffffffff16815260200182815250600b600085815260200190815260200160002060008201518160000160006101000a81548173ffffffffffffffffffffffffffffffffffffffff021916908373ffffffffffffffffffffffffffffffffffffffff160217905550602082015181600101559050508173ffffffffffffffffffffffffffffffffffffffff16837f7365cf4122f072a3365c20d54eff9b38d73c096c28e1892ec8f5b0e403a0f12d83604051614adf9190615605565b60405180910390a3505050565b6060614b118383604051806060016040528060278152602001616e9460279139614f9f565b905092915050565b6000808273ffffffffffffffffffffffffffffffffffffffff163b119050919050565b60008373ffffffffffffffffffffffffffffffffffffffff1663150b7a02614b62613737565b8786866040518563ffffffff1660e01b8152600401614b849493929190616d20565b6020604051808303816000875af1925050508015614bc057506040513d601f19601f82011682018060405250810190614bbd9190616d81565b60015b614c39573d8060008114614bf0576040519150601f19603f3d011682016040523d82523d6000602084013e614bf5565b606091505b506000815103614c31576040517fd1a57ed600000000000000000000000000000000000000000000000000000000815260040160405180910390fd5b805181602001fd5b63150b7a0260e01b7bffffffffffffffffffffffffffffffffffffffffffffffffffffffff1916817bffffffffffffffffffffffffffffffffffffffffffffffffffffffff191614915050949350505050565b60606000614c98611a09565b90506000600c805480602002602001604051908101604052809291908181526020018280548015614ce857602002820191906000526020600020905b815481526020019060010190808311614cd4575b5050505050905060005b82811015614df057818181518110614d0d57614d0c616458565b5b6020026020010151851015614ddc57600d6000838381518110614d3357614d32616458565b5b602002602001015181526020019081526020016000208054614d5490616427565b80601f0160208091040260200160405190810160405280929190818152602001828054614d8090616427565b8015614dcd5780601f10614da257610100808354040283529160200191614dcd565b820191906000526020600020905b815481529060010190602001808311614db057829003601f168201915b50505050509350505050614e2e565b600181614de99190616cb5565b9050614cf2565b50836040517f25e5fda4000000000000000000000000000000000000000000000000000000008152600401614e259190615605565b60405180910390fd5b919050565b606060008203614e7a576040518060400160405280600181526020017f30000000000000000000000000000000000000000000000000000000000000008152509050614f8e565b600082905060005b60008214614eac578080614e9590616558565b915050600a82614ea59190616527565b9150614e82565b60008167ffffffffffffffff811115614ec857614ec7615219565b5b6040519080825280601f01601f191660200182016040528015614efa5781602001600182028036833780820191505090505b5090505b60008514614f8757600182614f139190616935565b9150600a85614f229190616dae565b6030614f2e9190616cb5565b60f81b818381518110614f4457614f43616458565b5b60200101907effffffffffffffffffffffffffffffffffffffffffffffffffffffffffffff1916908160001a905350600a85614f809190616527565b9450614efe565b8093505050505b919050565b50505050565b50505050565b60606000808573ffffffffffffffffffffffffffffffffffffffff1685604051614fc99190616e10565b600060405180830381855af49150503d8060008114615004576040519150601f19603f3d011682016040523d82523d6000602084013e615009565b606091505b509150915061501a86838387615025565b925050509392505050565b6060831561508757600083510361507f5761503f85614b19565b61507e576040517f08c379a000000000000000000000000000000000000000000000000000000000815260040161507590616e73565b60405180910390fd5b5b829050615092565b615091838361509a565b5b949350505050565b6000825111156150ad5781518083602001fd5b806040517f08c379a00000000000000000000000000000000000000000000000000000000081526004016150e19190615504565b60405180910390fd5b6040518060600160405280600073ffffffffffffffffffffffffffffffffffffffff168152602001600067ffffffffffffffff1681526020016000151581525090565b60405180610100016040528060008152602001600073ffffffffffffffffffffffffffffffffffffffff168152602001606081526020016000815260200160001515815260200160008152602001600081526020016000151581525090565b6000604051905090565b600080fd5b600080fd5b600073ffffffffffffffffffffffffffffffffffffffff82169050919050565b60006151cb826151a0565b9050919050565b6151db816151c0565b81146151e657600080fd5b50565b6000813590506151f8816151d2565b92915050565b600080fd5b600080fd5b6000601f19601f8301169050919050565b7f4e487b7100000000000000000000000000000000000000000000000000000000600052604160045260246000fd5b61525182615208565b810181811067ffffffffffffffff821117156152705761526f615219565b5b80604052505050565b600061528361518c565b905061528f8282615248565b919050565b600067ffffffffffffffff8211156152af576152ae615219565b5b6152b882615208565b9050602081019050919050565b82818337600083830152505050565b60006152e76152e284615294565b615279565b90508281526020810184848401111561530357615302615203565b5b61530e8482856152c5565b509392505050565b600082601f83011261532b5761532a6151fe565b5b813561533b8482602086016152d4565b91505092915050565b6000806040838503121561535b5761535a615196565b5b6000615369858286016151e9565b925050602083013567ffffffffffffffff81111561538a5761538961519b565b5b61539685828601615316565b9150509250929050565b60007fffffffff0000000000000000000000000000000000000000000000000000000082169050919050565b6153d5816153a0565b81146153e057600080fd5b50565b6000813590506153f2816153cc565b92915050565b60006020828403121561540e5761540d615196565b5b600061541c848285016153e3565b91505092915050565b60008115159050919050565b61543a81615425565b82525050565b60006020820190506154556000830184615431565b92915050565b615464816151c0565b82525050565b600060208201905061547f600083018461545b565b92915050565b600081519050919050565b600082825260208201905092915050565b60005b838110156154bf5780820151818401526020810190506154a4565b60008484015250505050565b60006154d682615485565b6154e08185615490565b93506154f08185602086016154a1565b6154f981615208565b840191505092915050565b6000602082019050818103600083015261551e81846154cb565b905092915050565b6000819050919050565b61553981615526565b811461554457600080fd5b50565b60008135905061555681615530565b92915050565b60006020828403121561557257615571615196565b5b600061558084828501615547565b91505092915050565b600080604083850312156155a05761559f615196565b5b60006155ae858286016151e9565b92505060206155bf85828601615547565b9150509250929050565b6000602082840312156155df576155de615196565b5b60006155ed848285016151e9565b91505092915050565b6155ff81615526565b82525050565b600060208201905061561a60008301846155f6565b92915050565b60008060006060848603121561563957615638615196565b5b6000615647868287016151e9565b9350506020615658868287016151e9565b925050604061566986828701615547565b9150509250925092565b6000806040838503121561568a57615689615196565b5b600061569885828601615547565b92505060206156a985828601615547565b9150509250929050565b60006040820190506156c8600083018561545b565b6156d560208301846155f6565b9392505050565b600081519050919050565b600082825260208201905092915050565b6000819050602082019050919050565b61571181615526565b82525050565b60006157238383615708565b60208301905092915050565b6000602082019050919050565b6000615747826156dc565b61575181856156e7565b935061575c836156f8565b8060005b8381101561578d5781516157748882615717565b975061577f8361572f565b925050600181019050615760565b5085935050505092915050565b600060208201905081810360008301526157b4818461573c565b905092915050565b600080fd5b600080fd5b60008083601f8401126157dc576157db6151fe565b5b8235905067ffffffffffffffff8111156157f9576157f86157bc565b5b602083019150836001820283011115615815576158146157c1565b5b9250929050565b6000806020838503121561583357615832615196565b5b600083013567ffffffffffffffff8111156158515761585061519b565b5b61585d858286016157c6565b92509250509250929050565b60006101008201905061587f600083018b6155f6565b61588c602083018a61545b565b818103604083015261589e81896154cb565b90506158ad60608301886155f6565b6158ba6080830187615431565b6158c760a08301866155f6565b6158d460c08301856155f6565b6158e160e0830184615431565b9998505050505050505050565b600061ffff82169050919050565b615905816158ee565b82525050565b6000604082019050615920600083018561545b565b61592d60208301846158fc565b9392505050565b60008060006060848603121561594d5761594c615196565b5b600084013567ffffffffffffffff81111561596b5761596a61519b565b5b61597786828701615316565b935050602061598886828701615547565b925050604061599986828701615547565b9150509250925092565b600067ffffffffffffffff8211156159be576159bd615219565b5b602082029050602081019050919050565b60006159e26159dd846159a3565b615279565b90508083825260208201905060208402830185811115615a0557615a046157c1565b5b835b81811015615a2e5780615a1a8882615547565b845260208401935050602081019050615a07565b5050509392505050565b600082601f830112615a4d57615a4c6151fe565b5b8135615a5d8482602086016159cf565b91505092915050565b600060208284031215615a7c57615a7b615196565b5b600082013567ffffffffffffffff811115615a9a57615a9961519b565b5b615aa684828501615a38565b91505092915050565b600081519050919050565b600082825260208201905092915050565b6000819050602082019050919050565b615ae4816151c0565b82525050565b600067ffffffffffffffff82169050919050565b615b0781615aea565b82525050565b615b1681615425565b82525050565b606082016000820151615b326000850182615adb565b506020820151615b456020850182615afe565b506040820151615b586040850182615b0d565b50505050565b6000615b6a8383615b1c565b60608301905092915050565b6000602082019050919050565b6000615b8e82615aaf565b615b988185615aba565b9350615ba383615acb565b8060005b83811015615bd4578151615bbb8882615b5e565b9750615bc683615b76565b925050600181019050615ba7565b5085935050505092915050565b60006020820190508181036000830152615bfb8184615b83565b905092915050565b600081519050919050565b600082825260208201905092915050565b6000615c2a82615c03565b615c348185615c0e565b9350615c448185602086016154a1565b615c4d81615208565b840191505092915050565b6000604082019050615c6d6000830185615431565b8181036020830152615c7f8184615c1f565b90509392505050565b600067ffffffffffffffff821115615ca357615ca2615219565b5b615cac82615208565b9050602081019050919050565b6000615ccc615cc784615c88565b615279565b905082815260208101848484011115615ce857615ce7615203565b5b615cf38482856152c5565b509392505050565b600082601f830112615d1057615d0f6151fe565b5b8135615d20848260208601615cb9565b91505092915050565b60008060008060808587031215615d4357615d42615196565b5b6000615d51878288016151e9565b9450506020615d6287828801615547565b935050604085013567ffffffffffffffff811115615d8357615d8261519b565b5b615d8f87828801615316565b925050606085013567ffffffffffffffff811115615db057615daf61519b565b5b615dbc87828801615cfb565b91505092959194509250565b600082825260208201905092915050565b6000615de482615485565b615dee8185615dc8565b9350615dfe8185602086016154a1565b615e0781615208565b840191505092915050565b600061010083016000830151615e2b6000860182615708565b506020830151615e3e6020860182615adb565b5060408301518482036040860152615e568282615dd9565b9150506060830151615e6b6060860182615708565b506080830151615e7e6080860182615b0d565b5060a0830151615e9160a0860182615708565b5060c0830151615ea460c0860182615708565b5060e0830151615eb760e0860182615b0d565b508091505092915050565b60006020820190508181036000830152615edc8184615e12565b905092915050565b600060208284031215615efa57615ef9615196565b5b600082013567ffffffffffffffff811115615f1857615f1761519b565b5b615f2484828501615316565b91505092915050565b600080600060608486031215615f4657615f45615196565b5b6000615f54868287016151e9565b9350506020615f6586828701615547565b9250506040615f7686828701615547565b9150509250925092565b600080600060608486031215615f9957615f98615196565b5b6000615fa786828701615547565b9350506020615fb8868287016151e9565b9250506040615fc986828701615547565b9150509250925092565b615fdc81615425565b8114615fe757600080fd5b50565b600081359050615ff981615fd3565b92915050565b6000806040838503121561601657616015615196565b5b6000616024858286016151e9565b925050602061603585828601615fea565b9150509250929050565b6000806040838503121561605657616055615196565b5b600083013567ffffffffffffffff8111156160745761607361519b565b5b61608085828601615316565b925050602061609185828601615547565b9150509250929050565b60008083601f8401126160b1576160b06151fe565b5b8235905067ffffffffffffffff8111156160ce576160cd6157bc565b5b6020830191508360208202830111156160ea576160e96157c1565b5b9250929050565b6000806020838503121561610857616107615196565b5b600083013567ffffffffffffffff8111156161265761612561519b565b5b6161328582860161609b565b92509250509250929050565b600081519050919050565b600082825260208201905092915050565b6000819050602082019050919050565b600082825260208201905092915050565b600061618682615c03565b616190818561616a565b93506161a08185602086016154a1565b6161a981615208565b840191505092915050565b60006161c0838361617b565b905092915050565b6000602082019050919050565b60006161e08261613e565b6161ea8185616149565b9350836020820285016161fc8561615a565b8060005b85811015616238578484038952815161621985826161b4565b9450616224836161c8565b925060208a01995050600181019050616200565b50829750879550505050505092915050565b6000602082019050818103600083015261626481846161d5565b905092915050565b6000806000806080858703121561628657616285615196565b5b6000616294878288016151e9565b94505060206162a5878288016151e9565b93505060406162b687828801615547565b925050606085013567ffffffffffffffff8111156162d7576162d661519b565b5b6162e387828801615cfb565b91505092959194509250565b6060820160008201516163056000850182615adb565b5060208201516163186020850182615afe565b50604082015161632b6040850182615b0d565b50505050565b600060608201905061634660008301846162ef565b92915050565b6000806040838503121561636357616362615196565b5b6000616371858286016151e9565b9250506020616382858286016151e9565b9150509250929050565b7f4e6f7420617574686f72697a656420746f206d696e742e000000000000000000600082015250565b60006163c2601783615490565b91506163cd8261638c565b602082019050919050565b600060208201905081810360008301526163f1816163b5565b9050919050565b7f4e487b7100000000000000000000000000000000000000000000000000000000600052602260045260246000fd5b6000600282049050600182168061643f57607f821691505b602082108103616452576164516163f8565b5b50919050565b7f4e487b7100000000000000000000000000000000000000000000000000000000600052603260045260246000fd5b7f4e487b7100000000000000000000000000000000000000000000000000000000600052601160045260246000fd5b60006164c182615526565b91506164cc83615526565b92508282026164da81615526565b915082820484148315176164f1576164f0616487565b5b5092915050565b7f4e487b7100000000000000000000000000000000000000000000000000000000600052601260045260246000fd5b600061653282615526565b915061653d83615526565b92508261654d5761654c6164f8565b5b828204905092915050565b600061656382615526565b91507fffffffffffffffffffffffffffffffffffffffffffffffffffffffffffffffff820361659557616594616487565b5b600182019050919050565b600080604083850312156165b7576165b6615196565b5b600083013567ffffffffffffffff8111156165d5576165d461519b565b5b6165e185828601615a38565b92505060206165f285828601615547565b9150509250929050565b600060408201905061661160008301856155f6565b61661e60208301846155f6565b9392505050565b7f457865637574696f6e2074696d65206d75737420626520696e2074686520667560008201527f7475726500000000000000000000000000000000000000000000000000000000602082015250565b6000616681602483615490565b915061668c82616625565b604082019050919050565b600060208201905081810360008301526166b081616674565b9050919050565b60008190508160005260206000209050919050565b60006020601f8301049050919050565b600082821b905092915050565b6000600883026167197fffffffffffffffffffffffffffffffffffffffffffffffffffffffffffffffff826166dc565b61672386836166dc565b95508019841693508086168417925050509392505050565b6000819050919050565b600061676061675b61675684615526565b61673b565b615526565b9050919050565b6000819050919050565b61677a83616745565b61678e61678682616767565b8484546166e9565b825550505050565b600090565b6167a3616796565b6167ae818484616771565b505050565b5b818110156167d2576167c760008261679b565b6001810190506167b4565b5050565b601f821115616817576167e8816166b7565b6167f1846166cc565b81016020851015616800578190505b61681461680c856166cc565b8301826167b3565b50505b505050565b600082821c905092915050565b600061683a6000198460080261681c565b1980831691505092915050565b60006168538383616829565b9150826002028217905092915050565b61686c82615485565b67ffffffffffffffff81111561688557616884615219565b5b61688f8254616427565b61689a8282856167d6565b600060209050601f8311600181146168cd57600084156168bb578287015190505b6168c58582616847565b86555061692d565b601f1984166168db866166b7565b60005b82811015616903578489015182556001820191506020850194506020810190506168de565b86831015616920578489015161691c601f891682616829565b8355505b6001600288020188555050505b505050505050565b600061694082615526565b915061694b83615526565b925082820390508181111561696357616962616487565b5b92915050565b60006040820190508181036000830152616983818561573c565b905061699260208301846155f6565b9392505050565b600080fd5b600080fd5b600080fd5b600080833560016020038436030381126169c5576169c4616999565b5b80840192508235915067ffffffffffffffff8211156169e7576169e661699e565b5b602083019250600182023603831315616a0357616a026169a3565b5b509250929050565b600081905092915050565b6000616a228385616a0b565b9350616a2f8385846152c5565b82840190509392505050565b60008160601b9050919050565b6000616a5382616a3b565b9050919050565b6000616a6582616a48565b9050919050565b616a7d616a78826151c0565b616a5a565b82525050565b6000616a90828587616a16565b9150616a9c8284616a6c565b601482019150819050949350505050565b600081905092915050565b6000616ac382615485565b616acd8185616aad565b9350616add8185602086016154a1565b80840191505092915050565b6000616af58285616ab8565b9150616b018284616ab8565b91508190509392505050565b7f4e6f7420617574686f72697a6564000000000000000000000000000000000000600082015250565b6000616b43600e83615490565b9150616b4e82616b0d565b602082019050919050565b60006020820190508181036000830152616b7281616b36565b9050919050565b7f416c726561647920657865637574656400000000000000000000000000000000600082015250565b6000616baf601083615490565b9150616bba82616b79565b602082019050919050565b60006020820190508181036000830152616bde81616ba2565b9050919050565b7f55524920616c7265616479207365740000000000000000000000000000000000600082015250565b6000616c1b600f83615490565b9150616c2682616be5565b602082019050919050565b60006020820190508181036000830152616c4a81616c0e565b9050919050565b6000819050919050565b6000616c76616c71616c6c84616c51565b61673b565b615526565b9050919050565b616c8681616c5b565b82525050565b6000604082019050616ca16000830185616c7d565b616cae60208301846155f6565b9392505050565b6000616cc082615526565b9150616ccb83615526565b9250828201905080821115616ce357616ce2616487565b5b92915050565b60006040820190508181036000830152616d0381856154cb565b90508181036020830152616d1781846154cb565b90509392505050565b6000608082019050616d35600083018761545b565b616d42602083018661545b565b616d4f60408301856155f6565b8181036060830152616d618184615c1f565b905095945050505050565b600081519050616d7b816153cc565b92915050565b600060208284031215616d9757616d96615196565b5b6000616da584828501616d6c565b91505092915050565b6000616db982615526565b9150616dc483615526565b925082616dd457616dd36164f8565b5b828206905092915050565b6000616dea82615c03565b616df48185616a0b565b9350616e048185602086016154a1565b80840191505092915050565b6000616e1c8284616ddf565b915081905092915050565b7f416464726573733a2063616c6c20746f206e6f6e2d636f6e7472616374000000600082015250565b6000616e5d601d83615490565b9150616e6882616e27565b602082019050919050565b60006020820190508181036000830152616e8c81616e50565b905091905056fe416464726573733a206c6f772d6c6576656c2064656c65676174652063616c6c206661696c6564a2646970667358221220b2be42ac1a36f6fae8540b512f69d52aa1852345a52392b2f9311612701866e164736f6c63430008150033",
  "linkReferences": {},
  "deployedLinkReferences": {}
}