{
  "_format": "hh-sol-artifact-1",
  "contractName": "ERC721Base",
  "sourceName": "@thirdweb-dev/contracts/base/ERC721Base.sol",
  "abi": [
    {
      "inputs": [
        {
          "internalType": "address",
          "name": "_defaultAdmin",
          "type": "address"
        },
        {
          "internalType": "string",
          "name": "_name",
          "type": "string"
        },
        {
          "internalType": "string",
          "name": "_symbol",
          "type": "string"
        },
        {
          "internalType": "address",
          "name": "_royaltyRecipient",
          "type": "address"
        },
        {
          "internalType": "uint128",
          "name": "_royaltyBps",
          "type": "uint128"
        }
      ],
      "stateMutability": "nonpayable",
      "type": "constructor"
    },
    {
      "inputs": [],
      "name": "ApprovalCallerNotOwnerNorApproved",
      "type": "error"
    },
    {
      "inputs": [],
      "name": "ApprovalQueryForNonexistentToken",
      "type": "error"
    },
    {
      "inputs": [],
      "name": "ApprovalToCurrentOwner",
      "type": "error"
    },
    {
      "inputs": [],
      "name": "ApproveToCaller",
      "type": "error"
    },
    {
      "inputs": [],
      "name": "BalanceQueryForZeroAddress",
      "type": "error"
    },
    {
      "inputs": [
        {
          "internalType": "uint256",
          "name": "index",
          "type": "uint256"
        }
      ],
      "name": "BatchMintInvalidBatchId",
      "type": "error"
    },
    {
      "inputs": [
        {
          "internalType": "uint256",
          "name": "tokenId",
          "type": "uint256"
        }
      ],
      "name": "BatchMintInvalidTokenId",
      "type": "error"
    },
    {
      "inputs": [
        {
          "internalType": "uint256",
          "name": "batchId",
          "type": "uint256"
        }
      ],
      "name": "BatchMintMetadataFrozen",
      "type": "error"
    },
    {
      "inputs": [],
      "name": "ContractMetadataUnauthorized",
      "type": "error"
    },
    {
      "inputs": [],
      "name": "InvalidQueryRange",
      "type": "error"
    },
    {
      "inputs": [],
      "name": "MintToZeroAddress",
      "type": "error"
    },
    {
      "inputs": [],
      "name": "MintZeroQuantity",
      "type": "error"
    },
    {
      "inputs": [],
      "name": "OwnableUnauthorized",
      "type": "error"
    },
    {
      "inputs": [],
      "name": "OwnerQueryForNonexistentToken",
      "type": "error"
    },
    {
      "inputs": [
        {
          "internalType": "uint256",
          "name": "max",
          "type": "uint256"
        },
        {
          "internalType": "uint256",
          "name": "actual",
          "type": "uint256"
        }
      ],
      "name": "RoyaltyExceededMaxFeeBps",
      "type": "error"
    },
    {
      "inputs": [
        {
          "internalType": "address",
          "name": "recipient",
          "type": "address"
        }
      ],
      "name": "RoyaltyInvalidRecipient",
      "type": "error"
    },
    {
      "inputs": [],
      "name": "RoyaltyUnauthorized",
      "type": "error"
    },
    {
      "inputs": [],
      "name": "TransferCallerNotOwnerNorApproved",
      "type": "error"
    },
    {
      "inputs": [],
      "name": "TransferFromIncorrectOwner",
      "type": "error"
    },
    {
      "inputs": [],
      "name": "TransferToNonERC721ReceiverImplementer",
      "type": "error"
    },
    {
      "inputs": [],
      "name": "TransferToZeroAddress",
      "type": "error"
    },
    {
      "inputs": [],
      "name": "URIQueryForNonexistentToken",
      "type": "error"
    },
    {
      "anonymous": false,
      "inputs": [
        {
          "indexed": true,
          "internalType": "address",
          "name": "owner",
          "type": "address"
        },
        {
          "indexed": true,
          "internalType": "address",
          "name": "approved",
          "type": "address"
        },
        {
          "indexed": true,
          "internalType": "uint256",
          "name": "tokenId",
          "type": "uint256"
        }
      ],
      "name": "Approval",
      "type": "event"
    },
    {
      "anonymous": false,
      "inputs": [
        {
          "indexed": true,
          "internalType": "address",
          "name": "owner",
          "type": "address"
        },
        {
          "indexed": true,
          "internalType": "address",
          "name": "operator",
          "type": "address"
        },
        {
          "indexed": false,
          "internalType": "bool",
          "name": "approved",
          "type": "bool"
        }
      ],
      "name": "ApprovalForAll",
      "type": "event"
    },
    {
      "anonymous": false,
      "inputs": [
        {
          "indexed": false,
          "internalType": "uint256",
          "name": "_fromTokenId",
          "type": "uint256"
        },
        {
          "indexed": false,
          "internalType": "uint256",
          "name": "_toTokenId",
          "type": "uint256"
        }
      ],
      "name": "BatchMetadataUpdate",
      "type": "event"
    },
    {
      "anonymous": false,
      "inputs": [
        {
          "indexed": false,
          "internalType": "string",
          "name": "prevURI",
          "type": "string"
        },
        {
          "indexed": false,
          "internalType": "string",
          "name": "newURI",
          "type": "string"
        }
      ],
      "name": "ContractURIUpdated",
      "type": "event"
    },
    {
      "anonymous": false,
      "inputs": [
        {
          "indexed": true,
          "internalType": "address",
          "name": "newRoyaltyRecipient",
          "type": "address"
        },
        {
          "indexed": false,
          "internalType": "uint256",
          "name": "newRoyaltyBps",
          "type": "uint256"
        }
      ],
      "name": "DefaultRoyalty",
      "type": "event"
    },
    {
      "anonymous": false,
      "inputs": [],
      "name": "MetadataFrozen",
      "type": "event"
    },
    {
      "anonymous": false,
      "inputs": [
        {
          "indexed": true,
          "internalType": "address",
          "name": "prevOwner",
          "type": "address"
        },
        {
          "indexed": true,
          "internalType": "address",
          "name": "newOwner",
          "type": "address"
        }
      ],
      "name": "OwnerUpdated",
      "type": "event"
    },
    {
      "anonymous": false,
      "inputs": [
        {
          "indexed": true,
          "internalType": "uint256",
          "name": "tokenId",
          "type": "uint256"
        },
        {
          "indexed": true,
          "internalType": "address",
          "name": "royaltyRecipient",
          "type": "address"
        },
        {
          "indexed": false,
          "internalType": "uint256",
          "name": "royaltyBps",
          "type": "uint256"
        }
      ],
      "name": "RoyaltyForToken",
      "type": "event"
    },
    {
      "anonymous": false,
      "inputs": [
        {
          "indexed": true,
          "internalType": "address",
          "name": "from",
          "type": "address"
        },
        {
          "indexed": true,
          "internalType": "address",
          "name": "to",
          "type": "address"
        },
        {
          "indexed": true,
          "internalType": "uint256",
          "name": "tokenId",
          "type": "uint256"
        }
      ],
      "name": "Transfer",
      "type": "event"
    },
    {
      "inputs": [
        {
          "internalType": "address",
          "name": "to",
          "type": "address"
        },
        {
          "internalType": "uint256",
          "name": "tokenId",
          "type": "uint256"
        }
      ],
      "name": "approve",
      "outputs": [],
      "stateMutability": "nonpayable",
      "type": "function"
    },
    {
      "inputs": [
        {
          "internalType": "address",
          "name": "owner",
          "type": "address"
        }
      ],
      "name": "balanceOf",
      "outputs": [
        {
          "internalType": "uint256",
          "name": "",
          "type": "uint256"
        }
      ],
      "stateMutability": "view",
      "type": "function"
    },
    {
      "inputs": [
        {
          "internalType": "uint256",
          "name": "",
          "type": "uint256"
        }
      ],
      "name": "batchFrozen",
      "outputs": [
        {
          "internalType": "bool",
          "name": "",
          "type": "bool"
        }
      ],
      "stateMutability": "view",
      "type": "function"
    },
    {
      "inputs": [
        {
          "internalType": "address",
          "name": "_to",
          "type": "address"
        },
        {
          "internalType": "uint256",
          "name": "_quantity",
          "type": "uint256"
        },
        {
          "internalType": "string",
          "name": "_baseURI",
          "type": "string"
        },
        {
          "internalType": "bytes",
          "name": "_data",
          "type": "bytes"
        }
      ],
      "name": "batchMintTo",
      "outputs": [],
      "stateMutability": "nonpayable",
      "type": "function"
    },
    {
      "inputs": [
        {
          "internalType": "uint256",
          "name": "_tokenId",
          "type": "uint256"
        }
      ],
      "name": "burn",
      "outputs": [],
      "stateMutability": "nonpayable",
      "type": "function"
    },
    {
      "inputs": [],
      "name": "contractURI",
      "outputs": [
        {
          "internalType": "string",
          "name": "",
          "type": "string"
        }
      ],
      "stateMutability": "view",
      "type": "function"
    },
    {
      "inputs": [
        {
          "internalType": "uint256",
          "name": "tokenId",
          "type": "uint256"
        }
      ],
      "name": "explicitOwnershipOf",
      "outputs": [
        {
          "components": [
            {
              "internalType": "address",
              "name": "addr",
              "type": "address"
            },
            {
              "internalType": "uint64",
              "name": "startTimestamp",
              "type": "uint64"
            },
            {
              "internalType": "bool",
              "name": "burned",
              "type": "bool"
            }
          ],
          "internalType": "struct IERC721A.TokenOwnership",
          "name": "",
          "type": "tuple"
        }
      ],
      "stateMutability": "view",
      "type": "function"
    },
    {
      "inputs": [
        {
          "internalType": "uint256[]",
          "name": "tokenIds",
          "type": "uint256[]"
        }
      ],
      "name": "explicitOwnershipsOf",
      "outputs": [
        {
          "components": [
            {
              "internalType": "address",
              "name": "addr",
              "type": "address"
            },
            {
              "internalType": "uint64",
              "name": "startTimestamp",
              "type": "uint64"
            },
            {
              "internalType": "bool",
              "name": "burned",
              "type": "bool"
            }
          ],
          "internalType": "struct IERC721A.TokenOwnership[]",
          "name": "",
          "type": "tuple[]"
        }
      ],
      "stateMutability": "view",
      "type": "function"
    },
    {
      "inputs": [
        {
          "internalType": "uint256",
          "name": "tokenId",
          "type": "uint256"
        }
      ],
      "name": "getApproved",
      "outputs": [
        {
          "internalType": "address",
          "name": "",
          "type": "address"
        }
      ],
      "stateMutability": "view",
      "type": "function"
    },
    {
      "inputs": [],
      "name": "getBaseURICount",
      "outputs": [
        {
          "internalType": "uint256",
          "name": "",
          "type": "uint256"
        }
      ],
      "stateMutability": "view",
      "type": "function"
    },
    {
      "inputs": [
        {
          "internalType": "uint256",
          "name": "_index",
          "type": "uint256"
        }
      ],
      "name": "getBatchIdAtIndex",
      "outputs": [
        {
          "internalType": "uint256",
          "name": "",
          "type": "uint256"
        }
      ],
      "stateMutability": "view",
      "type": "function"
    },
    {
      "inputs": [],
      "name": "getDefaultRoyaltyInfo",
      "outputs": [
        {
          "internalType": "address",
          "name": "",
          "type": "address"
        },
        {
          "internalType": "uint16",
          "name": "",
          "type": "uint16"
        }
      ],
      "stateMutability": "view",
      "type": "function"
    },
    {
      "inputs": [
        {
          "internalType": "uint256",
          "name": "_tokenId",
          "type": "uint256"
        }
      ],
      "name": "getRoyaltyInfoForToken",
      "outputs": [
        {
          "internalType": "address",
          "name": "",
          "type": "address"
        },
        {
          "internalType": "uint16",
          "name": "",
          "type": "uint16"
        }
      ],
      "stateMutability": "view",
      "type": "function"
    },
    {
      "inputs": [
        {
          "internalType": "address",
          "name": "owner",
          "type": "address"
        },
        {
          "internalType": "address",
          "name": "operator",
          "type": "address"
        }
      ],
      "name": "isApprovedForAll",
      "outputs": [
        {
          "internalType": "bool",
          "name": "",
          "type": "bool"
        }
      ],
      "stateMutability": "view",
      "type": "function"
    },
    {
      "inputs": [
        {
          "internalType": "address",
          "name": "_operator",
          "type": "address"
        },
        {
          "internalType": "uint256",
          "name": "_tokenId",
          "type": "uint256"
        }
      ],
      "name": "isApprovedOrOwner",
      "outputs": [
        {
          "internalType": "bool",
          "name": "isApprovedOrOwnerOf",
          "type": "bool"
        }
      ],
      "stateMutability": "view",
      "type": "function"
    },
    {
      "inputs": [
        {
          "internalType": "address",
          "name": "_to",
          "type": "address"
        },
        {
          "internalType": "string",
          "name": "_tokenURI",
          "type": "string"
        }
      ],
      "name": "mintTo",
      "outputs": [],
      "stateMutability": "nonpayable",
      "type": "function"
    },
    {
      "inputs": [
        {
          "internalType": "bytes[]",
          "name": "data",
          "type": "bytes[]"
        }
      ],
      "name": "multicall",
      "outputs": [
        {
          "internalType": "bytes[]",
          "name": "results",
          "type": "bytes[]"
        }
      ],
      "stateMutability": "nonpayable",
      "type": "function"
    },
    {
      "inputs": [],
      "name": "name",
      "outputs": [
        {
          "internalType": "string",
          "name": "",
          "type": "string"
        }
      ],
      "stateMutability": "view",
      "type": "function"
    },
    {
      "inputs": [],
      "name": "nextTokenIdToMint",
      "outputs": [
        {
          "internalType": "uint256",
          "name": "",
          "type": "uint256"
        }
      ],
      "stateMutability": "view",
      "type": "function"
    },
    {
      "inputs": [],
      "name": "owner",
      "outputs": [
        {
          "internalType": "address",
          "name": "",
          "type": "address"
        }
      ],
      "stateMutability": "view",
      "type": "function"
    },
    {
      "inputs": [
        {
          "internalType": "uint256",
          "name": "tokenId",
          "type": "uint256"
        }
      ],
      "name": "ownerOf",
      "outputs": [
        {
          "internalType": "address",
          "name": "",
          "type": "address"
        }
      ],
      "stateMutability": "view",
      "type": "function"
    },
    {
      "inputs": [
        {
          "internalType": "uint256",
          "name": "tokenId",
          "type": "uint256"
        },
        {
          "internalType": "uint256",
          "name": "salePrice",
          "type": "uint256"
        }
      ],
      "name": "royaltyInfo",
      "outputs": [
        {
          "internalType": "address",
          "name": "receiver",
          "type": "address"
        },
        {
          "internalType": "uint256",
          "name": "royaltyAmount",
          "type": "uint256"
        }
      ],
      "stateMutability": "view",
      "type": "function"
    },
    {
      "inputs": [
        {
          "internalType": "address",
          "name": "from",
          "type": "address"
        },
        {
          "internalType": "address",
          "name": "to",
          "type": "address"
        },
        {
          "internalType": "uint256",
          "name": "tokenId",
          "type": "uint256"
        }
      ],
      "name": "safeTransferFrom",
      "outputs": [],
      "stateMutability": "nonpayable",
      "type": "function"
    },
    {
      "inputs": [
        {
          "internalType": "address",
          "name": "from",
          "type": "address"
        },
        {
          "internalType": "address",
          "name": "to",
          "type": "address"
        },
        {
          "internalType": "uint256",
          "name": "tokenId",
          "type": "uint256"
        },
        {
          "internalType": "bytes",
          "name": "_data",
          "type": "bytes"
        }
      ],
      "name": "safeTransferFrom",
      "outputs": [],
      "stateMutability": "nonpayable",
      "type": "function"
    },
    {
      "inputs": [
        {
          "internalType": "address",
          "name": "operator",
          "type": "address"
        },
        {
          "internalType": "bool",
          "name": "approved",
          "type": "bool"
        }
      ],
      "name": "setApprovalForAll",
      "outputs": [],
      "stateMutability": "nonpayable",
      "type": "function"
    },
    {
      "inputs": [
        {
          "internalType": "string",
          "name": "_uri",
          "type": "string"
        }
      ],
      "name": "setContractURI",
      "outputs": [],
      "stateMutability": "nonpayable",
      "type": "function"
    },
    {
      "inputs": [
        {
          "internalType": "address",
          "name": "_royaltyRecipient",
          "type": "address"
        },
        {
          "internalType": "uint256",
          "name": "_royaltyBps",
          "type": "uint256"
        }
      ],
      "name": "setDefaultRoyaltyInfo",
      "outputs": [],
      "stateMutability": "nonpayable",
      "type": "function"
    },
    {
      "inputs": [
        {
          "internalType": "address",
          "name": "_newOwner",
          "type": "address"
        }
      ],
      "name": "setOwner",
      "outputs": [],
      "stateMutability": "nonpayable",
      "type": "function"
    },
    {
      "inputs": [
        {
          "internalType": "uint256",
          "name": "_tokenId",
          "type": "uint256"
        },
        {
          "internalType": "address",
          "name": "_recipient",
          "type": "address"
        },
        {
          "internalType": "uint256",
          "name": "_bps",
          "type": "uint256"
        }
      ],
      "name": "setRoyaltyInfoForToken",
      "outputs": [],
      "stateMutability": "nonpayable",
      "type": "function"
    },
    {
      "inputs": [
        {
          "internalType": "bytes4",
          "name": "interfaceId",
          "type": "bytes4"
        }
      ],
      "name": "supportsInterface",
      "outputs": [
        {
          "internalType": "bool",
          "name": "",
          "type": "bool"
        }
      ],
      "stateMutability": "view",
      "type": "function"
    },
    {
      "inputs": [],
      "name": "symbol",
      "outputs": [
        {
          "internalType": "string",
          "name": "",
          "type": "string"
        }
      ],
      "stateMutability": "view",
      "type": "function"
    },
    {
      "inputs": [
        {
          "internalType": "uint256",
          "name": "_tokenId",
          "type": "uint256"
        }
      ],
      "name": "tokenURI",
      "outputs": [
        {
          "internalType": "string",
          "name": "",
          "type": "string"
        }
      ],
      "stateMutability": "view",
      "type": "function"
    },
    {
      "inputs": [
        {
          "internalType": "address",
          "name": "owner",
          "type": "address"
        }
      ],
      "name": "tokensOfOwner",
      "outputs": [
        {
          "internalType": "uint256[]",
          "name": "",
          "type": "uint256[]"
        }
      ],
      "stateMutability": "view",
      "type": "function"
    },
    {
      "inputs": [
        {
          "internalType": "address",
          "name": "owner",
          "type": "address"
        },
        {
          "internalType": "uint256",
          "name": "start",
          "type": "uint256"
        },
        {
          "internalType": "uint256",
          "name": "stop",
          "type": "uint256"
        }
      ],
      "name": "tokensOfOwnerIn",
      "outputs": [
        {
          "internalType": "uint256[]",
          "name": "",
          "type": "uint256[]"
        }
      ],
      "stateMutability": "view",
      "type": "function"
    },
    {
      "inputs": [],
      "name": "totalSupply",
      "outputs": [
        {
          "internalType": "uint256",
          "name": "",
          "type": "uint256"
        }
      ],
      "stateMutability": "view",
      "type": "function"
    },
    {
      "inputs": [
        {
          "internalType": "address",
          "name": "from",
          "type": "address"
        },
        {
          "internalType": "address",
          "name": "to",
          "type": "address"
        },
        {
          "internalType": "uint256",
          "name": "tokenId",
          "type": "uint256"
        }
      ],
      "name": "transferFrom",
      "outputs": [],
      "stateMutability": "nonpayable",
      "type": "function"
    }
  ],
  "bytecode": "0x60806040523480156200001157600080fd5b50604051620034213803806200342183398101604081905262000034916200024e565b8383600262000044838262000390565b50600362000053828262000390565b50506000805550620000658562000085565b6200007a826001600160801b038316620000d7565b50505050506200045c565b600980546001600160a01b038381166001600160a01b0319831681179093556040519116919082907f8292fce18fa69edf4db7b94ea2e58241df0ae57f97e0a6c9b29067028bf92d7690600090a35050565b6127108111156200010a57604051630a4930ad60e31b815261271060048201526024810182905260440160405180910390fd5b600a80546001600160a01b0384166001600160b01b03199091168117600160a01b61ffff851602179091556040518281527f90d7ec04bcb8978719414f82e52e4cb651db41d0e6f8cea6118c2191e6183adb9060200160405180910390a25050565b80516001600160a01b03811681146200018457600080fd5b919050565b634e487b7160e01b600052604160045260246000fd5b600082601f830112620001b157600080fd5b81516001600160401b0380821115620001ce57620001ce62000189565b604051601f8301601f19908116603f01168101908282118183101715620001f957620001f962000189565b816040528381526020925086838588010111156200021657600080fd5b600091505b838210156200023a57858201830151818301840152908201906200021b565b600093810190920192909252949350505050565b600080600080600060a086880312156200026757600080fd5b62000272866200016c565b60208701519095506001600160401b03808211156200029057600080fd5b6200029e89838a016200019f565b95506040880151915080821115620002b557600080fd5b50620002c4888289016200019f565b935050620002d5606087016200016c565b60808701519092506001600160801b0381168114620002f357600080fd5b809150509295509295909350565b600181811c908216806200031657607f821691505b6020821081036200033757634e487b7160e01b600052602260045260246000fd5b50919050565b601f8211156200038b57600081815260208120601f850160051c81016020861015620003665750805b601f850160051c820191505b81811015620003875782815560010162000372565b5050505b505050565b81516001600160401b03811115620003ac57620003ac62000189565b620003c481620003bd845462000301565b846200033d565b602080601f831160018114620003fc5760008415620003e35750858301515b600019600386901b1c1916600185901b17855562000387565b600085815260208120601f198616915b828110156200042d578886015182559484019460019091019084016200040c565b50858210156200044c5787850151600019600388901b60f8161c191681555b5050505050600190811b01905550565b612fb5806200046c6000396000f3fe608060405234801561001057600080fd5b506004361061025b5760003560e01c806363b45e2d116101455780639bcf7a15116100bd578063b88d4fde1161008c578063c87b56dd11610071578063c87b56dd14610574578063e8a3d48514610587578063e985e9c51461058f57600080fd5b8063b88d4fde14610541578063c23dc68f1461055457600080fd5b80639bcf7a15146104dd578063a22cb465146104f0578063ac9650d814610503578063b24f2d391461052357600080fd5b80638462151c11610114578063938e3d7b116100f9578063938e3d7b146104af57806395d89b41146104c257806399a2557a146104ca57600080fd5b80638462151c1461047e5780638da5cb5b1461049e57600080fd5b806363b45e2d1461042d57806370a0823114610435578063754a81d914610448578063830405321461045b57600080fd5b80632a55205a116101d8578063430c2081116101a75780635bbb21771161018c5780635bbb2177146103e7578063600dd5ea146104075780636352211e1461041a57600080fd5b8063430c20811461039f5780634cc157df146103b257600080fd5b80632a55205a1461033f5780633b1475a71461037157806342842e0e1461037957806342966c681461038c57600080fd5b8063095ea7b31161022f57806318160ddd1161021457806318160ddd1461030357806323b872dd146103195780632419f51b1461032c57600080fd5b8063095ea7b3146102dd57806313af4035146102f057600080fd5b806275a3171461026057806301ffc9a71461027557806306fdde031461029d578063081812fc146102b2575b600080fd5b61027361026e366004612648565b6105cb565b005b6102886102833660046126ac565b610655565b60405190151581526020015b60405180910390f35b6102a5610726565b6040516102949190612719565b6102c56102c036600461272c565b6107b8565b6040516001600160a01b039091168152602001610294565b6102736102eb366004612745565b610815565b6102736102fe36600461276f565b6108cd565b600154600054035b604051908152602001610294565b61027361032736600461278a565b610917565b61030b61033a36600461272c565b610922565b61035261034d3660046127c6565b61098d565b604080516001600160a01b039093168352602083019190915201610294565b60005461030b565b61027361038736600461278a565b6109ca565b61027361039a36600461272c565b6109e5565b6102886103ad366004612745565b6109f0565b6103c56103c036600461272c565b610a6f565b604080516001600160a01b03909316835261ffff909116602083015201610294565b6103fa6103f53660046127e8565b610ada565b604051610294919061288e565b610273610415366004612745565b610ba1565b6102c561042836600461272c565b610bd0565b600c5461030b565b61030b61044336600461276f565b610be2565b6102736104563660046128f9565b610c4a565b61028861046936600461272c565b600e6020526000908152604090205460ff1681565b61049161048c36600461276f565b610cc4565b6040516102949190612977565b6009546001600160a01b03166102c5565b6102736104bd3660046129af565b610e03565b6102a5610e4a565b6104916104d83660046129e4565b610e59565b6102736104eb366004612a17565b611027565b6102736104fe366004612a3c565b611057565b610516610511366004612a78565b611105565b6040516102949190612aed565b600a546001600160a01b03811690600160a01b900461ffff166103c5565b61027361054f366004612b4f565b611275565b61056761056236600461272c565b6112b9565b6040516102949190612bab565b6102a561058236600461272c565b611368565b6102a5611456565b61028861059d366004612be1565b6001600160a01b03918216600090815260076020908152604080832093909416825291909152205460ff1690565b6105d36114e4565b6106245760405162461bcd60e51b815260206004820152601760248201527f4e6f7420617574686f72697a656420746f206d696e742e00000000000000000060448201526064015b60405180910390fd5b61063661063060005490565b82611511565b61065182600160405180602001604052806000815250611591565b5050565b60007f01ffc9a7000000000000000000000000000000000000000000000000000000006001600160e01b0319831614806106b857507f80ac58cd000000000000000000000000000000000000000000000000000000006001600160e01b03198316145b806106ec57507f5b5e139f000000000000000000000000000000000000000000000000000000006001600160e01b03198316145b8061072057506001600160e01b031982167f2a55205a00000000000000000000000000000000000000000000000000000000145b92915050565b60606002805461073590612c14565b80601f016020809104026020016040519081016040528092919081815260200182805461076190612c14565b80156107ae5780601f10610783576101008083540402835291602001916107ae565b820191906000526020600020905b81548152906001019060200180831161079157829003601f168201915b5050505050905090565b60006107c38261179b565b6107f9576040517fcf4700e400000000000000000000000000000000000000000000000000000000815260040160405180910390fd5b506000908152600660205260409020546001600160a01b031690565b600061082082610bd0565b9050806001600160a01b0316836001600160a01b03160361086d576040517f943f7b8c00000000000000000000000000000000000000000000000000000000815260040160405180910390fd5b336001600160a01b038216146108bd57610887813361059d565b6108bd576040517fcfb3b94200000000000000000000000000000000000000000000000000000000815260040160405180910390fd5b6108c88383836117c6565b505050565b6108d56114e4565b61090b576040517f2d99739600000000000000000000000000000000000000000000000000000000815260040160405180910390fd5b6109148161182f565b50565b6108c883838361188e565b600061092d600c5490565b8210610968576040517f0f2624ee0000000000000000000000000000000000000000000000000000000081526004810183905260240161061b565b600c828154811061097b5761097b612c4e565b90600052602060002001549050919050565b60008060008061099c86610a6f565b90945084925061ffff1690506127106109b58287612c7a565b6109bf9190612ca7565b925050509250929050565b6108c883838360405180602001604052806000815250611275565b610914816001611ab0565b6000806109fc83610bd0565b9050806001600160a01b0316846001600160a01b03161480610a4357506001600160a01b0380821660009081526007602090815260408083209388168352929052205460ff165b80610a675750836001600160a01b0316610a5c846107b8565b6001600160a01b0316145b949350505050565b6000818152600b60209081526040808320815180830190925280546001600160a01b031680835260019091015492820192909252829115610ab65780516020820151610ad0565b600a546001600160a01b03811690600160a01b900461ffff165b9250925050915091565b805160609060008167ffffffffffffffff811115610afa57610afa612591565b604051908082528060200260200182016040528015610b4557816020015b6040805160608101825260008082526020808301829052928201528252600019909201910181610b185790505b50905060005b828114610b9957610b74858281518110610b6757610b67612c4e565b60200260200101516112b9565b828281518110610b8657610b86612c4e565b6020908102919091010152600101610b4b565b509392505050565b610ba96114e4565b610bc657604051636fae358160e11b815260040160405180910390fd5b6106518282611ca6565b6000610bdb82611d4e565b5192915050565b60006001600160a01b038216610c24576040517f8f4eb60400000000000000000000000000000000000000000000000000000000815260040160405180910390fd5b506001600160a01b031660009081526005602052604090205467ffffffffffffffff1690565b610c526114e4565b610c9e5760405162461bcd60e51b815260206004820152601760248201527f4e6f7420617574686f72697a656420746f206d696e742e000000000000000000604482015260640161061b565b610cb1610caa60005490565b8484611e83565b5050610cbe848483611591565b50505050565b60606000806000610cd485610be2565b905060008167ffffffffffffffff811115610cf157610cf1612591565b604051908082528060200260200182016040528015610d1a578160200160208202803683370190505b50604080516060810182526000808252602082018190529181018290529192505b838614610df757600081815260046020908152604091829020825160608101845290546001600160a01b0381168252600160a01b810467ffffffffffffffff1692820192909252600160e01b90910460ff1615159181018290529250610def5781516001600160a01b031615610db057815194505b876001600160a01b0316856001600160a01b031603610def5780838780600101985081518110610de257610de2612c4e565b6020026020010181815250505b600101610d3b565b50909695505050505050565b610e0b6114e4565b610e41576040517f9f7f092500000000000000000000000000000000000000000000000000000000815260040160405180910390fd5b61091481611ee7565b60606003805461073590612c14565b6060818310610e94576040517f32c1995a00000000000000000000000000000000000000000000000000000000815260040160405180910390fd5b6000805480841115610ea4578093505b6000610eaf87610be2565b905084861015610ece5785850381811015610ec8578091505b50610ed2565b5060005b60008167ffffffffffffffff811115610eed57610eed612591565b604051908082528060200260200182016040528015610f16578160200160208202803683370190505b50905081600003610f2c57935061102092505050565b6000610f37886112b9565b905060008160400151610f48575080515b885b888114158015610f5a5750848714155b1561101457600081815260046020908152604091829020825160608101845290546001600160a01b0381168252600160a01b810467ffffffffffffffff1692820192909252600160e01b90910460ff161515918101829052935061100c5782516001600160a01b031615610fcd57825191505b8a6001600160a01b0316826001600160a01b03160361100c5780848880600101995081518110610fff57610fff612c4e565b6020026020010181815250505b600101610f4a565b50505092835250909150505b9392505050565b61102f6114e4565b61104c57604051636fae358160e11b815260040160405180910390fd5b6108c8838383611fc3565b336001600160a01b03831603611099576040517fb06307db00000000000000000000000000000000000000000000000000000000815260040160405180910390fd5b3360008181526007602090815260408083206001600160a01b03871680855290835292819020805460ff191686151590811790915590519081529192917f17307eab39ab6107e8899845ad3d59bd9653f200f220920489ca2b5937696c31910160405180910390a35050565b60608167ffffffffffffffff81111561112057611120612591565b60405190808252806020026020018201604052801561115357816020015b606081526020019060019003908161113e5790505b509050336000805b8481101561126c5781156111da576111b83087878481811061117f5761117f612c4e565b90506020028101906111919190612cbb565b866040516020016111a493929190612d09565b604051602081830303815290604052612083565b8482815181106111ca576111ca612c4e565b602002602001018190525061125a565b61123c308787848181106111f0576111f0612c4e565b90506020028101906112029190612cbb565b8080601f01602080910402602001604051908101604052809392919081815260200183838082843760009201919091525061208392505050565b84828151811061124e5761124e612c4e565b60200260200101819052505b8061126481612d2f565b91505061115b565b50505092915050565b61128084848461188e565b6001600160a01b0383163b15610cbe5761129c848484846120a8565b610cbe576040516368d2bf6b60e11b815260040160405180910390fd5b60408051606080820183526000808352602080840182905283850182905284519283018552818352820181905292810183905290915060005483106112fe5792915050565b50600082815260046020908152604091829020825160608101845290546001600160a01b0381168252600160a01b810467ffffffffffffffff1692820192909252600160e01b90910460ff16158015928201929092529061135f5792915050565b61102083611d4e565b6000818152600f602052604081208054606092919061138690612c14565b80601f01602080910402602001604051908101604052809291908181526020018280546113b290612c14565b80156113ff5780601f106113d4576101008083540402835291602001916113ff565b820191906000526020600020905b8154815290600101906020018083116113e257829003601f168201915b505050505090506000815111156114165792915050565b600061142184612193565b90508061142d8561232a565b60405160200161143e929190612d48565b60405160208183030381529060405292505050919050565b6008805461146390612c14565b80601f016020809104026020016040519081016040528092919081815260200182805461148f90612c14565b80156114dc5780601f106114b1576101008083540402835291602001916114dc565b820191906000526020600020905b8154815290600101906020018083116114bf57829003601f168201915b505050505081565b60006114f86009546001600160a01b031690565b6001600160a01b0316336001600160a01b031614905090565b6000828152600f60205260409020805461152a90612c14565b1590506115795760405162461bcd60e51b815260206004820152600f60248201527f55524920616c7265616479207365740000000000000000000000000000000000604482015260640161061b565b6000828152600f602052604090206108c88282612dc5565b6000546001600160a01b0384166115d4576040517f2e07630000000000000000000000000000000000000000000000000000000000815260040160405180910390fd5b8260000361160e576040517fb562e8dd00000000000000000000000000000000000000000000000000000000815260040160405180910390fd5b6001600160a01b038416600081815260056020908152604080832080547fffffffffffffffffffffffffffffffff00000000000000000000000000000000811667ffffffffffffffff8083168b0181169182176801000000000000000067ffffffffffffffff1990941690921783900481168b01811690920217909155858452600490925290912080546001600160e01b0319168317600160a01b42909316929092029190911790558190818501903b15611746575b60405182906001600160a01b038816906000907fddf252ad1be2c89b69c2b068fc378daa952ba7f163c4a11628f55a4df523b3ef908290a461170f60008784806001019550876120a8565b61172c576040516368d2bf6b60e11b815260040160405180910390fd5b8082106116c457826000541461174157600080fd5b61178b565b5b6040516001830192906001600160a01b038816906000907fddf252ad1be2c89b69c2b068fc378daa952ba7f163c4a11628f55a4df523b3ef908290a4808210611747575b506000908155610cbe9085838684565b6000805482108015610720575050600090815260046020526040902054600160e01b900460ff161590565b600082815260066020526040808220805473ffffffffffffffffffffffffffffffffffffffff19166001600160a01b0387811691821790925591518593918516917f8c5be1e5ebec7d5bd14f71427d1e84f3dd0314c0f7b2291e5b200ac8c7c3b92591a4505050565b600980546001600160a01b0383811673ffffffffffffffffffffffffffffffffffffffff19831681179093556040519116919082907f8292fce18fa69edf4db7b94ea2e58241df0ae57f97e0a6c9b29067028bf92d7690600090a35050565b600061189982611d4e565b9050836001600160a01b031681600001516001600160a01b0316146118ea576040517fa114810000000000000000000000000000000000000000000000000000000000815260040160405180910390fd5b6000336001600160a01b03861614806119085750611908853361059d565b80611923575033611918846107b8565b6001600160a01b0316145b90508061194357604051632ce44b5f60e11b815260040160405180910390fd5b6001600160a01b038416611983576040517fea553b3400000000000000000000000000000000000000000000000000000000815260040160405180910390fd5b61198f600084876117c6565b6001600160a01b038581166000908152600560209081526040808320805467ffffffffffffffff1980821667ffffffffffffffff92831660001901831617909255898616808652838620805493841693831660019081018416949094179055898652600490945282852080546001600160e01b031916909417600160a01b42909216919091021783558701808452922080549193909116611a65576000548214611a65578054602086015167ffffffffffffffff16600160a01b026001600160e01b03199091166001600160a01b038a16171781555b50505082846001600160a01b0316866001600160a01b03167fddf252ad1be2c89b69c2b068fc378daa952ba7f163c4a11628f55a4df523b3ef60405160405180910390a45050505050565b6000611abb83611d4e565b80519091508215611b21576000336001600160a01b0383161480611ae45750611ae4823361059d565b80611aff575033611af4866107b8565b6001600160a01b0316145b905080611b1f57604051632ce44b5f60e11b815260040160405180910390fd5b505b611b2d600085836117c6565b6001600160a01b038082166000818152600560209081526040808320805470010000000000000000000000000000000060001967ffffffffffffffff80841691909101811667ffffffffffffffff19841681178390048216600190810183169093027fffffffffffffffff0000000000000000ffffffffffffffff0000000000000000909416179290921783558b8652600490945282852080547fffffff00ffffffffffffffffffffffffffffffffffffffffffffffffffffffff42909316600160a01b026001600160e01b03199091169097179690961716600160e01b178555918901808452922080549194909116611c5c576000548214611c5c578054602087015167ffffffffffffffff16600160a01b026001600160e01b03199091166001600160a01b038716171781555b5050604051869250600091506001600160a01b038416907fddf252ad1be2c89b69c2b068fc378daa952ba7f163c4a11628f55a4df523b3ef908390a4505060018054810190555050565b612710811115611cd457604051630a4930ad60e31b815261271060048201526024810182905260440161061b565b600a80546001600160a01b0384167fffffffffffffffffffff000000000000000000000000000000000000000000009091168117600160a01b61ffff851602179091556040518281527f90d7ec04bcb8978719414f82e52e4cb651db41d0e6f8cea6118c2191e6183adb9060200160405180910390a25050565b604080516060810182526000808252602082018190529181019190915281600054811015611e5157600081815260046020908152604091829020825160608101845290546001600160a01b0381168252600160a01b810467ffffffffffffffff1692820192909252600160e01b90910460ff16151591810182905290611e4f5780516001600160a01b031615611de5579392505050565b5060001901600081815260046020908152604091829020825160608101845290546001600160a01b038116808352600160a01b820467ffffffffffffffff1693830193909352600160e01b900460ff1615159281019290925215611e4a579392505050565b611de5565b505b6040517fdf2d9b4200000000000000000000000000000000000000000000000000000000815260040160405180910390fd5b600080611e908486612e85565b600c8054600181019091557fdf6966c971051c3d54ec59162606531493a51404a002842f56009d7e5cf4a8c7018190556000818152600d60205260409020909250829150611ede8482612dc5565b50935093915050565b600060088054611ef690612c14565b80601f0160208091040260200160405190810160405280929190818152602001828054611f2290612c14565b8015611f6f5780601f10611f4457610100808354040283529160200191611f6f565b820191906000526020600020905b815481529060010190602001808311611f5257829003601f168201915b505050505090508160089081611f859190612dc5565b507fc9c7c3fe08b88b4df9d4d47ef47d2c43d55c025a0ba88ca442580ed9e7348a168183604051611fb7929190612e98565b60405180910390a15050565b612710811115611ff157604051630a4930ad60e31b815261271060048201526024810182905260440161061b565b6040805180820182526001600160a01b0384811680835260208084018681526000898152600b83528690209451855473ffffffffffffffffffffffffffffffffffffffff1916941693909317845591516001909301929092559151838152909185917f7365cf4122f072a3365c20d54eff9b38d73c096c28e1892ec8f5b0e403a0f12d910160405180910390a3505050565b60606110208383604051806060016040528060278152602001612f596027913961245f565b604051630a85bd0160e11b81526000906001600160a01b0385169063150b7a02906120dd903390899088908890600401612ec6565b6020604051808303816000875af1925050508015612118575060408051601f3d908101601f1916820190925261211591810190612ef8565b60015b612176573d808015612146576040519150601f19603f3d011682016040523d82523d6000602084013e61214b565b606091505b50805160000361216e576040516368d2bf6b60e11b815260040160405180910390fd5b805181602001fd5b6001600160e01b031916630a85bd0160e11b149050949350505050565b606060006121a0600c5490565b90506000600c8054806020026020016040519081016040528092919081815260200182805480156121f057602002820191906000526020600020905b8154815260200190600101908083116121dc575b5050505050905060005b828110156122f45781818151811061221457612214612c4e565b60200260200101518510156122e257600d600083838151811061223957612239612c4e565b60200260200101518152602001908152602001600020805461225a90612c14565b80601f016020809104026020016040519081016040528092919081815260200182805461228690612c14565b80156122d35780601f106122a8576101008083540402835291602001916122d3565b820191906000526020600020905b8154815290600101906020018083116122b657829003601f168201915b50505050509350505050919050565b6122ed600182612e85565b90506121fa565b506040517f25e5fda40000000000000000000000000000000000000000000000000000000081526004810185905260240161061b565b60608160000361236d57505060408051808201909152600181527f3000000000000000000000000000000000000000000000000000000000000000602082015290565b8160005b8115612397578061238181612d2f565b91506123909050600a83612ca7565b9150612371565b60008167ffffffffffffffff8111156123b2576123b2612591565b6040519080825280601f01601f1916602001820160405280156123dc576020820181803683370190505b5090505b8415610a67576123f1600183612f15565b91506123fe600a86612f28565b612409906030612e85565b60f81b81838151811061241e5761241e612c4e565b60200101907effffffffffffffffffffffffffffffffffffffffffffffffffffffffffffff1916908160001a905350612458600a86612ca7565b94506123e0565b6060600080856001600160a01b03168560405161247c9190612f3c565b600060405180830381855af49150503d80600081146124b7576040519150601f19603f3d011682016040523d82523d6000602084013e6124bc565b606091505b50915091506124cd868383876124d7565b9695505050505050565b6060831561254657825160000361253f576001600160a01b0385163b61253f5760405162461bcd60e51b815260206004820152601d60248201527f416464726573733a2063616c6c20746f206e6f6e2d636f6e7472616374000000604482015260640161061b565b5081610a67565b610a67838381511561255b5781518083602001fd5b8060405162461bcd60e51b815260040161061b9190612719565b80356001600160a01b038116811461258c57600080fd5b919050565b634e487b7160e01b600052604160045260246000fd5b604051601f8201601f1916810167ffffffffffffffff811182821017156125d0576125d0612591565b604052919050565b600082601f8301126125e957600080fd5b813567ffffffffffffffff81111561260357612603612591565b612616601f8201601f19166020016125a7565b81815284602083860101111561262b57600080fd5b816020850160208301376000918101602001919091529392505050565b6000806040838503121561265b57600080fd5b61266483612575565b9150602083013567ffffffffffffffff81111561268057600080fd5b61268c858286016125d8565b9150509250929050565b6001600160e01b03198116811461091457600080fd5b6000602082840312156126be57600080fd5b813561102081612696565b60005b838110156126e45781810151838201526020016126cc565b50506000910152565b600081518084526127058160208601602086016126c9565b601f01601f19169290920160200192915050565b60208152600061102060208301846126ed565b60006020828403121561273e57600080fd5b5035919050565b6000806040838503121561275857600080fd5b61276183612575565b946020939093013593505050565b60006020828403121561278157600080fd5b61102082612575565b60008060006060848603121561279f57600080fd5b6127a884612575565b92506127b660208501612575565b9150604084013590509250925092565b600080604083850312156127d957600080fd5b50508035926020909101359150565b600060208083850312156127fb57600080fd5b823567ffffffffffffffff8082111561281357600080fd5b818501915085601f83011261282757600080fd5b81358181111561283957612839612591565b8060051b915061284a8483016125a7565b818152918301840191848101908884111561286457600080fd5b938501935b8385101561288257843582529385019390850190612869565b98975050505050505050565b6020808252825182820181905260009190848201906040850190845b81811015610df7576128e683855180516001600160a01b0316825260208082015167ffffffffffffffff16908301526040908101511515910152565b92840192606092909201916001016128aa565b6000806000806080858703121561290f57600080fd5b61291885612575565b935060208501359250604085013567ffffffffffffffff8082111561293c57600080fd5b612948888389016125d8565b9350606087013591508082111561295e57600080fd5b5061296b878288016125d8565b91505092959194509250565b6020808252825182820181905260009190848201906040850190845b81811015610df757835183529284019291840191600101612993565b6000602082840312156129c157600080fd5b813567ffffffffffffffff8111156129d857600080fd5b610a67848285016125d8565b6000806000606084860312156129f957600080fd5b612a0284612575565b95602085013595506040909401359392505050565b600080600060608486031215612a2c57600080fd5b833592506127b660208501612575565b60008060408385031215612a4f57600080fd5b612a5883612575565b915060208301358015158114612a6d57600080fd5b809150509250929050565b60008060208385031215612a8b57600080fd5b823567ffffffffffffffff80821115612aa357600080fd5b818501915085601f830112612ab757600080fd5b813581811115612ac657600080fd5b8660208260051b8501011115612adb57600080fd5b60209290920196919550909350505050565b6000602080830181845280855180835260408601915060408160051b870101925083870160005b82811015612b4257603f19888603018452612b308583516126ed565b94509285019290850190600101612b14565b5092979650505050505050565b60008060008060808587031215612b6557600080fd5b612b6e85612575565b9350612b7c60208601612575565b925060408501359150606085013567ffffffffffffffff811115612b9f57600080fd5b61296b878288016125d8565b81516001600160a01b0316815260208083015167ffffffffffffffff169082015260408083015115159082015260608101610720565b60008060408385031215612bf457600080fd5b612bfd83612575565b9150612c0b60208401612575565b90509250929050565b600181811c90821680612c2857607f821691505b602082108103612c4857634e487b7160e01b600052602260045260246000fd5b50919050565b634e487b7160e01b600052603260045260246000fd5b634e487b7160e01b600052601160045260246000fd5b808202811582820484141761072057610720612c64565b634e487b7160e01b600052601260045260246000fd5b600082612cb657612cb6612c91565b500490565b6000808335601e19843603018112612cd257600080fd5b83018035915067ffffffffffffffff821115612ced57600080fd5b602001915036819003821315612d0257600080fd5b9250929050565b8284823760609190911b6bffffffffffffffffffffffff19169101908152601401919050565b600060018201612d4157612d41612c64565b5060010190565b60008351612d5a8184602088016126c9565b835190830190612d6e8183602088016126c9565b01949350505050565b601f8211156108c857600081815260208120601f850160051c81016020861015612d9e5750805b601f850160051c820191505b81811015612dbd57828155600101612daa565b505050505050565b815167ffffffffffffffff811115612ddf57612ddf612591565b612df381612ded8454612c14565b84612d77565b602080601f831160018114612e285760008415612e105750858301515b600019600386901b1c1916600185901b178555612dbd565b600085815260208120601f198616915b82811015612e5757888601518255948401946001909101908401612e38565b5085821015612e755787850151600019600388901b60f8161c191681555b5050505050600190811b01905550565b8082018082111561072057610720612c64565b604081526000612eab60408301856126ed565b8281036020840152612ebd81856126ed565b95945050505050565b60006001600160a01b038087168352808616602084015250836040830152608060608301526124cd60808301846126ed565b600060208284031215612f0a57600080fd5b815161102081612696565b8181038181111561072057610720612c64565b600082612f3757612f37612c91565b500690565b60008251612f4e8184602087016126c9565b919091019291505056fe416464726573733a206c6f772d6c6576656c2064656c65676174652063616c6c206661696c6564a26469706673582212209c0eb7f09c27daf793c2c04d1f60313906e0a0ce3b2aedc0c3cfff2325aaa51164736f6c63430008150033",
  "linkReferences": {},
  "deployedLinkReferences": {}
}