{
  "_format": "hh-sol-artifact-1",
  "contractName": "ChainlinkFunctionsConsumer",
  "sourceName": "contracts/ChainlinkFunctionsConsumer.sol",
  "abi": [
    {
      "inputs": [],
      "stateMutability": "nonpayable",
      "type": "constructor"
    },
    {
      "inputs": [],
      "name": "EmptyArgs",
      "type": "error"
    },
    {
      "inputs": [],
      "name": "EmptySecrets",
      "type": "error"
    },
    {
      "inputs": [],
      "name": "EmptySource",
      "type": "error"
    },
    {
      "inputs": [],
      "name": "NoInlineSecrets",
      "type": "error"
    },
    {
      "inputs": [],
      "name": "OnlyRouterCanFulfill",
      "type": "error"
    },
    {
      "anonymous": false,
      "inputs": [
        {
          "indexed": true,
          "internalType": "address",
          "name": "from",
          "type": "address"
        },
        {
          "indexed": true,
          "internalType": "address",
          "name": "to",
          "type": "address"
        }
      ],
      "name": "OwnershipTransferRequested",
      "type": "event"
    },
    {
      "anonymous": false,
      "inputs": [
        {
          "indexed": true,
          "internalType": "address",
          "name": "from",
          "type": "address"
        },
        {
          "indexed": true,
          "internalType": "address",
          "name": "to",
          "type": "address"
        }
      ],
      "name": "OwnershipTransferred",
      "type": "event"
    },
    {
      "anonymous": false,
      "inputs": [
        {
          "indexed": true,
          "internalType": "bytes32",
          "name": "id",
          "type": "bytes32"
        }
      ],
      "name": "RequestFulfilled",
      "type": "event"
    },
    {
      "anonymous": false,
      "inputs": [
        {
          "indexed": true,
          "internalType": "bytes32",
          "name": "id",
          "type": "bytes32"
        }
      ],
      "name": "RequestSent",
      "type": "event"
    },
    {
      "anonymous": false,
      "inputs": [
        {
          "indexed": true,
          "internalType": "bytes32",
          "name": "requestId",
          "type": "bytes32"
        },
        {
          "indexed": false,
          "internalType": "bytes",
          "name": "response",
          "type": "bytes"
        },
        {
          "indexed": false,
          "internalType": "bytes",
          "name": "err",
          "type": "bytes"
        }
      ],
      "name": "Response",
      "type": "event"
    },
    {
      "inputs": [],
      "name": "acceptOwnership",
      "outputs": [],
      "stateMutability": "nonpayable",
      "type": "function"
    },
    {
      "inputs": [
        {
          "internalType": "bytes32",
          "name": "requestId",
          "type": "bytes32"
        },
        {
          "internalType": "bytes",
          "name": "response",
          "type": "bytes"
        },
        {
          "internalType": "bytes",
          "name": "err",
          "type": "bytes"
        }
      ],
      "name": "handleOracleFulfillment",
      "outputs": [],
      "stateMutability": "nonpayable",
      "type": "function"
    },
    {
      "inputs": [],
      "name": "owner",
      "outputs": [
        {
          "internalType": "address",
          "name": "",
          "type": "address"
        }
      ],
      "stateMutability": "view",
      "type": "function"
    },
    {
      "inputs": [],
      "name": "s_lastError",
      "outputs": [
        {
          "internalType": "bytes",
          "name": "",
          "type": "bytes"
        }
      ],
      "stateMutability": "view",
      "type": "function"
    },
    {
      "inputs": [],
      "name": "s_lastRequestId",
      "outputs": [
        {
          "internalType": "bytes32",
          "name": "",
          "type": "bytes32"
        }
      ],
      "stateMutability": "view",
      "type": "function"
    },
    {
      "inputs": [],
      "name": "s_lastResponse",
      "outputs": [
        {
          "internalType": "bytes",
          "name": "",
          "type": "bytes"
        }
      ],
      "stateMutability": "view",
      "type": "function"
    },
    {
      "inputs": [
        {
          "internalType": "string",
          "name": "source",
          "type": "string"
        },
        {
          "internalType": "bytes",
          "name": "encryptedSecretsUrls",
          "type": "bytes"
        },
        {
          "internalType": "uint8",
          "name": "donHostedSecretsSlotID",
          "type": "uint8"
        },
        {
          "internalType": "uint64",
          "name": "donHostedSecretsVersion",
          "type": "uint64"
        },
        {
          "internalType": "string[]",
          "name": "args",
          "type": "string[]"
        },
        {
          "internalType": "bytes[]",
          "name": "bytesArgs",
          "type": "bytes[]"
        },
        {
          "internalType": "uint64",
          "name": "subscriptionId",
          "type": "uint64"
        },
        {
          "internalType": "uint32",
          "name": "callbackGasLimit",
          "type": "uint32"
        }
      ],
      "name": "sendRequest",
      "outputs": [
        {
          "internalType": "bytes32",
          "name": "requestId",
          "type": "bytes32"
        }
      ],
      "stateMutability": "nonpayable",
      "type": "function"
    },
    {
      "inputs": [
        {
          "internalType": "bytes",
          "name": "request",
          "type": "bytes"
        },
        {
          "internalType": "uint64",
          "name": "subscriptionId",
          "type": "uint64"
        },
        {
          "internalType": "uint32",
          "name": "callbackGasLimit",
          "type": "uint32"
        }
      ],
      "name": "sendRequestCBOR",
      "outputs": [
        {
          "internalType": "bytes32",
          "name": "requestId",
          "type": "bytes32"
        }
      ],
      "stateMutability": "nonpayable",
      "type": "function"
    },
    {
      "inputs": [
        {
          "internalType": "address",
          "name": "to",
          "type": "address"
        }
      ],
      "name": "transferOwnership",
      "outputs": [],
      "stateMutability": "nonpayable",
      "type": "function"
    }
  ],
  "bytecode": "0x60a0604052600580546001600160a01b03191673b83e47c2bc239b3bf370bc41e1459a34b41238d01790557f66756e2d657468657265756d2d7365706f6c69612d31000000000000000000006006556007805463ffffffff1916620493e017905534801561006c57600080fd5b506005546001600160a01b031660805233806000816100d25760405162461bcd60e51b815260206004820152601860248201527f43616e6e6f7420736574206f776e657220746f207a65726f000000000000000060448201526064015b60405180910390fd5b600080546001600160a01b0319166001600160a01b0384811691909117909155811615610102576101028161010a565b5050506101b3565b336001600160a01b038216036101625760405162461bcd60e51b815260206004820152601760248201527f43616e6e6f74207472616e7366657220746f2073656c6600000000000000000060448201526064016100c9565b600180546001600160a01b0319166001600160a01b0383811691821790925560008054604051929316917fed8889f560326eb138920d842192f0eb3dd22b4f139c87a2c57538e05bae12789190a350565b6080516119d1620001d6600039600081816101610152610a5901526119d16000f3fe608060405234801561001057600080fd5b50600436106100a35760003560e01c806379ba509711610076578063b1e217491161005b578063b1e2174914610127578063d5f226bc14610130578063f2fde38b1461014357600080fd5b806379ba5097146101045780638da5cb5b1461010c57600080fd5b80630ca76175146100a85780633944ea3a146100bd5780634b0795a8146100db5780634d533ad6146100e3575b600080fd5b6100bb6100b63660046111e8565b610156565b005b6100c56101f3565b6040516100d2919061129b565b60405180910390f35b6100c5610281565b6100f66100f1366004611424565b61028e565b6040519081526020016100d2565b6100bb61035f565b6000546040516001600160a01b0390911681526020016100d2565b6100f660025481565b6100f661013e366004611514565b610422565b6100bb610151366004611572565b610447565b336001600160a01b037f000000000000000000000000000000000000000000000000000000000000000016146101b8576040517fc6829f8300000000000000000000000000000000000000000000000000000000815260040160405180910390fd5b6101c383838361045b565b60405183907f85e1543bf2f84fe80c6badbce3648c8539ad1df4d2b3d822938ca0538be727e690600090a2505050565b600380546102009061159b565b80601f016020809104026020016040519081016040528092919081815260200182805461022c9061159b565b80156102795780601f1061024e57610100808354040283529160200191610279565b820191906000526020600020905b81548152906001019060200180831161025c57829003601f168201915b505050505081565b600480546102009061159b565b6000610298610507565b6102d96040805160e0810190915280600081526020016000815260200160008152602001606081526020016060815260200160608152602001606081525090565b6102e3818b610563565b8851156102f9576102f4818a610574565b610314565b67ffffffffffffffff871615610314576103148189896105be565b855115610325576103258187610681565b8451156103365761033681866106ab565b61034c610342826106d5565b8585600654610a54565b60028190559a9950505050505050505050565b6001546001600160a01b031633146103be5760405162461bcd60e51b815260206004820152601660248201527f4d7573742062652070726f706f736564206f776e65720000000000000000000060448201526064015b60405180910390fd5b600080543373ffffffffffffffffffffffffffffffffffffffff19808316821784556001805490911690556040516001600160a01b0390921692909183917f8be0079c531659141344cd1fd0a4f28419497f9722a3daafe3b4186f6b6457e091a350565b600061042c610507565b61043a848484600654610a54565b6002819055949350505050565b61044f610507565b61045881610b26565b50565b82600254146104ac5760405162461bcd60e51b815260206004820152601360248201527f52657175657374204944206d69736d617463680000000000000000000000000060448201526064016103b5565b60036104b88382611623565b5060046104c58282611623565b50827f7873807bf6ddc50401cd3d29bbe0decee23fd4d68d273f4b5eb83cded4d2f172600360046040516104fa929190611760565b60405180910390a2505050565b6000546001600160a01b031633146105615760405162461bcd60e51b815260206004820152601660248201527f4f6e6c792063616c6c61626c65206279206f776e65720000000000000000000060448201526064016103b5565b565b6105708260008084610bdc565b5050565b80516000036105af576040517fe889636f00000000000000000000000000000000000000000000000000000000815260040160405180910390fd5b60016020830152608090910152565b60006105cb610100610c73565b90506106156040518060400160405280600681526020017f736c6f744944000000000000000000000000000000000000000000000000000081525082610c9490919063ffffffff16565b6106228160ff8516610cb2565b60408051808201909152600781527f76657273696f6e000000000000000000000000000000000000000000000000006020820152610661908290610c94565b61066b8183610cb2565b6002602085015251516080909301929092525050565b80516000036106a35760405163fe936cb760e01b815260040160405180910390fd5b60a090910152565b80516000036106cd5760405163fe936cb760e01b815260040160405180910390fd5b60c090910152565b606060006106e4610100610c73565b905061072e6040518060400160405280600c81526020017f636f64654c6f636174696f6e000000000000000000000000000000000000000081525082610c9490919063ffffffff16565b825161074c9060028111156107455761074561178e565b8290610cbe565b60408051808201909152600881527f6c616e6775616765000000000000000000000000000000000000000000000000602082015261078b908290610c94565b60408301516107a29080156107455761074561178e565b60408051808201909152600681527f736f75726365000000000000000000000000000000000000000000000000000060208201526107e1908290610c94565b60608301516107f1908290610c94565b60a0830151511561089e5760408051808201909152600481527f6172677300000000000000000000000000000000000000000000000000000000602082015261083b908290610c94565b61084481610cf7565b60005b8360a0015151811015610894576108848460a00151828151811061086d5761086d6117a4565b602002602001015183610c9490919063ffffffff16565b61088d816117d0565b9050610847565b5061089e81610d1b565b6080830151511561099f576000836020015160028111156108c1576108c161178e565b036108f8576040517fa80d31f700000000000000000000000000000000000000000000000000000000815260040160405180910390fd5b60408051808201909152600f81527f736563726574734c6f636174696f6e00000000000000000000000000000000006020820152610937908290610c94565b610950836020015160028111156107455761074561178e565b60408051808201909152600781527f7365637265747300000000000000000000000000000000000000000000000000602082015261098f908290610c94565b608083015161099f908290610d39565b60c08301515115610a4c5760408051808201909152600981527f627974657341726773000000000000000000000000000000000000000000000060208201526109e9908290610c94565b6109f281610cf7565b60005b8360c0015151811015610a4257610a328460c001518281518110610a1b57610a1b6117a4565b602002602001015183610d3990919063ffffffff16565b610a3b816117d0565b90506109f5565b50610a4c81610d1b565b515192915050565b6000807f00000000000000000000000000000000000000000000000000000000000000006001600160a01b031663461d27628688600188886040518663ffffffff1660e01b8152600401610aac9594939291906117e9565b6020604051808303816000875af1158015610acb573d6000803e3d6000fd5b505050506040513d601f19601f82011682018060405250810190610aef9190611833565b60405190915081907f1131472297a800fee664d1d89cfa8f7676ff07189ecc53f80bbb5f4969099db890600090a295945050505050565b336001600160a01b03821603610b7e5760405162461bcd60e51b815260206004820152601760248201527f43616e6e6f74207472616e7366657220746f2073656c6600000000000000000060448201526064016103b5565b6001805473ffffffffffffffffffffffffffffffffffffffff19166001600160a01b0383811691821790925560008054604051929316917fed8889f560326eb138920d842192f0eb3dd22b4f139c87a2c57538e05bae12789190a350565b8051600003610c17576040517f22ce3edd00000000000000000000000000000000000000000000000000000000815260040160405180910390fd5b83836002811115610c2a57610c2a61178e565b90816002811115610c3d57610c3d61178e565b90525060408401828015610c5357610c5361178e565b90818015610c6357610c6361178e565b9052506060909301929092525050565b610c7b6110fc565b8051610c879083610d46565b5060006020820152919050565b610ca18260038351610dc0565b8151610cad9082610ee7565b505050565b61057082600083610dc0565b8151610ccb9060c2610f0f565b506105708282604051602001610ce391815260200190565b604051602081830303815290604052610d39565b610d02816004610f78565b600181602001818151610d15919061184c565b90525050565b610d26816007610f78565b600181602001818151610d15919061185f565b610ca18260028351610dc0565b604080518082019091526060815260006020820152610d66602083611872565b15610d8e57610d76602083611872565b610d8190602061185f565b610d8b908361184c565b91505b602080840183905260405180855260008152908184010181811015610db257600080fd5b604052508290505b92915050565b60178167ffffffffffffffff1611610ded578251610de79060e0600585901b168317610f0f565b50505050565b60ff8167ffffffffffffffff1611610e2f578251610e16906018611fe0600586901b1617610f0f565b508251610de79067ffffffffffffffff83166001610f8f565b61ffff8167ffffffffffffffff1611610e72578251610e59906019611fe0600586901b1617610f0f565b508251610de79067ffffffffffffffff83166002610f8f565b63ffffffff8167ffffffffffffffff1611610eb7578251610e9e90601a611fe0600586901b1617610f0f565b508251610de79067ffffffffffffffff83166004610f8f565b8251610ece90601b611fe0600586901b1617610f0f565b508251610de79067ffffffffffffffff83166008610f8f565b604080518082019091526060815260006020820152610f0883838451611014565b9392505050565b6040805180820190915260608152600060208201528251516000610f3482600161184c565b905084602001518210610f5557610f5585610f50836002611894565b6110e5565b8451602083820101858153508051821115610f6e578181525b5093949350505050565b8151610cad90601f611fe0600585901b1617610f0f565b6040805180820190915260608152600060208201528351516000610fb3828561184c565b90508560200151811115610fd057610fd086610f50836002611894565b60006001610fe08661010061198f565b610fea919061185f565b90508651828101878319825116178152508051831115611008578281525b50959695505050505050565b604080518082019091526060815260006020820152825182111561103757600080fd5b8351516000611046848361184c565b905085602001518111156110635761106386610f50836002611894565b85518051838201602001916000918085111561107d578482525b505050602086015b602086106110bd578051825261109c60208361184c565b91506110a960208261184c565b90506110b660208761185f565b9550611085565b51815160001960208890036101000a0190811690199190911617905250849150509392505050565b81516110f18383610d46565b50610de78382610ee7565b6040518060400160405280611124604051806040016040528060608152602001600081525090565b8152602001600081525090565b634e487b7160e01b600052604160045260246000fd5b604051601f8201601f1916810167ffffffffffffffff8111828210171561117057611170611131565b604052919050565b600082601f83011261118957600080fd5b813567ffffffffffffffff8111156111a3576111a3611131565b6111b6601f8201601f1916602001611147565b8181528460208386010111156111cb57600080fd5b816020850160208301376000918101602001919091529392505050565b6000806000606084860312156111fd57600080fd5b83359250602084013567ffffffffffffffff8082111561121c57600080fd5b61122887838801611178565b9350604086013591508082111561123e57600080fd5b5061124b86828701611178565b9150509250925092565b6000815180845260005b8181101561127b5760208185018101518683018201520161125f565b506000602082860101526020601f19601f83011685010191505092915050565b602081526000610f086020830184611255565b803560ff811681146112bf57600080fd5b919050565b803567ffffffffffffffff811681146112bf57600080fd5b600067ffffffffffffffff8211156112f6576112f6611131565b5060051b60200190565b600082601f83011261131157600080fd5b81356020611326611321836112dc565b611147565b82815260059290921b8401810191818101908684111561134557600080fd5b8286015b8481101561138557803567ffffffffffffffff8111156113695760008081fd5b6113778986838b0101611178565b845250918301918301611349565b509695505050505050565b600082601f8301126113a157600080fd5b813560206113b1611321836112dc565b82815260059290921b840181019181810190868411156113d057600080fd5b8286015b8481101561138557803567ffffffffffffffff8111156113f45760008081fd5b6114028986838b0101611178565b8452509183019183016113d4565b803563ffffffff811681146112bf57600080fd5b600080600080600080600080610100898b03121561144157600080fd5b883567ffffffffffffffff8082111561145957600080fd5b6114658c838d01611178565b995060208b013591508082111561147b57600080fd5b6114878c838d01611178565b985061149560408c016112ae565b97506114a360608c016112c4565b965060808b01359150808211156114b957600080fd5b6114c58c838d01611300565b955060a08b01359150808211156114db57600080fd5b506114e88b828c01611390565b9350506114f760c08a016112c4565b915061150560e08a01611410565b90509295985092959890939650565b60008060006060848603121561152957600080fd5b833567ffffffffffffffff81111561154057600080fd5b61154c86828701611178565b93505061155b602085016112c4565b915061156960408501611410565b90509250925092565b60006020828403121561158457600080fd5b81356001600160a01b0381168114610f0857600080fd5b600181811c908216806115af57607f821691505b6020821081036115cf57634e487b7160e01b600052602260045260246000fd5b50919050565b601f821115610cad57600081815260208120601f850160051c810160208610156115fc5750805b601f850160051c820191505b8181101561161b57828155600101611608565b505050505050565b815167ffffffffffffffff81111561163d5761163d611131565b6116518161164b845461159b565b846115d5565b602080601f831160018114611686576000841561166e5750858301515b600019600386901b1c1916600185901b17855561161b565b600085815260208120601f198616915b828110156116b557888601518255948401946001909101908401611696565b50858210156116d35787850151600019600388901b60f8161c191681555b5050505050600190811b01905550565b600081546116f08161159b565b80855260206001838116801561170d576001811461172757611755565b60ff1985168884015283151560051b880183019550611755565b866000528260002060005b8581101561174d5781548a8201860152908301908401611732565b890184019650505b505050505092915050565b60408152600061177360408301856116e3565b828103602084015261178581856116e3565b95945050505050565b634e487b7160e01b600052602160045260246000fd5b634e487b7160e01b600052603260045260246000fd5b634e487b7160e01b600052601160045260246000fd5b6000600182016117e2576117e26117ba565b5060010190565b67ffffffffffffffff8616815260a06020820152600061180c60a0830187611255565b61ffff9590951660408301525063ffffffff92909216606083015260809091015292915050565b60006020828403121561184557600080fd5b5051919050565b80820180821115610dba57610dba6117ba565b81810381811115610dba57610dba6117ba565b60008261188f57634e487b7160e01b600052601260045260246000fd5b500690565b8082028115828204841417610dba57610dba6117ba565b600181815b808511156118e65781600019048211156118cc576118cc6117ba565b808516156118d957918102915b93841c93908002906118b0565b509250929050565b6000826118fd57506001610dba565b8161190a57506000610dba565b8160018114611920576002811461192a57611946565b6001915050610dba565b60ff84111561193b5761193b6117ba565b50506001821b610dba565b5060208310610133831016604e8410600b8410161715611969575081810a610dba565b61197383836118ab565b8060001904821115611987576119876117ba565b029392505050565b6000610f0883836118ee56fea264697066735822122029958a2ab4eae215fdffe45169159a4700a93425a0edb8a6bf260ef05cffd05664736f6c63430008150033",
  "linkReferences": {},
  "deployedLinkReferences": {}
}