{
  "_format": "hh-sol-artifact-1",
  "contractName": "ChainlinkFunctionsConsumer",
  "sourceName": "contracts/ChainlinkFunctionsConsumer.sol",
  "abi": [
    {
      "inputs": [],
      "stateMutability": "nonpayable",
      "type": "constructor"
    },
    {
      "inputs": [],
      "name": "EmptyArgs",
      "type": "error"
    },
    {
      "inputs": [],
      "name": "EmptySecrets",
      "type": "error"
    },
    {
      "inputs": [],
      "name": "EmptySource",
      "type": "error"
    },
    {
      "inputs": [],
      "name": "NoInlineSecrets",
      "type": "error"
    },
    {
      "inputs": [],
      "name": "OnlyRouterCanFulfill",
      "type": "error"
    },
    {
      "anonymous": false,
      "inputs": [
        {
          "indexed": true,
          "internalType": "address",
          "name": "from",
          "type": "address"
        },
        {
          "indexed": true,
          "internalType": "address",
          "name": "to",
          "type": "address"
        }
      ],
      "name": "OwnershipTransferRequested",
      "type": "event"
    },
    {
      "anonymous": false,
      "inputs": [
        {
          "indexed": true,
          "internalType": "address",
          "name": "from",
          "type": "address"
        },
        {
          "indexed": true,
          "internalType": "address",
          "name": "to",
          "type": "address"
        }
      ],
      "name": "OwnershipTransferred",
      "type": "event"
    },
    {
      "anonymous": false,
      "inputs": [
        {
          "indexed": true,
          "internalType": "bytes32",
          "name": "id",
          "type": "bytes32"
        }
      ],
      "name": "RequestFulfilled",
      "type": "event"
    },
    {
      "anonymous": false,
      "inputs": [
        {
          "indexed": true,
          "internalType": "bytes32",
          "name": "id",
          "type": "bytes32"
        }
      ],
      "name": "RequestSent",
      "type": "event"
    },
    {
      "anonymous": false,
      "inputs": [
        {
          "indexed": true,
          "internalType": "bytes32",
          "name": "requestId",
          "type": "bytes32"
        },
        {
          "indexed": false,
          "internalType": "bytes",
          "name": "response",
          "type": "bytes"
        },
        {
          "indexed": false,
          "internalType": "bytes",
          "name": "err",
          "type": "bytes"
        }
      ],
      "name": "Response",
      "type": "event"
    },
    {
      "inputs": [],
      "name": "acceptOwnership",
      "outputs": [],
      "stateMutability": "nonpayable",
      "type": "function"
    },
    {
      "inputs": [
        {
          "internalType": "bytes32",
          "name": "requestId",
          "type": "bytes32"
        },
        {
          "internalType": "bytes",
          "name": "response",
          "type": "bytes"
        },
        {
          "internalType": "bytes",
          "name": "err",
          "type": "bytes"
        }
      ],
      "name": "handleOracleFulfillment",
      "outputs": [],
      "stateMutability": "nonpayable",
      "type": "function"
    },
    {
      "inputs": [],
      "name": "owner",
      "outputs": [
        {
          "internalType": "address",
          "name": "",
          "type": "address"
        }
      ],
      "stateMutability": "view",
      "type": "function"
    },
    {
      "inputs": [],
      "name": "s_lastError",
      "outputs": [
        {
          "internalType": "bytes",
          "name": "",
          "type": "bytes"
        }
      ],
      "stateMutability": "view",
      "type": "function"
    },
    {
      "inputs": [],
      "name": "s_lastRequestId",
      "outputs": [
        {
          "internalType": "bytes32",
          "name": "",
          "type": "bytes32"
        }
      ],
      "stateMutability": "view",
      "type": "function"
    },
    {
      "inputs": [],
      "name": "s_lastResponse",
      "outputs": [
        {
          "internalType": "bytes",
          "name": "",
          "type": "bytes"
        }
      ],
      "stateMutability": "view",
      "type": "function"
    },
    {
      "inputs": [
        {
          "internalType": "string",
          "name": "source",
          "type": "string"
        },
        {
          "internalType": "bytes",
          "name": "encryptedSecretsUrls",
          "type": "bytes"
        },
        {
          "internalType": "uint8",
          "name": "donHostedSecretsSlotID",
          "type": "uint8"
        },
        {
          "internalType": "uint64",
          "name": "donHostedSecretsVersion",
          "type": "uint64"
        },
        {
          "internalType": "string[]",
          "name": "args",
          "type": "string[]"
        },
        {
          "internalType": "bytes[]",
          "name": "bytesArgs",
          "type": "bytes[]"
        },
        {
          "internalType": "uint64",
          "name": "subscriptionId",
          "type": "uint64"
        },
        {
          "internalType": "uint32",
          "name": "callbackGasLimit",
          "type": "uint32"
        }
      ],
      "name": "sendRequest",
      "outputs": [
        {
          "internalType": "bytes32",
          "name": "requestId",
          "type": "bytes32"
        }
      ],
      "stateMutability": "nonpayable",
      "type": "function"
    },
    {
      "inputs": [
        {
          "internalType": "bytes",
          "name": "request",
          "type": "bytes"
        },
        {
          "internalType": "uint64",
          "name": "subscriptionId",
          "type": "uint64"
        },
        {
          "internalType": "uint32",
          "name": "callbackGasLimit",
          "type": "uint32"
        }
      ],
      "name": "sendRequestCBOR",
      "outputs": [
        {
          "internalType": "bytes32",
          "name": "requestId",
          "type": "bytes32"
        }
      ],
      "stateMutability": "nonpayable",
      "type": "function"
    },
    {
      "inputs": [
        {
          "internalType": "address",
          "name": "to",
          "type": "address"
        }
      ],
      "name": "transferOwnership",
      "outputs": [],
      "stateMutability": "nonpayable",
      "type": "function"
    }
  ],
  "bytecode": "0x60a060405273b83e47c2bc239b3bf370bc41e1459a34b41238d0600560006101000a81548173ffffffffffffffffffffffffffffffffffffffff021916908373ffffffffffffffffffffffffffffffffffffffff1602179055507f66756e2d657468657265756d2d7365706f6c69612d310000000000000000000060001b600655620493e0600760006101000a81548163ffffffff021916908363ffffffff160217905550348015620000b157600080fd5b5033806000600560009054906101000a900473ffffffffffffffffffffffffffffffffffffffff168073ffffffffffffffffffffffffffffffffffffffff1660808173ffffffffffffffffffffffffffffffffffffffff168152505050600073ffffffffffffffffffffffffffffffffffffffff168273ffffffffffffffffffffffffffffffffffffffff160362000180576040517f08c379a00000000000000000000000000000000000000000000000000000000081526004016200017790620003a0565b60405180910390fd5b816000806101000a81548173ffffffffffffffffffffffffffffffffffffffff021916908373ffffffffffffffffffffffffffffffffffffffff160217905550600073ffffffffffffffffffffffffffffffffffffffff168173ffffffffffffffffffffffffffffffffffffffff1614620002075762000206816200021060201b60201c565b5b50505062000434565b3373ffffffffffffffffffffffffffffffffffffffff168173ffffffffffffffffffffffffffffffffffffffff160362000281576040517f08c379a0000000000000000000000000000000000000000000000000000000008152600401620002789062000412565b60405180910390fd5b80600160006101000a81548173ffffffffffffffffffffffffffffffffffffffff021916908373ffffffffffffffffffffffffffffffffffffffff1602179055508073ffffffffffffffffffffffffffffffffffffffff1660008054906101000a900473ffffffffffffffffffffffffffffffffffffffff1673ffffffffffffffffffffffffffffffffffffffff167fed8889f560326eb138920d842192f0eb3dd22b4f139c87a2c57538e05bae127860405160405180910390a350565b600082825260208201905092915050565b7f43616e6e6f7420736574206f776e657220746f207a65726f0000000000000000600082015250565b6000620003886018836200033f565b9150620003958262000350565b602082019050919050565b60006020820190508181036000830152620003bb8162000379565b9050919050565b7f43616e6e6f74207472616e7366657220746f2073656c66000000000000000000600082015250565b6000620003fa6017836200033f565b91506200040782620003c2565b602082019050919050565b600060208201905081810360008301526200042d81620003eb565b9050919050565b60805161291d62000457600039600081816101b40152610ded015261291d6000f3fe608060405234801561001057600080fd5b50600436106100935760003560e01c806379ba50971161006657806379ba5097146101205780638da5cb5b1461012a578063b1e2174914610148578063d5f226bc14610166578063f2fde38b1461019657610093565b80630ca76175146100985780633944ea3a146100b45780634b0795a8146100d25780634d533ad6146100f0575b600080fd5b6100b260048036038101906100ad9190611868565b6101b2565b005b6100bc610274565b6040516100c99190611972565b60405180910390f35b6100da610302565b6040516100e79190611972565b60405180910390f35b61010a60048036038101906101059190611cb1565b610390565b6040516101179190611de6565b60405180910390f35b61012861046b565b005b610132610600565b60405161013f9190611e42565b60405180910390f35b610150610629565b60405161015d9190611de6565b60405180910390f35b610180600480360381019061017b9190611e5d565b61062f565b60405161018d9190611de6565b60405180910390f35b6101b060048036038101906101ab9190611ef8565b610659565b005b7f000000000000000000000000000000000000000000000000000000000000000073ffffffffffffffffffffffffffffffffffffffff163373ffffffffffffffffffffffffffffffffffffffff1614610237576040517fc6829f8300000000000000000000000000000000000000000000000000000000815260040160405180910390fd5b61024283838361066d565b827f85e1543bf2f84fe80c6badbce3648c8539ad1df4d2b3d822938ca0538be727e660405160405180910390a2505050565b6003805461028190611f54565b80601f01602080910402602001604051908101604052809291908181526020018280546102ad90611f54565b80156102fa5780601f106102cf576101008083540402835291602001916102fa565b820191906000526020600020905b8154815290600101906020018083116102dd57829003601f168201915b505050505081565b6004805461030f90611f54565b80601f016020809104026020016040519081016040528092919081815260200182805461033b90611f54565b80156103885780601f1061035d57610100808354040283529160200191610388565b820191906000526020600020905b81548152906001019060200180831161036b57829003601f168201915b505050505081565b600061039a610712565b6103a261162c565b6103b58a826107a290919063ffffffff16565b6000895111156103d7576103d289826107b390919063ffffffff16565b610401565b60008767ffffffffffffffff161115610400576103ff88888361082c9092919063ffffffff16565b5b5b60008651111561041f5761041e868261093c90919063ffffffff16565b5b60008551111561043d5761043c858261098490919063ffffffff16565b5b610453610449826109cc565b8585600654610de8565b60028190555060025491505098975050505050505050565b600160009054906101000a900473ffffffffffffffffffffffffffffffffffffffff1673ffffffffffffffffffffffffffffffffffffffff163373ffffffffffffffffffffffffffffffffffffffff16146104fb576040517f08c379a00000000000000000000000000000000000000000000000000000000081526004016104f290611fe2565b60405180910390fd5b60008060009054906101000a900473ffffffffffffffffffffffffffffffffffffffff169050336000806101000a81548173ffffffffffffffffffffffffffffffffffffffff021916908373ffffffffffffffffffffffffffffffffffffffff1602179055506000600160006101000a81548173ffffffffffffffffffffffffffffffffffffffff021916908373ffffffffffffffffffffffffffffffffffffffff1602179055503373ffffffffffffffffffffffffffffffffffffffff168173ffffffffffffffffffffffffffffffffffffffff167f8be0079c531659141344cd1fd0a4f28419497f9722a3daafe3b4186f6b6457e060405160405180910390a350565b60008060009054906101000a900473ffffffffffffffffffffffffffffffffffffffff16905090565b60025481565b6000610639610712565b610647848484600654610de8565b60028190555060025490509392505050565b610661610712565b61066a81610ecb565b50565b82600254146106b1576040517f08c379a00000000000000000000000000000000000000000000000000000000081526004016106a89061204e565b60405180910390fd5b81600390816106c09190612224565b5080600490816106d09190612224565b50827f7873807bf6ddc50401cd3d29bbe0decee23fd4d68d273f4b5eb83cded4d2f1726003600460405161070592919061237a565b60405180910390a2505050565b60008054906101000a900473ffffffffffffffffffffffffffffffffffffffff1673ffffffffffffffffffffffffffffffffffffffff163373ffffffffffffffffffffffffffffffffffffffff16146107a0576040517f08c379a0000000000000000000000000000000000000000000000000000000008152600401610797906123fd565b60405180910390fd5b565b6107af8260008084610ff7565b5050565b60008151036107ee576040517fe889636f00000000000000000000000000000000000000000000000000000000815260040160405180910390fd5b6001826020019060028111156108075761080661241d565b5b9081600281111561081b5761081a61241d565b5b815250508082608001819052505050565b60006108396101006110a1565b90506108836040518060400160405280600681526020017f736c6f7449440000000000000000000000000000000000000000000000000000815250826110c890919063ffffffff16565b6108998360ff16826110f190919063ffffffff16565b6108e16040518060400160405280600781526020017f76657273696f6e00000000000000000000000000000000000000000000000000815250826110c890919063ffffffff16565b6108f482826110f190919063ffffffff16565b60028460200190600281111561090d5761090c61241d565b5b908160028111156109215761092061241d565b5b81525050806000015160000151846080018190525050505050565b6000815103610977576040517ffe936cb700000000000000000000000000000000000000000000000000000000815260040160405180910390fd5b808260a001819052505050565b60008151036109bf576040517ffe936cb700000000000000000000000000000000000000000000000000000000815260040160405180910390fd5b808260c001819052505050565b606060006109db6101006110a1565b9050610a256040518060400160405280600c81526020017f636f64654c6f636174696f6e0000000000000000000000000000000000000000815250826110c890919063ffffffff16565b610a4e83600001516002811115610a3f57610a3e61241d565b5b8261110190919063ffffffff16565b610a966040518060400160405280600881526020017f6c616e6775616765000000000000000000000000000000000000000000000000815250826110c890919063ffffffff16565b610abf83604001516000811115610ab057610aaf61241d565b5b8261110190919063ffffffff16565b610b076040518060400160405280600681526020017f736f757263650000000000000000000000000000000000000000000000000000815250826110c890919063ffffffff16565b610b1e8360600151826110c890919063ffffffff16565b60008360a00151511115610bda57610b746040518060400160405280600481526020017f6172677300000000000000000000000000000000000000000000000000000000815250826110c890919063ffffffff16565b610b7d81611151565b60005b8360a0015151811015610bcf57610bbe8460a001518281518110610ba757610ba661244c565b5b6020026020010151836110c890919063ffffffff16565b80610bc8906124aa565b9050610b80565b50610bd981611179565b5b60008360800151511115610d1b5760006002811115610bfc57610bfb61241d565b5b83602001516002811115610c1357610c1261241d565b5b03610c4a576040517fa80d31f700000000000000000000000000000000000000000000000000000000815260040160405180910390fd5b610c926040518060400160405280600f81526020017f736563726574734c6f636174696f6e0000000000000000000000000000000000815250826110c890919063ffffffff16565b610cbb83602001516002811115610cac57610cab61241d565b5b8261110190919063ffffffff16565b610d036040518060400160405280600781526020017f7365637265747300000000000000000000000000000000000000000000000000815250826110c890919063ffffffff16565b610d1a8360800151826111a190919063ffffffff16565b5b60008360c00151511115610dd757610d716040518060400160405280600981526020017f6279746573417267730000000000000000000000000000000000000000000000815250826110c890919063ffffffff16565b610d7a81611151565b60005b8360c0015151811015610dcc57610dbb8460c001518281518110610da457610da361244c565b5b6020026020010151836111a190919063ffffffff16565b80610dc5906124aa565b9050610d7d565b50610dd681611179565b5b806000015160000151915050919050565b6000807f000000000000000000000000000000000000000000000000000000000000000073ffffffffffffffffffffffffffffffffffffffff1663461d27628688600188886040518663ffffffff1660e01b8152600401610e4d95949392919061252d565b6020604051808303816000875af1158015610e6c573d6000803e3d6000fd5b505050506040513d601f19601f82011682018060405250810190610e90919061259c565b9050807f1131472297a800fee664d1d89cfa8f7676ff07189ecc53f80bbb5f4969099db860405160405180910390a280915050949350505050565b3373ffffffffffffffffffffffffffffffffffffffff168173ffffffffffffffffffffffffffffffffffffffff1603610f39576040517f08c379a0000000000000000000000000000000000000000000000000000000008152600401610f3090612615565b60405180910390fd5b80600160006101000a81548173ffffffffffffffffffffffffffffffffffffffff021916908373ffffffffffffffffffffffffffffffffffffffff1602179055508073ffffffffffffffffffffffffffffffffffffffff1660008054906101000a900473ffffffffffffffffffffffffffffffffffffffff1673ffffffffffffffffffffffffffffffffffffffff167fed8889f560326eb138920d842192f0eb3dd22b4f139c87a2c57538e05bae127860405160405180910390a350565b6000815103611032576040517f22ce3edd00000000000000000000000000000000000000000000000000000000815260040160405180910390fd5b828460000190600281111561104a5761104961241d565b5b9081600281111561105e5761105d61241d565b5b81525050818460400190600081111561107a5761107961241d565b5b9081600081111561108e5761108d61241d565b5b8152505080846060018190525050505050565b6110a961169e565b6110b78160000151836111ca565b506000816020018181525050919050565b6110d58260038351611243565b6110ec8183600001516113ec90919063ffffffff16565b505050565b6110fd82600083611243565b5050565b61112360026005600660ff16901b17836000015161140890919063ffffffff16565b5061114d82826040516020016111399190612644565b6040516020818303038152906040526111a1565b5050565b61115c816004611472565b60018160200181815161116f919061265f565b9150818152505050565b611184816007611472565b6001816020018181516111979190612693565b9150818152505050565b6111ae8260028351611243565b6111c58183600001516113ec90919063ffffffff16565b505050565b6111d26116be565b60006020836111e191906126f6565b1461120d576020826111f391906126f6565b60206111ff9190612693565b8261120a919061265f565b91505b81836020018181525050604051808452600081528281016020018181101561123457600080fd5b80604052505082905092915050565b60178167ffffffffffffffff161161127e576112788160058460ff16901b60ff1617846000015161140890919063ffffffff16565b506113e7565b60ff8167ffffffffffffffff16116112dc576112b1601860058460ff16901b17846000015161140890919063ffffffff16565b506112d68167ffffffffffffffff16600185600001516114989092919063ffffffff16565b506113e6565b61ffff8167ffffffffffffffff161161133b57611310601960058460ff16901b17846000015161140890919063ffffffff16565b506113358167ffffffffffffffff16600285600001516114989092919063ffffffff16565b506113e5565b63ffffffff8167ffffffffffffffff161161139c57611371601a60058460ff16901b17846000015161140890919063ffffffff16565b506113968167ffffffffffffffff16600485600001516114989092919063ffffffff16565b506113e4565b6113bd601b60058460ff16901b17846000015161140890919063ffffffff16565b506113e28167ffffffffffffffff16600885600001516114989092919063ffffffff16565b505b5b5b5b505050565b6113f46116be565b61140083838451611525565b905092915050565b6114106116be565b600083600001515190506000600182611429919061265f565b90508460200151821061144d5761144c856002836114479190612727565b611608565b5b84516020838201018581538151831115611465578282525b5050849250505092915050565b611493601f60058360ff16901b17836000015161140890919063ffffffff16565b505050565b6114a06116be565b60008460000151519050600081846114b8919061265f565b905085602001518111156114dd576114dc866002836114d79190612727565b611608565b5b60006001856101006114ef919061289c565b6114f99190612693565b905086518281018783198251161781528151841115611516578382525b50508693505050509392505050565b61152d6116be565b825182111561153b57600080fd5b6000846000015151905060008382611553919061265f565b9050856020015181111561157857611577866002836115729190612727565b611608565b5b60008087518051856020830101935080851115611593578482525b60208901925050505b602086106115da57805182526020826115b5919061265f565b91506020816115c4919061265f565b90506020866115d39190612693565b955061159c565b60006001876020036101000a0390508019825116818451168181178552505050879450505050509392505050565b60008260000151905061161b83836111ca565b5061162683826113ec565b50505050565b6040518060e001604052806000600281111561164b5761164a61241d565b5b8152602001600060028111156116645761166361241d565b5b815260200160008081111561167c5761167b61241d565b5b8152602001606081526020016060815260200160608152602001606081525090565b60405180604001604052806116b16116be565b8152602001600081525090565b604051806040016040528060608152602001600081525090565b6000604051905090565b600080fd5b600080fd5b6000819050919050565b6116ff816116ec565b811461170a57600080fd5b50565b60008135905061171c816116f6565b92915050565b600080fd5b600080fd5b6000601f19601f8301169050919050565b7f4e487b7100000000000000000000000000000000000000000000000000000000600052604160045260246000fd5b6117758261172c565b810181811067ffffffffffffffff821117156117945761179361173d565b5b80604052505050565b60006117a76116d8565b90506117b3828261176c565b919050565b600067ffffffffffffffff8211156117d3576117d261173d565b5b6117dc8261172c565b9050602081019050919050565b82818337600083830152505050565b600061180b611806846117b8565b61179d565b90508281526020810184848401111561182757611826611727565b5b6118328482856117e9565b509392505050565b600082601f83011261184f5761184e611722565b5b813561185f8482602086016117f8565b91505092915050565b600080600060608486031215611881576118806116e2565b5b600061188f8682870161170d565b935050602084013567ffffffffffffffff8111156118b0576118af6116e7565b5b6118bc8682870161183a565b925050604084013567ffffffffffffffff8111156118dd576118dc6116e7565b5b6118e98682870161183a565b9150509250925092565b600081519050919050565b600082825260208201905092915050565b60005b8381101561192d578082015181840152602081019050611912565b60008484015250505050565b6000611944826118f3565b61194e81856118fe565b935061195e81856020860161190f565b6119678161172c565b840191505092915050565b6000602082019050818103600083015261198c8184611939565b905092915050565b600067ffffffffffffffff8211156119af576119ae61173d565b5b6119b88261172c565b9050602081019050919050565b60006119d86119d384611994565b61179d565b9050828152602081018484840111156119f4576119f3611727565b5b6119ff8482856117e9565b509392505050565b600082601f830112611a1c57611a1b611722565b5b8135611a2c8482602086016119c5565b91505092915050565b600060ff82169050919050565b611a4b81611a35565b8114611a5657600080fd5b50565b600081359050611a6881611a42565b92915050565b600067ffffffffffffffff82169050919050565b611a8b81611a6e565b8114611a9657600080fd5b50565b600081359050611aa881611a82565b92915050565b600067ffffffffffffffff821115611ac957611ac861173d565b5b602082029050602081019050919050565b600080fd5b6000611af2611aed84611aae565b61179d565b90508083825260208201905060208402830185811115611b1557611b14611ada565b5b835b81811015611b5c57803567ffffffffffffffff811115611b3a57611b39611722565b5b808601611b478982611a07565b85526020850194505050602081019050611b17565b5050509392505050565b600082601f830112611b7b57611b7a611722565b5b8135611b8b848260208601611adf565b91505092915050565b600067ffffffffffffffff821115611baf57611bae61173d565b5b602082029050602081019050919050565b6000611bd3611bce84611b94565b61179d565b90508083825260208201905060208402830185811115611bf657611bf5611ada565b5b835b81811015611c3d57803567ffffffffffffffff811115611c1b57611c1a611722565b5b808601611c28898261183a565b85526020850194505050602081019050611bf8565b5050509392505050565b600082601f830112611c5c57611c5b611722565b5b8135611c6c848260208601611bc0565b91505092915050565b600063ffffffff82169050919050565b611c8e81611c75565b8114611c9957600080fd5b50565b600081359050611cab81611c85565b92915050565b600080600080600080600080610100898b031215611cd257611cd16116e2565b5b600089013567ffffffffffffffff811115611cf057611cef6116e7565b5b611cfc8b828c01611a07565b985050602089013567ffffffffffffffff811115611d1d57611d1c6116e7565b5b611d298b828c0161183a565b9750506040611d3a8b828c01611a59565b9650506060611d4b8b828c01611a99565b955050608089013567ffffffffffffffff811115611d6c57611d6b6116e7565b5b611d788b828c01611b66565b94505060a089013567ffffffffffffffff811115611d9957611d986116e7565b5b611da58b828c01611c47565b93505060c0611db68b828c01611a99565b92505060e0611dc78b828c01611c9c565b9150509295985092959890939650565b611de0816116ec565b82525050565b6000602082019050611dfb6000830184611dd7565b92915050565b600073ffffffffffffffffffffffffffffffffffffffff82169050919050565b6000611e2c82611e01565b9050919050565b611e3c81611e21565b82525050565b6000602082019050611e576000830184611e33565b92915050565b600080600060608486031215611e7657611e756116e2565b5b600084013567ffffffffffffffff811115611e9457611e936116e7565b5b611ea08682870161183a565b9350506020611eb186828701611a99565b9250506040611ec286828701611c9c565b9150509250925092565b611ed581611e21565b8114611ee057600080fd5b50565b600081359050611ef281611ecc565b92915050565b600060208284031215611f0e57611f0d6116e2565b5b6000611f1c84828501611ee3565b91505092915050565b7f4e487b7100000000000000000000000000000000000000000000000000000000600052602260045260246000fd5b60006002820490506001821680611f6c57607f821691505b602082108103611f7f57611f7e611f25565b5b50919050565b600082825260208201905092915050565b7f4d7573742062652070726f706f736564206f776e657200000000000000000000600082015250565b6000611fcc601683611f85565b9150611fd782611f96565b602082019050919050565b60006020820190508181036000830152611ffb81611fbf565b9050919050565b7f52657175657374204944206d69736d6174636800000000000000000000000000600082015250565b6000612038601383611f85565b915061204382612002565b602082019050919050565b600060208201905081810360008301526120678161202b565b9050919050565b60008190508160005260206000209050919050565b60006020601f8301049050919050565b600082821b905092915050565b6000600883026120d07fffffffffffffffffffffffffffffffffffffffffffffffffffffffffffffffff82612093565b6120da8683612093565b95508019841693508086168417925050509392505050565b6000819050919050565b6000819050919050565b600061212161211c612117846120f2565b6120fc565b6120f2565b9050919050565b6000819050919050565b61213b83612106565b61214f61214782612128565b8484546120a0565b825550505050565b600090565b612164612157565b61216f818484612132565b505050565b5b818110156121935761218860008261215c565b600181019050612175565b5050565b601f8211156121d8576121a98161206e565b6121b284612083565b810160208510156121c1578190505b6121d56121cd85612083565b830182612174565b50505b505050565b600082821c905092915050565b60006121fb600019846008026121dd565b1980831691505092915050565b600061221483836121ea565b9150826002028217905092915050565b61222d826118f3565b67ffffffffffffffff8111156122465761224561173d565b5b6122508254611f54565b61225b828285612197565b600060209050601f83116001811461228e576000841561227c578287015190505b6122868582612208565b8655506122ee565b601f19841661229c8661206e565b60005b828110156122c45784890151825560018201915060208501945060208101905061229f565b868310156122e157848901516122dd601f8916826121ea565b8355505b6001600288020188555050505b505050505050565b6000815461230381611f54565b61230d81866118fe565b94506001821660008114612328576001811461233e57612371565b60ff198316865281151560200286019350612371565b6123478561206e565b60005b838110156123695781548189015260018201915060208101905061234a565b808801955050505b50505092915050565b6000604082019050818103600083015261239481856122f6565b905081810360208301526123a881846122f6565b90509392505050565b7f4f6e6c792063616c6c61626c65206279206f776e657200000000000000000000600082015250565b60006123e7601683611f85565b91506123f2826123b1565b602082019050919050565b60006020820190508181036000830152612416816123da565b9050919050565b7f4e487b7100000000000000000000000000000000000000000000000000000000600052602160045260246000fd5b7f4e487b7100000000000000000000000000000000000000000000000000000000600052603260045260246000fd5b7f4e487b7100000000000000000000000000000000000000000000000000000000600052601160045260246000fd5b60006124b5826120f2565b91507fffffffffffffffffffffffffffffffffffffffffffffffffffffffffffffffff82036124e7576124e661247b565b5b600182019050919050565b6124fb81611a6e565b82525050565b600061ffff82169050919050565b61251881612501565b82525050565b61252781611c75565b82525050565b600060a08201905061254260008301886124f2565b81810360208301526125548187611939565b9050612563604083018661250f565b612570606083018561251e565b61257d6080830184611dd7565b9695505050505050565b600081519050612596816116f6565b92915050565b6000602082840312156125b2576125b16116e2565b5b60006125c084828501612587565b91505092915050565b7f43616e6e6f74207472616e7366657220746f2073656c66000000000000000000600082015250565b60006125ff601783611f85565b915061260a826125c9565b602082019050919050565b6000602082019050818103600083015261262e816125f2565b9050919050565b61263e816120f2565b82525050565b60006020820190506126596000830184612635565b92915050565b600061266a826120f2565b9150612675836120f2565b925082820190508082111561268d5761268c61247b565b5b92915050565b600061269e826120f2565b91506126a9836120f2565b92508282039050818111156126c1576126c061247b565b5b92915050565b7f4e487b7100000000000000000000000000000000000000000000000000000000600052601260045260246000fd5b6000612701826120f2565b915061270c836120f2565b92508261271c5761271b6126c7565b5b828206905092915050565b6000612732826120f2565b915061273d836120f2565b925082820261274b816120f2565b915082820484148315176127625761276161247b565b5b5092915050565b60008160011c9050919050565b6000808291508390505b60018511156127c05780860481111561279c5761279b61247b565b5b60018516156127ab5780820291505b80810290506127b985612769565b9450612780565b94509492505050565b6000826127d95760019050612895565b816127e75760009050612895565b81600181146127fd576002811461280757612836565b6001915050612895565b60ff8411156128195761281861247b565b5b8360020a9150848211156128305761282f61247b565b5b50612895565b5060208310610133831016604e8410600b841016171561286b5782820a9050838111156128665761286561247b565b5b612895565b6128788484846001612776565b9250905081840481111561288f5761288e61247b565b5b81810290505b9392505050565b60006128a7826120f2565b91506128b2836120f2565b92506128df7fffffffffffffffffffffffffffffffffffffffffffffffffffffffffffffffff84846127c9565b90509291505056fea264697066735822122026e07c4603dd8639ef0c706180e3692e8f9a21a1075c3cb9526894237ce2855c64736f6c63430008150033",
  "linkReferences": {},
  "deployedLinkReferences": {}
}