{
  "_format": "hh-sol-artifact-1",
  "contractName": "Multicall",
  "sourceName": "@thirdweb-dev/contracts/extension/Multicall.sol",
  "abi": [
    {
      "inputs": [
        {
          "internalType": "bytes[]",
          "name": "data",
          "type": "bytes[]"
        }
      ],
      "name": "multicall",
      "outputs": [
        {
          "internalType": "bytes[]",
          "name": "results",
          "type": "bytes[]"
        }
      ],
      "stateMutability": "nonpayable",
      "type": "function"
    }
  ],
  "bytecode": "0x608060405234801561001057600080fd5b506105b1806100206000396000f3fe608060405234801561001057600080fd5b506004361061002b5760003560e01c8063ac9650d814610030575b600080fd5b61004361003e366004610337565b610059565b60405161005091906103fc565b60405180910390f35b60608167ffffffffffffffff8111156100745761007461045e565b6040519080825280602002602001820160405280156100a757816020015b60608152602001906001900390816100925790505b509050336000805b848110156101c057811561012e5761010c308787848181106100d3576100d3610474565b90506020028101906100e5919061048a565b866040516020016100f8939291906104d8565b6040516020818303038152906040526101c9565b84828151811061011e5761011e610474565b60200260200101819052506101ae565b6101903087878481811061014457610144610474565b9050602002810190610156919061048a565b8080601f0160208091040260200160405190810160405280939291908181526020018383808284376000920191909152506101c992505050565b8482815181106101a2576101a2610474565b60200260200101819052505b806101b8816104fe565b9150506100af565b50505092915050565b60606101ee8383604051806060016040528060278152602001610555602791396101f5565b9392505050565b60606000808573ffffffffffffffffffffffffffffffffffffffff168560405161021f9190610525565b600060405180830381855af49150503d806000811461025a576040519150601f19603f3d011682016040523d82523d6000602084013e61025f565b606091505b50915091506102708683838761027a565b9695505050505050565b606083156102fb5782516000036102f45773ffffffffffffffffffffffffffffffffffffffff85163b6102f45760405162461bcd60e51b815260206004820152601d60248201527f416464726573733a2063616c6c20746f206e6f6e2d636f6e747261637400000060448201526064015b60405180910390fd5b5081610305565b610305838361030d565b949350505050565b81511561031d5781518083602001fd5b8060405162461bcd60e51b81526004016102eb9190610541565b6000806020838503121561034a57600080fd5b823567ffffffffffffffff8082111561036257600080fd5b818501915085601f83011261037657600080fd5b81358181111561038557600080fd5b8660208260051b850101111561039a57600080fd5b60209290920196919550909350505050565b60005b838110156103c75781810151838201526020016103af565b50506000910152565b600081518084526103e88160208601602086016103ac565b601f01601f19169290920160200192915050565b6000602080830181845280855180835260408601915060408160051b870101925083870160005b8281101561045157603f1988860301845261043f8583516103d0565b94509285019290850190600101610423565b5092979650505050505050565b634e487b7160e01b600052604160045260246000fd5b634e487b7160e01b600052603260045260246000fd5b6000808335601e198436030181126104a157600080fd5b83018035915067ffffffffffffffff8211156104bc57600080fd5b6020019150368190038213156104d157600080fd5b9250929050565b8284823760609190911b6bffffffffffffffffffffffff19169101908152601401919050565b60006001820161051e57634e487b7160e01b600052601160045260246000fd5b5060010190565b600082516105378184602087016103ac565b9190910192915050565b6020815260006101ee60208301846103d056fe416464726573733a206c6f772d6c6576656c2064656c65676174652063616c6c206661696c6564a264697066735822122099d85525f85aea2712ac6e1fa65e18c378272238ff156b15ca20699a412f8ca064736f6c63430008150033",
  "linkReferences": {},
  "deployedLinkReferences": {}
}